{
	"contract/fundme.sol": {
		"FundMe": {
			"abi": [
				{
					"inputs": [],
					"stateMutability": "nonpayable",
					"type": "constructor"
				},
				{
					"inputs": [
						{
							"internalType": "address",
							"name": "",
							"type": "address"
						}
					],
					"name": "addressToAmountFunded",
					"outputs": [
						{
							"internalType": "uint256",
							"name": "",
							"type": "uint256"
						}
					],
					"stateMutability": "view",
					"type": "function"
				},
				{
					"inputs": [],
					"name": "fund",
					"outputs": [],
					"stateMutability": "payable",
					"type": "function"
				},
				{
					"inputs": [],
					"name": "owner",
					"outputs": [
						{
							"internalType": "address",
							"name": "",
							"type": "address"
						}
					],
					"stateMutability": "view",
					"type": "function"
				}
			],
			"devdoc": {
				"kind": "dev",
				"methods": {},
				"version": 1
			},
			"evm": {
				"assembly": "    /* \"contract/fundme.sol\":58:375  contract FundMe {... */\n  mstore(0x40, 0x80)\n    /* \"contract/fundme.sol\":170:219  constructor() {... */\n  callvalue\n  dup1\n  iszero\n  tag_1\n  jumpi\n  revert(0x00, 0x00)\ntag_1:\n  pop\n    /* \"contract/fundme.sol\":202:212  msg.sender */\n  caller\n    /* \"contract/fundme.sol\":194:199  owner */\n  0x01\n  0x00\n    /* \"contract/fundme.sol\":194:212  owner = msg.sender */\n  0x0100\n  exp\n  dup2\n  sload\n  dup2\n  0xffffffffffffffffffffffffffffffffffffffff\n  mul\n  not\n  and\n  swap1\n  dup4\n  0xffffffffffffffffffffffffffffffffffffffff\n  and\n  mul\n  or\n  swap1\n  sstore\n  pop\n    /* \"contract/fundme.sol\":58:375  contract FundMe {... */\n  dataSize(sub_0)\n  dup1\n  dataOffset(sub_0)\n  0x00\n  codecopy\n  0x00\n  return\nstop\n\nsub_0: assembly {\n        /* \"contract/fundme.sol\":58:375  contract FundMe {... */\n      mstore(0x40, 0x80)\n      jumpi(tag_1, lt(calldatasize, 0x04))\n      shr(0xe0, calldataload(0x00))\n      dup1\n      0x3e47d6f3\n      eq\n      tag_2\n      jumpi\n      dup1\n      0x8da5cb5b\n      eq\n      tag_3\n      jumpi\n      dup1\n      0xb60d4288\n      eq\n      tag_4\n      jumpi\n    tag_1:\n      revert(0x00, 0x00)\n        /* \"contract/fundme.sol\":81:137  mapping(address => uint256) public addressToAmountFunded */\n    tag_2:\n      callvalue\n      dup1\n      iszero\n      tag_5\n      jumpi\n      revert(0x00, 0x00)\n    tag_5:\n      pop\n      tag_6\n      0x04\n      dup1\n      calldatasize\n      sub\n      dup2\n      add\n      swap1\n      tag_7\n      swap2\n      swap1\n      tag_8\n      jump\t// in\n    tag_7:\n      tag_9\n      jump\t// in\n    tag_6:\n      mload(0x40)\n      tag_10\n      swap2\n      swap1\n      tag_11\n      jump\t// in\n    tag_10:\n      mload(0x40)\n      dup1\n      swap2\n      sub\n      swap1\n      return\n        /* \"contract/fundme.sol\":143:163  address public owner */\n    tag_3:\n      callvalue\n      dup1\n      iszero\n      tag_12\n      jumpi\n      revert(0x00, 0x00)\n    tag_12:\n      pop\n      tag_13\n      tag_14\n      jump\t// in\n    tag_13:\n      mload(0x40)\n      tag_15\n      swap2\n      swap1\n      tag_16\n      jump\t// in\n    tag_15:\n      mload(0x40)\n      dup1\n      swap2\n      sub\n      swap1\n      return\n        /* \"contract/fundme.sol\":225:368  function fund() public payable {... */\n    tag_4:\n      tag_17\n      tag_18\n      jump\t// in\n    tag_17:\n      stop\n        /* \"contract/fundme.sol\":81:137  mapping(address => uint256) public addressToAmountFunded */\n    tag_9:\n      mstore(0x20, 0x00)\n      dup1\n      0x00\n      mstore\n      keccak256(0x00, 0x40)\n      0x00\n      swap2\n      pop\n      swap1\n      pop\n      sload\n      dup2\n      jump\t// out\n        /* \"contract/fundme.sol\":143:163  address public owner */\n    tag_14:\n      0x01\n      0x00\n      swap1\n      sload\n      swap1\n      0x0100\n      exp\n      swap1\n      div\n      0xffffffffffffffffffffffffffffffffffffffff\n      and\n      dup2\n      jump\t// out\n        /* \"contract/fundme.sol\":225:368  function fund() public payable {... */\n    tag_18:\n        /* \"contract/fundme.sol\":286:287  0 */\n      0x00\n        /* \"contract/fundme.sol\":274:283  msg.value */\n      callvalue\n        /* \"contract/fundme.sol\":274:287  msg.value > 0 */\n      gt\n        /* \"contract/fundme.sol\":266:305  require(msg.value > 0, \"Send some ETH\") */\n      tag_20\n      jumpi\n      mload(0x40)\n      0x08c379a000000000000000000000000000000000000000000000000000000000\n      dup2\n      mstore\n      0x04\n      add\n      tag_21\n      swap1\n      tag_22\n      jump\t// in\n    tag_21:\n      mload(0x40)\n      dup1\n      swap2\n      sub\n      swap1\n      revert\n    tag_20:\n        /* \"contract/fundme.sol\":352:361  msg.value */\n      callvalue\n        /* \"contract/fundme.sol\":315:336  addressToAmountFunded */\n      0x00\n        /* \"contract/fundme.sol\":315:348  addressToAmountFunded[msg.sender] */\n      0x00\n        /* \"contract/fundme.sol\":337:347  msg.sender */\n      caller\n        /* \"contract/fundme.sol\":315:348  addressToAmountFunded[msg.sender] */\n      0xffffffffffffffffffffffffffffffffffffffff\n      and\n      0xffffffffffffffffffffffffffffffffffffffff\n      and\n      dup2\n      mstore\n      0x20\n      add\n      swap1\n      dup2\n      mstore\n      0x20\n      add\n      0x00\n      keccak256\n      0x00\n        /* \"contract/fundme.sol\":315:361  addressToAmountFunded[msg.sender] += msg.value */\n      dup3\n      dup3\n      sload\n      tag_23\n      swap2\n      swap1\n      tag_24\n      jump\t// in\n    tag_23:\n      swap3\n      pop\n      pop\n      dup2\n      swap1\n      sstore\n      pop\n        /* \"contract/fundme.sol\":225:368  function fund() public payable {... */\n      jump\t// out\n        /* \"#utility.yul\":88:205   */\n    tag_26:\n        /* \"#utility.yul\":197:198   */\n      0x00\n        /* \"#utility.yul\":194:195   */\n      0x00\n        /* \"#utility.yul\":187:199   */\n      revert\n        /* \"#utility.yul\":334:460   */\n    tag_28:\n        /* \"#utility.yul\":371:378   */\n      0x00\n        /* \"#utility.yul\":411:453   */\n      0xffffffffffffffffffffffffffffffffffffffff\n        /* \"#utility.yul\":404:409   */\n      dup3\n        /* \"#utility.yul\":400:454   */\n      and\n        /* \"#utility.yul\":389:454   */\n      swap1\n      pop\n        /* \"#utility.yul\":334:460   */\n      swap2\n      swap1\n      pop\n      jump\t// out\n        /* \"#utility.yul\":466:562   */\n    tag_29:\n        /* \"#utility.yul\":503:510   */\n      0x00\n        /* \"#utility.yul\":532:556   */\n      tag_45\n        /* \"#utility.yul\":550:555   */\n      dup3\n        /* \"#utility.yul\":532:556   */\n      tag_28\n      jump\t// in\n    tag_45:\n        /* \"#utility.yul\":521:556   */\n      swap1\n      pop\n        /* \"#utility.yul\":466:562   */\n      swap2\n      swap1\n      pop\n      jump\t// out\n        /* \"#utility.yul\":568:690   */\n    tag_30:\n        /* \"#utility.yul\":641:665   */\n      tag_47\n        /* \"#utility.yul\":659:664   */\n      dup2\n        /* \"#utility.yul\":641:665   */\n      tag_29\n      jump\t// in\n    tag_47:\n        /* \"#utility.yul\":634:639   */\n      dup2\n        /* \"#utility.yul\":631:666   */\n      eq\n        /* \"#utility.yul\":621:684   */\n      tag_48\n      jumpi\n        /* \"#utility.yul\":680:681   */\n      0x00\n        /* \"#utility.yul\":677:678   */\n      0x00\n        /* \"#utility.yul\":670:682   */\n      revert\n        /* \"#utility.yul\":621:684   */\n    tag_48:\n        /* \"#utility.yul\":568:690   */\n      pop\n      jump\t// out\n        /* \"#utility.yul\":696:835   */\n    tag_31:\n        /* \"#utility.yul\":742:747   */\n      0x00\n        /* \"#utility.yul\":780:786   */\n      dup2\n        /* \"#utility.yul\":767:787   */\n      calldataload\n        /* \"#utility.yul\":758:787   */\n      swap1\n      pop\n        /* \"#utility.yul\":796:829   */\n      tag_50\n        /* \"#utility.yul\":823:828   */\n      dup2\n        /* \"#utility.yul\":796:829   */\n      tag_30\n      jump\t// in\n    tag_50:\n        /* \"#utility.yul\":696:835   */\n      swap3\n      swap2\n      pop\n      pop\n      jump\t// out\n        /* \"#utility.yul\":841:1170   */\n    tag_8:\n        /* \"#utility.yul\":900:906   */\n      0x00\n        /* \"#utility.yul\":949:951   */\n      0x20\n        /* \"#utility.yul\":937:946   */\n      dup3\n        /* \"#utility.yul\":928:935   */\n      dup5\n        /* \"#utility.yul\":924:947   */\n      sub\n        /* \"#utility.yul\":920:952   */\n      slt\n        /* \"#utility.yul\":917:1036   */\n      iszero\n      tag_52\n      jumpi\n        /* \"#utility.yul\":955:1034   */\n      tag_53\n      tag_26\n      jump\t// in\n    tag_53:\n        /* \"#utility.yul\":917:1036   */\n    tag_52:\n        /* \"#utility.yul\":1075:1076   */\n      0x00\n        /* \"#utility.yul\":1100:1153   */\n      tag_54\n        /* \"#utility.yul\":1145:1152   */\n      dup5\n        /* \"#utility.yul\":1136:1142   */\n      dup3\n        /* \"#utility.yul\":1125:1134   */\n      dup6\n        /* \"#utility.yul\":1121:1143   */\n      add\n        /* \"#utility.yul\":1100:1153   */\n      tag_31\n      jump\t// in\n    tag_54:\n        /* \"#utility.yul\":1090:1153   */\n      swap2\n      pop\n        /* \"#utility.yul\":1046:1163   */\n      pop\n        /* \"#utility.yul\":841:1170   */\n      swap3\n      swap2\n      pop\n      pop\n      jump\t// out\n        /* \"#utility.yul\":1176:1253   */\n    tag_32:\n        /* \"#utility.yul\":1213:1220   */\n      0x00\n        /* \"#utility.yul\":1242:1247   */\n      dup2\n        /* \"#utility.yul\":1231:1247   */\n      swap1\n      pop\n        /* \"#utility.yul\":1176:1253   */\n      swap2\n      swap1\n      pop\n      jump\t// out\n        /* \"#utility.yul\":1259:1377   */\n    tag_33:\n        /* \"#utility.yul\":1346:1370   */\n      tag_57\n        /* \"#utility.yul\":1364:1369   */\n      dup2\n        /* \"#utility.yul\":1346:1370   */\n      tag_32\n      jump\t// in\n    tag_57:\n        /* \"#utility.yul\":1341:1344   */\n      dup3\n        /* \"#utility.yul\":1334:1371   */\n      mstore\n        /* \"#utility.yul\":1259:1377   */\n      pop\n      pop\n      jump\t// out\n        /* \"#utility.yul\":1383:1605   */\n    tag_11:\n        /* \"#utility.yul\":1476:1480   */\n      0x00\n        /* \"#utility.yul\":1514:1516   */\n      0x20\n        /* \"#utility.yul\":1503:1512   */\n      dup3\n        /* \"#utility.yul\":1499:1517   */\n      add\n        /* \"#utility.yul\":1491:1517   */\n      swap1\n      pop\n        /* \"#utility.yul\":1527:1598   */\n      tag_59\n        /* \"#utility.yul\":1595:1596   */\n      0x00\n        /* \"#utility.yul\":1584:1593   */\n      dup4\n        /* \"#utility.yul\":1580:1597   */\n      add\n        /* \"#utility.yul\":1571:1577   */\n      dup5\n        /* \"#utility.yul\":1527:1598   */\n      tag_33\n      jump\t// in\n    tag_59:\n        /* \"#utility.yul\":1383:1605   */\n      swap3\n      swap2\n      pop\n      pop\n      jump\t// out\n        /* \"#utility.yul\":1611:1729   */\n    tag_34:\n        /* \"#utility.yul\":1698:1722   */\n      tag_61\n        /* \"#utility.yul\":1716:1721   */\n      dup2\n        /* \"#utility.yul\":1698:1722   */\n      tag_29\n      jump\t// in\n    tag_61:\n        /* \"#utility.yul\":1693:1696   */\n      dup3\n        /* \"#utility.yul\":1686:1723   */\n      mstore\n        /* \"#utility.yul\":1611:1729   */\n      pop\n      pop\n      jump\t// out\n        /* \"#utility.yul\":1735:1957   */\n    tag_16:\n        /* \"#utility.yul\":1828:1832   */\n      0x00\n        /* \"#utility.yul\":1866:1868   */\n      0x20\n        /* \"#utility.yul\":1855:1864   */\n      dup3\n        /* \"#utility.yul\":1851:1869   */\n      add\n        /* \"#utility.yul\":1843:1869   */\n      swap1\n      pop\n        /* \"#utility.yul\":1879:1950   */\n      tag_63\n        /* \"#utility.yul\":1947:1948   */\n      0x00\n        /* \"#utility.yul\":1936:1945   */\n      dup4\n        /* \"#utility.yul\":1932:1949   */\n      add\n        /* \"#utility.yul\":1923:1929   */\n      dup5\n        /* \"#utility.yul\":1879:1950   */\n      tag_34\n      jump\t// in\n    tag_63:\n        /* \"#utility.yul\":1735:1957   */\n      swap3\n      swap2\n      pop\n      pop\n      jump\t// out\n        /* \"#utility.yul\":1963:2132   */\n    tag_35:\n        /* \"#utility.yul\":2047:2058   */\n      0x00\n        /* \"#utility.yul\":2081:2087   */\n      dup3\n        /* \"#utility.yul\":2076:2079   */\n      dup3\n        /* \"#utility.yul\":2069:2088   */\n      mstore\n        /* \"#utility.yul\":2121:2125   */\n      0x20\n        /* \"#utility.yul\":2116:2119   */\n      dup3\n        /* \"#utility.yul\":2112:2126   */\n      add\n        /* \"#utility.yul\":2097:2126   */\n      swap1\n      pop\n        /* \"#utility.yul\":1963:2132   */\n      swap3\n      swap2\n      pop\n      pop\n      jump\t// out\n        /* \"#utility.yul\":2138:2301   */\n    tag_36:\n        /* \"#utility.yul\":2278:2293   */\n      0x53656e6420736f6d652045544800000000000000000000000000000000000000\n        /* \"#utility.yul\":2274:2275   */\n      0x00\n        /* \"#utility.yul\":2266:2272   */\n      dup3\n        /* \"#utility.yul\":2262:2276   */\n      add\n        /* \"#utility.yul\":2255:2294   */\n      mstore\n        /* \"#utility.yul\":2138:2301   */\n      pop\n      jump\t// out\n        /* \"#utility.yul\":2307:2673   */\n    tag_37:\n        /* \"#utility.yul\":2449:2452   */\n      0x00\n        /* \"#utility.yul\":2470:2537   */\n      tag_67\n        /* \"#utility.yul\":2534:2536   */\n      0x0d\n        /* \"#utility.yul\":2529:2532   */\n      dup4\n        /* \"#utility.yul\":2470:2537   */\n      tag_35\n      jump\t// in\n    tag_67:\n        /* \"#utility.yul\":2463:2537   */\n      swap2\n      pop\n        /* \"#utility.yul\":2546:2639   */\n      tag_68\n        /* \"#utility.yul\":2635:2638   */\n      dup3\n        /* \"#utility.yul\":2546:2639   */\n      tag_36\n      jump\t// in\n    tag_68:\n        /* \"#utility.yul\":2664:2666   */\n      0x20\n        /* \"#utility.yul\":2659:2662   */\n      dup3\n        /* \"#utility.yul\":2655:2667   */\n      add\n        /* \"#utility.yul\":2648:2667   */\n      swap1\n      pop\n        /* \"#utility.yul\":2307:2673   */\n      swap2\n      swap1\n      pop\n      jump\t// out\n        /* \"#utility.yul\":2679:3098   */\n    tag_22:\n        /* \"#utility.yul\":2845:2849   */\n      0x00\n        /* \"#utility.yul\":2883:2885   */\n      0x20\n        /* \"#utility.yul\":2872:2881   */\n      dup3\n        /* \"#utility.yul\":2868:2886   */\n      add\n        /* \"#utility.yul\":2860:2886   */\n      swap1\n      pop\n        /* \"#utility.yul\":2932:2941   */\n      dup2\n        /* \"#utility.yul\":2926:2930   */\n      dup2\n        /* \"#utility.yul\":2922:2942   */\n      sub\n        /* \"#utility.yul\":2918:2919   */\n      0x00\n        /* \"#utility.yul\":2907:2916   */\n      dup4\n        /* \"#utility.yul\":2903:2920   */\n      add\n        /* \"#utility.yul\":2896:2943   */\n      mstore\n        /* \"#utility.yul\":2960:3091   */\n      tag_70\n        /* \"#utility.yul\":3086:3090   */\n      dup2\n        /* \"#utility.yul\":2960:3091   */\n      tag_37\n      jump\t// in\n    tag_70:\n        /* \"#utility.yul\":2952:3091   */\n      swap1\n      pop\n        /* \"#utility.yul\":2679:3098   */\n      swap2\n      swap1\n      pop\n      jump\t// out\n        /* \"#utility.yul\":3104:3284   */\n    tag_38:\n        /* \"#utility.yul\":3152:3229   */\n      0x4e487b7100000000000000000000000000000000000000000000000000000000\n        /* \"#utility.yul\":3149:3150   */\n      0x00\n        /* \"#utility.yul\":3142:3230   */\n      mstore\n        /* \"#utility.yul\":3249:3253   */\n      0x11\n        /* \"#utility.yul\":3246:3247   */\n      0x04\n        /* \"#utility.yul\":3239:3254   */\n      mstore\n        /* \"#utility.yul\":3273:3277   */\n      0x24\n        /* \"#utility.yul\":3270:3271   */\n      0x00\n        /* \"#utility.yul\":3263:3278   */\n      revert\n        /* \"#utility.yul\":3290:3481   */\n    tag_24:\n        /* \"#utility.yul\":3330:3333   */\n      0x00\n        /* \"#utility.yul\":3349:3369   */\n      tag_73\n        /* \"#utility.yul\":3367:3368   */\n      dup3\n        /* \"#utility.yul\":3349:3369   */\n      tag_32\n      jump\t// in\n    tag_73:\n        /* \"#utility.yul\":3344:3369   */\n      swap2\n      pop\n        /* \"#utility.yul\":3383:3403   */\n      tag_74\n        /* \"#utility.yul\":3401:3402   */\n      dup4\n        /* \"#utility.yul\":3383:3403   */\n      tag_32\n      jump\t// in\n    tag_74:\n        /* \"#utility.yul\":3378:3403   */\n      swap3\n      pop\n        /* \"#utility.yul\":3426:3427   */\n      dup3\n        /* \"#utility.yul\":3423:3424   */\n      dup3\n        /* \"#utility.yul\":3419:3428   */\n      add\n        /* \"#utility.yul\":3412:3428   */\n      swap1\n      pop\n        /* \"#utility.yul\":3447:3450   */\n      dup1\n        /* \"#utility.yul\":3444:3445   */\n      dup3\n        /* \"#utility.yul\":3441:3451   */\n      gt\n        /* \"#utility.yul\":3438:3474   */\n      iszero\n      tag_75\n      jumpi\n        /* \"#utility.yul\":3454:3472   */\n      tag_76\n      tag_38\n      jump\t// in\n    tag_76:\n        /* \"#utility.yul\":3438:3474   */\n    tag_75:\n        /* \"#utility.yul\":3290:3481   */\n      swap3\n      swap2\n      pop\n      pop\n      jump\t// out\n\n    auxdata: 0xa264697066735822122000bcf3a67df4aed971c15522e91f432a7a75abed7c067a0cf6b3b1259e412fda64736f6c634300081f0033\n}\n",
				"bytecode": {
					"linkReferences": {},
					"object": "6080604052348015600e575f5ffd5b503360015f6101000a81548173ffffffffffffffffffffffffffffffffffffffff021916908373ffffffffffffffffffffffffffffffffffffffff1602179055506103668061005c5f395ff3fe608060405260043610610033575f3560e01c80633e47d6f3146100375780638da5cb5b14610073578063b60d42881461009d575b5f5ffd5b348015610042575f5ffd5b5061005d600480360381019061005891906101d4565b6100a7565b60405161006a9190610217565b60405180910390f35b34801561007e575f5ffd5b506100876100bb565b604051610094919061023f565b60405180910390f35b6100a56100e0565b005b5f602052805f5260405f205f915090505481565b60015f9054906101000a900473ffffffffffffffffffffffffffffffffffffffff1681565b5f3411610122576040517f08c379a0000000000000000000000000000000000000000000000000000000008152600401610119906102b2565b60405180910390fd5b345f5f3373ffffffffffffffffffffffffffffffffffffffff1673ffffffffffffffffffffffffffffffffffffffff1681526020019081526020015f205f82825461016d91906102fd565b92505081905550565b5f5ffd5b5f73ffffffffffffffffffffffffffffffffffffffff82169050919050565b5f6101a38261017a565b9050919050565b6101b381610199565b81146101bd575f5ffd5b50565b5f813590506101ce816101aa565b92915050565b5f602082840312156101e9576101e8610176565b5b5f6101f6848285016101c0565b91505092915050565b5f819050919050565b610211816101ff565b82525050565b5f60208201905061022a5f830184610208565b92915050565b61023981610199565b82525050565b5f6020820190506102525f830184610230565b92915050565b5f82825260208201905092915050565b7f53656e6420736f6d6520455448000000000000000000000000000000000000005f82015250565b5f61029c600d83610258565b91506102a782610268565b602082019050919050565b5f6020820190508181035f8301526102c981610290565b9050919050565b7f4e487b71000000000000000000000000000000000000000000000000000000005f52601160045260245ffd5b5f610307826101ff565b9150610312836101ff565b925082820190508082111561032a576103296102d0565b5b9291505056fea264697066735822122000bcf3a67df4aed971c15522e91f432a7a75abed7c067a0cf6b3b1259e412fda64736f6c634300081f0033",
					"opcodes": "PUSH1 0x80 PUSH1 0x40 MSTORE CALLVALUE DUP1 ISZERO PUSH1 0xE JUMPI PUSH0 PUSH0 REVERT JUMPDEST POP CALLER PUSH1 0x1 PUSH0 PUSH2 0x100 EXP DUP2 SLOAD DUP2 PUSH20 0xFFFFFFFFFFFFFFFFFFFFFFFFFFFFFFFFFFFFFFFF MUL NOT AND SWAP1 DUP4 PUSH20 0xFFFFFFFFFFFFFFFFFFFFFFFFFFFFFFFFFFFFFFFF AND MUL OR SWAP1 SSTORE POP PUSH2 0x366 DUP1 PUSH2 0x5C PUSH0 CODECOPY PUSH0 RETURN INVALID PUSH1 0x80 PUSH1 0x40 MSTORE PUSH1 0x4 CALLDATASIZE LT PUSH2 0x33 JUMPI PUSH0 CALLDATALOAD PUSH1 0xE0 SHR DUP1 PUSH4 0x3E47D6F3 EQ PUSH2 0x37 JUMPI DUP1 PUSH4 0x8DA5CB5B EQ PUSH2 0x73 JUMPI DUP1 PUSH4 0xB60D4288 EQ PUSH2 0x9D JUMPI JUMPDEST PUSH0 PUSH0 REVERT JUMPDEST CALLVALUE DUP1 ISZERO PUSH2 0x42 JUMPI PUSH0 PUSH0 REVERT JUMPDEST POP PUSH2 0x5D PUSH1 0x4 DUP1 CALLDATASIZE SUB DUP2 ADD SWAP1 PUSH2 0x58 SWAP2 SWAP1 PUSH2 0x1D4 JUMP JUMPDEST PUSH2 0xA7 JUMP JUMPDEST PUSH1 0x40 MLOAD PUSH2 0x6A SWAP2 SWAP1 PUSH2 0x217 JUMP JUMPDEST PUSH1 0x40 MLOAD DUP1 SWAP2 SUB SWAP1 RETURN JUMPDEST CALLVALUE DUP1 ISZERO PUSH2 0x7E JUMPI PUSH0 PUSH0 REVERT JUMPDEST POP PUSH2 0x87 PUSH2 0xBB JUMP JUMPDEST PUSH1 0x40 MLOAD PUSH2 0x94 SWAP2 SWAP1 PUSH2 0x23F JUMP JUMPDEST PUSH1 0x40 MLOAD DUP1 SWAP2 SUB SWAP1 RETURN JUMPDEST PUSH2 0xA5 PUSH2 0xE0 JUMP JUMPDEST STOP JUMPDEST PUSH0 PUSH1 0x20 MSTORE DUP1 PUSH0 MSTORE PUSH1 0x40 PUSH0 KECCAK256 PUSH0 SWAP2 POP SWAP1 POP SLOAD DUP2 JUMP JUMPDEST PUSH1 0x1 PUSH0 SWAP1 SLOAD SWAP1 PUSH2 0x100 EXP SWAP1 DIV PUSH20 0xFFFFFFFFFFFFFFFFFFFFFFFFFFFFFFFFFFFFFFFF AND DUP2 JUMP JUMPDEST PUSH0 CALLVALUE GT PUSH2 0x122 JUMPI PUSH1 0x40 MLOAD PUSH32 0x8C379A000000000000000000000000000000000000000000000000000000000 DUP2 MSTORE PUSH1 0x4 ADD PUSH2 0x119 SWAP1 PUSH2 0x2B2 JUMP JUMPDEST PUSH1 0x40 MLOAD DUP1 SWAP2 SUB SWAP1 REVERT JUMPDEST CALLVALUE PUSH0 PUSH0 CALLER PUSH20 0xFFFFFFFFFFFFFFFFFFFFFFFFFFFFFFFFFFFFFFFF AND PUSH20 0xFFFFFFFFFFFFFFFFFFFFFFFFFFFFFFFFFFFFFFFF AND DUP2 MSTORE PUSH1 0x20 ADD SWAP1 DUP2 MSTORE PUSH1 0x20 ADD PUSH0 KECCAK256 PUSH0 DUP3 DUP3 SLOAD PUSH2 0x16D SWAP2 SWAP1 PUSH2 0x2FD JUMP JUMPDEST SWAP3 POP POP DUP2 SWAP1 SSTORE POP JUMP JUMPDEST PUSH0 PUSH0 REVERT JUMPDEST PUSH0 PUSH20 0xFFFFFFFFFFFFFFFFFFFFFFFFFFFFFFFFFFFFFFFF DUP3 AND SWAP1 POP SWAP2 SWAP1 POP JUMP JUMPDEST PUSH0 PUSH2 0x1A3 DUP3 PUSH2 0x17A JUMP JUMPDEST SWAP1 POP SWAP2 SWAP1 POP JUMP JUMPDEST PUSH2 0x1B3 DUP2 PUSH2 0x199 JUMP JUMPDEST DUP2 EQ PUSH2 0x1BD JUMPI PUSH0 PUSH0 REVERT JUMPDEST POP JUMP JUMPDEST PUSH0 DUP2 CALLDATALOAD SWAP1 POP PUSH2 0x1CE DUP2 PUSH2 0x1AA JUMP JUMPDEST SWAP3 SWAP2 POP POP JUMP JUMPDEST PUSH0 PUSH1 0x20 DUP3 DUP5 SUB SLT ISZERO PUSH2 0x1E9 JUMPI PUSH2 0x1E8 PUSH2 0x176 JUMP JUMPDEST JUMPDEST PUSH0 PUSH2 0x1F6 DUP5 DUP3 DUP6 ADD PUSH2 0x1C0 JUMP JUMPDEST SWAP2 POP POP SWAP3 SWAP2 POP POP JUMP JUMPDEST PUSH0 DUP2 SWAP1 POP SWAP2 SWAP1 POP JUMP JUMPDEST PUSH2 0x211 DUP2 PUSH2 0x1FF JUMP JUMPDEST DUP3 MSTORE POP POP JUMP JUMPDEST PUSH0 PUSH1 0x20 DUP3 ADD SWAP1 POP PUSH2 0x22A PUSH0 DUP4 ADD DUP5 PUSH2 0x208 JUMP JUMPDEST SWAP3 SWAP2 POP POP JUMP JUMPDEST PUSH2 0x239 DUP2 PUSH2 0x199 JUMP JUMPDEST DUP3 MSTORE POP POP JUMP JUMPDEST PUSH0 PUSH1 0x20 DUP3 ADD SWAP1 POP PUSH2 0x252 PUSH0 DUP4 ADD DUP5 PUSH2 0x230 JUMP JUMPDEST SWAP3 SWAP2 POP POP JUMP JUMPDEST PUSH0 DUP3 DUP3 MSTORE PUSH1 0x20 DUP3 ADD SWAP1 POP SWAP3 SWAP2 POP POP JUMP JUMPDEST PUSH32 0x53656E6420736F6D652045544800000000000000000000000000000000000000 PUSH0 DUP3 ADD MSTORE POP JUMP JUMPDEST PUSH0 PUSH2 0x29C PUSH1 0xD DUP4 PUSH2 0x258 JUMP JUMPDEST SWAP2 POP PUSH2 0x2A7 DUP3 PUSH2 0x268 JUMP JUMPDEST PUSH1 0x20 DUP3 ADD SWAP1 POP SWAP2 SWAP1 POP JUMP JUMPDEST PUSH0 PUSH1 0x20 DUP3 ADD SWAP1 POP DUP2 DUP2 SUB PUSH0 DUP4 ADD MSTORE PUSH2 0x2C9 DUP2 PUSH2 0x290 JUMP JUMPDEST SWAP1 POP SWAP2 SWAP1 POP JUMP JUMPDEST PUSH32 0x4E487B7100000000000000000000000000000000000000000000000000000000 PUSH0 MSTORE PUSH1 0x11 PUSH1 0x4 MSTORE PUSH1 0x24 PUSH0 REVERT JUMPDEST PUSH0 PUSH2 0x307 DUP3 PUSH2 0x1FF JUMP JUMPDEST SWAP2 POP PUSH2 0x312 DUP4 PUSH2 0x1FF JUMP JUMPDEST SWAP3 POP DUP3 DUP3 ADD SWAP1 POP DUP1 DUP3 GT ISZERO PUSH2 0x32A JUMPI PUSH2 0x329 PUSH2 0x2D0 JUMP JUMPDEST JUMPDEST SWAP3 SWAP2 POP POP JUMP INVALID LOG2 PUSH5 0x6970667358 0x22 SLT KECCAK256 STOP 0xBC RETURN 0xA6 PUSH30 0xF4AED971C15522E91F432A7A75ABED7C067A0CF6B3B1259E412FDA64736F PUSH13 0x634300081F0033000000000000 "
				},
				"gasEstimates": {
					"creation": {
						"codeDepositCost": "174000",
						"executionCost": "24483",
						"totalCost": "198483"
					},
					"external": {
						"addressToAmountFunded(address)": "2779",
						"fund()": "infinite",
						"owner()": "2508"
					}
				},
				"methodIdentifiers": {
					"addressToAmountFunded(address)": "3e47d6f3",
					"fund()": "b60d4288",
					"owner()": "8da5cb5b"
				}
			},
			"storageLayout": {
				"storage": [
					{
						"astId": 5,
						"contract": "contract/fundme.sol:FundMe",
						"label": "addressToAmountFunded",
						"offset": 0,
						"slot": "0",
						"type": "t_mapping(t_address,t_uint256)"
					},
					{
						"astId": 7,
						"contract": "contract/fundme.sol:FundMe",
						"label": "owner",
						"offset": 0,
						"slot": "1",
						"type": "t_address"
					}
				],
				"types": {
					"t_address": {
						"encoding": "inplace",
						"label": "address",
						"numberOfBytes": "20"
					},
					"t_mapping(t_address,t_uint256)": {
						"encoding": "mapping",
						"key": "t_address",
						"label": "mapping(address => uint256)",
						"numberOfBytes": "32",
						"value": "t_uint256"
					},
					"t_uint256": {
						"encoding": "inplace",
						"label": "uint256",
						"numberOfBytes": "32"
					}
				}
			},
			"userdoc": {
				"kind": "user",
				"methods": {},
				"version": 1
			}
		}
	}
}