{
	".git/contract/Learn.sol": {
		"Project": {
			"abi": [
				{
					"inputs": [
						{
							"internalType": "uint256",
							"name": "",
							"type": "uint256"
						}
					],
					"name": "People",
					"outputs": [
						{
							"internalType": "uint256",
							"name": "age",
							"type": "uint256"
						},
						{
							"internalType": "string",
							"name": "name",
							"type": "string"
						}
					],
					"stateMutability": "view",
					"type": "function"
				},
				{
					"inputs": [],
					"name": "addition",
					"outputs": [
						{
							"internalType": "uint256",
							"name": "",
							"type": "uint256"
						}
					],
					"stateMutability": "view",
					"type": "function"
				},
				{
					"inputs": [
						{
							"internalType": "string",
							"name": "_name",
							"type": "string"
						},
						{
							"internalType": "uint256",
							"name": "_age",
							"type": "uint256"
						}
					],
					"name": "addpersons",
					"outputs": [],
					"stateMutability": "nonpayable",
					"type": "function"
				},
				{
					"inputs": [],
					"name": "division",
					"outputs": [
						{
							"internalType": "uint256",
							"name": "",
							"type": "uint256"
						}
					],
					"stateMutability": "view",
					"type": "function"
				},
				{
					"inputs": [],
					"name": "firstNumber",
					"outputs": [
						{
							"internalType": "uint256",
							"name": "",
							"type": "uint256"
						}
					],
					"stateMutability": "view",
					"type": "function"
				},
				{
					"inputs": [],
					"name": "multiplication",
					"outputs": [
						{
							"internalType": "uint256",
							"name": "",
							"type": "uint256"
						}
					],
					"stateMutability": "view",
					"type": "function"
				},
				{
					"inputs": [
						{
							"internalType": "string",
							"name": "",
							"type": "string"
						}
					],
					"name": "nametoage",
					"outputs": [
						{
							"internalType": "uint256",
							"name": "",
							"type": "uint256"
						}
					],
					"stateMutability": "view",
					"type": "function"
				},
				{
					"inputs": [],
					"name": "secondNumber",
					"outputs": [
						{
							"internalType": "uint256",
							"name": "",
							"type": "uint256"
						}
					],
					"stateMutability": "view",
					"type": "function"
				},
				{
					"inputs": [
						{
							"internalType": "uint256",
							"name": "_firstNumber",
							"type": "uint256"
						}
					],
					"name": "setFirstNumber",
					"outputs": [],
					"stateMutability": "nonpayable",
					"type": "function"
				},
				{
					"inputs": [
						{
							"internalType": "uint256",
							"name": "_secondNumber",
							"type": "uint256"
						}
					],
					"name": "setSecondNumber",
					"outputs": [],
					"stateMutability": "nonpayable",
					"type": "function"
				},
				{
					"inputs": [],
					"name": "subtraction",
					"outputs": [
						{
							"internalType": "uint256",
							"name": "",
							"type": "uint256"
						}
					],
					"stateMutability": "view",
					"type": "function"
				}
			],
			"devdoc": {
				"kind": "dev",
				"methods": {},
				"version": 1
			},
			"evm": {
				"assembly": "    /* \".git/contract/Learn.sol\":58:1061  contract Project {... */\n  mstore(0x40, 0x80)\n  callvalue\n  dup1\n  iszero\n  tag_1\n  jumpi\n  revert(0x00, 0x00)\ntag_1:\n  pop\n  dataSize(sub_0)\n  dup1\n  dataOffset(sub_0)\n  0x00\n  codecopy\n  0x00\n  return\nstop\n\nsub_0: assembly {\n        /* \".git/contract/Learn.sol\":58:1061  contract Project {... */\n      mstore(0x40, 0x80)\n      callvalue\n      dup1\n      iszero\n      tag_1\n      jumpi\n      revert(0x00, 0x00)\n    tag_1:\n      pop\n      jumpi(tag_2, lt(calldatasize, 0x04))\n      shr(0xe0, calldataload(0x00))\n      dup1\n      0x7cc5c136\n      gt\n      tag_14\n      jumpi\n      dup1\n      0x7cc5c136\n      eq\n      tag_8\n      jumpi\n      dup1\n      0x894ec03d\n      eq\n      tag_9\n      jumpi\n      dup1\n      0xc7fb3468\n      eq\n      tag_10\n      jumpi\n      dup1\n      0xcd89e72a\n      eq\n      tag_11\n      jumpi\n      dup1\n      0xe3ec0251\n      eq\n      tag_12\n      jumpi\n      dup1\n      0xec597128\n      eq\n      tag_13\n      jumpi\n      jump(tag_2)\n    tag_14:\n      dup1\n      0x011285da\n      eq\n      tag_3\n      jumpi\n      dup1\n      0x2173d6e9\n      eq\n      tag_4\n      jumpi\n      dup1\n      0x3205f5fc\n      eq\n      tag_5\n      jumpi\n      dup1\n      0x3fbd5bf0\n      eq\n      tag_6\n      jumpi\n      dup1\n      0x4caadbef\n      eq\n      tag_7\n      jumpi\n    tag_2:\n      revert(0x00, 0x00)\n        /* \".git/contract/Learn.sol\":695:797  function multiplication() public view returns(uint) {... */\n    tag_3:\n      tag_15\n      tag_16\n      jump\t// in\n    tag_15:\n      mload(0x40)\n      tag_17\n      swap2\n      swap1\n      tag_18\n      jump\t// in\n    tag_17:\n      mload(0x40)\n      dup1\n      swap2\n      sub\n      swap1\n      return\n        /* \".git/contract/Learn.sol\":81:104  uint public firstNumber */\n    tag_4:\n      tag_19\n      tag_20\n      jump\t// in\n    tag_19:\n      mload(0x40)\n      tag_21\n      swap2\n      swap1\n      tag_18\n      jump\t// in\n    tag_21:\n      mload(0x40)\n      dup1\n      swap2\n      sub\n      swap1\n      return\n        /* \".git/contract/Learn.sol\":803:899  function division() public view returns(uint) {... */\n    tag_5:\n      tag_22\n      tag_23\n      jump\t// in\n    tag_22:\n      mload(0x40)\n      tag_24\n      swap2\n      swap1\n      tag_18\n      jump\t// in\n    tag_24:\n      mload(0x40)\n      dup1\n      swap2\n      sub\n      swap1\n      return\n        /* \".git/contract/Learn.sol\":905:1059  function addpersons (string memory _name, uint _age)public {... */\n    tag_6:\n      tag_25\n      0x04\n      dup1\n      calldatasize\n      sub\n      dup2\n      add\n      swap1\n      tag_26\n      swap2\n      swap1\n      tag_27\n      jump\t// in\n    tag_26:\n      tag_28\n      jump\t// in\n    tag_25:\n      stop\n        /* \".git/contract/Learn.sol\":383:482  function setSecondNumber(uint _secondNumber) public {  ... */\n    tag_7:\n      tag_29\n      0x04\n      dup1\n      calldatasize\n      sub\n      dup2\n      add\n      swap1\n      tag_30\n      swap2\n      swap1\n      tag_31\n      jump\t// in\n    tag_30:\n      tag_32\n      jump\t// in\n    tag_29:\n      stop\n        /* \".git/contract/Learn.sol\":110:134  uint public secondNumber */\n    tag_8:\n      tag_33\n      tag_34\n      jump\t// in\n    tag_33:\n      mload(0x40)\n      tag_35\n      swap2\n      swap1\n      tag_18\n      jump\t// in\n    tag_35:\n      mload(0x40)\n      dup1\n      swap2\n      sub\n      swap1\n      return\n        /* \".git/contract/Learn.sol\":236:276  mapping(string => uint) public nametoage */\n    tag_9:\n      tag_36\n      0x04\n      dup1\n      calldatasize\n      sub\n      dup2\n      add\n      swap1\n      tag_37\n      swap2\n      swap1\n      tag_38\n      jump\t// in\n    tag_37:\n      tag_39\n      jump\t// in\n    tag_36:\n      mload(0x40)\n      tag_40\n      swap2\n      swap1\n      tag_18\n      jump\t// in\n    tag_40:\n      mload(0x40)\n      dup1\n      swap2\n      sub\n      swap1\n      return\n        /* \".git/contract/Learn.sol\":208:230  Person[] public People */\n    tag_10:\n      tag_41\n      0x04\n      dup1\n      calldatasize\n      sub\n      dup2\n      add\n      swap1\n      tag_42\n      swap2\n      swap1\n      tag_31\n      jump\t// in\n    tag_42:\n      tag_43\n      jump\t// in\n    tag_41:\n      mload(0x40)\n      tag_44\n      swap3\n      swap2\n      swap1\n      tag_45\n      jump\t// in\n    tag_44:\n      mload(0x40)\n      dup1\n      swap2\n      sub\n      swap1\n      return\n        /* \".git/contract/Learn.sol\":283:377  function setFirstNumber(uint _firstNumber) public { ... */\n    tag_11:\n      tag_46\n      0x04\n      dup1\n      calldatasize\n      sub\n      dup2\n      add\n      swap1\n      tag_47\n      swap2\n      swap1\n      tag_31\n      jump\t// in\n    tag_47:\n      tag_48\n      jump\t// in\n    tag_46:\n      stop\n        /* \".git/contract/Learn.sol\":590:689  function subtraction() public view returns(uint) {... */\n    tag_12:\n      tag_49\n      tag_50\n      jump\t// in\n    tag_49:\n      mload(0x40)\n      tag_51\n      swap2\n      swap1\n      tag_18\n      jump\t// in\n    tag_51:\n      mload(0x40)\n      dup1\n      swap2\n      sub\n      swap1\n      return\n        /* \".git/contract/Learn.sol\":488:584  function addition() public view returns(uint) {... */\n    tag_13:\n      tag_52\n      tag_53\n      jump\t// in\n    tag_52:\n      mload(0x40)\n      tag_54\n      swap2\n      swap1\n      tag_18\n      jump\t// in\n    tag_54:\n      mload(0x40)\n      dup1\n      swap2\n      sub\n      swap1\n      return\n        /* \".git/contract/Learn.sol\":695:797  function multiplication() public view returns(uint) {... */\n    tag_16:\n        /* \".git/contract/Learn.sol\":741:745  uint */\n      0x00\n        /* \".git/contract/Learn.sol\":778:790  secondNumber */\n      sload(0x01)\n        /* \".git/contract/Learn.sol\":764:775  firstNumber */\n      sload(0x00)\n        /* \".git/contract/Learn.sol\":764:790  firstNumber * secondNumber */\n      tag_56\n      swap2\n      swap1\n      tag_57\n      jump\t// in\n    tag_56:\n        /* \".git/contract/Learn.sol\":757:790  return firstNumber * secondNumber */\n      swap1\n      pop\n        /* \".git/contract/Learn.sol\":695:797  function multiplication() public view returns(uint) {... */\n      swap1\n      jump\t// out\n        /* \".git/contract/Learn.sol\":81:104  uint public firstNumber */\n    tag_20:\n      sload(0x00)\n      dup2\n      jump\t// out\n        /* \".git/contract/Learn.sol\":803:899  function division() public view returns(uint) {... */\n    tag_23:\n        /* \".git/contract/Learn.sol\":843:847  uint */\n      0x00\n        /* \".git/contract/Learn.sol\":880:892  secondNumber */\n      sload(0x01)\n        /* \".git/contract/Learn.sol\":866:877  firstNumber */\n      sload(0x00)\n        /* \".git/contract/Learn.sol\":866:892  firstNumber / secondNumber */\n      tag_59\n      swap2\n      swap1\n      tag_60\n      jump\t// in\n    tag_59:\n        /* \".git/contract/Learn.sol\":859:892  return firstNumber / secondNumber */\n      swap1\n      pop\n        /* \".git/contract/Learn.sol\":803:899  function division() public view returns(uint) {... */\n      swap1\n      jump\t// out\n        /* \".git/contract/Learn.sol\":905:1059  function addpersons (string memory _name, uint _age)public {... */\n    tag_28:\n        /* \".git/contract/Learn.sol\":974:980  People */\n      0x02\n        /* \".git/contract/Learn.sol\":986:1018  Person({name: _name, age: _age}) */\n      mload(0x40)\n      dup1\n      0x40\n      add\n      0x40\n      mstore\n      dup1\n        /* \".git/contract/Learn.sol\":1012:1016  _age */\n      dup4\n        /* \".git/contract/Learn.sol\":986:1018  Person({name: _name, age: _age}) */\n      dup2\n      mstore\n      0x20\n      add\n        /* \".git/contract/Learn.sol\":1000:1005  _name */\n      dup5\n        /* \".git/contract/Learn.sol\":986:1018  Person({name: _name, age: _age}) */\n      dup2\n      mstore\n      pop\n        /* \".git/contract/Learn.sol\":974:1019  People.push(Person({name: _name, age: _age})) */\n      swap1\n      dup1\n      0x01\n      dup2\n      sload\n      add\n      dup1\n      dup3\n      sstore\n      dup1\n      swap2\n      pop\n      pop\n      0x01\n      swap1\n      sub\n      swap1\n      0x00\n      mstore\n      keccak256(0x00, 0x20)\n      swap1\n      0x02\n      mul\n      add\n      0x00\n      swap1\n      swap2\n      swap1\n      swap2\n      swap1\n      swap2\n      pop\n      0x00\n      dup3\n      add\n      mload\n      dup2\n      0x00\n      add\n      sstore\n      0x20\n      dup3\n      add\n      mload\n      dup2\n      0x01\n      add\n      swap1\n      dup2\n      tag_63\n      swap2\n      swap1\n      tag_64\n      jump\t// in\n    tag_63:\n      pop\n      pop\n      pop\n        /* \".git/contract/Learn.sol\":1048:1052  _age */\n      dup1\n        /* \".git/contract/Learn.sol\":1029:1038  nametoage */\n      0x03\n        /* \".git/contract/Learn.sol\":1039:1044  _name */\n      dup4\n        /* \".git/contract/Learn.sol\":1029:1045  nametoage[_name] */\n      mload(0x40)\n      tag_65\n      swap2\n      swap1\n      tag_66\n      jump\t// in\n    tag_65:\n      swap1\n      dup2\n      mstore\n      0x20\n      add\n      mload(0x40)\n      dup1\n      swap2\n      sub\n      swap1\n      keccak256\n        /* \".git/contract/Learn.sol\":1029:1052  nametoage[_name] = _age */\n      dup2\n      swap1\n      sstore\n      pop\n        /* \".git/contract/Learn.sol\":905:1059  function addpersons (string memory _name, uint _age)public {... */\n      pop\n      pop\n      jump\t// out\n        /* \".git/contract/Learn.sol\":383:482  function setSecondNumber(uint _secondNumber) public {  ... */\n    tag_32:\n        /* \".git/contract/Learn.sol\":462:475  _secondNumber */\n      dup1\n        /* \".git/contract/Learn.sol\":447:459  secondNumber */\n      0x01\n        /* \".git/contract/Learn.sol\":447:475  secondNumber = _secondNumber */\n      dup2\n      swap1\n      sstore\n      pop\n        /* \".git/contract/Learn.sol\":383:482  function setSecondNumber(uint _secondNumber) public {  ... */\n      pop\n      jump\t// out\n        /* \".git/contract/Learn.sol\":110:134  uint public secondNumber */\n    tag_34:\n      sload(0x01)\n      dup2\n      jump\t// out\n        /* \".git/contract/Learn.sol\":236:276  mapping(string => uint) public nametoage */\n    tag_39:\n      0x03\n      dup2\n      dup1\n      mload\n      0x20\n      dup2\n      add\n      dup3\n      add\n      dup1\n      mload\n      dup5\n      dup3\n      mstore\n      0x20\n      dup4\n      add\n      0x20\n      dup6\n      add\n      keccak256\n      dup2\n      dup4\n      mstore\n      dup1\n      swap6\n      pop\n      pop\n      pop\n      pop\n      pop\n      pop\n      0x00\n      swap2\n      pop\n      swap1\n      pop\n      sload\n      dup2\n      jump\t// out\n        /* \".git/contract/Learn.sol\":208:230  Person[] public People */\n    tag_43:\n      0x02\n      dup2\n      dup2\n      sload\n      dup2\n      lt\n      tag_68\n      jumpi\n      0x00\n      dup1\n      revert\n    tag_68:\n      swap1\n      0x00\n      mstore\n      keccak256(0x00, 0x20)\n      swap1\n      0x02\n      mul\n      add\n      0x00\n      swap2\n      pop\n      swap1\n      pop\n      dup1\n      0x00\n      add\n      sload\n      swap1\n      dup1\n      0x01\n      add\n      dup1\n      sload\n      tag_70\n      swap1\n      tag_71\n      jump\t// in\n    tag_70:\n      dup1\n      0x1f\n      add\n      0x20\n      dup1\n      swap2\n      div\n      mul\n      0x20\n      add\n      mload(0x40)\n      swap1\n      dup2\n      add\n      0x40\n      mstore\n      dup1\n      swap3\n      swap2\n      swap1\n      dup2\n      dup2\n      mstore\n      0x20\n      add\n      dup3\n      dup1\n      sload\n      tag_72\n      swap1\n      tag_71\n      jump\t// in\n    tag_72:\n      dup1\n      iszero\n      tag_73\n      jumpi\n      dup1\n      0x1f\n      lt\n      tag_74\n      jumpi\n      0x0100\n      dup1\n      dup4\n      sload\n      div\n      mul\n      dup4\n      mstore\n      swap2\n      0x20\n      add\n      swap2\n      jump(tag_73)\n    tag_74:\n      dup3\n      add\n      swap2\n      swap1\n      0x00\n      mstore\n      keccak256(0x00, 0x20)\n      swap1\n    tag_75:\n      dup2\n      sload\n      dup2\n      mstore\n      swap1\n      0x01\n      add\n      swap1\n      0x20\n      add\n      dup1\n      dup4\n      gt\n      tag_75\n      jumpi\n      dup3\n      swap1\n      sub\n      0x1f\n      and\n      dup3\n      add\n      swap2\n    tag_73:\n      pop\n      pop\n      pop\n      pop\n      pop\n      swap1\n      pop\n      dup3\n      jump\t// out\n        /* \".git/contract/Learn.sol\":283:377  function setFirstNumber(uint _firstNumber) public { ... */\n    tag_48:\n        /* \".git/contract/Learn.sol\":358:370  _firstNumber */\n      dup1\n        /* \".git/contract/Learn.sol\":344:355  firstNumber */\n      0x00\n        /* \".git/contract/Learn.sol\":344:370  firstNumber = _firstNumber */\n      dup2\n      swap1\n      sstore\n      pop\n        /* \".git/contract/Learn.sol\":283:377  function setFirstNumber(uint _firstNumber) public { ... */\n      pop\n      jump\t// out\n        /* \".git/contract/Learn.sol\":590:689  function subtraction() public view returns(uint) {... */\n    tag_50:\n        /* \".git/contract/Learn.sol\":633:637  uint */\n      0x00\n        /* \".git/contract/Learn.sol\":670:682  secondNumber */\n      sload(0x01)\n        /* \".git/contract/Learn.sol\":656:667  firstNumber */\n      sload(0x00)\n        /* \".git/contract/Learn.sol\":656:682  firstNumber - secondNumber */\n      tag_78\n      swap2\n      swap1\n      tag_79\n      jump\t// in\n    tag_78:\n        /* \".git/contract/Learn.sol\":649:682  return firstNumber - secondNumber */\n      swap1\n      pop\n        /* \".git/contract/Learn.sol\":590:689  function subtraction() public view returns(uint) {... */\n      swap1\n      jump\t// out\n        /* \".git/contract/Learn.sol\":488:584  function addition() public view returns(uint) {... */\n    tag_53:\n        /* \".git/contract/Learn.sol\":528:532  uint */\n      0x00\n        /* \".git/contract/Learn.sol\":565:577  secondNumber */\n      sload(0x01)\n        /* \".git/contract/Learn.sol\":551:562  firstNumber */\n      sload(0x00)\n        /* \".git/contract/Learn.sol\":551:577  firstNumber + secondNumber */\n      tag_81\n      swap2\n      swap1\n      tag_82\n      jump\t// in\n    tag_81:\n        /* \".git/contract/Learn.sol\":544:577  return firstNumber + secondNumber */\n      swap1\n      pop\n        /* \".git/contract/Learn.sol\":488:584  function addition() public view returns(uint) {... */\n      swap1\n      jump\t// out\n        /* \"#utility.yul\":7:84   */\n    tag_83:\n        /* \"#utility.yul\":44:51   */\n      0x00\n        /* \"#utility.yul\":73:78   */\n      dup2\n        /* \"#utility.yul\":62:78   */\n      swap1\n      pop\n        /* \"#utility.yul\":7:84   */\n      swap2\n      swap1\n      pop\n      jump\t// out\n        /* \"#utility.yul\":90:208   */\n    tag_84:\n        /* \"#utility.yul\":177:201   */\n      tag_127\n        /* \"#utility.yul\":195:200   */\n      dup2\n        /* \"#utility.yul\":177:201   */\n      tag_83\n      jump\t// in\n    tag_127:\n        /* \"#utility.yul\":172:175   */\n      dup3\n        /* \"#utility.yul\":165:202   */\n      mstore\n        /* \"#utility.yul\":90:208   */\n      pop\n      pop\n      jump\t// out\n        /* \"#utility.yul\":214:436   */\n    tag_18:\n        /* \"#utility.yul\":307:311   */\n      0x00\n        /* \"#utility.yul\":345:347   */\n      0x20\n        /* \"#utility.yul\":334:343   */\n      dup3\n        /* \"#utility.yul\":330:348   */\n      add\n        /* \"#utility.yul\":322:348   */\n      swap1\n      pop\n        /* \"#utility.yul\":358:429   */\n      tag_129\n        /* \"#utility.yul\":426:427   */\n      0x00\n        /* \"#utility.yul\":415:424   */\n      dup4\n        /* \"#utility.yul\":411:428   */\n      add\n        /* \"#utility.yul\":402:408   */\n      dup5\n        /* \"#utility.yul\":358:429   */\n      tag_84\n      jump\t// in\n    tag_129:\n        /* \"#utility.yul\":214:436   */\n      swap3\n      swap2\n      pop\n      pop\n      jump\t// out\n        /* \"#utility.yul\":442:517   */\n    tag_85:\n        /* \"#utility.yul\":475:481   */\n      0x00\n        /* \"#utility.yul\":508:510   */\n      0x40\n        /* \"#utility.yul\":502:511   */\n      mload\n        /* \"#utility.yul\":492:511   */\n      swap1\n      pop\n        /* \"#utility.yul\":442:517   */\n      swap1\n      jump\t// out\n        /* \"#utility.yul\":523:640   */\n    tag_86:\n        /* \"#utility.yul\":632:633   */\n      0x00\n        /* \"#utility.yul\":629:630   */\n      0x00\n        /* \"#utility.yul\":622:634   */\n      revert\n        /* \"#utility.yul\":646:763   */\n    tag_87:\n        /* \"#utility.yul\":755:756   */\n      0x00\n        /* \"#utility.yul\":752:753   */\n      0x00\n        /* \"#utility.yul\":745:757   */\n      revert\n        /* \"#utility.yul\":769:886   */\n    tag_88:\n        /* \"#utility.yul\":878:879   */\n      0x00\n        /* \"#utility.yul\":875:876   */\n      0x00\n        /* \"#utility.yul\":868:880   */\n      revert\n        /* \"#utility.yul\":892:1009   */\n    tag_89:\n        /* \"#utility.yul\":1001:1002   */\n      0x00\n        /* \"#utility.yul\":998:999   */\n      0x00\n        /* \"#utility.yul\":991:1003   */\n      revert\n        /* \"#utility.yul\":1015:1117   */\n    tag_90:\n        /* \"#utility.yul\":1056:1062   */\n      0x00\n        /* \"#utility.yul\":1107:1109   */\n      0x1f\n        /* \"#utility.yul\":1103:1110   */\n      not\n        /* \"#utility.yul\":1098:1100   */\n      0x1f\n        /* \"#utility.yul\":1091:1096   */\n      dup4\n        /* \"#utility.yul\":1087:1101   */\n      add\n        /* \"#utility.yul\":1083:1111   */\n      and\n        /* \"#utility.yul\":1073:1111   */\n      swap1\n      pop\n        /* \"#utility.yul\":1015:1117   */\n      swap2\n      swap1\n      pop\n      jump\t// out\n        /* \"#utility.yul\":1123:1303   */\n    tag_91:\n        /* \"#utility.yul\":1171:1248   */\n      0x4e487b7100000000000000000000000000000000000000000000000000000000\n        /* \"#utility.yul\":1168:1169   */\n      0x00\n        /* \"#utility.yul\":1161:1249   */\n      mstore\n        /* \"#utility.yul\":1268:1272   */\n      0x41\n        /* \"#utility.yul\":1265:1266   */\n      0x04\n        /* \"#utility.yul\":1258:1273   */\n      mstore\n        /* \"#utility.yul\":1292:1296   */\n      0x24\n        /* \"#utility.yul\":1289:1290   */\n      0x00\n        /* \"#utility.yul\":1282:1297   */\n      revert\n        /* \"#utility.yul\":1309:1590   */\n    tag_92:\n        /* \"#utility.yul\":1392:1419   */\n      tag_138\n        /* \"#utility.yul\":1414:1418   */\n      dup3\n        /* \"#utility.yul\":1392:1419   */\n      tag_90\n      jump\t// in\n    tag_138:\n        /* \"#utility.yul\":1384:1390   */\n      dup2\n        /* \"#utility.yul\":1380:1420   */\n      add\n        /* \"#utility.yul\":1522:1528   */\n      dup2\n        /* \"#utility.yul\":1510:1520   */\n      dup2\n        /* \"#utility.yul\":1507:1529   */\n      lt\n        /* \"#utility.yul\":1486:1504   */\n      0xffffffffffffffff\n        /* \"#utility.yul\":1474:1484   */\n      dup3\n        /* \"#utility.yul\":1471:1505   */\n      gt\n        /* \"#utility.yul\":1468:1530   */\n      or\n        /* \"#utility.yul\":1465:1553   */\n      iszero\n      tag_139\n      jumpi\n        /* \"#utility.yul\":1533:1551   */\n      tag_140\n      tag_91\n      jump\t// in\n    tag_140:\n        /* \"#utility.yul\":1465:1553   */\n    tag_139:\n        /* \"#utility.yul\":1573:1583   */\n      dup1\n        /* \"#utility.yul\":1569:1571   */\n      0x40\n        /* \"#utility.yul\":1562:1584   */\n      mstore\n        /* \"#utility.yul\":1352:1590   */\n      pop\n        /* \"#utility.yul\":1309:1590   */\n      pop\n      pop\n      jump\t// out\n        /* \"#utility.yul\":1596:1725   */\n    tag_93:\n        /* \"#utility.yul\":1630:1636   */\n      0x00\n        /* \"#utility.yul\":1657:1677   */\n      tag_142\n      tag_85\n      jump\t// in\n    tag_142:\n        /* \"#utility.yul\":1647:1677   */\n      swap1\n      pop\n        /* \"#utility.yul\":1686:1719   */\n      tag_143\n        /* \"#utility.yul\":1714:1718   */\n      dup3\n        /* \"#utility.yul\":1706:1712   */\n      dup3\n        /* \"#utility.yul\":1686:1719   */\n      tag_92\n      jump\t// in\n    tag_143:\n        /* \"#utility.yul\":1596:1725   */\n      swap2\n      swap1\n      pop\n      jump\t// out\n        /* \"#utility.yul\":1731:2039   */\n    tag_94:\n        /* \"#utility.yul\":1793:1797   */\n      0x00\n        /* \"#utility.yul\":1883:1901   */\n      0xffffffffffffffff\n        /* \"#utility.yul\":1875:1881   */\n      dup3\n        /* \"#utility.yul\":1872:1902   */\n      gt\n        /* \"#utility.yul\":1869:1925   */\n      iszero\n      tag_145\n      jumpi\n        /* \"#utility.yul\":1905:1923   */\n      tag_146\n      tag_91\n      jump\t// in\n    tag_146:\n        /* \"#utility.yul\":1869:1925   */\n    tag_145:\n        /* \"#utility.yul\":1943:1972   */\n      tag_147\n        /* \"#utility.yul\":1965:1971   */\n      dup3\n        /* \"#utility.yul\":1943:1972   */\n      tag_90\n      jump\t// in\n    tag_147:\n        /* \"#utility.yul\":1935:1972   */\n      swap1\n      pop\n        /* \"#utility.yul\":2027:2031   */\n      0x20\n        /* \"#utility.yul\":2021:2025   */\n      dup2\n        /* \"#utility.yul\":2017:2032   */\n      add\n        /* \"#utility.yul\":2009:2032   */\n      swap1\n      pop\n        /* \"#utility.yul\":1731:2039   */\n      swap2\n      swap1\n      pop\n      jump\t// out\n        /* \"#utility.yul\":2045:2193   */\n    tag_95:\n        /* \"#utility.yul\":2143:2149   */\n      dup3\n        /* \"#utility.yul\":2138:2141   */\n      dup2\n        /* \"#utility.yul\":2133:2136   */\n      dup4\n        /* \"#utility.yul\":2120:2150   */\n      calldatacopy\n        /* \"#utility.yul\":2184:2185   */\n      0x00\n        /* \"#utility.yul\":2175:2181   */\n      dup4\n        /* \"#utility.yul\":2170:2173   */\n      dup4\n        /* \"#utility.yul\":2166:2182   */\n      add\n        /* \"#utility.yul\":2159:2186   */\n      mstore\n        /* \"#utility.yul\":2045:2193   */\n      pop\n      pop\n      pop\n      jump\t// out\n        /* \"#utility.yul\":2199:2624   */\n    tag_96:\n        /* \"#utility.yul\":2277:2282   */\n      0x00\n        /* \"#utility.yul\":2302:2368   */\n      tag_150\n        /* \"#utility.yul\":2318:2367   */\n      tag_151\n        /* \"#utility.yul\":2360:2366   */\n      dup5\n        /* \"#utility.yul\":2318:2367   */\n      tag_94\n      jump\t// in\n    tag_151:\n        /* \"#utility.yul\":2302:2368   */\n      tag_93\n      jump\t// in\n    tag_150:\n        /* \"#utility.yul\":2293:2368   */\n      swap1\n      pop\n        /* \"#utility.yul\":2391:2397   */\n      dup3\n        /* \"#utility.yul\":2384:2389   */\n      dup2\n        /* \"#utility.yul\":2377:2398   */\n      mstore\n        /* \"#utility.yul\":2429:2433   */\n      0x20\n        /* \"#utility.yul\":2422:2427   */\n      dup2\n        /* \"#utility.yul\":2418:2434   */\n      add\n        /* \"#utility.yul\":2467:2470   */\n      dup5\n        /* \"#utility.yul\":2458:2464   */\n      dup5\n        /* \"#utility.yul\":2453:2456   */\n      dup5\n        /* \"#utility.yul\":2449:2465   */\n      add\n        /* \"#utility.yul\":2446:2471   */\n      gt\n        /* \"#utility.yul\":2443:2555   */\n      iszero\n      tag_152\n      jumpi\n        /* \"#utility.yul\":2474:2553   */\n      tag_153\n      tag_89\n      jump\t// in\n    tag_153:\n        /* \"#utility.yul\":2443:2555   */\n    tag_152:\n        /* \"#utility.yul\":2564:2618   */\n      tag_154\n        /* \"#utility.yul\":2611:2617   */\n      dup5\n        /* \"#utility.yul\":2606:2609   */\n      dup3\n        /* \"#utility.yul\":2601:2604   */\n      dup6\n        /* \"#utility.yul\":2564:2618   */\n      tag_95\n      jump\t// in\n    tag_154:\n        /* \"#utility.yul\":2283:2624   */\n      pop\n        /* \"#utility.yul\":2199:2624   */\n      swap4\n      swap3\n      pop\n      pop\n      pop\n      jump\t// out\n        /* \"#utility.yul\":2644:2984   */\n    tag_97:\n        /* \"#utility.yul\":2700:2705   */\n      0x00\n        /* \"#utility.yul\":2749:2752   */\n      dup3\n        /* \"#utility.yul\":2742:2746   */\n      0x1f\n        /* \"#utility.yul\":2734:2740   */\n      dup4\n        /* \"#utility.yul\":2730:2747   */\n      add\n        /* \"#utility.yul\":2726:2753   */\n      slt\n        /* \"#utility.yul\":2716:2838   */\n      tag_156\n      jumpi\n        /* \"#utility.yul\":2757:2836   */\n      tag_157\n      tag_88\n      jump\t// in\n    tag_157:\n        /* \"#utility.yul\":2716:2838   */\n    tag_156:\n        /* \"#utility.yul\":2874:2880   */\n      dup2\n        /* \"#utility.yul\":2861:2881   */\n      calldataload\n        /* \"#utility.yul\":2899:2978   */\n      tag_158\n        /* \"#utility.yul\":2974:2977   */\n      dup5\n        /* \"#utility.yul\":2966:2972   */\n      dup3\n        /* \"#utility.yul\":2959:2963   */\n      0x20\n        /* \"#utility.yul\":2951:2957   */\n      dup7\n        /* \"#utility.yul\":2947:2964   */\n      add\n        /* \"#utility.yul\":2899:2978   */\n      tag_96\n      jump\t// in\n    tag_158:\n        /* \"#utility.yul\":2890:2978   */\n      swap2\n      pop\n        /* \"#utility.yul\":2706:2984   */\n      pop\n        /* \"#utility.yul\":2644:2984   */\n      swap3\n      swap2\n      pop\n      pop\n      jump\t// out\n        /* \"#utility.yul\":2990:3112   */\n    tag_98:\n        /* \"#utility.yul\":3063:3087   */\n      tag_160\n        /* \"#utility.yul\":3081:3086   */\n      dup2\n        /* \"#utility.yul\":3063:3087   */\n      tag_83\n      jump\t// in\n    tag_160:\n        /* \"#utility.yul\":3056:3061   */\n      dup2\n        /* \"#utility.yul\":3053:3088   */\n      eq\n        /* \"#utility.yul\":3043:3106   */\n      tag_161\n      jumpi\n        /* \"#utility.yul\":3102:3103   */\n      0x00\n        /* \"#utility.yul\":3099:3100   */\n      0x00\n        /* \"#utility.yul\":3092:3104   */\n      revert\n        /* \"#utility.yul\":3043:3106   */\n    tag_161:\n        /* \"#utility.yul\":2990:3112   */\n      pop\n      jump\t// out\n        /* \"#utility.yul\":3118:3257   */\n    tag_99:\n        /* \"#utility.yul\":3164:3169   */\n      0x00\n        /* \"#utility.yul\":3202:3208   */\n      dup2\n        /* \"#utility.yul\":3189:3209   */\n      calldataload\n        /* \"#utility.yul\":3180:3209   */\n      swap1\n      pop\n        /* \"#utility.yul\":3218:3251   */\n      tag_163\n        /* \"#utility.yul\":3245:3250   */\n      dup2\n        /* \"#utility.yul\":3218:3251   */\n      tag_98\n      jump\t// in\n    tag_163:\n        /* \"#utility.yul\":3118:3257   */\n      swap3\n      swap2\n      pop\n      pop\n      jump\t// out\n        /* \"#utility.yul\":3263:3917   */\n    tag_27:\n        /* \"#utility.yul\":3341:3347   */\n      0x00\n        /* \"#utility.yul\":3349:3355   */\n      0x00\n        /* \"#utility.yul\":3398:3400   */\n      0x40\n        /* \"#utility.yul\":3386:3395   */\n      dup4\n        /* \"#utility.yul\":3377:3384   */\n      dup6\n        /* \"#utility.yul\":3373:3396   */\n      sub\n        /* \"#utility.yul\":3369:3401   */\n      slt\n        /* \"#utility.yul\":3366:3485   */\n      iszero\n      tag_165\n      jumpi\n        /* \"#utility.yul\":3404:3483   */\n      tag_166\n      tag_86\n      jump\t// in\n    tag_166:\n        /* \"#utility.yul\":3366:3485   */\n    tag_165:\n        /* \"#utility.yul\":3552:3553   */\n      0x00\n        /* \"#utility.yul\":3541:3550   */\n      dup4\n        /* \"#utility.yul\":3537:3554   */\n      add\n        /* \"#utility.yul\":3524:3555   */\n      calldataload\n        /* \"#utility.yul\":3582:3600   */\n      0xffffffffffffffff\n        /* \"#utility.yul\":3574:3580   */\n      dup2\n        /* \"#utility.yul\":3571:3601   */\n      gt\n        /* \"#utility.yul\":3568:3685   */\n      iszero\n      tag_167\n      jumpi\n        /* \"#utility.yul\":3604:3683   */\n      tag_168\n      tag_87\n      jump\t// in\n    tag_168:\n        /* \"#utility.yul\":3568:3685   */\n    tag_167:\n        /* \"#utility.yul\":3709:3772   */\n      tag_169\n        /* \"#utility.yul\":3764:3771   */\n      dup6\n        /* \"#utility.yul\":3755:3761   */\n      dup3\n        /* \"#utility.yul\":3744:3753   */\n      dup7\n        /* \"#utility.yul\":3740:3762   */\n      add\n        /* \"#utility.yul\":3709:3772   */\n      tag_97\n      jump\t// in\n    tag_169:\n        /* \"#utility.yul\":3699:3772   */\n      swap3\n      pop\n        /* \"#utility.yul\":3495:3782   */\n      pop\n        /* \"#utility.yul\":3821:3823   */\n      0x20\n        /* \"#utility.yul\":3847:3900   */\n      tag_170\n        /* \"#utility.yul\":3892:3899   */\n      dup6\n        /* \"#utility.yul\":3883:3889   */\n      dup3\n        /* \"#utility.yul\":3872:3881   */\n      dup7\n        /* \"#utility.yul\":3868:3890   */\n      add\n        /* \"#utility.yul\":3847:3900   */\n      tag_99\n      jump\t// in\n    tag_170:\n        /* \"#utility.yul\":3837:3900   */\n      swap2\n      pop\n        /* \"#utility.yul\":3792:3910   */\n      pop\n        /* \"#utility.yul\":3263:3917   */\n      swap3\n      pop\n      swap3\n      swap1\n      pop\n      jump\t// out\n        /* \"#utility.yul\":3923:4252   */\n    tag_31:\n        /* \"#utility.yul\":3982:3988   */\n      0x00\n        /* \"#utility.yul\":4031:4033   */\n      0x20\n        /* \"#utility.yul\":4019:4028   */\n      dup3\n        /* \"#utility.yul\":4010:4017   */\n      dup5\n        /* \"#utility.yul\":4006:4029   */\n      sub\n        /* \"#utility.yul\":4002:4034   */\n      slt\n        /* \"#utility.yul\":3999:4118   */\n      iszero\n      tag_172\n      jumpi\n        /* \"#utility.yul\":4037:4116   */\n      tag_173\n      tag_86\n      jump\t// in\n    tag_173:\n        /* \"#utility.yul\":3999:4118   */\n    tag_172:\n        /* \"#utility.yul\":4157:4158   */\n      0x00\n        /* \"#utility.yul\":4182:4235   */\n      tag_174\n        /* \"#utility.yul\":4227:4234   */\n      dup5\n        /* \"#utility.yul\":4218:4224   */\n      dup3\n        /* \"#utility.yul\":4207:4216   */\n      dup6\n        /* \"#utility.yul\":4203:4225   */\n      add\n        /* \"#utility.yul\":4182:4235   */\n      tag_99\n      jump\t// in\n    tag_174:\n        /* \"#utility.yul\":4172:4235   */\n      swap2\n      pop\n        /* \"#utility.yul\":4128:4245   */\n      pop\n        /* \"#utility.yul\":3923:4252   */\n      swap3\n      swap2\n      pop\n      pop\n      jump\t// out\n        /* \"#utility.yul\":4258:4767   */\n    tag_38:\n        /* \"#utility.yul\":4327:4333   */\n      0x00\n        /* \"#utility.yul\":4376:4378   */\n      0x20\n        /* \"#utility.yul\":4364:4373   */\n      dup3\n        /* \"#utility.yul\":4355:4362   */\n      dup5\n        /* \"#utility.yul\":4351:4374   */\n      sub\n        /* \"#utility.yul\":4347:4379   */\n      slt\n        /* \"#utility.yul\":4344:4463   */\n      iszero\n      tag_176\n      jumpi\n        /* \"#utility.yul\":4382:4461   */\n      tag_177\n      tag_86\n      jump\t// in\n    tag_177:\n        /* \"#utility.yul\":4344:4463   */\n    tag_176:\n        /* \"#utility.yul\":4530:4531   */\n      0x00\n        /* \"#utility.yul\":4519:4528   */\n      dup3\n        /* \"#utility.yul\":4515:4532   */\n      add\n        /* \"#utility.yul\":4502:4533   */\n      calldataload\n        /* \"#utility.yul\":4560:4578   */\n      0xffffffffffffffff\n        /* \"#utility.yul\":4552:4558   */\n      dup2\n        /* \"#utility.yul\":4549:4579   */\n      gt\n        /* \"#utility.yul\":4546:4663   */\n      iszero\n      tag_178\n      jumpi\n        /* \"#utility.yul\":4582:4661   */\n      tag_179\n      tag_87\n      jump\t// in\n    tag_179:\n        /* \"#utility.yul\":4546:4663   */\n    tag_178:\n        /* \"#utility.yul\":4687:4750   */\n      tag_180\n        /* \"#utility.yul\":4742:4749   */\n      dup5\n        /* \"#utility.yul\":4733:4739   */\n      dup3\n        /* \"#utility.yul\":4722:4731   */\n      dup6\n        /* \"#utility.yul\":4718:4740   */\n      add\n        /* \"#utility.yul\":4687:4750   */\n      tag_97\n      jump\t// in\n    tag_180:\n        /* \"#utility.yul\":4677:4750   */\n      swap2\n      pop\n        /* \"#utility.yul\":4473:4760   */\n      pop\n        /* \"#utility.yul\":4258:4767   */\n      swap3\n      swap2\n      pop\n      pop\n      jump\t// out\n        /* \"#utility.yul\":4773:4872   */\n    tag_100:\n        /* \"#utility.yul\":4825:4831   */\n      0x00\n        /* \"#utility.yul\":4859:4864   */\n      dup2\n        /* \"#utility.yul\":4853:4865   */\n      mload\n        /* \"#utility.yul\":4843:4865   */\n      swap1\n      pop\n        /* \"#utility.yul\":4773:4872   */\n      swap2\n      swap1\n      pop\n      jump\t// out\n        /* \"#utility.yul\":4878:5047   */\n    tag_101:\n        /* \"#utility.yul\":4962:4973   */\n      0x00\n        /* \"#utility.yul\":4996:5002   */\n      dup3\n        /* \"#utility.yul\":4991:4994   */\n      dup3\n        /* \"#utility.yul\":4984:5003   */\n      mstore\n        /* \"#utility.yul\":5036:5040   */\n      0x20\n        /* \"#utility.yul\":5031:5034   */\n      dup3\n        /* \"#utility.yul\":5027:5041   */\n      add\n        /* \"#utility.yul\":5012:5041   */\n      swap1\n      pop\n        /* \"#utility.yul\":4878:5047   */\n      swap3\n      swap2\n      pop\n      pop\n      jump\t// out\n        /* \"#utility.yul\":5053:5192   */\n    tag_102:\n        /* \"#utility.yul\":5142:5148   */\n      dup3\n        /* \"#utility.yul\":5137:5140   */\n      dup2\n        /* \"#utility.yul\":5132:5135   */\n      dup4\n        /* \"#utility.yul\":5126:5149   */\n      mcopy\n        /* \"#utility.yul\":5183:5184   */\n      0x00\n        /* \"#utility.yul\":5174:5180   */\n      dup4\n        /* \"#utility.yul\":5169:5172   */\n      dup4\n        /* \"#utility.yul\":5165:5181   */\n      add\n        /* \"#utility.yul\":5158:5185   */\n      mstore\n        /* \"#utility.yul\":5053:5192   */\n      pop\n      pop\n      pop\n      jump\t// out\n        /* \"#utility.yul\":5198:5575   */\n    tag_103:\n        /* \"#utility.yul\":5286:5289   */\n      0x00\n        /* \"#utility.yul\":5314:5353   */\n      tag_185\n        /* \"#utility.yul\":5347:5352   */\n      dup3\n        /* \"#utility.yul\":5314:5353   */\n      tag_100\n      jump\t// in\n    tag_185:\n        /* \"#utility.yul\":5369:5440   */\n      tag_186\n        /* \"#utility.yul\":5433:5439   */\n      dup2\n        /* \"#utility.yul\":5428:5431   */\n      dup6\n        /* \"#utility.yul\":5369:5440   */\n      tag_101\n      jump\t// in\n    tag_186:\n        /* \"#utility.yul\":5362:5440   */\n      swap4\n      pop\n        /* \"#utility.yul\":5449:5514   */\n      tag_187\n        /* \"#utility.yul\":5507:5513   */\n      dup2\n        /* \"#utility.yul\":5502:5505   */\n      dup6\n        /* \"#utility.yul\":5495:5499   */\n      0x20\n        /* \"#utility.yul\":5488:5493   */\n      dup7\n        /* \"#utility.yul\":5484:5500   */\n      add\n        /* \"#utility.yul\":5449:5514   */\n      tag_102\n      jump\t// in\n    tag_187:\n        /* \"#utility.yul\":5539:5568   */\n      tag_188\n        /* \"#utility.yul\":5561:5567   */\n      dup2\n        /* \"#utility.yul\":5539:5568   */\n      tag_90\n      jump\t// in\n    tag_188:\n        /* \"#utility.yul\":5534:5537   */\n      dup5\n        /* \"#utility.yul\":5530:5569   */\n      add\n        /* \"#utility.yul\":5523:5569   */\n      swap2\n      pop\n        /* \"#utility.yul\":5290:5575   */\n      pop\n        /* \"#utility.yul\":5198:5575   */\n      swap3\n      swap2\n      pop\n      pop\n      jump\t// out\n        /* \"#utility.yul\":5581:6004   */\n    tag_45:\n        /* \"#utility.yul\":5722:5726   */\n      0x00\n        /* \"#utility.yul\":5760:5762   */\n      0x40\n        /* \"#utility.yul\":5749:5758   */\n      dup3\n        /* \"#utility.yul\":5745:5763   */\n      add\n        /* \"#utility.yul\":5737:5763   */\n      swap1\n      pop\n        /* \"#utility.yul\":5773:5844   */\n      tag_190\n        /* \"#utility.yul\":5841:5842   */\n      0x00\n        /* \"#utility.yul\":5830:5839   */\n      dup4\n        /* \"#utility.yul\":5826:5843   */\n      add\n        /* \"#utility.yul\":5817:5823   */\n      dup6\n        /* \"#utility.yul\":5773:5844   */\n      tag_84\n      jump\t// in\n    tag_190:\n        /* \"#utility.yul\":5891:5900   */\n      dup2\n        /* \"#utility.yul\":5885:5889   */\n      dup2\n        /* \"#utility.yul\":5881:5901   */\n      sub\n        /* \"#utility.yul\":5876:5878   */\n      0x20\n        /* \"#utility.yul\":5865:5874   */\n      dup4\n        /* \"#utility.yul\":5861:5879   */\n      add\n        /* \"#utility.yul\":5854:5902   */\n      mstore\n        /* \"#utility.yul\":5919:5997   */\n      tag_191\n        /* \"#utility.yul\":5992:5996   */\n      dup2\n        /* \"#utility.yul\":5983:5989   */\n      dup5\n        /* \"#utility.yul\":5919:5997   */\n      tag_103\n      jump\t// in\n    tag_191:\n        /* \"#utility.yul\":5911:5997   */\n      swap1\n      pop\n        /* \"#utility.yul\":5581:6004   */\n      swap4\n      swap3\n      pop\n      pop\n      pop\n      jump\t// out\n        /* \"#utility.yul\":6010:6190   */\n    tag_104:\n        /* \"#utility.yul\":6058:6135   */\n      0x4e487b7100000000000000000000000000000000000000000000000000000000\n        /* \"#utility.yul\":6055:6056   */\n      0x00\n        /* \"#utility.yul\":6048:6136   */\n      mstore\n        /* \"#utility.yul\":6155:6159   */\n      0x11\n        /* \"#utility.yul\":6152:6153   */\n      0x04\n        /* \"#utility.yul\":6145:6160   */\n      mstore\n        /* \"#utility.yul\":6179:6183   */\n      0x24\n        /* \"#utility.yul\":6176:6177   */\n      0x00\n        /* \"#utility.yul\":6169:6184   */\n      revert\n        /* \"#utility.yul\":6196:6606   */\n    tag_57:\n        /* \"#utility.yul\":6236:6243   */\n      0x00\n        /* \"#utility.yul\":6259:6279   */\n      tag_194\n        /* \"#utility.yul\":6277:6278   */\n      dup3\n        /* \"#utility.yul\":6259:6279   */\n      tag_83\n      jump\t// in\n    tag_194:\n        /* \"#utility.yul\":6254:6279   */\n      swap2\n      pop\n        /* \"#utility.yul\":6293:6313   */\n      tag_195\n        /* \"#utility.yul\":6311:6312   */\n      dup4\n        /* \"#utility.yul\":6293:6313   */\n      tag_83\n      jump\t// in\n    tag_195:\n        /* \"#utility.yul\":6288:6313   */\n      swap3\n      pop\n        /* \"#utility.yul\":6348:6349   */\n      dup3\n        /* \"#utility.yul\":6345:6346   */\n      dup3\n        /* \"#utility.yul\":6341:6350   */\n      mul\n        /* \"#utility.yul\":6370:6400   */\n      tag_196\n        /* \"#utility.yul\":6388:6399   */\n      dup2\n        /* \"#utility.yul\":6370:6400   */\n      tag_83\n      jump\t// in\n    tag_196:\n        /* \"#utility.yul\":6359:6400   */\n      swap2\n      pop\n        /* \"#utility.yul\":6549:6550   */\n      dup3\n        /* \"#utility.yul\":6540:6547   */\n      dup3\n        /* \"#utility.yul\":6536:6551   */\n      div\n        /* \"#utility.yul\":6533:6534   */\n      dup5\n        /* \"#utility.yul\":6530:6552   */\n      eq\n        /* \"#utility.yul\":6510:6511   */\n      dup4\n        /* \"#utility.yul\":6503:6512   */\n      iszero\n        /* \"#utility.yul\":6483:6566   */\n      or\n        /* \"#utility.yul\":6460:6599   */\n      tag_197\n      jumpi\n        /* \"#utility.yul\":6579:6597   */\n      tag_198\n      tag_104\n      jump\t// in\n    tag_198:\n        /* \"#utility.yul\":6460:6599   */\n    tag_197:\n        /* \"#utility.yul\":6244:6606   */\n      pop\n        /* \"#utility.yul\":6196:6606   */\n      swap3\n      swap2\n      pop\n      pop\n      jump\t// out\n        /* \"#utility.yul\":6612:6792   */\n    tag_105:\n        /* \"#utility.yul\":6660:6737   */\n      0x4e487b7100000000000000000000000000000000000000000000000000000000\n        /* \"#utility.yul\":6657:6658   */\n      0x00\n        /* \"#utility.yul\":6650:6738   */\n      mstore\n        /* \"#utility.yul\":6757:6761   */\n      0x12\n        /* \"#utility.yul\":6754:6755   */\n      0x04\n        /* \"#utility.yul\":6747:6762   */\n      mstore\n        /* \"#utility.yul\":6781:6785   */\n      0x24\n        /* \"#utility.yul\":6778:6779   */\n      0x00\n        /* \"#utility.yul\":6771:6786   */\n      revert\n        /* \"#utility.yul\":6798:6983   */\n    tag_60:\n        /* \"#utility.yul\":6838:6839   */\n      0x00\n        /* \"#utility.yul\":6855:6875   */\n      tag_201\n        /* \"#utility.yul\":6873:6874   */\n      dup3\n        /* \"#utility.yul\":6855:6875   */\n      tag_83\n      jump\t// in\n    tag_201:\n        /* \"#utility.yul\":6850:6875   */\n      swap2\n      pop\n        /* \"#utility.yul\":6889:6909   */\n      tag_202\n        /* \"#utility.yul\":6907:6908   */\n      dup4\n        /* \"#utility.yul\":6889:6909   */\n      tag_83\n      jump\t// in\n    tag_202:\n        /* \"#utility.yul\":6884:6909   */\n      swap3\n      pop\n        /* \"#utility.yul\":6928:6929   */\n      dup3\n        /* \"#utility.yul\":6918:6953   */\n      tag_203\n      jumpi\n        /* \"#utility.yul\":6933:6951   */\n      tag_204\n      tag_105\n      jump\t// in\n    tag_204:\n        /* \"#utility.yul\":6918:6953   */\n    tag_203:\n        /* \"#utility.yul\":6975:6976   */\n      dup3\n        /* \"#utility.yul\":6972:6973   */\n      dup3\n        /* \"#utility.yul\":6968:6977   */\n      div\n        /* \"#utility.yul\":6963:6977   */\n      swap1\n      pop\n        /* \"#utility.yul\":6798:6983   */\n      swap3\n      swap2\n      pop\n      pop\n      jump\t// out\n        /* \"#utility.yul\":6989:7169   */\n    tag_106:\n        /* \"#utility.yul\":7037:7114   */\n      0x4e487b7100000000000000000000000000000000000000000000000000000000\n        /* \"#utility.yul\":7034:7035   */\n      0x00\n        /* \"#utility.yul\":7027:7115   */\n      mstore\n        /* \"#utility.yul\":7134:7138   */\n      0x22\n        /* \"#utility.yul\":7131:7132   */\n      0x04\n        /* \"#utility.yul\":7124:7139   */\n      mstore\n        /* \"#utility.yul\":7158:7162   */\n      0x24\n        /* \"#utility.yul\":7155:7156   */\n      0x00\n        /* \"#utility.yul\":7148:7163   */\n      revert\n        /* \"#utility.yul\":7175:7495   */\n    tag_71:\n        /* \"#utility.yul\":7219:7225   */\n      0x00\n        /* \"#utility.yul\":7256:7257   */\n      0x02\n        /* \"#utility.yul\":7250:7254   */\n      dup3\n        /* \"#utility.yul\":7246:7258   */\n      div\n        /* \"#utility.yul\":7236:7258   */\n      swap1\n      pop\n        /* \"#utility.yul\":7303:7304   */\n      0x01\n        /* \"#utility.yul\":7297:7301   */\n      dup3\n        /* \"#utility.yul\":7293:7305   */\n      and\n        /* \"#utility.yul\":7324:7342   */\n      dup1\n        /* \"#utility.yul\":7314:7395   */\n      tag_207\n      jumpi\n        /* \"#utility.yul\":7380:7384   */\n      0x7f\n        /* \"#utility.yul\":7372:7378   */\n      dup3\n        /* \"#utility.yul\":7368:7385   */\n      and\n        /* \"#utility.yul\":7358:7385   */\n      swap2\n      pop\n        /* \"#utility.yul\":7314:7395   */\n    tag_207:\n        /* \"#utility.yul\":7442:7444   */\n      0x20\n        /* \"#utility.yul\":7434:7440   */\n      dup3\n        /* \"#utility.yul\":7431:7445   */\n      lt\n        /* \"#utility.yul\":7411:7429   */\n      dup2\n        /* \"#utility.yul\":7408:7446   */\n      sub\n        /* \"#utility.yul\":7405:7489   */\n      tag_208\n      jumpi\n        /* \"#utility.yul\":7461:7479   */\n      tag_209\n      tag_106\n      jump\t// in\n    tag_209:\n        /* \"#utility.yul\":7405:7489   */\n    tag_208:\n        /* \"#utility.yul\":7226:7495   */\n      pop\n        /* \"#utility.yul\":7175:7495   */\n      swap2\n      swap1\n      pop\n      jump\t// out\n        /* \"#utility.yul\":7501:7642   */\n    tag_107:\n        /* \"#utility.yul\":7550:7554   */\n      0x00\n        /* \"#utility.yul\":7573:7576   */\n      dup2\n        /* \"#utility.yul\":7565:7576   */\n      swap1\n      pop\n        /* \"#utility.yul\":7596:7599   */\n      dup2\n        /* \"#utility.yul\":7593:7594   */\n      0x00\n        /* \"#utility.yul\":7586:7600   */\n      mstore\n        /* \"#utility.yul\":7630:7634   */\n      0x20\n        /* \"#utility.yul\":7627:7628   */\n      0x00\n        /* \"#utility.yul\":7617:7635   */\n      keccak256\n        /* \"#utility.yul\":7609:7635   */\n      swap1\n      pop\n        /* \"#utility.yul\":7501:7642   */\n      swap2\n      swap1\n      pop\n      jump\t// out\n        /* \"#utility.yul\":7648:7741   */\n    tag_108:\n        /* \"#utility.yul\":7685:7691   */\n      0x00\n        /* \"#utility.yul\":7732:7734   */\n      0x20\n        /* \"#utility.yul\":7727:7729   */\n      0x1f\n        /* \"#utility.yul\":7720:7725   */\n      dup4\n        /* \"#utility.yul\":7716:7730   */\n      add\n        /* \"#utility.yul\":7712:7735   */\n      div\n        /* \"#utility.yul\":7702:7735   */\n      swap1\n      pop\n        /* \"#utility.yul\":7648:7741   */\n      swap2\n      swap1\n      pop\n      jump\t// out\n        /* \"#utility.yul\":7747:7854   */\n    tag_109:\n        /* \"#utility.yul\":7791:7799   */\n      0x00\n        /* \"#utility.yul\":7841:7846   */\n      dup3\n        /* \"#utility.yul\":7835:7839   */\n      dup3\n        /* \"#utility.yul\":7831:7847   */\n      shl\n        /* \"#utility.yul\":7810:7847   */\n      swap1\n      pop\n        /* \"#utility.yul\":7747:7854   */\n      swap3\n      swap2\n      pop\n      pop\n      jump\t// out\n        /* \"#utility.yul\":7860:8253   */\n    tag_110:\n        /* \"#utility.yul\":7929:7935   */\n      0x00\n        /* \"#utility.yul\":7979:7980   */\n      0x08\n        /* \"#utility.yul\":7967:7977   */\n      dup4\n        /* \"#utility.yul\":7963:7981   */\n      mul\n        /* \"#utility.yul\":8002:8099   */\n      tag_214\n        /* \"#utility.yul\":8032:8098   */\n      0xffffffffffffffffffffffffffffffffffffffffffffffffffffffffffffffff\n        /* \"#utility.yul\":8021:8030   */\n      dup3\n        /* \"#utility.yul\":8002:8099   */\n      tag_109\n      jump\t// in\n    tag_214:\n        /* \"#utility.yul\":8120:8159   */\n      tag_215\n        /* \"#utility.yul\":8150:8158   */\n      dup7\n        /* \"#utility.yul\":8139:8148   */\n      dup4\n        /* \"#utility.yul\":8120:8159   */\n      tag_109\n      jump\t// in\n    tag_215:\n        /* \"#utility.yul\":8108:8159   */\n      swap6\n      pop\n        /* \"#utility.yul\":8192:8196   */\n      dup1\n        /* \"#utility.yul\":8188:8197   */\n      not\n        /* \"#utility.yul\":8181:8186   */\n      dup5\n        /* \"#utility.yul\":8177:8198   */\n      and\n        /* \"#utility.yul\":8168:8198   */\n      swap4\n      pop\n        /* \"#utility.yul\":8241:8245   */\n      dup1\n        /* \"#utility.yul\":8231:8239   */\n      dup7\n        /* \"#utility.yul\":8227:8246   */\n      and\n        /* \"#utility.yul\":8220:8225   */\n      dup5\n        /* \"#utility.yul\":8217:8247   */\n      or\n        /* \"#utility.yul\":8207:8247   */\n      swap3\n      pop\n        /* \"#utility.yul\":7936:8253   */\n      pop\n      pop\n        /* \"#utility.yul\":7860:8253   */\n      swap4\n      swap3\n      pop\n      pop\n      pop\n      jump\t// out\n        /* \"#utility.yul\":8259:8319   */\n    tag_111:\n        /* \"#utility.yul\":8287:8290   */\n      0x00\n        /* \"#utility.yul\":8308:8313   */\n      dup2\n        /* \"#utility.yul\":8301:8313   */\n      swap1\n      pop\n        /* \"#utility.yul\":8259:8319   */\n      swap2\n      swap1\n      pop\n      jump\t// out\n        /* \"#utility.yul\":8325:8467   */\n    tag_112:\n        /* \"#utility.yul\":8375:8384   */\n      0x00\n        /* \"#utility.yul\":8408:8461   */\n      tag_218\n        /* \"#utility.yul\":8426:8460   */\n      tag_219\n        /* \"#utility.yul\":8435:8459   */\n      tag_220\n        /* \"#utility.yul\":8453:8458   */\n      dup5\n        /* \"#utility.yul\":8435:8459   */\n      tag_83\n      jump\t// in\n    tag_220:\n        /* \"#utility.yul\":8426:8460   */\n      tag_111\n      jump\t// in\n    tag_219:\n        /* \"#utility.yul\":8408:8461   */\n      tag_83\n      jump\t// in\n    tag_218:\n        /* \"#utility.yul\":8395:8461   */\n      swap1\n      pop\n        /* \"#utility.yul\":8325:8467   */\n      swap2\n      swap1\n      pop\n      jump\t// out\n        /* \"#utility.yul\":8473:8548   */\n    tag_113:\n        /* \"#utility.yul\":8516:8519   */\n      0x00\n        /* \"#utility.yul\":8537:8542   */\n      dup2\n        /* \"#utility.yul\":8530:8542   */\n      swap1\n      pop\n        /* \"#utility.yul\":8473:8548   */\n      swap2\n      swap1\n      pop\n      jump\t// out\n        /* \"#utility.yul\":8554:8823   */\n    tag_114:\n        /* \"#utility.yul\":8664:8703   */\n      tag_223\n        /* \"#utility.yul\":8695:8702   */\n      dup4\n        /* \"#utility.yul\":8664:8703   */\n      tag_112\n      jump\t// in\n    tag_223:\n        /* \"#utility.yul\":8725:8816   */\n      tag_224\n        /* \"#utility.yul\":8774:8815   */\n      tag_225\n        /* \"#utility.yul\":8798:8814   */\n      dup3\n        /* \"#utility.yul\":8774:8815   */\n      tag_113\n      jump\t// in\n    tag_225:\n        /* \"#utility.yul\":8766:8772   */\n      dup5\n        /* \"#utility.yul\":8759:8763   */\n      dup5\n        /* \"#utility.yul\":8753:8764   */\n      sload\n        /* \"#utility.yul\":8725:8816   */\n      tag_110\n      jump\t// in\n    tag_224:\n        /* \"#utility.yul\":8719:8723   */\n      dup3\n        /* \"#utility.yul\":8712:8817   */\n      sstore\n        /* \"#utility.yul\":8630:8823   */\n      pop\n        /* \"#utility.yul\":8554:8823   */\n      pop\n      pop\n      pop\n      jump\t// out\n        /* \"#utility.yul\":8829:8902   */\n    tag_115:\n        /* \"#utility.yul\":8874:8877   */\n      0x00\n        /* \"#utility.yul\":8895:8896   */\n      0x00\n        /* \"#utility.yul\":8888:8896   */\n      swap1\n      pop\n        /* \"#utility.yul\":8829:8902   */\n      swap1\n      jump\t// out\n        /* \"#utility.yul\":8908:9097   */\n    tag_116:\n        /* \"#utility.yul\":8985:9017   */\n      tag_228\n      tag_115\n      jump\t// in\n    tag_228:\n        /* \"#utility.yul\":9026:9091   */\n      tag_229\n        /* \"#utility.yul\":9084:9090   */\n      dup2\n        /* \"#utility.yul\":9076:9082   */\n      dup5\n        /* \"#utility.yul\":9070:9074   */\n      dup5\n        /* \"#utility.yul\":9026:9091   */\n      tag_114\n      jump\t// in\n    tag_229:\n        /* \"#utility.yul\":8961:9097   */\n      pop\n        /* \"#utility.yul\":8908:9097   */\n      pop\n      pop\n      jump\t// out\n        /* \"#utility.yul\":9103:9289   */\n    tag_117:\n        /* \"#utility.yul\":9163:9283   */\n    tag_231:\n        /* \"#utility.yul\":9180:9183   */\n      dup2\n        /* \"#utility.yul\":9173:9178   */\n      dup2\n        /* \"#utility.yul\":9170:9184   */\n      lt\n        /* \"#utility.yul\":9163:9283   */\n      iszero\n      tag_233\n      jumpi\n        /* \"#utility.yul\":9234:9273   */\n      tag_234\n        /* \"#utility.yul\":9271:9272   */\n      0x00\n        /* \"#utility.yul\":9264:9269   */\n      dup3\n        /* \"#utility.yul\":9234:9273   */\n      tag_116\n      jump\t// in\n    tag_234:\n        /* \"#utility.yul\":9207:9208   */\n      0x01\n        /* \"#utility.yul\":9200:9205   */\n      dup2\n        /* \"#utility.yul\":9196:9209   */\n      add\n        /* \"#utility.yul\":9187:9209   */\n      swap1\n      pop\n        /* \"#utility.yul\":9163:9283   */\n      jump(tag_231)\n    tag_233:\n        /* \"#utility.yul\":9103:9289   */\n      pop\n      pop\n      jump\t// out\n        /* \"#utility.yul\":9295:9838   */\n    tag_118:\n        /* \"#utility.yul\":9396:9398   */\n      0x1f\n        /* \"#utility.yul\":9391:9394   */\n      dup3\n        /* \"#utility.yul\":9388:9399   */\n      gt\n        /* \"#utility.yul\":9385:9831   */\n      iszero\n      tag_236\n      jumpi\n        /* \"#utility.yul\":9430:9468   */\n      tag_237\n        /* \"#utility.yul\":9462:9467   */\n      dup2\n        /* \"#utility.yul\":9430:9468   */\n      tag_107\n      jump\t// in\n    tag_237:\n        /* \"#utility.yul\":9514:9543   */\n      tag_238\n        /* \"#utility.yul\":9532:9542   */\n      dup5\n        /* \"#utility.yul\":9514:9543   */\n      tag_108\n      jump\t// in\n    tag_238:\n        /* \"#utility.yul\":9504:9512   */\n      dup2\n        /* \"#utility.yul\":9500:9544   */\n      add\n        /* \"#utility.yul\":9697:9699   */\n      0x20\n        /* \"#utility.yul\":9685:9695   */\n      dup6\n        /* \"#utility.yul\":9682:9700   */\n      lt\n        /* \"#utility.yul\":9679:9728   */\n      iszero\n      tag_239\n      jumpi\n        /* \"#utility.yul\":9718:9726   */\n      dup2\n        /* \"#utility.yul\":9703:9726   */\n      swap1\n      pop\n        /* \"#utility.yul\":9679:9728   */\n    tag_239:\n        /* \"#utility.yul\":9741:9821   */\n      tag_240\n        /* \"#utility.yul\":9797:9819   */\n      tag_241\n        /* \"#utility.yul\":9815:9818   */\n      dup6\n        /* \"#utility.yul\":9797:9819   */\n      tag_108\n      jump\t// in\n    tag_241:\n        /* \"#utility.yul\":9787:9795   */\n      dup4\n        /* \"#utility.yul\":9783:9820   */\n      add\n        /* \"#utility.yul\":9770:9781   */\n      dup3\n        /* \"#utility.yul\":9741:9821   */\n      tag_117\n      jump\t// in\n    tag_240:\n        /* \"#utility.yul\":9400:9831   */\n      pop\n      pop\n        /* \"#utility.yul\":9385:9831   */\n    tag_236:\n        /* \"#utility.yul\":9295:9838   */\n      pop\n      pop\n      pop\n      jump\t// out\n        /* \"#utility.yul\":9844:9961   */\n    tag_119:\n        /* \"#utility.yul\":9898:9906   */\n      0x00\n        /* \"#utility.yul\":9948:9953   */\n      dup3\n        /* \"#utility.yul\":9942:9946   */\n      dup3\n        /* \"#utility.yul\":9938:9954   */\n      shr\n        /* \"#utility.yul\":9917:9954   */\n      swap1\n      pop\n        /* \"#utility.yul\":9844:9961   */\n      swap3\n      swap2\n      pop\n      pop\n      jump\t// out\n        /* \"#utility.yul\":9967:10136   */\n    tag_120:\n        /* \"#utility.yul\":10011:10017   */\n      0x00\n        /* \"#utility.yul\":10044:10095   */\n      tag_244\n        /* \"#utility.yul\":10092:10093   */\n      0x00\n        /* \"#utility.yul\":10088:10094   */\n      not\n        /* \"#utility.yul\":10080:10085   */\n      dup5\n        /* \"#utility.yul\":10077:10078   */\n      0x08\n        /* \"#utility.yul\":10073:10086   */\n      mul\n        /* \"#utility.yul\":10044:10095   */\n      tag_119\n      jump\t// in\n    tag_244:\n        /* \"#utility.yul\":10040:10096   */\n      not\n        /* \"#utility.yul\":10125:10129   */\n      dup1\n        /* \"#utility.yul\":10119:10123   */\n      dup4\n        /* \"#utility.yul\":10115:10130   */\n      and\n        /* \"#utility.yul\":10105:10130   */\n      swap2\n      pop\n        /* \"#utility.yul\":10018:10136   */\n      pop\n        /* \"#utility.yul\":9967:10136   */\n      swap3\n      swap2\n      pop\n      pop\n      jump\t// out\n        /* \"#utility.yul\":10141:10436   */\n    tag_121:\n        /* \"#utility.yul\":10217:10221   */\n      0x00\n        /* \"#utility.yul\":10363:10392   */\n      tag_246\n        /* \"#utility.yul\":10388:10391   */\n      dup4\n        /* \"#utility.yul\":10382:10386   */\n      dup4\n        /* \"#utility.yul\":10363:10392   */\n      tag_120\n      jump\t// in\n    tag_246:\n        /* \"#utility.yul\":10355:10392   */\n      swap2\n      pop\n        /* \"#utility.yul\":10425:10428   */\n      dup3\n        /* \"#utility.yul\":10422:10423   */\n      0x02\n        /* \"#utility.yul\":10418:10429   */\n      mul\n        /* \"#utility.yul\":10412:10416   */\n      dup3\n        /* \"#utility.yul\":10409:10430   */\n      or\n        /* \"#utility.yul\":10401:10430   */\n      swap1\n      pop\n        /* \"#utility.yul\":10141:10436   */\n      swap3\n      swap2\n      pop\n      pop\n      jump\t// out\n        /* \"#utility.yul\":10441:11836   */\n    tag_64:\n        /* \"#utility.yul\":10558:10595   */\n      tag_248\n        /* \"#utility.yul\":10591:10594   */\n      dup3\n        /* \"#utility.yul\":10558:10595   */\n      tag_100\n      jump\t// in\n    tag_248:\n        /* \"#utility.yul\":10660:10678   */\n      0xffffffffffffffff\n        /* \"#utility.yul\":10652:10658   */\n      dup2\n        /* \"#utility.yul\":10649:10679   */\n      gt\n        /* \"#utility.yul\":10646:10702   */\n      iszero\n      tag_249\n      jumpi\n        /* \"#utility.yul\":10682:10700   */\n      tag_250\n      tag_91\n      jump\t// in\n    tag_250:\n        /* \"#utility.yul\":10646:10702   */\n    tag_249:\n        /* \"#utility.yul\":10726:10764   */\n      tag_251\n        /* \"#utility.yul\":10758:10762   */\n      dup3\n        /* \"#utility.yul\":10752:10763   */\n      sload\n        /* \"#utility.yul\":10726:10764   */\n      tag_71\n      jump\t// in\n    tag_251:\n        /* \"#utility.yul\":10811:10878   */\n      tag_252\n        /* \"#utility.yul\":10871:10877   */\n      dup3\n        /* \"#utility.yul\":10863:10869   */\n      dup3\n        /* \"#utility.yul\":10857:10861   */\n      dup6\n        /* \"#utility.yul\":10811:10878   */\n      tag_118\n      jump\t// in\n    tag_252:\n        /* \"#utility.yul\":10905:10906   */\n      0x00\n        /* \"#utility.yul\":10929:10933   */\n      0x20\n        /* \"#utility.yul\":10916:10933   */\n      swap1\n      pop\n        /* \"#utility.yul\":10961:10963   */\n      0x1f\n        /* \"#utility.yul\":10953:10959   */\n      dup4\n        /* \"#utility.yul\":10950:10964   */\n      gt\n        /* \"#utility.yul\":10978:10979   */\n      0x01\n        /* \"#utility.yul\":10973:11591   */\n      dup2\n      eq\n      tag_254\n      jumpi\n        /* \"#utility.yul\":11635:11636   */\n      0x00\n        /* \"#utility.yul\":11652:11658   */\n      dup5\n        /* \"#utility.yul\":11649:11726   */\n      iszero\n      tag_255\n      jumpi\n        /* \"#utility.yul\":11701:11710   */\n      dup3\n        /* \"#utility.yul\":11696:11699   */\n      dup8\n        /* \"#utility.yul\":11692:11711   */\n      add\n        /* \"#utility.yul\":11686:11712   */\n      mload\n        /* \"#utility.yul\":11677:11712   */\n      swap1\n      pop\n        /* \"#utility.yul\":11649:11726   */\n    tag_255:\n        /* \"#utility.yul\":11752:11819   */\n      tag_256\n        /* \"#utility.yul\":11812:11818   */\n      dup6\n        /* \"#utility.yul\":11805:11810   */\n      dup3\n        /* \"#utility.yul\":11752:11819   */\n      tag_121\n      jump\t// in\n    tag_256:\n        /* \"#utility.yul\":11746:11750   */\n      dup7\n        /* \"#utility.yul\":11739:11820   */\n      sstore\n        /* \"#utility.yul\":11608:11830   */\n      pop\n        /* \"#utility.yul\":10943:11830   */\n      jump(tag_253)\n        /* \"#utility.yul\":10973:11591   */\n    tag_254:\n        /* \"#utility.yul\":11025:11029   */\n      0x1f\n        /* \"#utility.yul\":11021:11030   */\n      not\n        /* \"#utility.yul\":11013:11019   */\n      dup5\n        /* \"#utility.yul\":11009:11031   */\n      and\n        /* \"#utility.yul\":11059:11096   */\n      tag_257\n        /* \"#utility.yul\":11091:11095   */\n      dup7\n        /* \"#utility.yul\":11059:11096   */\n      tag_107\n      jump\t// in\n    tag_257:\n        /* \"#utility.yul\":11118:11119   */\n      0x00\n        /* \"#utility.yul\":11132:11340   */\n    tag_258:\n        /* \"#utility.yul\":11146:11153   */\n      dup3\n        /* \"#utility.yul\":11143:11144   */\n      dup2\n        /* \"#utility.yul\":11140:11154   */\n      lt\n        /* \"#utility.yul\":11132:11340   */\n      iszero\n      tag_260\n      jumpi\n        /* \"#utility.yul\":11225:11234   */\n      dup5\n        /* \"#utility.yul\":11220:11223   */\n      dup10\n        /* \"#utility.yul\":11216:11235   */\n      add\n        /* \"#utility.yul\":11210:11236   */\n      mload\n        /* \"#utility.yul\":11202:11208   */\n      dup3\n        /* \"#utility.yul\":11195:11237   */\n      sstore\n        /* \"#utility.yul\":11276:11277   */\n      0x01\n        /* \"#utility.yul\":11268:11274   */\n      dup3\n        /* \"#utility.yul\":11264:11278   */\n      add\n        /* \"#utility.yul\":11254:11278   */\n      swap2\n      pop\n        /* \"#utility.yul\":11323:11325   */\n      0x20\n        /* \"#utility.yul\":11312:11321   */\n      dup6\n        /* \"#utility.yul\":11308:11326   */\n      add\n        /* \"#utility.yul\":11295:11326   */\n      swap5\n      pop\n        /* \"#utility.yul\":11169:11173   */\n      0x20\n        /* \"#utility.yul\":11166:11167   */\n      dup2\n        /* \"#utility.yul\":11162:11174   */\n      add\n        /* \"#utility.yul\":11157:11174   */\n      swap1\n      pop\n        /* \"#utility.yul\":11132:11340   */\n      jump(tag_258)\n    tag_260:\n        /* \"#utility.yul\":11368:11374   */\n      dup7\n        /* \"#utility.yul\":11359:11366   */\n      dup4\n        /* \"#utility.yul\":11356:11375   */\n      lt\n        /* \"#utility.yul\":11353:11532   */\n      iszero\n      tag_261\n      jumpi\n        /* \"#utility.yul\":11426:11435   */\n      dup5\n        /* \"#utility.yul\":11421:11424   */\n      dup10\n        /* \"#utility.yul\":11417:11436   */\n      add\n        /* \"#utility.yul\":11411:11437   */\n      mload\n        /* \"#utility.yul\":11469:11517   */\n      tag_262\n        /* \"#utility.yul\":11511:11515   */\n      0x1f\n        /* \"#utility.yul\":11503:11509   */\n      dup10\n        /* \"#utility.yul\":11499:11516   */\n      and\n        /* \"#utility.yul\":11488:11497   */\n      dup3\n        /* \"#utility.yul\":11469:11517   */\n      tag_120\n      jump\t// in\n    tag_262:\n        /* \"#utility.yul\":11461:11467   */\n      dup4\n        /* \"#utility.yul\":11454:11518   */\n      sstore\n        /* \"#utility.yul\":11376:11532   */\n      pop\n        /* \"#utility.yul\":11353:11532   */\n    tag_261:\n        /* \"#utility.yul\":11578:11579   */\n      0x01\n        /* \"#utility.yul\":11574:11575   */\n      0x02\n        /* \"#utility.yul\":11566:11572   */\n      dup9\n        /* \"#utility.yul\":11562:11576   */\n      mul\n        /* \"#utility.yul\":11558:11580   */\n      add\n        /* \"#utility.yul\":11552:11556   */\n      dup9\n        /* \"#utility.yul\":11545:11581   */\n      sstore\n        /* \"#utility.yul\":10980:11591   */\n      pop\n      pop\n      pop\n        /* \"#utility.yul\":10943:11830   */\n    tag_253:\n      pop\n        /* \"#utility.yul\":10533:11836   */\n      pop\n      pop\n      pop\n        /* \"#utility.yul\":10441:11836   */\n      pop\n      pop\n      jump\t// out\n        /* \"#utility.yul\":11842:11990   */\n    tag_122:\n        /* \"#utility.yul\":11944:11955   */\n      0x00\n        /* \"#utility.yul\":11981:11984   */\n      dup2\n        /* \"#utility.yul\":11966:11984   */\n      swap1\n      pop\n        /* \"#utility.yul\":11842:11990   */\n      swap3\n      swap2\n      pop\n      pop\n      jump\t// out\n        /* \"#utility.yul\":11996:12386   */\n    tag_123:\n        /* \"#utility.yul\":12102:12105   */\n      0x00\n        /* \"#utility.yul\":12130:12169   */\n      tag_265\n        /* \"#utility.yul\":12163:12168   */\n      dup3\n        /* \"#utility.yul\":12130:12169   */\n      tag_100\n      jump\t// in\n    tag_265:\n        /* \"#utility.yul\":12185:12274   */\n      tag_266\n        /* \"#utility.yul\":12267:12273   */\n      dup2\n        /* \"#utility.yul\":12262:12265   */\n      dup6\n        /* \"#utility.yul\":12185:12274   */\n      tag_122\n      jump\t// in\n    tag_266:\n        /* \"#utility.yul\":12178:12274   */\n      swap4\n      pop\n        /* \"#utility.yul\":12283:12348   */\n      tag_267\n        /* \"#utility.yul\":12341:12347   */\n      dup2\n        /* \"#utility.yul\":12336:12339   */\n      dup6\n        /* \"#utility.yul\":12329:12333   */\n      0x20\n        /* \"#utility.yul\":12322:12327   */\n      dup7\n        /* \"#utility.yul\":12318:12334   */\n      add\n        /* \"#utility.yul\":12283:12348   */\n      tag_102\n      jump\t// in\n    tag_267:\n        /* \"#utility.yul\":12373:12379   */\n      dup1\n        /* \"#utility.yul\":12368:12371   */\n      dup5\n        /* \"#utility.yul\":12364:12380   */\n      add\n        /* \"#utility.yul\":12357:12380   */\n      swap2\n      pop\n        /* \"#utility.yul\":12106:12386   */\n      pop\n        /* \"#utility.yul\":11996:12386   */\n      swap3\n      swap2\n      pop\n      pop\n      jump\t// out\n        /* \"#utility.yul\":12392:12667   */\n    tag_66:\n        /* \"#utility.yul\":12524:12527   */\n      0x00\n        /* \"#utility.yul\":12546:12641   */\n      tag_269\n        /* \"#utility.yul\":12637:12640   */\n      dup3\n        /* \"#utility.yul\":12628:12634   */\n      dup5\n        /* \"#utility.yul\":12546:12641   */\n      tag_123\n      jump\t// in\n    tag_269:\n        /* \"#utility.yul\":12539:12641   */\n      swap2\n      pop\n        /* \"#utility.yul\":12658:12661   */\n      dup2\n        /* \"#utility.yul\":12651:12661   */\n      swap1\n      pop\n        /* \"#utility.yul\":12392:12667   */\n      swap3\n      swap2\n      pop\n      pop\n      jump\t// out\n        /* \"#utility.yul\":12673:12867   */\n    tag_79:\n        /* \"#utility.yul\":12713:12717   */\n      0x00\n        /* \"#utility.yul\":12733:12753   */\n      tag_271\n        /* \"#utility.yul\":12751:12752   */\n      dup3\n        /* \"#utility.yul\":12733:12753   */\n      tag_83\n      jump\t// in\n    tag_271:\n        /* \"#utility.yul\":12728:12753   */\n      swap2\n      pop\n        /* \"#utility.yul\":12767:12787   */\n      tag_272\n        /* \"#utility.yul\":12785:12786   */\n      dup4\n        /* \"#utility.yul\":12767:12787   */\n      tag_83\n      jump\t// in\n    tag_272:\n        /* \"#utility.yul\":12762:12787   */\n      swap3\n      pop\n        /* \"#utility.yul\":12811:12812   */\n      dup3\n        /* \"#utility.yul\":12808:12809   */\n      dup3\n        /* \"#utility.yul\":12804:12813   */\n      sub\n        /* \"#utility.yul\":12796:12813   */\n      swap1\n      pop\n        /* \"#utility.yul\":12835:12836   */\n      dup2\n        /* \"#utility.yul\":12829:12833   */\n      dup2\n        /* \"#utility.yul\":12826:12837   */\n      gt\n        /* \"#utility.yul\":12823:12860   */\n      iszero\n      tag_273\n      jumpi\n        /* \"#utility.yul\":12840:12858   */\n      tag_274\n      tag_104\n      jump\t// in\n    tag_274:\n        /* \"#utility.yul\":12823:12860   */\n    tag_273:\n        /* \"#utility.yul\":12673:12867   */\n      swap3\n      swap2\n      pop\n      pop\n      jump\t// out\n        /* \"#utility.yul\":12873:13064   */\n    tag_82:\n        /* \"#utility.yul\":12913:12916   */\n      0x00\n        /* \"#utility.yul\":12932:12952   */\n      tag_276\n        /* \"#utility.yul\":12950:12951   */\n      dup3\n        /* \"#utility.yul\":12932:12952   */\n      tag_83\n      jump\t// in\n    tag_276:\n        /* \"#utility.yul\":12927:12952   */\n      swap2\n      pop\n        /* \"#utility.yul\":12966:12986   */\n      tag_277\n        /* \"#utility.yul\":12984:12985   */\n      dup4\n        /* \"#utility.yul\":12966:12986   */\n      tag_83\n      jump\t// in\n    tag_277:\n        /* \"#utility.yul\":12961:12986   */\n      swap3\n      pop\n        /* \"#utility.yul\":13009:13010   */\n      dup3\n        /* \"#utility.yul\":13006:13007   */\n      dup3\n        /* \"#utility.yul\":13002:13011   */\n      add\n        /* \"#utility.yul\":12995:13011   */\n      swap1\n      pop\n        /* \"#utility.yul\":13030:13033   */\n      dup1\n        /* \"#utility.yul\":13027:13028   */\n      dup3\n        /* \"#utility.yul\":13024:13034   */\n      gt\n        /* \"#utility.yul\":13021:13057   */\n      iszero\n      tag_278\n      jumpi\n        /* \"#utility.yul\":13037:13055   */\n      tag_279\n      tag_104\n      jump\t// in\n    tag_279:\n        /* \"#utility.yul\":13021:13057   */\n    tag_278:\n        /* \"#utility.yul\":12873:13064   */\n      swap3\n      swap2\n      pop\n      pop\n      jump\t// out\n\n    auxdata: 0xa26469706673582212209582fafd3d2a1c2cfec6e6de37cb5337a70866063a177f8ec5b4b78ba2dc39d164736f6c634300081f0033\n}\n",
				"bytecode": {
					"linkReferences": {},
					"object": "6080604052348015600e575f5ffd5b50610b718061001c5f395ff3fe608060405234801561000f575f5ffd5b50600436106100a7575f3560e01c80637cc5c1361161006f5780637cc5c1361461013d578063894ec03d1461015b578063c7fb34681461018b578063cd89e72a146101bc578063e3ec0251146101d8578063ec597128146101f6576100a7565b8063011285da146100ab5780632173d6e9146100c95780633205f5fc146100e75780633fbd5bf0146101055780634caadbef14610121575b5f5ffd5b6100b3610214565b6040516100c09190610404565b60405180910390f35b6100d1610229565b6040516100de9190610404565b60405180910390f35b6100ef61022e565b6040516100fc9190610404565b60405180910390f35b61011f600480360381019061011a9190610594565b610243565b005b61013b600480360381019061013691906105ee565b6102c7565b005b6101456102d1565b6040516101529190610404565b60405180910390f35b61017560048036038101906101709190610619565b6102d7565b6040516101829190610404565b60405180910390f35b6101a560048036038101906101a091906105ee565b610304565b6040516101b39291906106c0565b60405180910390f35b6101d660048036038101906101d191906105ee565b6103b9565b005b6101e06103c2565b6040516101ed9190610404565b60405180910390f35b6101fe6103d7565b60405161020b9190610404565b60405180910390f35b5f6001545f54610224919061071b565b905090565b5f5481565b5f6001545f5461023e9190610789565b905090565b6002604051806040016040528083815260200184815250908060018154018082558091505060019003905f5260205f2090600202015f909190919091505f820151815f0155602082015181600101908161029d91906109b6565b505050806003836040516102b19190610abf565b9081526020016040518091039020819055505050565b8060018190555050565b60015481565b6003818051602081018201805184825260208301602085012081835280955050505050505f915090505481565b60028181548110610313575f80fd5b905f5260205f2090600202015f91509050805f015490806001018054610338906107e6565b80601f0160208091040260200160405190810160405280929190818152602001828054610364906107e6565b80156103af5780601f10610386576101008083540402835291602001916103af565b820191905f5260205f20905b81548152906001019060200180831161039257829003601f168201915b5050505050905082565b805f8190555050565b5f6001545f546103d29190610ad5565b905090565b5f6001545f546103e79190610b08565b905090565b5f819050919050565b6103fe816103ec565b82525050565b5f6020820190506104175f8301846103f5565b92915050565b5f604051905090565b5f5ffd5b5f5ffd5b5f5ffd5b5f5ffd5b5f601f19601f8301169050919050565b7f4e487b71000000000000000000000000000000000000000000000000000000005f52604160045260245ffd5b61047c82610436565b810181811067ffffffffffffffff8211171561049b5761049a610446565b5b80604052505050565b5f6104ad61041d565b90506104b98282610473565b919050565b5f67ffffffffffffffff8211156104d8576104d7610446565b5b6104e182610436565b9050602081019050919050565b828183375f83830152505050565b5f61050e610509846104be565b6104a4565b90508281526020810184848401111561052a57610529610432565b5b6105358482856104ee565b509392505050565b5f82601f8301126105515761055061042e565b5b81356105618482602086016104fc565b91505092915050565b610573816103ec565b811461057d575f5ffd5b50565b5f8135905061058e8161056a565b92915050565b5f5f604083850312156105aa576105a9610426565b5b5f83013567ffffffffffffffff8111156105c7576105c661042a565b5b6105d38582860161053d565b92505060206105e485828601610580565b9150509250929050565b5f6020828403121561060357610602610426565b5b5f61061084828501610580565b91505092915050565b5f6020828403121561062e5761062d610426565b5b5f82013567ffffffffffffffff81111561064b5761064a61042a565b5b6106578482850161053d565b91505092915050565b5f81519050919050565b5f82825260208201905092915050565b8281835e5f83830152505050565b5f61069282610660565b61069c818561066a565b93506106ac81856020860161067a565b6106b581610436565b840191505092915050565b5f6040820190506106d35f8301856103f5565b81810360208301526106e58184610688565b90509392505050565b7f4e487b71000000000000000000000000000000000000000000000000000000005f52601160045260245ffd5b5f610725826103ec565b9150610730836103ec565b925082820261073e816103ec565b91508282048414831517610755576107546106ee565b5b5092915050565b7f4e487b71000000000000000000000000000000000000000000000000000000005f52601260045260245ffd5b5f610793826103ec565b915061079e836103ec565b9250826107ae576107ad61075c565b5b828204905092915050565b7f4e487b71000000000000000000000000000000000000000000000000000000005f52602260045260245ffd5b5f60028204905060018216806107fd57607f821691505b6020821081036108105761080f6107b9565b5b50919050565b5f819050815f5260205f209050919050565b5f6020601f8301049050919050565b5f82821b905092915050565b5f600883026108727fffffffffffffffffffffffffffffffffffffffffffffffffffffffffffffffff82610837565b61087c8683610837565b95508019841693508086168417925050509392505050565b5f819050919050565b5f6108b76108b26108ad846103ec565b610894565b6103ec565b9050919050565b5f819050919050565b6108d08361089d565b6108e46108dc826108be565b848454610843565b825550505050565b5f5f905090565b6108fb6108ec565b6109068184846108c7565b505050565b5b818110156109295761091e5f826108f3565b60018101905061090c565b5050565b601f82111561096e5761093f81610816565b61094884610828565b81016020851015610957578190505b61096b61096385610828565b83018261090b565b50505b505050565b5f82821c905092915050565b5f61098e5f1984600802610973565b1980831691505092915050565b5f6109a6838361097f565b9150826002028217905092915050565b6109bf82610660565b67ffffffffffffffff8111156109d8576109d7610446565b5b6109e282546107e6565b6109ed82828561092d565b5f60209050601f831160018114610a1e575f8415610a0c578287015190505b610a16858261099b565b865550610a7d565b601f198416610a2c86610816565b5f5b82811015610a5357848901518255600182019150602085019450602081019050610a2e565b86831015610a705784890151610a6c601f89168261097f565b8355505b6001600288020188555050505b505050505050565b5f81905092915050565b5f610a9982610660565b610aa38185610a85565b9350610ab381856020860161067a565b80840191505092915050565b5f610aca8284610a8f565b915081905092915050565b5f610adf826103ec565b9150610aea836103ec565b9250828203905081811115610b0257610b016106ee565b5b92915050565b5f610b12826103ec565b9150610b1d836103ec565b9250828201905080821115610b3557610b346106ee565b5b9291505056fea26469706673582212209582fafd3d2a1c2cfec6e6de37cb5337a70866063a177f8ec5b4b78ba2dc39d164736f6c634300081f0033",
					"opcodes": "PUSH1 0x80 PUSH1 0x40 MSTORE CALLVALUE DUP1 ISZERO PUSH1 0xE JUMPI PUSH0 PUSH0 REVERT JUMPDEST POP PUSH2 0xB71 DUP1 PUSH2 0x1C PUSH0 CODECOPY PUSH0 RETURN INVALID PUSH1 0x80 PUSH1 0x40 MSTORE CALLVALUE DUP1 ISZERO PUSH2 0xF JUMPI PUSH0 PUSH0 REVERT JUMPDEST POP PUSH1 0x4 CALLDATASIZE LT PUSH2 0xA7 JUMPI PUSH0 CALLDATALOAD PUSH1 0xE0 SHR DUP1 PUSH4 0x7CC5C136 GT PUSH2 0x6F JUMPI DUP1 PUSH4 0x7CC5C136 EQ PUSH2 0x13D JUMPI DUP1 PUSH4 0x894EC03D EQ PUSH2 0x15B JUMPI DUP1 PUSH4 0xC7FB3468 EQ PUSH2 0x18B JUMPI DUP1 PUSH4 0xCD89E72A EQ PUSH2 0x1BC JUMPI DUP1 PUSH4 0xE3EC0251 EQ PUSH2 0x1D8 JUMPI DUP1 PUSH4 0xEC597128 EQ PUSH2 0x1F6 JUMPI PUSH2 0xA7 JUMP JUMPDEST DUP1 PUSH4 0x11285DA EQ PUSH2 0xAB JUMPI DUP1 PUSH4 0x2173D6E9 EQ PUSH2 0xC9 JUMPI DUP1 PUSH4 0x3205F5FC EQ PUSH2 0xE7 JUMPI DUP1 PUSH4 0x3FBD5BF0 EQ PUSH2 0x105 JUMPI DUP1 PUSH4 0x4CAADBEF EQ PUSH2 0x121 JUMPI JUMPDEST PUSH0 PUSH0 REVERT JUMPDEST PUSH2 0xB3 PUSH2 0x214 JUMP JUMPDEST PUSH1 0x40 MLOAD PUSH2 0xC0 SWAP2 SWAP1 PUSH2 0x404 JUMP JUMPDEST PUSH1 0x40 MLOAD DUP1 SWAP2 SUB SWAP1 RETURN JUMPDEST PUSH2 0xD1 PUSH2 0x229 JUMP JUMPDEST PUSH1 0x40 MLOAD PUSH2 0xDE SWAP2 SWAP1 PUSH2 0x404 JUMP JUMPDEST PUSH1 0x40 MLOAD DUP1 SWAP2 SUB SWAP1 RETURN JUMPDEST PUSH2 0xEF PUSH2 0x22E JUMP JUMPDEST PUSH1 0x40 MLOAD PUSH2 0xFC SWAP2 SWAP1 PUSH2 0x404 JUMP JUMPDEST PUSH1 0x40 MLOAD DUP1 SWAP2 SUB SWAP1 RETURN JUMPDEST PUSH2 0x11F PUSH1 0x4 DUP1 CALLDATASIZE SUB DUP2 ADD SWAP1 PUSH2 0x11A SWAP2 SWAP1 PUSH2 0x594 JUMP JUMPDEST PUSH2 0x243 JUMP JUMPDEST STOP JUMPDEST PUSH2 0x13B PUSH1 0x4 DUP1 CALLDATASIZE SUB DUP2 ADD SWAP1 PUSH2 0x136 SWAP2 SWAP1 PUSH2 0x5EE JUMP JUMPDEST PUSH2 0x2C7 JUMP JUMPDEST STOP JUMPDEST PUSH2 0x145 PUSH2 0x2D1 JUMP JUMPDEST PUSH1 0x40 MLOAD PUSH2 0x152 SWAP2 SWAP1 PUSH2 0x404 JUMP JUMPDEST PUSH1 0x40 MLOAD DUP1 SWAP2 SUB SWAP1 RETURN JUMPDEST PUSH2 0x175 PUSH1 0x4 DUP1 CALLDATASIZE SUB DUP2 ADD SWAP1 PUSH2 0x170 SWAP2 SWAP1 PUSH2 0x619 JUMP JUMPDEST PUSH2 0x2D7 JUMP JUMPDEST PUSH1 0x40 MLOAD PUSH2 0x182 SWAP2 SWAP1 PUSH2 0x404 JUMP JUMPDEST PUSH1 0x40 MLOAD DUP1 SWAP2 SUB SWAP1 RETURN JUMPDEST PUSH2 0x1A5 PUSH1 0x4 DUP1 CALLDATASIZE SUB DUP2 ADD SWAP1 PUSH2 0x1A0 SWAP2 SWAP1 PUSH2 0x5EE JUMP JUMPDEST PUSH2 0x304 JUMP JUMPDEST PUSH1 0x40 MLOAD PUSH2 0x1B3 SWAP3 SWAP2 SWAP1 PUSH2 0x6C0 JUMP JUMPDEST PUSH1 0x40 MLOAD DUP1 SWAP2 SUB SWAP1 RETURN JUMPDEST PUSH2 0x1D6 PUSH1 0x4 DUP1 CALLDATASIZE SUB DUP2 ADD SWAP1 PUSH2 0x1D1 SWAP2 SWAP1 PUSH2 0x5EE JUMP JUMPDEST PUSH2 0x3B9 JUMP JUMPDEST STOP JUMPDEST PUSH2 0x1E0 PUSH2 0x3C2 JUMP JUMPDEST PUSH1 0x40 MLOAD PUSH2 0x1ED SWAP2 SWAP1 PUSH2 0x404 JUMP JUMPDEST PUSH1 0x40 MLOAD DUP1 SWAP2 SUB SWAP1 RETURN JUMPDEST PUSH2 0x1FE PUSH2 0x3D7 JUMP JUMPDEST PUSH1 0x40 MLOAD PUSH2 0x20B SWAP2 SWAP1 PUSH2 0x404 JUMP JUMPDEST PUSH1 0x40 MLOAD DUP1 SWAP2 SUB SWAP1 RETURN JUMPDEST PUSH0 PUSH1 0x1 SLOAD PUSH0 SLOAD PUSH2 0x224 SWAP2 SWAP1 PUSH2 0x71B JUMP JUMPDEST SWAP1 POP SWAP1 JUMP JUMPDEST PUSH0 SLOAD DUP2 JUMP JUMPDEST PUSH0 PUSH1 0x1 SLOAD PUSH0 SLOAD PUSH2 0x23E SWAP2 SWAP1 PUSH2 0x789 JUMP JUMPDEST SWAP1 POP SWAP1 JUMP JUMPDEST PUSH1 0x2 PUSH1 0x40 MLOAD DUP1 PUSH1 0x40 ADD PUSH1 0x40 MSTORE DUP1 DUP4 DUP2 MSTORE PUSH1 0x20 ADD DUP5 DUP2 MSTORE POP SWAP1 DUP1 PUSH1 0x1 DUP2 SLOAD ADD DUP1 DUP3 SSTORE DUP1 SWAP2 POP POP PUSH1 0x1 SWAP1 SUB SWAP1 PUSH0 MSTORE PUSH1 0x20 PUSH0 KECCAK256 SWAP1 PUSH1 0x2 MUL ADD PUSH0 SWAP1 SWAP2 SWAP1 SWAP2 SWAP1 SWAP2 POP PUSH0 DUP3 ADD MLOAD DUP2 PUSH0 ADD SSTORE PUSH1 0x20 DUP3 ADD MLOAD DUP2 PUSH1 0x1 ADD SWAP1 DUP2 PUSH2 0x29D SWAP2 SWAP1 PUSH2 0x9B6 JUMP JUMPDEST POP POP POP DUP1 PUSH1 0x3 DUP4 PUSH1 0x40 MLOAD PUSH2 0x2B1 SWAP2 SWAP1 PUSH2 0xABF JUMP JUMPDEST SWAP1 DUP2 MSTORE PUSH1 0x20 ADD PUSH1 0x40 MLOAD DUP1 SWAP2 SUB SWAP1 KECCAK256 DUP2 SWAP1 SSTORE POP POP POP JUMP JUMPDEST DUP1 PUSH1 0x1 DUP2 SWAP1 SSTORE POP POP JUMP JUMPDEST PUSH1 0x1 SLOAD DUP2 JUMP JUMPDEST PUSH1 0x3 DUP2 DUP1 MLOAD PUSH1 0x20 DUP2 ADD DUP3 ADD DUP1 MLOAD DUP5 DUP3 MSTORE PUSH1 0x20 DUP4 ADD PUSH1 0x20 DUP6 ADD KECCAK256 DUP2 DUP4 MSTORE DUP1 SWAP6 POP POP POP POP POP POP PUSH0 SWAP2 POP SWAP1 POP SLOAD DUP2 JUMP JUMPDEST PUSH1 0x2 DUP2 DUP2 SLOAD DUP2 LT PUSH2 0x313 JUMPI PUSH0 DUP1 REVERT JUMPDEST SWAP1 PUSH0 MSTORE PUSH1 0x20 PUSH0 KECCAK256 SWAP1 PUSH1 0x2 MUL ADD PUSH0 SWAP2 POP SWAP1 POP DUP1 PUSH0 ADD SLOAD SWAP1 DUP1 PUSH1 0x1 ADD DUP1 SLOAD PUSH2 0x338 SWAP1 PUSH2 0x7E6 JUMP JUMPDEST DUP1 PUSH1 0x1F ADD PUSH1 0x20 DUP1 SWAP2 DIV MUL PUSH1 0x20 ADD PUSH1 0x40 MLOAD SWAP1 DUP2 ADD PUSH1 0x40 MSTORE DUP1 SWAP3 SWAP2 SWAP1 DUP2 DUP2 MSTORE PUSH1 0x20 ADD DUP3 DUP1 SLOAD PUSH2 0x364 SWAP1 PUSH2 0x7E6 JUMP JUMPDEST DUP1 ISZERO PUSH2 0x3AF JUMPI DUP1 PUSH1 0x1F LT PUSH2 0x386 JUMPI PUSH2 0x100 DUP1 DUP4 SLOAD DIV MUL DUP4 MSTORE SWAP2 PUSH1 0x20 ADD SWAP2 PUSH2 0x3AF JUMP JUMPDEST DUP3 ADD SWAP2 SWAP1 PUSH0 MSTORE PUSH1 0x20 PUSH0 KECCAK256 SWAP1 JUMPDEST DUP2 SLOAD DUP2 MSTORE SWAP1 PUSH1 0x1 ADD SWAP1 PUSH1 0x20 ADD DUP1 DUP4 GT PUSH2 0x392 JUMPI DUP3 SWAP1 SUB PUSH1 0x1F AND DUP3 ADD SWAP2 JUMPDEST POP POP POP POP POP SWAP1 POP DUP3 JUMP JUMPDEST DUP1 PUSH0 DUP2 SWAP1 SSTORE POP POP JUMP JUMPDEST PUSH0 PUSH1 0x1 SLOAD PUSH0 SLOAD PUSH2 0x3D2 SWAP2 SWAP1 PUSH2 0xAD5 JUMP JUMPDEST SWAP1 POP SWAP1 JUMP JUMPDEST PUSH0 PUSH1 0x1 SLOAD PUSH0 SLOAD PUSH2 0x3E7 SWAP2 SWAP1 PUSH2 0xB08 JUMP JUMPDEST SWAP1 POP SWAP1 JUMP JUMPDEST PUSH0 DUP2 SWAP1 POP SWAP2 SWAP1 POP JUMP JUMPDEST PUSH2 0x3FE DUP2 PUSH2 0x3EC JUMP JUMPDEST DUP3 MSTORE POP POP JUMP JUMPDEST PUSH0 PUSH1 0x20 DUP3 ADD SWAP1 POP PUSH2 0x417 PUSH0 DUP4 ADD DUP5 PUSH2 0x3F5 JUMP JUMPDEST SWAP3 SWAP2 POP POP JUMP JUMPDEST PUSH0 PUSH1 0x40 MLOAD SWAP1 POP SWAP1 JUMP JUMPDEST PUSH0 PUSH0 REVERT JUMPDEST PUSH0 PUSH0 REVERT JUMPDEST PUSH0 PUSH0 REVERT JUMPDEST PUSH0 PUSH0 REVERT JUMPDEST PUSH0 PUSH1 0x1F NOT PUSH1 0x1F DUP4 ADD AND SWAP1 POP SWAP2 SWAP1 POP JUMP JUMPDEST PUSH32 0x4E487B7100000000000000000000000000000000000000000000000000000000 PUSH0 MSTORE PUSH1 0x41 PUSH1 0x4 MSTORE PUSH1 0x24 PUSH0 REVERT JUMPDEST PUSH2 0x47C DUP3 PUSH2 0x436 JUMP JUMPDEST DUP2 ADD DUP2 DUP2 LT PUSH8 0xFFFFFFFFFFFFFFFF DUP3 GT OR ISZERO PUSH2 0x49B JUMPI PUSH2 0x49A PUSH2 0x446 JUMP JUMPDEST JUMPDEST DUP1 PUSH1 0x40 MSTORE POP POP POP JUMP JUMPDEST PUSH0 PUSH2 0x4AD PUSH2 0x41D JUMP JUMPDEST SWAP1 POP PUSH2 0x4B9 DUP3 DUP3 PUSH2 0x473 JUMP JUMPDEST SWAP2 SWAP1 POP JUMP JUMPDEST PUSH0 PUSH8 0xFFFFFFFFFFFFFFFF DUP3 GT ISZERO PUSH2 0x4D8 JUMPI PUSH2 0x4D7 PUSH2 0x446 JUMP JUMPDEST JUMPDEST PUSH2 0x4E1 DUP3 PUSH2 0x436 JUMP JUMPDEST SWAP1 POP PUSH1 0x20 DUP2 ADD SWAP1 POP SWAP2 SWAP1 POP JUMP JUMPDEST DUP3 DUP2 DUP4 CALLDATACOPY PUSH0 DUP4 DUP4 ADD MSTORE POP POP POP JUMP JUMPDEST PUSH0 PUSH2 0x50E PUSH2 0x509 DUP5 PUSH2 0x4BE JUMP JUMPDEST PUSH2 0x4A4 JUMP JUMPDEST SWAP1 POP DUP3 DUP2 MSTORE PUSH1 0x20 DUP2 ADD DUP5 DUP5 DUP5 ADD GT ISZERO PUSH2 0x52A JUMPI PUSH2 0x529 PUSH2 0x432 JUMP JUMPDEST JUMPDEST PUSH2 0x535 DUP5 DUP3 DUP6 PUSH2 0x4EE JUMP JUMPDEST POP SWAP4 SWAP3 POP POP POP JUMP JUMPDEST PUSH0 DUP3 PUSH1 0x1F DUP4 ADD SLT PUSH2 0x551 JUMPI PUSH2 0x550 PUSH2 0x42E JUMP JUMPDEST JUMPDEST DUP2 CALLDATALOAD PUSH2 0x561 DUP5 DUP3 PUSH1 0x20 DUP7 ADD PUSH2 0x4FC JUMP JUMPDEST SWAP2 POP POP SWAP3 SWAP2 POP POP JUMP JUMPDEST PUSH2 0x573 DUP2 PUSH2 0x3EC JUMP JUMPDEST DUP2 EQ PUSH2 0x57D JUMPI PUSH0 PUSH0 REVERT JUMPDEST POP JUMP JUMPDEST PUSH0 DUP2 CALLDATALOAD SWAP1 POP PUSH2 0x58E DUP2 PUSH2 0x56A JUMP JUMPDEST SWAP3 SWAP2 POP POP JUMP JUMPDEST PUSH0 PUSH0 PUSH1 0x40 DUP4 DUP6 SUB SLT ISZERO PUSH2 0x5AA JUMPI PUSH2 0x5A9 PUSH2 0x426 JUMP JUMPDEST JUMPDEST PUSH0 DUP4 ADD CALLDATALOAD PUSH8 0xFFFFFFFFFFFFFFFF DUP2 GT ISZERO PUSH2 0x5C7 JUMPI PUSH2 0x5C6 PUSH2 0x42A JUMP JUMPDEST JUMPDEST PUSH2 0x5D3 DUP6 DUP3 DUP7 ADD PUSH2 0x53D JUMP JUMPDEST SWAP3 POP POP PUSH1 0x20 PUSH2 0x5E4 DUP6 DUP3 DUP7 ADD PUSH2 0x580 JUMP JUMPDEST SWAP2 POP POP SWAP3 POP SWAP3 SWAP1 POP JUMP JUMPDEST PUSH0 PUSH1 0x20 DUP3 DUP5 SUB SLT ISZERO PUSH2 0x603 JUMPI PUSH2 0x602 PUSH2 0x426 JUMP JUMPDEST JUMPDEST PUSH0 PUSH2 0x610 DUP5 DUP3 DUP6 ADD PUSH2 0x580 JUMP JUMPDEST SWAP2 POP POP SWAP3 SWAP2 POP POP JUMP JUMPDEST PUSH0 PUSH1 0x20 DUP3 DUP5 SUB SLT ISZERO PUSH2 0x62E JUMPI PUSH2 0x62D PUSH2 0x426 JUMP JUMPDEST JUMPDEST PUSH0 DUP3 ADD CALLDATALOAD PUSH8 0xFFFFFFFFFFFFFFFF DUP2 GT ISZERO PUSH2 0x64B JUMPI PUSH2 0x64A PUSH2 0x42A JUMP JUMPDEST JUMPDEST PUSH2 0x657 DUP5 DUP3 DUP6 ADD PUSH2 0x53D JUMP JUMPDEST SWAP2 POP POP SWAP3 SWAP2 POP POP JUMP JUMPDEST PUSH0 DUP2 MLOAD SWAP1 POP SWAP2 SWAP1 POP JUMP JUMPDEST PUSH0 DUP3 DUP3 MSTORE PUSH1 0x20 DUP3 ADD SWAP1 POP SWAP3 SWAP2 POP POP JUMP JUMPDEST DUP3 DUP2 DUP4 MCOPY PUSH0 DUP4 DUP4 ADD MSTORE POP POP POP JUMP JUMPDEST PUSH0 PUSH2 0x692 DUP3 PUSH2 0x660 JUMP JUMPDEST PUSH2 0x69C DUP2 DUP6 PUSH2 0x66A JUMP JUMPDEST SWAP4 POP PUSH2 0x6AC DUP2 DUP6 PUSH1 0x20 DUP7 ADD PUSH2 0x67A JUMP JUMPDEST PUSH2 0x6B5 DUP2 PUSH2 0x436 JUMP JUMPDEST DUP5 ADD SWAP2 POP POP SWAP3 SWAP2 POP POP JUMP JUMPDEST PUSH0 PUSH1 0x40 DUP3 ADD SWAP1 POP PUSH2 0x6D3 PUSH0 DUP4 ADD DUP6 PUSH2 0x3F5 JUMP JUMPDEST DUP2 DUP2 SUB PUSH1 0x20 DUP4 ADD MSTORE PUSH2 0x6E5 DUP2 DUP5 PUSH2 0x688 JUMP JUMPDEST SWAP1 POP SWAP4 SWAP3 POP POP POP JUMP JUMPDEST PUSH32 0x4E487B7100000000000000000000000000000000000000000000000000000000 PUSH0 MSTORE PUSH1 0x11 PUSH1 0x4 MSTORE PUSH1 0x24 PUSH0 REVERT JUMPDEST PUSH0 PUSH2 0x725 DUP3 PUSH2 0x3EC JUMP JUMPDEST SWAP2 POP PUSH2 0x730 DUP4 PUSH2 0x3EC JUMP JUMPDEST SWAP3 POP DUP3 DUP3 MUL PUSH2 0x73E DUP2 PUSH2 0x3EC JUMP JUMPDEST SWAP2 POP DUP3 DUP3 DIV DUP5 EQ DUP4 ISZERO OR PUSH2 0x755 JUMPI PUSH2 0x754 PUSH2 0x6EE JUMP JUMPDEST JUMPDEST POP SWAP3 SWAP2 POP POP JUMP JUMPDEST PUSH32 0x4E487B7100000000000000000000000000000000000000000000000000000000 PUSH0 MSTORE PUSH1 0x12 PUSH1 0x4 MSTORE PUSH1 0x24 PUSH0 REVERT JUMPDEST PUSH0 PUSH2 0x793 DUP3 PUSH2 0x3EC JUMP JUMPDEST SWAP2 POP PUSH2 0x79E DUP4 PUSH2 0x3EC JUMP JUMPDEST SWAP3 POP DUP3 PUSH2 0x7AE JUMPI PUSH2 0x7AD PUSH2 0x75C JUMP JUMPDEST JUMPDEST DUP3 DUP3 DIV SWAP1 POP SWAP3 SWAP2 POP POP JUMP JUMPDEST PUSH32 0x4E487B7100000000000000000000000000000000000000000000000000000000 PUSH0 MSTORE PUSH1 0x22 PUSH1 0x4 MSTORE PUSH1 0x24 PUSH0 REVERT JUMPDEST PUSH0 PUSH1 0x2 DUP3 DIV SWAP1 POP PUSH1 0x1 DUP3 AND DUP1 PUSH2 0x7FD JUMPI PUSH1 0x7F DUP3 AND SWAP2 POP JUMPDEST PUSH1 0x20 DUP3 LT DUP2 SUB PUSH2 0x810 JUMPI PUSH2 0x80F PUSH2 0x7B9 JUMP JUMPDEST JUMPDEST POP SWAP2 SWAP1 POP JUMP JUMPDEST PUSH0 DUP2 SWAP1 POP DUP2 PUSH0 MSTORE PUSH1 0x20 PUSH0 KECCAK256 SWAP1 POP SWAP2 SWAP1 POP JUMP JUMPDEST PUSH0 PUSH1 0x20 PUSH1 0x1F DUP4 ADD DIV SWAP1 POP SWAP2 SWAP1 POP JUMP JUMPDEST PUSH0 DUP3 DUP3 SHL SWAP1 POP SWAP3 SWAP2 POP POP JUMP JUMPDEST PUSH0 PUSH1 0x8 DUP4 MUL PUSH2 0x872 PUSH32 0xFFFFFFFFFFFFFFFFFFFFFFFFFFFFFFFFFFFFFFFFFFFFFFFFFFFFFFFFFFFFFFFF DUP3 PUSH2 0x837 JUMP JUMPDEST PUSH2 0x87C DUP7 DUP4 PUSH2 0x837 JUMP JUMPDEST SWAP6 POP DUP1 NOT DUP5 AND SWAP4 POP DUP1 DUP7 AND DUP5 OR SWAP3 POP POP POP SWAP4 SWAP3 POP POP POP JUMP JUMPDEST PUSH0 DUP2 SWAP1 POP SWAP2 SWAP1 POP JUMP JUMPDEST PUSH0 PUSH2 0x8B7 PUSH2 0x8B2 PUSH2 0x8AD DUP5 PUSH2 0x3EC JUMP JUMPDEST PUSH2 0x894 JUMP JUMPDEST PUSH2 0x3EC JUMP JUMPDEST SWAP1 POP SWAP2 SWAP1 POP JUMP JUMPDEST PUSH0 DUP2 SWAP1 POP SWAP2 SWAP1 POP JUMP JUMPDEST PUSH2 0x8D0 DUP4 PUSH2 0x89D JUMP JUMPDEST PUSH2 0x8E4 PUSH2 0x8DC DUP3 PUSH2 0x8BE JUMP JUMPDEST DUP5 DUP5 SLOAD PUSH2 0x843 JUMP JUMPDEST DUP3 SSTORE POP POP POP POP JUMP JUMPDEST PUSH0 PUSH0 SWAP1 POP SWAP1 JUMP JUMPDEST PUSH2 0x8FB PUSH2 0x8EC JUMP JUMPDEST PUSH2 0x906 DUP2 DUP5 DUP5 PUSH2 0x8C7 JUMP JUMPDEST POP POP POP JUMP JUMPDEST JUMPDEST DUP2 DUP2 LT ISZERO PUSH2 0x929 JUMPI PUSH2 0x91E PUSH0 DUP3 PUSH2 0x8F3 JUMP JUMPDEST PUSH1 0x1 DUP2 ADD SWAP1 POP PUSH2 0x90C JUMP JUMPDEST POP POP JUMP JUMPDEST PUSH1 0x1F DUP3 GT ISZERO PUSH2 0x96E JUMPI PUSH2 0x93F DUP2 PUSH2 0x816 JUMP JUMPDEST PUSH2 0x948 DUP5 PUSH2 0x828 JUMP JUMPDEST DUP2 ADD PUSH1 0x20 DUP6 LT ISZERO PUSH2 0x957 JUMPI DUP2 SWAP1 POP JUMPDEST PUSH2 0x96B PUSH2 0x963 DUP6 PUSH2 0x828 JUMP JUMPDEST DUP4 ADD DUP3 PUSH2 0x90B JUMP JUMPDEST POP POP JUMPDEST POP POP POP JUMP JUMPDEST PUSH0 DUP3 DUP3 SHR SWAP1 POP SWAP3 SWAP2 POP POP JUMP JUMPDEST PUSH0 PUSH2 0x98E PUSH0 NOT DUP5 PUSH1 0x8 MUL PUSH2 0x973 JUMP JUMPDEST NOT DUP1 DUP4 AND SWAP2 POP POP SWAP3 SWAP2 POP POP JUMP JUMPDEST PUSH0 PUSH2 0x9A6 DUP4 DUP4 PUSH2 0x97F JUMP JUMPDEST SWAP2 POP DUP3 PUSH1 0x2 MUL DUP3 OR SWAP1 POP SWAP3 SWAP2 POP POP JUMP JUMPDEST PUSH2 0x9BF DUP3 PUSH2 0x660 JUMP JUMPDEST PUSH8 0xFFFFFFFFFFFFFFFF DUP2 GT ISZERO PUSH2 0x9D8 JUMPI PUSH2 0x9D7 PUSH2 0x446 JUMP JUMPDEST JUMPDEST PUSH2 0x9E2 DUP3 SLOAD PUSH2 0x7E6 JUMP JUMPDEST PUSH2 0x9ED DUP3 DUP3 DUP6 PUSH2 0x92D JUMP JUMPDEST PUSH0 PUSH1 0x20 SWAP1 POP PUSH1 0x1F DUP4 GT PUSH1 0x1 DUP2 EQ PUSH2 0xA1E JUMPI PUSH0 DUP5 ISZERO PUSH2 0xA0C JUMPI DUP3 DUP8 ADD MLOAD SWAP1 POP JUMPDEST PUSH2 0xA16 DUP6 DUP3 PUSH2 0x99B JUMP JUMPDEST DUP7 SSTORE POP PUSH2 0xA7D JUMP JUMPDEST PUSH1 0x1F NOT DUP5 AND PUSH2 0xA2C DUP7 PUSH2 0x816 JUMP JUMPDEST PUSH0 JUMPDEST DUP3 DUP2 LT ISZERO PUSH2 0xA53 JUMPI DUP5 DUP10 ADD MLOAD DUP3 SSTORE PUSH1 0x1 DUP3 ADD SWAP2 POP PUSH1 0x20 DUP6 ADD SWAP5 POP PUSH1 0x20 DUP2 ADD SWAP1 POP PUSH2 0xA2E JUMP JUMPDEST DUP7 DUP4 LT ISZERO PUSH2 0xA70 JUMPI DUP5 DUP10 ADD MLOAD PUSH2 0xA6C PUSH1 0x1F DUP10 AND DUP3 PUSH2 0x97F JUMP JUMPDEST DUP4 SSTORE POP JUMPDEST PUSH1 0x1 PUSH1 0x2 DUP9 MUL ADD DUP9 SSTORE POP POP POP JUMPDEST POP POP POP POP POP POP JUMP JUMPDEST PUSH0 DUP2 SWAP1 POP SWAP3 SWAP2 POP POP JUMP JUMPDEST PUSH0 PUSH2 0xA99 DUP3 PUSH2 0x660 JUMP JUMPDEST PUSH2 0xAA3 DUP2 DUP6 PUSH2 0xA85 JUMP JUMPDEST SWAP4 POP PUSH2 0xAB3 DUP2 DUP6 PUSH1 0x20 DUP7 ADD PUSH2 0x67A JUMP JUMPDEST DUP1 DUP5 ADD SWAP2 POP POP SWAP3 SWAP2 POP POP JUMP JUMPDEST PUSH0 PUSH2 0xACA DUP3 DUP5 PUSH2 0xA8F JUMP JUMPDEST SWAP2 POP DUP2 SWAP1 POP SWAP3 SWAP2 POP POP JUMP JUMPDEST PUSH0 PUSH2 0xADF DUP3 PUSH2 0x3EC JUMP JUMPDEST SWAP2 POP PUSH2 0xAEA DUP4 PUSH2 0x3EC JUMP JUMPDEST SWAP3 POP DUP3 DUP3 SUB SWAP1 POP DUP2 DUP2 GT ISZERO PUSH2 0xB02 JUMPI PUSH2 0xB01 PUSH2 0x6EE JUMP JUMPDEST JUMPDEST SWAP3 SWAP2 POP POP JUMP JUMPDEST PUSH0 PUSH2 0xB12 DUP3 PUSH2 0x3EC JUMP JUMPDEST SWAP2 POP PUSH2 0xB1D DUP4 PUSH2 0x3EC JUMP JUMPDEST SWAP3 POP DUP3 DUP3 ADD SWAP1 POP DUP1 DUP3 GT ISZERO PUSH2 0xB35 JUMPI PUSH2 0xB34 PUSH2 0x6EE JUMP JUMPDEST JUMPDEST SWAP3 SWAP2 POP POP JUMP INVALID LOG2 PUSH5 0x6970667358 0x22 SLT KECCAK256 SWAP6 DUP3 STATICCALL REVERT RETURNDATASIZE 0x2A SHR 0x2C INVALID 0xC6 DUPN 0xDE CALLDATACOPY 0xCB MSTORE8 CALLDATACOPY 0xA7 ADDMOD PUSH7 0x63A177F8EC5B4 0xB7 DUP12 LOG2 0xDC CODECOPY DATALOADN 0x6473 PUSH16 0x6C634300081F00330000000000000000 "
				},
				"gasEstimates": {
					"creation": {
						"codeDepositCost": "585800",
						"executionCost": "617",
						"totalCost": "586417"
					},
					"external": {
						"People(uint256)": "infinite",
						"addition()": "infinite",
						"addpersons(string,uint256)": "infinite",
						"division()": "infinite",
						"firstNumber()": "2447",
						"multiplication()": "infinite",
						"nametoage(string)": "infinite",
						"secondNumber()": "2425",
						"setFirstNumber(uint256)": "22580",
						"setSecondNumber(uint256)": "22604",
						"subtraction()": "infinite"
					}
				},
				"methodIdentifiers": {
					"People(uint256)": "c7fb3468",
					"addition()": "ec597128",
					"addpersons(string,uint256)": "3fbd5bf0",
					"division()": "3205f5fc",
					"firstNumber()": "2173d6e9",
					"multiplication()": "011285da",
					"nametoage(string)": "894ec03d",
					"secondNumber()": "7cc5c136",
					"setFirstNumber(uint256)": "cd89e72a",
					"setSecondNumber(uint256)": "4caadbef",
					"subtraction()": "e3ec0251"
				}
			},
			"storageLayout": {
				"storage": [
					{
						"astId": 3,
						"contract": ".git/contract/Learn.sol:Project",
						"label": "firstNumber",
						"offset": 0,
						"slot": "0",
						"type": "t_uint256"
					},
					{
						"astId": 5,
						"contract": ".git/contract/Learn.sol:Project",
						"label": "secondNumber",
						"offset": 0,
						"slot": "1",
						"type": "t_uint256"
					},
					{
						"astId": 14,
						"contract": ".git/contract/Learn.sol:Project",
						"label": "People",
						"offset": 0,
						"slot": "2",
						"type": "t_array(t_struct(Person)10_storage)dyn_storage"
					},
					{
						"astId": 18,
						"contract": ".git/contract/Learn.sol:Project",
						"label": "nametoage",
						"offset": 0,
						"slot": "3",
						"type": "t_mapping(t_string_memory_ptr,t_uint256)"
					}
				],
				"types": {
					"t_array(t_struct(Person)10_storage)dyn_storage": {
						"base": "t_struct(Person)10_storage",
						"encoding": "dynamic_array",
						"label": "struct Project.Person[]",
						"numberOfBytes": "32"
					},
					"t_mapping(t_string_memory_ptr,t_uint256)": {
						"encoding": "mapping",
						"key": "t_string_memory_ptr",
						"label": "mapping(string => uint256)",
						"numberOfBytes": "32",
						"value": "t_uint256"
					},
					"t_string_memory_ptr": {
						"encoding": "bytes",
						"label": "string",
						"numberOfBytes": "32"
					},
					"t_string_storage": {
						"encoding": "bytes",
						"label": "string",
						"numberOfBytes": "32"
					},
					"t_struct(Person)10_storage": {
						"encoding": "inplace",
						"label": "struct Project.Person",
						"members": [
							{
								"astId": 7,
								"contract": ".git/contract/Learn.sol:Project",
								"label": "age",
								"offset": 0,
								"slot": "0",
								"type": "t_uint256"
							},
							{
								"astId": 9,
								"contract": ".git/contract/Learn.sol:Project",
								"label": "name",
								"offset": 0,
								"slot": "1",
								"type": "t_string_storage"
							}
						],
						"numberOfBytes": "64"
					},
					"t_uint256": {
						"encoding": "inplace",
						"label": "uint256",
						"numberOfBytes": "32"
					}
				}
			},
			"userdoc": {
				"kind": "user",
				"methods": {},
				"version": 1
			}
		}
	}
}