{
	"contract/task.sol": {
		"TaskManager": {
			"abi": [
				{
					"inputs": [
						{
							"internalType": "uint256",
							"name": "_id",
							"type": "uint256"
						}
					],
					"name": "completeTask",
					"outputs": [],
					"stateMutability": "nonpayable",
					"type": "function"
				},
				{
					"inputs": [],
					"name": "contractActive",
					"outputs": [
						{
							"internalType": "bool",
							"name": "",
							"type": "bool"
						}
					],
					"stateMutability": "view",
					"type": "function"
				},
				{
					"inputs": [
						{
							"internalType": "string",
							"name": "_title",
							"type": "string"
						}
					],
					"name": "createTask",
					"outputs": [],
					"stateMutability": "nonpayable",
					"type": "function"
				},
				{
					"inputs": [
						{
							"internalType": "uint256",
							"name": "_id",
							"type": "uint256"
						}
					],
					"name": "getTask",
					"outputs": [
						{
							"internalType": "uint256",
							"name": "",
							"type": "uint256"
						},
						{
							"internalType": "string",
							"name": "",
							"type": "string"
						},
						{
							"internalType": "bool",
							"name": "",
							"type": "bool"
						}
					],
					"stateMutability": "view",
					"type": "function"
				},
				{
					"inputs": [],
					"name": "getTaskCount",
					"outputs": [
						{
							"internalType": "uint256",
							"name": "",
							"type": "uint256"
						}
					],
					"stateMutability": "view",
					"type": "function"
				},
				{
					"inputs": [
						{
							"internalType": "uint256",
							"name": "",
							"type": "uint256"
						}
					],
					"name": "taskCompleted",
					"outputs": [
						{
							"internalType": "bool",
							"name": "",
							"type": "bool"
						}
					],
					"stateMutability": "view",
					"type": "function"
				},
				{
					"inputs": [
						{
							"internalType": "uint256",
							"name": "",
							"type": "uint256"
						}
					],
					"name": "tasks",
					"outputs": [
						{
							"internalType": "uint256",
							"name": "id",
							"type": "uint256"
						},
						{
							"internalType": "string",
							"name": "title",
							"type": "string"
						},
						{
							"internalType": "bool",
							"name": "completed",
							"type": "bool"
						}
					],
					"stateMutability": "view",
					"type": "function"
				},
				{
					"inputs": [
						{
							"internalType": "bool",
							"name": "_status",
							"type": "bool"
						}
					],
					"name": "toggleContract",
					"outputs": [],
					"stateMutability": "nonpayable",
					"type": "function"
				},
				{
					"inputs": [],
					"name": "totalTasks",
					"outputs": [
						{
							"internalType": "uint256",
							"name": "",
							"type": "uint256"
						}
					],
					"stateMutability": "view",
					"type": "function"
				}
			],
			"devdoc": {
				"kind": "dev",
				"methods": {},
				"version": 1
			},
			"evm": {
				"assembly": "    /* \"contract/task.sol\":58:1191  contract TaskManager {... */\n  mstore(0x40, 0x80)\n    /* \"contract/task.sol\":146:150  true */\n  0x01\n    /* \"contract/task.sol\":117:150  bool public contractActive = true */\n  dup1\n  exp(0x0100, 0x00)\n  dup2\n  sload\n  dup2\n  0xff\n  mul\n  not\n  and\n  swap1\n  dup4\n  iszero\n  iszero\n  mul\n  or\n  swap1\n  sstore\n  pop\n    /* \"contract/task.sol\":58:1191  contract TaskManager {... */\n  callvalue\n  dup1\n  iszero\n  tag_1\n  jumpi\n  revert(0x00, 0x00)\ntag_1:\n  pop\n  dataSize(sub_0)\n  dup1\n  dataOffset(sub_0)\n  0x00\n  codecopy\n  0x00\n  return\nstop\n\nsub_0: assembly {\n        /* \"contract/task.sol\":58:1191  contract TaskManager {... */\n      mstore(0x40, 0x80)\n      callvalue\n      dup1\n      iszero\n      tag_1\n      jumpi\n      revert(0x00, 0x00)\n    tag_1:\n      pop\n      jumpi(tag_2, lt(calldatasize, 0x04))\n      shr(0xe0, calldataload(0x00))\n      dup1\n      0x8d977672\n      gt\n      tag_12\n      jumpi\n      dup1\n      0x8d977672\n      eq\n      tag_7\n      jumpi\n      dup1\n      0xc17a340e\n      eq\n      tag_8\n      jumpi\n      dup1\n      0xd22c81e5\n      eq\n      tag_9\n      jumpi\n      dup1\n      0xe1e29558\n      eq\n      tag_10\n      jumpi\n      dup1\n      0xe289fcb6\n      eq\n      tag_11\n      jumpi\n      jump(tag_2)\n    tag_12:\n      dup1\n      0x111002aa\n      eq\n      tag_3\n      jumpi\n      dup1\n      0x1d65e77e\n      eq\n      tag_4\n      jumpi\n      dup1\n      0x23049720\n      eq\n      tag_5\n      jumpi\n      dup1\n      0x7fea0249\n      eq\n      tag_6\n      jumpi\n    tag_2:\n      revert(0x00, 0x00)\n        /* \"contract/task.sol\":327:608  function createTask(string memory _title) public {... */\n    tag_3:\n      tag_13\n      0x04\n      dup1\n      calldatasize\n      sub\n      dup2\n      add\n      swap1\n      tag_14\n      swap2\n      swap1\n      tag_15\n      jump\t// in\n    tag_14:\n      tag_16\n      jump\t// in\n    tag_13:\n      stop\n        /* \"contract/task.sol\":797:1002  function getTask(uint _id) public view returns (... */\n    tag_4:\n      tag_17\n      0x04\n      dup1\n      calldatasize\n      sub\n      dup2\n      add\n      swap1\n      tag_18\n      swap2\n      swap1\n      tag_19\n      jump\t// in\n    tag_18:\n      tag_20\n      jump\t// in\n    tag_17:\n      mload(0x40)\n      tag_21\n      swap4\n      swap3\n      swap2\n      swap1\n      tag_22\n      jump\t// in\n    tag_21:\n      mload(0x40)\n      dup1\n      swap2\n      sub\n      swap1\n      return\n        /* \"contract/task.sol\":1103:1189  function toggleContract(bool _status) public {... */\n    tag_5:\n      tag_23\n      0x04\n      dup1\n      calldatasize\n      sub\n      dup2\n      add\n      swap1\n      tag_24\n      swap2\n      swap1\n      tag_25\n      jump\t// in\n    tag_24:\n      tag_26\n      jump\t// in\n    tag_23:\n      stop\n        /* \"contract/task.sol\":274:316  mapping(uint => bool) public taskCompleted */\n    tag_6:\n      tag_27\n      0x04\n      dup1\n      calldatasize\n      sub\n      dup2\n      add\n      swap1\n      tag_28\n      swap2\n      swap1\n      tag_19\n      jump\t// in\n    tag_28:\n      tag_29\n      jump\t// in\n    tag_27:\n      mload(0x40)\n      tag_30\n      swap2\n      swap1\n      tag_31\n      jump\t// in\n    tag_30:\n      mload(0x40)\n      dup1\n      swap2\n      sub\n      swap1\n      return\n        /* \"contract/task.sol\":248:267  Task[] public tasks */\n    tag_7:\n      tag_32\n      0x04\n      dup1\n      calldatasize\n      sub\n      dup2\n      add\n      swap1\n      tag_33\n      swap2\n      swap1\n      tag_19\n      jump\t// in\n    tag_33:\n      tag_34\n      jump\t// in\n    tag_32:\n      mload(0x40)\n      tag_35\n      swap4\n      swap3\n      swap2\n      swap1\n      tag_22\n      jump\t// in\n    tag_35:\n      mload(0x40)\n      dup1\n      swap2\n      sub\n      swap1\n      return\n        /* \"contract/task.sol\":1009:1096  function getTaskCount() public view returns (uint) {... */\n    tag_8:\n      tag_36\n      tag_37\n      jump\t// in\n    tag_36:\n      mload(0x40)\n      tag_38\n      swap2\n      swap1\n      tag_39\n      jump\t// in\n    tag_38:\n      mload(0x40)\n      dup1\n      swap2\n      sub\n      swap1\n      return\n        /* \"contract/task.sol\":89:111  uint public totalTasks */\n    tag_9:\n      tag_40\n      tag_41\n      jump\t// in\n    tag_40:\n      mload(0x40)\n      tag_42\n      swap2\n      swap1\n      tag_39\n      jump\t// in\n    tag_42:\n      mload(0x40)\n      dup1\n      swap2\n      sub\n      swap1\n      return\n        /* \"contract/task.sol\":614:791  function completeTask(uint _id) public {... */\n    tag_10:\n      tag_43\n      0x04\n      dup1\n      calldatasize\n      sub\n      dup2\n      add\n      swap1\n      tag_44\n      swap2\n      swap1\n      tag_19\n      jump\t// in\n    tag_44:\n      tag_45\n      jump\t// in\n    tag_43:\n      stop\n        /* \"contract/task.sol\":117:150  bool public contractActive = true */\n    tag_11:\n      tag_46\n      tag_47\n      jump\t// in\n    tag_46:\n      mload(0x40)\n      tag_48\n      swap2\n      swap1\n      tag_31\n      jump\t// in\n    tag_48:\n      mload(0x40)\n      dup1\n      swap2\n      sub\n      swap1\n      return\n        /* \"contract/task.sol\":327:608  function createTask(string memory _title) public {... */\n    tag_16:\n        /* \"contract/task.sol\":394:408  contractActive */\n      0x01\n      0x00\n      swap1\n      sload\n      swap1\n      0x0100\n      exp\n      swap1\n      div\n      0xff\n      and\n        /* \"contract/task.sol\":386:435  require(contractActive, \"Contract is not active\") */\n      tag_50\n      jumpi\n      mload(0x40)\n      0x08c379a000000000000000000000000000000000000000000000000000000000\n      dup2\n      mstore\n      0x04\n      add\n      tag_51\n      swap1\n      tag_52\n      jump\t// in\n    tag_51:\n      mload(0x40)\n      dup1\n      swap2\n      sub\n      swap1\n      revert\n    tag_50:\n        /* \"contract/task.sol\":446:451  tasks */\n      0x02\n        /* \"contract/task.sol\":457:534  Task(... */\n      mload(0x40)\n      dup1\n      0x60\n      add\n      0x40\n      mstore\n      dup1\n        /* \"contract/task.sol\":475:485  totalTasks */\n      sload(0x00)\n        /* \"contract/task.sol\":457:534  Task(... */\n      dup2\n      mstore\n      0x20\n      add\n        /* \"contract/task.sol\":499:505  _title */\n      dup4\n        /* \"contract/task.sol\":457:534  Task(... */\n      dup2\n      mstore\n      0x20\n      add\n        /* \"contract/task.sol\":519:524  false */\n      0x00\n        /* \"contract/task.sol\":457:534  Task(... */\n      iszero\n      iszero\n      dup2\n      mstore\n      pop\n        /* \"contract/task.sol\":446:535  tasks.push(Task(... */\n      swap1\n      dup1\n      0x01\n      dup2\n      sload\n      add\n      dup1\n      dup3\n      sstore\n      dup1\n      swap2\n      pop\n      pop\n      0x01\n      swap1\n      sub\n      swap1\n      0x00\n      mstore\n      keccak256(0x00, 0x20)\n      swap1\n      0x03\n      mul\n      add\n      0x00\n      swap1\n      swap2\n      swap1\n      swap2\n      swap1\n      swap2\n      pop\n      0x00\n      dup3\n      add\n      mload\n      dup2\n      0x00\n      add\n      sstore\n      0x20\n      dup3\n      add\n      mload\n      dup2\n      0x01\n      add\n      swap1\n      dup2\n      tag_54\n      swap2\n      swap1\n      tag_55\n      jump\t// in\n    tag_54:\n      pop\n      0x40\n      dup3\n      add\n      mload\n      dup2\n      0x02\n      add\n      exp(0x0100, 0x00)\n      dup2\n      sload\n      dup2\n      0xff\n      mul\n      not\n      and\n      swap1\n      dup4\n      iszero\n      iszero\n      mul\n      or\n      swap1\n      sstore\n      pop\n      pop\n      pop\n        /* \"contract/task.sol\":574:579  false */\n      0x00\n        /* \"contract/task.sol\":546:559  taskCompleted */\n      0x03\n        /* \"contract/task.sol\":546:571  taskCompleted[totalTasks] */\n      0x00\n        /* \"contract/task.sol\":560:570  totalTasks */\n      sload(0x00)\n        /* \"contract/task.sol\":546:571  taskCompleted[totalTasks] */\n      dup2\n      mstore\n      0x20\n      add\n      swap1\n      dup2\n      mstore\n      0x20\n      add\n      0x00\n      keccak256\n      0x00\n        /* \"contract/task.sol\":546:579  taskCompleted[totalTasks] = false */\n      0x0100\n      exp\n      dup2\n      sload\n      dup2\n      0xff\n      mul\n      not\n      and\n      swap1\n      dup4\n      iszero\n      iszero\n      mul\n      or\n      swap1\n      sstore\n      pop\n        /* \"contract/task.sol\":589:599  totalTasks */\n      0x00\n      0x00\n        /* \"contract/task.sol\":589:601  totalTasks++ */\n      dup2\n      sload\n      dup1\n      swap3\n      swap2\n      swap1\n      tag_56\n      swap1\n      tag_57\n      jump\t// in\n    tag_56:\n      swap2\n      swap1\n      pop\n      sstore\n      pop\n        /* \"contract/task.sol\":327:608  function createTask(string memory _title) public {... */\n      pop\n      jump\t// out\n        /* \"contract/task.sol\":797:1002  function getTask(uint _id) public view returns (... */\n    tag_20:\n        /* \"contract/task.sol\":854:858  uint */\n      0x00\n        /* \"contract/task.sol\":868:881  string memory */\n      0x60\n        /* \"contract/task.sol\":891:895  bool */\n      0x00\n        /* \"contract/task.sol\":912:928  Task memory task */\n      0x00\n        /* \"contract/task.sol\":931:936  tasks */\n      0x02\n        /* \"contract/task.sol\":937:940  _id */\n      dup6\n        /* \"contract/task.sol\":931:941  tasks[_id] */\n      dup2\n      sload\n      dup2\n      lt\n      tag_59\n      jumpi\n      tag_60\n      tag_61\n      jump\t// in\n    tag_60:\n    tag_59:\n      swap1\n      0x00\n      mstore\n      keccak256(0x00, 0x20)\n      swap1\n      0x03\n      mul\n      add\n        /* \"contract/task.sol\":912:941  Task memory task = tasks[_id] */\n      mload(0x40)\n      dup1\n      0x60\n      add\n      0x40\n      mstore\n      swap1\n      dup2\n      0x00\n      dup3\n      add\n      sload\n      dup2\n      mstore\n      0x20\n      add\n      0x01\n      dup3\n      add\n      dup1\n      sload\n      tag_63\n      swap1\n      tag_64\n      jump\t// in\n    tag_63:\n      dup1\n      0x1f\n      add\n      0x20\n      dup1\n      swap2\n      div\n      mul\n      0x20\n      add\n      mload(0x40)\n      swap1\n      dup2\n      add\n      0x40\n      mstore\n      dup1\n      swap3\n      swap2\n      swap1\n      dup2\n      dup2\n      mstore\n      0x20\n      add\n      dup3\n      dup1\n      sload\n      tag_65\n      swap1\n      tag_64\n      jump\t// in\n    tag_65:\n      dup1\n      iszero\n      tag_66\n      jumpi\n      dup1\n      0x1f\n      lt\n      tag_67\n      jumpi\n      0x0100\n      dup1\n      dup4\n      sload\n      div\n      mul\n      dup4\n      mstore\n      swap2\n      0x20\n      add\n      swap2\n      jump(tag_66)\n    tag_67:\n      dup3\n      add\n      swap2\n      swap1\n      0x00\n      mstore\n      keccak256(0x00, 0x20)\n      swap1\n    tag_68:\n      dup2\n      sload\n      dup2\n      mstore\n      swap1\n      0x01\n      add\n      swap1\n      0x20\n      add\n      dup1\n      dup4\n      gt\n      tag_68\n      jumpi\n      dup3\n      swap1\n      sub\n      0x1f\n      and\n      dup3\n      add\n      swap2\n    tag_66:\n      pop\n      pop\n      pop\n      pop\n      pop\n      dup2\n      mstore\n      0x20\n      add\n      0x02\n      dup3\n      add\n      0x00\n      swap1\n      sload\n      swap1\n      0x0100\n      exp\n      swap1\n      div\n      0xff\n      and\n      iszero\n      iszero\n      iszero\n      iszero\n      dup2\n      mstore\n      pop\n      pop\n      swap1\n      pop\n        /* \"contract/task.sol\":959:963  task */\n      dup1\n        /* \"contract/task.sol\":959:966  task.id */\n      0x00\n      add\n      mload\n        /* \"contract/task.sol\":968:972  task */\n      dup2\n        /* \"contract/task.sol\":968:978  task.title */\n      0x20\n      add\n      mload\n        /* \"contract/task.sol\":980:984  task */\n      dup3\n        /* \"contract/task.sol\":980:994  task.completed */\n      0x40\n      add\n      mload\n        /* \"contract/task.sol\":951:995  return (task.id, task.title, task.completed) */\n      swap4\n      pop\n      swap4\n      pop\n      swap4\n      pop\n      pop\n        /* \"contract/task.sol\":797:1002  function getTask(uint _id) public view returns (... */\n      swap2\n      swap4\n      swap1\n      swap3\n      pop\n      jump\t// out\n        /* \"contract/task.sol\":1103:1189  function toggleContract(bool _status) public {... */\n    tag_26:\n        /* \"contract/task.sol\":1175:1182  _status */\n      dup1\n        /* \"contract/task.sol\":1158:1172  contractActive */\n      0x01\n      0x00\n        /* \"contract/task.sol\":1158:1182  contractActive = _status */\n      0x0100\n      exp\n      dup2\n      sload\n      dup2\n      0xff\n      mul\n      not\n      and\n      swap1\n      dup4\n      iszero\n      iszero\n      mul\n      or\n      swap1\n      sstore\n      pop\n        /* \"contract/task.sol\":1103:1189  function toggleContract(bool _status) public {... */\n      pop\n      jump\t// out\n        /* \"contract/task.sol\":274:316  mapping(uint => bool) public taskCompleted */\n    tag_29:\n      mstore(0x20, 0x03)\n      dup1\n      0x00\n      mstore\n      keccak256(0x00, 0x40)\n      0x00\n      swap2\n      pop\n      sload\n      swap1\n      0x0100\n      exp\n      swap1\n      div\n      0xff\n      and\n      dup2\n      jump\t// out\n        /* \"contract/task.sol\":248:267  Task[] public tasks */\n    tag_34:\n      0x02\n      dup2\n      dup2\n      sload\n      dup2\n      lt\n      tag_70\n      jumpi\n      0x00\n      dup1\n      revert\n    tag_70:\n      swap1\n      0x00\n      mstore\n      keccak256(0x00, 0x20)\n      swap1\n      0x03\n      mul\n      add\n      0x00\n      swap2\n      pop\n      swap1\n      pop\n      dup1\n      0x00\n      add\n      sload\n      swap1\n      dup1\n      0x01\n      add\n      dup1\n      sload\n      tag_72\n      swap1\n      tag_64\n      jump\t// in\n    tag_72:\n      dup1\n      0x1f\n      add\n      0x20\n      dup1\n      swap2\n      div\n      mul\n      0x20\n      add\n      mload(0x40)\n      swap1\n      dup2\n      add\n      0x40\n      mstore\n      dup1\n      swap3\n      swap2\n      swap1\n      dup2\n      dup2\n      mstore\n      0x20\n      add\n      dup3\n      dup1\n      sload\n      tag_73\n      swap1\n      tag_64\n      jump\t// in\n    tag_73:\n      dup1\n      iszero\n      tag_74\n      jumpi\n      dup1\n      0x1f\n      lt\n      tag_75\n      jumpi\n      0x0100\n      dup1\n      dup4\n      sload\n      div\n      mul\n      dup4\n      mstore\n      swap2\n      0x20\n      add\n      swap2\n      jump(tag_74)\n    tag_75:\n      dup3\n      add\n      swap2\n      swap1\n      0x00\n      mstore\n      keccak256(0x00, 0x20)\n      swap1\n    tag_76:\n      dup2\n      sload\n      dup2\n      mstore\n      swap1\n      0x01\n      add\n      swap1\n      0x20\n      add\n      dup1\n      dup4\n      gt\n      tag_76\n      jumpi\n      dup3\n      swap1\n      sub\n      0x1f\n      and\n      dup3\n      add\n      swap2\n    tag_74:\n      pop\n      pop\n      pop\n      pop\n      pop\n      swap1\n      dup1\n      0x02\n      add\n      0x00\n      swap1\n      sload\n      swap1\n      0x0100\n      exp\n      swap1\n      div\n      0xff\n      and\n      swap1\n      pop\n      dup4\n      jump\t// out\n        /* \"contract/task.sol\":1009:1096  function getTaskCount() public view returns (uint) {... */\n    tag_37:\n        /* \"contract/task.sol\":1054:1058  uint */\n      0x00\n        /* \"contract/task.sol\":1077:1082  tasks */\n      0x02\n        /* \"contract/task.sol\":1077:1089  tasks.length */\n      dup1\n      sload\n      swap1\n      pop\n        /* \"contract/task.sol\":1070:1089  return tasks.length */\n      swap1\n      pop\n        /* \"contract/task.sol\":1009:1096  function getTaskCount() public view returns (uint) {... */\n      swap1\n      jump\t// out\n        /* \"contract/task.sol\":89:111  uint public totalTasks */\n    tag_41:\n      sload(0x00)\n      dup2\n      jump\t// out\n        /* \"contract/task.sol\":614:791  function completeTask(uint _id) public {... */\n    tag_45:\n        /* \"contract/task.sol\":677:687  totalTasks */\n      sload(0x00)\n        /* \"contract/task.sol\":671:674  _id */\n      dup2\n        /* \"contract/task.sol\":671:687  _id < totalTasks */\n      lt\n        /* \"contract/task.sol\":663:711  require(_id < totalTasks, \"Task does not exist\") */\n      tag_79\n      jumpi\n      mload(0x40)\n      0x08c379a000000000000000000000000000000000000000000000000000000000\n      dup2\n      mstore\n      0x04\n      add\n      tag_80\n      swap1\n      tag_81\n      jump\t// in\n    tag_80:\n      mload(0x40)\n      dup1\n      swap2\n      sub\n      swap1\n      revert\n    tag_79:\n        /* \"contract/task.sol\":745:749  true */\n      0x01\n        /* \"contract/task.sol\":722:727  tasks */\n      0x02\n        /* \"contract/task.sol\":728:731  _id */\n      dup3\n        /* \"contract/task.sol\":722:732  tasks[_id] */\n      dup2\n      sload\n      dup2\n      lt\n      tag_82\n      jumpi\n      tag_83\n      tag_61\n      jump\t// in\n    tag_83:\n    tag_82:\n      swap1\n      0x00\n      mstore\n      keccak256(0x00, 0x20)\n      swap1\n      0x03\n      mul\n      add\n        /* \"contract/task.sol\":722:742  tasks[_id].completed */\n      0x02\n      add\n      0x00\n        /* \"contract/task.sol\":722:749  tasks[_id].completed = true */\n      0x0100\n      exp\n      dup2\n      sload\n      dup2\n      0xff\n      mul\n      not\n      and\n      swap1\n      dup4\n      iszero\n      iszero\n      mul\n      or\n      swap1\n      sstore\n      pop\n        /* \"contract/task.sol\":780:784  true */\n      0x01\n        /* \"contract/task.sol\":759:772  taskCompleted */\n      0x03\n        /* \"contract/task.sol\":759:777  taskCompleted[_id] */\n      0x00\n        /* \"contract/task.sol\":773:776  _id */\n      dup4\n        /* \"contract/task.sol\":759:777  taskCompleted[_id] */\n      dup2\n      mstore\n      0x20\n      add\n      swap1\n      dup2\n      mstore\n      0x20\n      add\n      0x00\n      keccak256\n      0x00\n        /* \"contract/task.sol\":759:784  taskCompleted[_id] = true */\n      0x0100\n      exp\n      dup2\n      sload\n      dup2\n      0xff\n      mul\n      not\n      and\n      swap1\n      dup4\n      iszero\n      iszero\n      mul\n      or\n      swap1\n      sstore\n      pop\n        /* \"contract/task.sol\":614:791  function completeTask(uint _id) public {... */\n      pop\n      jump\t// out\n        /* \"contract/task.sol\":117:150  bool public contractActive = true */\n    tag_47:\n      0x01\n      0x00\n      swap1\n      sload\n      swap1\n      0x0100\n      exp\n      swap1\n      div\n      0xff\n      and\n      dup2\n      jump\t// out\n        /* \"#utility.yul\":7:82   */\n    tag_85:\n        /* \"#utility.yul\":40:46   */\n      0x00\n        /* \"#utility.yul\":73:75   */\n      0x40\n        /* \"#utility.yul\":67:76   */\n      mload\n        /* \"#utility.yul\":57:76   */\n      swap1\n      pop\n        /* \"#utility.yul\":7:82   */\n      swap1\n      jump\t// out\n        /* \"#utility.yul\":88:205   */\n    tag_86:\n        /* \"#utility.yul\":197:198   */\n      0x00\n        /* \"#utility.yul\":194:195   */\n      0x00\n        /* \"#utility.yul\":187:199   */\n      revert\n        /* \"#utility.yul\":211:328   */\n    tag_87:\n        /* \"#utility.yul\":320:321   */\n      0x00\n        /* \"#utility.yul\":317:318   */\n      0x00\n        /* \"#utility.yul\":310:322   */\n      revert\n        /* \"#utility.yul\":334:451   */\n    tag_88:\n        /* \"#utility.yul\":443:444   */\n      0x00\n        /* \"#utility.yul\":440:441   */\n      0x00\n        /* \"#utility.yul\":433:445   */\n      revert\n        /* \"#utility.yul\":457:574   */\n    tag_89:\n        /* \"#utility.yul\":566:567   */\n      0x00\n        /* \"#utility.yul\":563:564   */\n      0x00\n        /* \"#utility.yul\":556:568   */\n      revert\n        /* \"#utility.yul\":580:682   */\n    tag_90:\n        /* \"#utility.yul\":621:627   */\n      0x00\n        /* \"#utility.yul\":672:674   */\n      0x1f\n        /* \"#utility.yul\":668:675   */\n      not\n        /* \"#utility.yul\":663:665   */\n      0x1f\n        /* \"#utility.yul\":656:661   */\n      dup4\n        /* \"#utility.yul\":652:666   */\n      add\n        /* \"#utility.yul\":648:676   */\n      and\n        /* \"#utility.yul\":638:676   */\n      swap1\n      pop\n        /* \"#utility.yul\":580:682   */\n      swap2\n      swap1\n      pop\n      jump\t// out\n        /* \"#utility.yul\":688:868   */\n    tag_91:\n        /* \"#utility.yul\":736:813   */\n      0x4e487b7100000000000000000000000000000000000000000000000000000000\n        /* \"#utility.yul\":733:734   */\n      0x00\n        /* \"#utility.yul\":726:814   */\n      mstore\n        /* \"#utility.yul\":833:837   */\n      0x41\n        /* \"#utility.yul\":830:831   */\n      0x04\n        /* \"#utility.yul\":823:838   */\n      mstore\n        /* \"#utility.yul\":857:861   */\n      0x24\n        /* \"#utility.yul\":854:855   */\n      0x00\n        /* \"#utility.yul\":847:862   */\n      revert\n        /* \"#utility.yul\":874:1155   */\n    tag_92:\n        /* \"#utility.yul\":957:984   */\n      tag_140\n        /* \"#utility.yul\":979:983   */\n      dup3\n        /* \"#utility.yul\":957:984   */\n      tag_90\n      jump\t// in\n    tag_140:\n        /* \"#utility.yul\":949:955   */\n      dup2\n        /* \"#utility.yul\":945:985   */\n      add\n        /* \"#utility.yul\":1087:1093   */\n      dup2\n        /* \"#utility.yul\":1075:1085   */\n      dup2\n        /* \"#utility.yul\":1072:1094   */\n      lt\n        /* \"#utility.yul\":1051:1069   */\n      0xffffffffffffffff\n        /* \"#utility.yul\":1039:1049   */\n      dup3\n        /* \"#utility.yul\":1036:1070   */\n      gt\n        /* \"#utility.yul\":1033:1095   */\n      or\n        /* \"#utility.yul\":1030:1118   */\n      iszero\n      tag_141\n      jumpi\n        /* \"#utility.yul\":1098:1116   */\n      tag_142\n      tag_91\n      jump\t// in\n    tag_142:\n        /* \"#utility.yul\":1030:1118   */\n    tag_141:\n        /* \"#utility.yul\":1138:1148   */\n      dup1\n        /* \"#utility.yul\":1134:1136   */\n      0x40\n        /* \"#utility.yul\":1127:1149   */\n      mstore\n        /* \"#utility.yul\":917:1155   */\n      pop\n        /* \"#utility.yul\":874:1155   */\n      pop\n      pop\n      jump\t// out\n        /* \"#utility.yul\":1161:1290   */\n    tag_93:\n        /* \"#utility.yul\":1195:1201   */\n      0x00\n        /* \"#utility.yul\":1222:1242   */\n      tag_144\n      tag_85\n      jump\t// in\n    tag_144:\n        /* \"#utility.yul\":1212:1242   */\n      swap1\n      pop\n        /* \"#utility.yul\":1251:1284   */\n      tag_145\n        /* \"#utility.yul\":1279:1283   */\n      dup3\n        /* \"#utility.yul\":1271:1277   */\n      dup3\n        /* \"#utility.yul\":1251:1284   */\n      tag_92\n      jump\t// in\n    tag_145:\n        /* \"#utility.yul\":1161:1290   */\n      swap2\n      swap1\n      pop\n      jump\t// out\n        /* \"#utility.yul\":1296:1604   */\n    tag_94:\n        /* \"#utility.yul\":1358:1362   */\n      0x00\n        /* \"#utility.yul\":1448:1466   */\n      0xffffffffffffffff\n        /* \"#utility.yul\":1440:1446   */\n      dup3\n        /* \"#utility.yul\":1437:1467   */\n      gt\n        /* \"#utility.yul\":1434:1490   */\n      iszero\n      tag_147\n      jumpi\n        /* \"#utility.yul\":1470:1488   */\n      tag_148\n      tag_91\n      jump\t// in\n    tag_148:\n        /* \"#utility.yul\":1434:1490   */\n    tag_147:\n        /* \"#utility.yul\":1508:1537   */\n      tag_149\n        /* \"#utility.yul\":1530:1536   */\n      dup3\n        /* \"#utility.yul\":1508:1537   */\n      tag_90\n      jump\t// in\n    tag_149:\n        /* \"#utility.yul\":1500:1537   */\n      swap1\n      pop\n        /* \"#utility.yul\":1592:1596   */\n      0x20\n        /* \"#utility.yul\":1586:1590   */\n      dup2\n        /* \"#utility.yul\":1582:1597   */\n      add\n        /* \"#utility.yul\":1574:1597   */\n      swap1\n      pop\n        /* \"#utility.yul\":1296:1604   */\n      swap2\n      swap1\n      pop\n      jump\t// out\n        /* \"#utility.yul\":1610:1758   */\n    tag_95:\n        /* \"#utility.yul\":1708:1714   */\n      dup3\n        /* \"#utility.yul\":1703:1706   */\n      dup2\n        /* \"#utility.yul\":1698:1701   */\n      dup4\n        /* \"#utility.yul\":1685:1715   */\n      calldatacopy\n        /* \"#utility.yul\":1749:1750   */\n      0x00\n        /* \"#utility.yul\":1740:1746   */\n      dup4\n        /* \"#utility.yul\":1735:1738   */\n      dup4\n        /* \"#utility.yul\":1731:1747   */\n      add\n        /* \"#utility.yul\":1724:1751   */\n      mstore\n        /* \"#utility.yul\":1610:1758   */\n      pop\n      pop\n      pop\n      jump\t// out\n        /* \"#utility.yul\":1764:2189   */\n    tag_96:\n        /* \"#utility.yul\":1842:1847   */\n      0x00\n        /* \"#utility.yul\":1867:1933   */\n      tag_152\n        /* \"#utility.yul\":1883:1932   */\n      tag_153\n        /* \"#utility.yul\":1925:1931   */\n      dup5\n        /* \"#utility.yul\":1883:1932   */\n      tag_94\n      jump\t// in\n    tag_153:\n        /* \"#utility.yul\":1867:1933   */\n      tag_93\n      jump\t// in\n    tag_152:\n        /* \"#utility.yul\":1858:1933   */\n      swap1\n      pop\n        /* \"#utility.yul\":1956:1962   */\n      dup3\n        /* \"#utility.yul\":1949:1954   */\n      dup2\n        /* \"#utility.yul\":1942:1963   */\n      mstore\n        /* \"#utility.yul\":1994:1998   */\n      0x20\n        /* \"#utility.yul\":1987:1992   */\n      dup2\n        /* \"#utility.yul\":1983:1999   */\n      add\n        /* \"#utility.yul\":2032:2035   */\n      dup5\n        /* \"#utility.yul\":2023:2029   */\n      dup5\n        /* \"#utility.yul\":2018:2021   */\n      dup5\n        /* \"#utility.yul\":2014:2030   */\n      add\n        /* \"#utility.yul\":2011:2036   */\n      gt\n        /* \"#utility.yul\":2008:2120   */\n      iszero\n      tag_154\n      jumpi\n        /* \"#utility.yul\":2039:2118   */\n      tag_155\n      tag_89\n      jump\t// in\n    tag_155:\n        /* \"#utility.yul\":2008:2120   */\n    tag_154:\n        /* \"#utility.yul\":2129:2183   */\n      tag_156\n        /* \"#utility.yul\":2176:2182   */\n      dup5\n        /* \"#utility.yul\":2171:2174   */\n      dup3\n        /* \"#utility.yul\":2166:2169   */\n      dup6\n        /* \"#utility.yul\":2129:2183   */\n      tag_95\n      jump\t// in\n    tag_156:\n        /* \"#utility.yul\":1848:2189   */\n      pop\n        /* \"#utility.yul\":1764:2189   */\n      swap4\n      swap3\n      pop\n      pop\n      pop\n      jump\t// out\n        /* \"#utility.yul\":2209:2549   */\n    tag_97:\n        /* \"#utility.yul\":2265:2270   */\n      0x00\n        /* \"#utility.yul\":2314:2317   */\n      dup3\n        /* \"#utility.yul\":2307:2311   */\n      0x1f\n        /* \"#utility.yul\":2299:2305   */\n      dup4\n        /* \"#utility.yul\":2295:2312   */\n      add\n        /* \"#utility.yul\":2291:2318   */\n      slt\n        /* \"#utility.yul\":2281:2403   */\n      tag_158\n      jumpi\n        /* \"#utility.yul\":2322:2401   */\n      tag_159\n      tag_88\n      jump\t// in\n    tag_159:\n        /* \"#utility.yul\":2281:2403   */\n    tag_158:\n        /* \"#utility.yul\":2439:2445   */\n      dup2\n        /* \"#utility.yul\":2426:2446   */\n      calldataload\n        /* \"#utility.yul\":2464:2543   */\n      tag_160\n        /* \"#utility.yul\":2539:2542   */\n      dup5\n        /* \"#utility.yul\":2531:2537   */\n      dup3\n        /* \"#utility.yul\":2524:2528   */\n      0x20\n        /* \"#utility.yul\":2516:2522   */\n      dup7\n        /* \"#utility.yul\":2512:2529   */\n      add\n        /* \"#utility.yul\":2464:2543   */\n      tag_96\n      jump\t// in\n    tag_160:\n        /* \"#utility.yul\":2455:2543   */\n      swap2\n      pop\n        /* \"#utility.yul\":2271:2549   */\n      pop\n        /* \"#utility.yul\":2209:2549   */\n      swap3\n      swap2\n      pop\n      pop\n      jump\t// out\n        /* \"#utility.yul\":2555:3064   */\n    tag_15:\n        /* \"#utility.yul\":2624:2630   */\n      0x00\n        /* \"#utility.yul\":2673:2675   */\n      0x20\n        /* \"#utility.yul\":2661:2670   */\n      dup3\n        /* \"#utility.yul\":2652:2659   */\n      dup5\n        /* \"#utility.yul\":2648:2671   */\n      sub\n        /* \"#utility.yul\":2644:2676   */\n      slt\n        /* \"#utility.yul\":2641:2760   */\n      iszero\n      tag_162\n      jumpi\n        /* \"#utility.yul\":2679:2758   */\n      tag_163\n      tag_86\n      jump\t// in\n    tag_163:\n        /* \"#utility.yul\":2641:2760   */\n    tag_162:\n        /* \"#utility.yul\":2827:2828   */\n      0x00\n        /* \"#utility.yul\":2816:2825   */\n      dup3\n        /* \"#utility.yul\":2812:2829   */\n      add\n        /* \"#utility.yul\":2799:2830   */\n      calldataload\n        /* \"#utility.yul\":2857:2875   */\n      0xffffffffffffffff\n        /* \"#utility.yul\":2849:2855   */\n      dup2\n        /* \"#utility.yul\":2846:2876   */\n      gt\n        /* \"#utility.yul\":2843:2960   */\n      iszero\n      tag_164\n      jumpi\n        /* \"#utility.yul\":2879:2958   */\n      tag_165\n      tag_87\n      jump\t// in\n    tag_165:\n        /* \"#utility.yul\":2843:2960   */\n    tag_164:\n        /* \"#utility.yul\":2984:3047   */\n      tag_166\n        /* \"#utility.yul\":3039:3046   */\n      dup5\n        /* \"#utility.yul\":3030:3036   */\n      dup3\n        /* \"#utility.yul\":3019:3028   */\n      dup6\n        /* \"#utility.yul\":3015:3037   */\n      add\n        /* \"#utility.yul\":2984:3047   */\n      tag_97\n      jump\t// in\n    tag_166:\n        /* \"#utility.yul\":2974:3047   */\n      swap2\n      pop\n        /* \"#utility.yul\":2770:3057   */\n      pop\n        /* \"#utility.yul\":2555:3064   */\n      swap3\n      swap2\n      pop\n      pop\n      jump\t// out\n        /* \"#utility.yul\":3070:3147   */\n    tag_98:\n        /* \"#utility.yul\":3107:3114   */\n      0x00\n        /* \"#utility.yul\":3136:3141   */\n      dup2\n        /* \"#utility.yul\":3125:3141   */\n      swap1\n      pop\n        /* \"#utility.yul\":3070:3147   */\n      swap2\n      swap1\n      pop\n      jump\t// out\n        /* \"#utility.yul\":3153:3275   */\n    tag_99:\n        /* \"#utility.yul\":3226:3250   */\n      tag_169\n        /* \"#utility.yul\":3244:3249   */\n      dup2\n        /* \"#utility.yul\":3226:3250   */\n      tag_98\n      jump\t// in\n    tag_169:\n        /* \"#utility.yul\":3219:3224   */\n      dup2\n        /* \"#utility.yul\":3216:3251   */\n      eq\n        /* \"#utility.yul\":3206:3269   */\n      tag_170\n      jumpi\n        /* \"#utility.yul\":3265:3266   */\n      0x00\n        /* \"#utility.yul\":3262:3263   */\n      0x00\n        /* \"#utility.yul\":3255:3267   */\n      revert\n        /* \"#utility.yul\":3206:3269   */\n    tag_170:\n        /* \"#utility.yul\":3153:3275   */\n      pop\n      jump\t// out\n        /* \"#utility.yul\":3281:3420   */\n    tag_100:\n        /* \"#utility.yul\":3327:3332   */\n      0x00\n        /* \"#utility.yul\":3365:3371   */\n      dup2\n        /* \"#utility.yul\":3352:3372   */\n      calldataload\n        /* \"#utility.yul\":3343:3372   */\n      swap1\n      pop\n        /* \"#utility.yul\":3381:3414   */\n      tag_172\n        /* \"#utility.yul\":3408:3413   */\n      dup2\n        /* \"#utility.yul\":3381:3414   */\n      tag_99\n      jump\t// in\n    tag_172:\n        /* \"#utility.yul\":3281:3420   */\n      swap3\n      swap2\n      pop\n      pop\n      jump\t// out\n        /* \"#utility.yul\":3426:3755   */\n    tag_19:\n        /* \"#utility.yul\":3485:3491   */\n      0x00\n        /* \"#utility.yul\":3534:3536   */\n      0x20\n        /* \"#utility.yul\":3522:3531   */\n      dup3\n        /* \"#utility.yul\":3513:3520   */\n      dup5\n        /* \"#utility.yul\":3509:3532   */\n      sub\n        /* \"#utility.yul\":3505:3537   */\n      slt\n        /* \"#utility.yul\":3502:3621   */\n      iszero\n      tag_174\n      jumpi\n        /* \"#utility.yul\":3540:3619   */\n      tag_175\n      tag_86\n      jump\t// in\n    tag_175:\n        /* \"#utility.yul\":3502:3621   */\n    tag_174:\n        /* \"#utility.yul\":3660:3661   */\n      0x00\n        /* \"#utility.yul\":3685:3738   */\n      tag_176\n        /* \"#utility.yul\":3730:3737   */\n      dup5\n        /* \"#utility.yul\":3721:3727   */\n      dup3\n        /* \"#utility.yul\":3710:3719   */\n      dup6\n        /* \"#utility.yul\":3706:3728   */\n      add\n        /* \"#utility.yul\":3685:3738   */\n      tag_100\n      jump\t// in\n    tag_176:\n        /* \"#utility.yul\":3675:3738   */\n      swap2\n      pop\n        /* \"#utility.yul\":3631:3748   */\n      pop\n        /* \"#utility.yul\":3426:3755   */\n      swap3\n      swap2\n      pop\n      pop\n      jump\t// out\n        /* \"#utility.yul\":3761:3879   */\n    tag_101:\n        /* \"#utility.yul\":3848:3872   */\n      tag_178\n        /* \"#utility.yul\":3866:3871   */\n      dup2\n        /* \"#utility.yul\":3848:3872   */\n      tag_98\n      jump\t// in\n    tag_178:\n        /* \"#utility.yul\":3843:3846   */\n      dup3\n        /* \"#utility.yul\":3836:3873   */\n      mstore\n        /* \"#utility.yul\":3761:3879   */\n      pop\n      pop\n      jump\t// out\n        /* \"#utility.yul\":3885:3984   */\n    tag_102:\n        /* \"#utility.yul\":3937:3943   */\n      0x00\n        /* \"#utility.yul\":3971:3976   */\n      dup2\n        /* \"#utility.yul\":3965:3977   */\n      mload\n        /* \"#utility.yul\":3955:3977   */\n      swap1\n      pop\n        /* \"#utility.yul\":3885:3984   */\n      swap2\n      swap1\n      pop\n      jump\t// out\n        /* \"#utility.yul\":3990:4159   */\n    tag_103:\n        /* \"#utility.yul\":4074:4085   */\n      0x00\n        /* \"#utility.yul\":4108:4114   */\n      dup3\n        /* \"#utility.yul\":4103:4106   */\n      dup3\n        /* \"#utility.yul\":4096:4115   */\n      mstore\n        /* \"#utility.yul\":4148:4152   */\n      0x20\n        /* \"#utility.yul\":4143:4146   */\n      dup3\n        /* \"#utility.yul\":4139:4153   */\n      add\n        /* \"#utility.yul\":4124:4153   */\n      swap1\n      pop\n        /* \"#utility.yul\":3990:4159   */\n      swap3\n      swap2\n      pop\n      pop\n      jump\t// out\n        /* \"#utility.yul\":4165:4304   */\n    tag_104:\n        /* \"#utility.yul\":4254:4260   */\n      dup3\n        /* \"#utility.yul\":4249:4252   */\n      dup2\n        /* \"#utility.yul\":4244:4247   */\n      dup4\n        /* \"#utility.yul\":4238:4261   */\n      mcopy\n        /* \"#utility.yul\":4295:4296   */\n      0x00\n        /* \"#utility.yul\":4286:4292   */\n      dup4\n        /* \"#utility.yul\":4281:4284   */\n      dup4\n        /* \"#utility.yul\":4277:4293   */\n      add\n        /* \"#utility.yul\":4270:4297   */\n      mstore\n        /* \"#utility.yul\":4165:4304   */\n      pop\n      pop\n      pop\n      jump\t// out\n        /* \"#utility.yul\":4310:4687   */\n    tag_105:\n        /* \"#utility.yul\":4398:4401   */\n      0x00\n        /* \"#utility.yul\":4426:4465   */\n      tag_183\n        /* \"#utility.yul\":4459:4464   */\n      dup3\n        /* \"#utility.yul\":4426:4465   */\n      tag_102\n      jump\t// in\n    tag_183:\n        /* \"#utility.yul\":4481:4552   */\n      tag_184\n        /* \"#utility.yul\":4545:4551   */\n      dup2\n        /* \"#utility.yul\":4540:4543   */\n      dup6\n        /* \"#utility.yul\":4481:4552   */\n      tag_103\n      jump\t// in\n    tag_184:\n        /* \"#utility.yul\":4474:4552   */\n      swap4\n      pop\n        /* \"#utility.yul\":4561:4626   */\n      tag_185\n        /* \"#utility.yul\":4619:4625   */\n      dup2\n        /* \"#utility.yul\":4614:4617   */\n      dup6\n        /* \"#utility.yul\":4607:4611   */\n      0x20\n        /* \"#utility.yul\":4600:4605   */\n      dup7\n        /* \"#utility.yul\":4596:4612   */\n      add\n        /* \"#utility.yul\":4561:4626   */\n      tag_104\n      jump\t// in\n    tag_185:\n        /* \"#utility.yul\":4651:4680   */\n      tag_186\n        /* \"#utility.yul\":4673:4679   */\n      dup2\n        /* \"#utility.yul\":4651:4680   */\n      tag_90\n      jump\t// in\n    tag_186:\n        /* \"#utility.yul\":4646:4649   */\n      dup5\n        /* \"#utility.yul\":4642:4681   */\n      add\n        /* \"#utility.yul\":4635:4681   */\n      swap2\n      pop\n        /* \"#utility.yul\":4402:4687   */\n      pop\n        /* \"#utility.yul\":4310:4687   */\n      swap3\n      swap2\n      pop\n      pop\n      jump\t// out\n        /* \"#utility.yul\":4693:4783   */\n    tag_106:\n        /* \"#utility.yul\":4727:4734   */\n      0x00\n        /* \"#utility.yul\":4770:4775   */\n      dup2\n        /* \"#utility.yul\":4763:4776   */\n      iszero\n        /* \"#utility.yul\":4756:4777   */\n      iszero\n        /* \"#utility.yul\":4745:4777   */\n      swap1\n      pop\n        /* \"#utility.yul\":4693:4783   */\n      swap2\n      swap1\n      pop\n      jump\t// out\n        /* \"#utility.yul\":4789:4898   */\n    tag_107:\n        /* \"#utility.yul\":4870:4891   */\n      tag_189\n        /* \"#utility.yul\":4885:4890   */\n      dup2\n        /* \"#utility.yul\":4870:4891   */\n      tag_106\n      jump\t// in\n    tag_189:\n        /* \"#utility.yul\":4865:4868   */\n      dup3\n        /* \"#utility.yul\":4858:4892   */\n      mstore\n        /* \"#utility.yul\":4789:4898   */\n      pop\n      pop\n      jump\t// out\n        /* \"#utility.yul\":4904:5425   */\n    tag_22:\n        /* \"#utility.yul\":5067:5071   */\n      0x00\n        /* \"#utility.yul\":5105:5107   */\n      0x60\n        /* \"#utility.yul\":5094:5103   */\n      dup3\n        /* \"#utility.yul\":5090:5108   */\n      add\n        /* \"#utility.yul\":5082:5108   */\n      swap1\n      pop\n        /* \"#utility.yul\":5118:5189   */\n      tag_191\n        /* \"#utility.yul\":5186:5187   */\n      0x00\n        /* \"#utility.yul\":5175:5184   */\n      dup4\n        /* \"#utility.yul\":5171:5188   */\n      add\n        /* \"#utility.yul\":5162:5168   */\n      dup7\n        /* \"#utility.yul\":5118:5189   */\n      tag_101\n      jump\t// in\n    tag_191:\n        /* \"#utility.yul\":5236:5245   */\n      dup2\n        /* \"#utility.yul\":5230:5234   */\n      dup2\n        /* \"#utility.yul\":5226:5246   */\n      sub\n        /* \"#utility.yul\":5221:5223   */\n      0x20\n        /* \"#utility.yul\":5210:5219   */\n      dup4\n        /* \"#utility.yul\":5206:5224   */\n      add\n        /* \"#utility.yul\":5199:5247   */\n      mstore\n        /* \"#utility.yul\":5264:5342   */\n      tag_192\n        /* \"#utility.yul\":5337:5341   */\n      dup2\n        /* \"#utility.yul\":5328:5334   */\n      dup6\n        /* \"#utility.yul\":5264:5342   */\n      tag_105\n      jump\t// in\n    tag_192:\n        /* \"#utility.yul\":5256:5342   */\n      swap1\n      pop\n        /* \"#utility.yul\":5352:5418   */\n      tag_193\n        /* \"#utility.yul\":5414:5416   */\n      0x40\n        /* \"#utility.yul\":5403:5412   */\n      dup4\n        /* \"#utility.yul\":5399:5417   */\n      add\n        /* \"#utility.yul\":5390:5396   */\n      dup5\n        /* \"#utility.yul\":5352:5418   */\n      tag_107\n      jump\t// in\n    tag_193:\n        /* \"#utility.yul\":4904:5425   */\n      swap5\n      swap4\n      pop\n      pop\n      pop\n      pop\n      jump\t// out\n        /* \"#utility.yul\":5431:5547   */\n    tag_108:\n        /* \"#utility.yul\":5501:5522   */\n      tag_195\n        /* \"#utility.yul\":5516:5521   */\n      dup2\n        /* \"#utility.yul\":5501:5522   */\n      tag_106\n      jump\t// in\n    tag_195:\n        /* \"#utility.yul\":5494:5499   */\n      dup2\n        /* \"#utility.yul\":5491:5523   */\n      eq\n        /* \"#utility.yul\":5481:5541   */\n      tag_196\n      jumpi\n        /* \"#utility.yul\":5537:5538   */\n      0x00\n        /* \"#utility.yul\":5534:5535   */\n      0x00\n        /* \"#utility.yul\":5527:5539   */\n      revert\n        /* \"#utility.yul\":5481:5541   */\n    tag_196:\n        /* \"#utility.yul\":5431:5547   */\n      pop\n      jump\t// out\n        /* \"#utility.yul\":5553:5686   */\n    tag_109:\n        /* \"#utility.yul\":5596:5601   */\n      0x00\n        /* \"#utility.yul\":5634:5640   */\n      dup2\n        /* \"#utility.yul\":5621:5641   */\n      calldataload\n        /* \"#utility.yul\":5612:5641   */\n      swap1\n      pop\n        /* \"#utility.yul\":5650:5680   */\n      tag_198\n        /* \"#utility.yul\":5674:5679   */\n      dup2\n        /* \"#utility.yul\":5650:5680   */\n      tag_108\n      jump\t// in\n    tag_198:\n        /* \"#utility.yul\":5553:5686   */\n      swap3\n      swap2\n      pop\n      pop\n      jump\t// out\n        /* \"#utility.yul\":5692:6015   */\n    tag_25:\n        /* \"#utility.yul\":5748:5754   */\n      0x00\n        /* \"#utility.yul\":5797:5799   */\n      0x20\n        /* \"#utility.yul\":5785:5794   */\n      dup3\n        /* \"#utility.yul\":5776:5783   */\n      dup5\n        /* \"#utility.yul\":5772:5795   */\n      sub\n        /* \"#utility.yul\":5768:5800   */\n      slt\n        /* \"#utility.yul\":5765:5884   */\n      iszero\n      tag_200\n      jumpi\n        /* \"#utility.yul\":5803:5882   */\n      tag_201\n      tag_86\n      jump\t// in\n    tag_201:\n        /* \"#utility.yul\":5765:5884   */\n    tag_200:\n        /* \"#utility.yul\":5923:5924   */\n      0x00\n        /* \"#utility.yul\":5948:5998   */\n      tag_202\n        /* \"#utility.yul\":5990:5997   */\n      dup5\n        /* \"#utility.yul\":5981:5987   */\n      dup3\n        /* \"#utility.yul\":5970:5979   */\n      dup6\n        /* \"#utility.yul\":5966:5988   */\n      add\n        /* \"#utility.yul\":5948:5998   */\n      tag_109\n      jump\t// in\n    tag_202:\n        /* \"#utility.yul\":5938:5998   */\n      swap2\n      pop\n        /* \"#utility.yul\":5894:6008   */\n      pop\n        /* \"#utility.yul\":5692:6015   */\n      swap3\n      swap2\n      pop\n      pop\n      jump\t// out\n        /* \"#utility.yul\":6021:6231   */\n    tag_31:\n        /* \"#utility.yul\":6108:6112   */\n      0x00\n        /* \"#utility.yul\":6146:6148   */\n      0x20\n        /* \"#utility.yul\":6135:6144   */\n      dup3\n        /* \"#utility.yul\":6131:6149   */\n      add\n        /* \"#utility.yul\":6123:6149   */\n      swap1\n      pop\n        /* \"#utility.yul\":6159:6224   */\n      tag_204\n        /* \"#utility.yul\":6221:6222   */\n      0x00\n        /* \"#utility.yul\":6210:6219   */\n      dup4\n        /* \"#utility.yul\":6206:6223   */\n      add\n        /* \"#utility.yul\":6197:6203   */\n      dup5\n        /* \"#utility.yul\":6159:6224   */\n      tag_107\n      jump\t// in\n    tag_204:\n        /* \"#utility.yul\":6021:6231   */\n      swap3\n      swap2\n      pop\n      pop\n      jump\t// out\n        /* \"#utility.yul\":6237:6459   */\n    tag_39:\n        /* \"#utility.yul\":6330:6334   */\n      0x00\n        /* \"#utility.yul\":6368:6370   */\n      0x20\n        /* \"#utility.yul\":6357:6366   */\n      dup3\n        /* \"#utility.yul\":6353:6371   */\n      add\n        /* \"#utility.yul\":6345:6371   */\n      swap1\n      pop\n        /* \"#utility.yul\":6381:6452   */\n      tag_206\n        /* \"#utility.yul\":6449:6450   */\n      0x00\n        /* \"#utility.yul\":6438:6447   */\n      dup4\n        /* \"#utility.yul\":6434:6451   */\n      add\n        /* \"#utility.yul\":6425:6431   */\n      dup5\n        /* \"#utility.yul\":6381:6452   */\n      tag_101\n      jump\t// in\n    tag_206:\n        /* \"#utility.yul\":6237:6459   */\n      swap3\n      swap2\n      pop\n      pop\n      jump\t// out\n        /* \"#utility.yul\":6465:6637   */\n    tag_110:\n        /* \"#utility.yul\":6605:6629   */\n      0x436f6e7472616374206973206e6f742061637469766500000000000000000000\n        /* \"#utility.yul\":6601:6602   */\n      0x00\n        /* \"#utility.yul\":6593:6599   */\n      dup3\n        /* \"#utility.yul\":6589:6603   */\n      add\n        /* \"#utility.yul\":6582:6630   */\n      mstore\n        /* \"#utility.yul\":6465:6637   */\n      pop\n      jump\t// out\n        /* \"#utility.yul\":6643:7009   */\n    tag_111:\n        /* \"#utility.yul\":6785:6788   */\n      0x00\n        /* \"#utility.yul\":6806:6873   */\n      tag_209\n        /* \"#utility.yul\":6870:6872   */\n      0x16\n        /* \"#utility.yul\":6865:6868   */\n      dup4\n        /* \"#utility.yul\":6806:6873   */\n      tag_103\n      jump\t// in\n    tag_209:\n        /* \"#utility.yul\":6799:6873   */\n      swap2\n      pop\n        /* \"#utility.yul\":6882:6975   */\n      tag_210\n        /* \"#utility.yul\":6971:6974   */\n      dup3\n        /* \"#utility.yul\":6882:6975   */\n      tag_110\n      jump\t// in\n    tag_210:\n        /* \"#utility.yul\":7000:7002   */\n      0x20\n        /* \"#utility.yul\":6995:6998   */\n      dup3\n        /* \"#utility.yul\":6991:7003   */\n      add\n        /* \"#utility.yul\":6984:7003   */\n      swap1\n      pop\n        /* \"#utility.yul\":6643:7009   */\n      swap2\n      swap1\n      pop\n      jump\t// out\n        /* \"#utility.yul\":7015:7434   */\n    tag_52:\n        /* \"#utility.yul\":7181:7185   */\n      0x00\n        /* \"#utility.yul\":7219:7221   */\n      0x20\n        /* \"#utility.yul\":7208:7217   */\n      dup3\n        /* \"#utility.yul\":7204:7222   */\n      add\n        /* \"#utility.yul\":7196:7222   */\n      swap1\n      pop\n        /* \"#utility.yul\":7268:7277   */\n      dup2\n        /* \"#utility.yul\":7262:7266   */\n      dup2\n        /* \"#utility.yul\":7258:7278   */\n      sub\n        /* \"#utility.yul\":7254:7255   */\n      0x00\n        /* \"#utility.yul\":7243:7252   */\n      dup4\n        /* \"#utility.yul\":7239:7256   */\n      add\n        /* \"#utility.yul\":7232:7279   */\n      mstore\n        /* \"#utility.yul\":7296:7427   */\n      tag_212\n        /* \"#utility.yul\":7422:7426   */\n      dup2\n        /* \"#utility.yul\":7296:7427   */\n      tag_111\n      jump\t// in\n    tag_212:\n        /* \"#utility.yul\":7288:7427   */\n      swap1\n      pop\n        /* \"#utility.yul\":7015:7434   */\n      swap2\n      swap1\n      pop\n      jump\t// out\n        /* \"#utility.yul\":7440:7620   */\n    tag_112:\n        /* \"#utility.yul\":7488:7565   */\n      0x4e487b7100000000000000000000000000000000000000000000000000000000\n        /* \"#utility.yul\":7485:7486   */\n      0x00\n        /* \"#utility.yul\":7478:7566   */\n      mstore\n        /* \"#utility.yul\":7585:7589   */\n      0x22\n        /* \"#utility.yul\":7582:7583   */\n      0x04\n        /* \"#utility.yul\":7575:7590   */\n      mstore\n        /* \"#utility.yul\":7609:7613   */\n      0x24\n        /* \"#utility.yul\":7606:7607   */\n      0x00\n        /* \"#utility.yul\":7599:7614   */\n      revert\n        /* \"#utility.yul\":7626:7946   */\n    tag_64:\n        /* \"#utility.yul\":7670:7676   */\n      0x00\n        /* \"#utility.yul\":7707:7708   */\n      0x02\n        /* \"#utility.yul\":7701:7705   */\n      dup3\n        /* \"#utility.yul\":7697:7709   */\n      div\n        /* \"#utility.yul\":7687:7709   */\n      swap1\n      pop\n        /* \"#utility.yul\":7754:7755   */\n      0x01\n        /* \"#utility.yul\":7748:7752   */\n      dup3\n        /* \"#utility.yul\":7744:7756   */\n      and\n        /* \"#utility.yul\":7775:7793   */\n      dup1\n        /* \"#utility.yul\":7765:7846   */\n      tag_215\n      jumpi\n        /* \"#utility.yul\":7831:7835   */\n      0x7f\n        /* \"#utility.yul\":7823:7829   */\n      dup3\n        /* \"#utility.yul\":7819:7836   */\n      and\n        /* \"#utility.yul\":7809:7836   */\n      swap2\n      pop\n        /* \"#utility.yul\":7765:7846   */\n    tag_215:\n        /* \"#utility.yul\":7893:7895   */\n      0x20\n        /* \"#utility.yul\":7885:7891   */\n      dup3\n        /* \"#utility.yul\":7882:7896   */\n      lt\n        /* \"#utility.yul\":7862:7880   */\n      dup2\n        /* \"#utility.yul\":7859:7897   */\n      sub\n        /* \"#utility.yul\":7856:7940   */\n      tag_216\n      jumpi\n        /* \"#utility.yul\":7912:7930   */\n      tag_217\n      tag_112\n      jump\t// in\n    tag_217:\n        /* \"#utility.yul\":7856:7940   */\n    tag_216:\n        /* \"#utility.yul\":7677:7946   */\n      pop\n        /* \"#utility.yul\":7626:7946   */\n      swap2\n      swap1\n      pop\n      jump\t// out\n        /* \"#utility.yul\":7952:8093   */\n    tag_113:\n        /* \"#utility.yul\":8001:8005   */\n      0x00\n        /* \"#utility.yul\":8024:8027   */\n      dup2\n        /* \"#utility.yul\":8016:8027   */\n      swap1\n      pop\n        /* \"#utility.yul\":8047:8050   */\n      dup2\n        /* \"#utility.yul\":8044:8045   */\n      0x00\n        /* \"#utility.yul\":8037:8051   */\n      mstore\n        /* \"#utility.yul\":8081:8085   */\n      0x20\n        /* \"#utility.yul\":8078:8079   */\n      0x00\n        /* \"#utility.yul\":8068:8086   */\n      keccak256\n        /* \"#utility.yul\":8060:8086   */\n      swap1\n      pop\n        /* \"#utility.yul\":7952:8093   */\n      swap2\n      swap1\n      pop\n      jump\t// out\n        /* \"#utility.yul\":8099:8192   */\n    tag_114:\n        /* \"#utility.yul\":8136:8142   */\n      0x00\n        /* \"#utility.yul\":8183:8185   */\n      0x20\n        /* \"#utility.yul\":8178:8180   */\n      0x1f\n        /* \"#utility.yul\":8171:8176   */\n      dup4\n        /* \"#utility.yul\":8167:8181   */\n      add\n        /* \"#utility.yul\":8163:8186   */\n      div\n        /* \"#utility.yul\":8153:8186   */\n      swap1\n      pop\n        /* \"#utility.yul\":8099:8192   */\n      swap2\n      swap1\n      pop\n      jump\t// out\n        /* \"#utility.yul\":8198:8305   */\n    tag_115:\n        /* \"#utility.yul\":8242:8250   */\n      0x00\n        /* \"#utility.yul\":8292:8297   */\n      dup3\n        /* \"#utility.yul\":8286:8290   */\n      dup3\n        /* \"#utility.yul\":8282:8298   */\n      shl\n        /* \"#utility.yul\":8261:8298   */\n      swap1\n      pop\n        /* \"#utility.yul\":8198:8305   */\n      swap3\n      swap2\n      pop\n      pop\n      jump\t// out\n        /* \"#utility.yul\":8311:8704   */\n    tag_116:\n        /* \"#utility.yul\":8380:8386   */\n      0x00\n        /* \"#utility.yul\":8430:8431   */\n      0x08\n        /* \"#utility.yul\":8418:8428   */\n      dup4\n        /* \"#utility.yul\":8414:8432   */\n      mul\n        /* \"#utility.yul\":8453:8550   */\n      tag_222\n        /* \"#utility.yul\":8483:8549   */\n      0xffffffffffffffffffffffffffffffffffffffffffffffffffffffffffffffff\n        /* \"#utility.yul\":8472:8481   */\n      dup3\n        /* \"#utility.yul\":8453:8550   */\n      tag_115\n      jump\t// in\n    tag_222:\n        /* \"#utility.yul\":8571:8610   */\n      tag_223\n        /* \"#utility.yul\":8601:8609   */\n      dup7\n        /* \"#utility.yul\":8590:8599   */\n      dup4\n        /* \"#utility.yul\":8571:8610   */\n      tag_115\n      jump\t// in\n    tag_223:\n        /* \"#utility.yul\":8559:8610   */\n      swap6\n      pop\n        /* \"#utility.yul\":8643:8647   */\n      dup1\n        /* \"#utility.yul\":8639:8648   */\n      not\n        /* \"#utility.yul\":8632:8637   */\n      dup5\n        /* \"#utility.yul\":8628:8649   */\n      and\n        /* \"#utility.yul\":8619:8649   */\n      swap4\n      pop\n        /* \"#utility.yul\":8692:8696   */\n      dup1\n        /* \"#utility.yul\":8682:8690   */\n      dup7\n        /* \"#utility.yul\":8678:8697   */\n      and\n        /* \"#utility.yul\":8671:8676   */\n      dup5\n        /* \"#utility.yul\":8668:8698   */\n      or\n        /* \"#utility.yul\":8658:8698   */\n      swap3\n      pop\n        /* \"#utility.yul\":8387:8704   */\n      pop\n      pop\n        /* \"#utility.yul\":8311:8704   */\n      swap4\n      swap3\n      pop\n      pop\n      pop\n      jump\t// out\n        /* \"#utility.yul\":8710:8770   */\n    tag_117:\n        /* \"#utility.yul\":8738:8741   */\n      0x00\n        /* \"#utility.yul\":8759:8764   */\n      dup2\n        /* \"#utility.yul\":8752:8764   */\n      swap1\n      pop\n        /* \"#utility.yul\":8710:8770   */\n      swap2\n      swap1\n      pop\n      jump\t// out\n        /* \"#utility.yul\":8776:8918   */\n    tag_118:\n        /* \"#utility.yul\":8826:8835   */\n      0x00\n        /* \"#utility.yul\":8859:8912   */\n      tag_226\n        /* \"#utility.yul\":8877:8911   */\n      tag_227\n        /* \"#utility.yul\":8886:8910   */\n      tag_228\n        /* \"#utility.yul\":8904:8909   */\n      dup5\n        /* \"#utility.yul\":8886:8910   */\n      tag_98\n      jump\t// in\n    tag_228:\n        /* \"#utility.yul\":8877:8911   */\n      tag_117\n      jump\t// in\n    tag_227:\n        /* \"#utility.yul\":8859:8912   */\n      tag_98\n      jump\t// in\n    tag_226:\n        /* \"#utility.yul\":8846:8912   */\n      swap1\n      pop\n        /* \"#utility.yul\":8776:8918   */\n      swap2\n      swap1\n      pop\n      jump\t// out\n        /* \"#utility.yul\":8924:8999   */\n    tag_119:\n        /* \"#utility.yul\":8967:8970   */\n      0x00\n        /* \"#utility.yul\":8988:8993   */\n      dup2\n        /* \"#utility.yul\":8981:8993   */\n      swap1\n      pop\n        /* \"#utility.yul\":8924:8999   */\n      swap2\n      swap1\n      pop\n      jump\t// out\n        /* \"#utility.yul\":9005:9274   */\n    tag_120:\n        /* \"#utility.yul\":9115:9154   */\n      tag_231\n        /* \"#utility.yul\":9146:9153   */\n      dup4\n        /* \"#utility.yul\":9115:9154   */\n      tag_118\n      jump\t// in\n    tag_231:\n        /* \"#utility.yul\":9176:9267   */\n      tag_232\n        /* \"#utility.yul\":9225:9266   */\n      tag_233\n        /* \"#utility.yul\":9249:9265   */\n      dup3\n        /* \"#utility.yul\":9225:9266   */\n      tag_119\n      jump\t// in\n    tag_233:\n        /* \"#utility.yul\":9217:9223   */\n      dup5\n        /* \"#utility.yul\":9210:9214   */\n      dup5\n        /* \"#utility.yul\":9204:9215   */\n      sload\n        /* \"#utility.yul\":9176:9267   */\n      tag_116\n      jump\t// in\n    tag_232:\n        /* \"#utility.yul\":9170:9174   */\n      dup3\n        /* \"#utility.yul\":9163:9268   */\n      sstore\n        /* \"#utility.yul\":9081:9274   */\n      pop\n        /* \"#utility.yul\":9005:9274   */\n      pop\n      pop\n      pop\n      jump\t// out\n        /* \"#utility.yul\":9280:9353   */\n    tag_121:\n        /* \"#utility.yul\":9325:9328   */\n      0x00\n        /* \"#utility.yul\":9346:9347   */\n      0x00\n        /* \"#utility.yul\":9339:9347   */\n      swap1\n      pop\n        /* \"#utility.yul\":9280:9353   */\n      swap1\n      jump\t// out\n        /* \"#utility.yul\":9359:9548   */\n    tag_122:\n        /* \"#utility.yul\":9436:9468   */\n      tag_236\n      tag_121\n      jump\t// in\n    tag_236:\n        /* \"#utility.yul\":9477:9542   */\n      tag_237\n        /* \"#utility.yul\":9535:9541   */\n      dup2\n        /* \"#utility.yul\":9527:9533   */\n      dup5\n        /* \"#utility.yul\":9521:9525   */\n      dup5\n        /* \"#utility.yul\":9477:9542   */\n      tag_120\n      jump\t// in\n    tag_237:\n        /* \"#utility.yul\":9412:9548   */\n      pop\n        /* \"#utility.yul\":9359:9548   */\n      pop\n      pop\n      jump\t// out\n        /* \"#utility.yul\":9554:9740   */\n    tag_123:\n        /* \"#utility.yul\":9614:9734   */\n    tag_239:\n        /* \"#utility.yul\":9631:9634   */\n      dup2\n        /* \"#utility.yul\":9624:9629   */\n      dup2\n        /* \"#utility.yul\":9621:9635   */\n      lt\n        /* \"#utility.yul\":9614:9734   */\n      iszero\n      tag_241\n      jumpi\n        /* \"#utility.yul\":9685:9724   */\n      tag_242\n        /* \"#utility.yul\":9722:9723   */\n      0x00\n        /* \"#utility.yul\":9715:9720   */\n      dup3\n        /* \"#utility.yul\":9685:9724   */\n      tag_122\n      jump\t// in\n    tag_242:\n        /* \"#utility.yul\":9658:9659   */\n      0x01\n        /* \"#utility.yul\":9651:9656   */\n      dup2\n        /* \"#utility.yul\":9647:9660   */\n      add\n        /* \"#utility.yul\":9638:9660   */\n      swap1\n      pop\n        /* \"#utility.yul\":9614:9734   */\n      jump(tag_239)\n    tag_241:\n        /* \"#utility.yul\":9554:9740   */\n      pop\n      pop\n      jump\t// out\n        /* \"#utility.yul\":9746:10289   */\n    tag_124:\n        /* \"#utility.yul\":9847:9849   */\n      0x1f\n        /* \"#utility.yul\":9842:9845   */\n      dup3\n        /* \"#utility.yul\":9839:9850   */\n      gt\n        /* \"#utility.yul\":9836:10282   */\n      iszero\n      tag_244\n      jumpi\n        /* \"#utility.yul\":9881:9919   */\n      tag_245\n        /* \"#utility.yul\":9913:9918   */\n      dup2\n        /* \"#utility.yul\":9881:9919   */\n      tag_113\n      jump\t// in\n    tag_245:\n        /* \"#utility.yul\":9965:9994   */\n      tag_246\n        /* \"#utility.yul\":9983:9993   */\n      dup5\n        /* \"#utility.yul\":9965:9994   */\n      tag_114\n      jump\t// in\n    tag_246:\n        /* \"#utility.yul\":9955:9963   */\n      dup2\n        /* \"#utility.yul\":9951:9995   */\n      add\n        /* \"#utility.yul\":10148:10150   */\n      0x20\n        /* \"#utility.yul\":10136:10146   */\n      dup6\n        /* \"#utility.yul\":10133:10151   */\n      lt\n        /* \"#utility.yul\":10130:10179   */\n      iszero\n      tag_247\n      jumpi\n        /* \"#utility.yul\":10169:10177   */\n      dup2\n        /* \"#utility.yul\":10154:10177   */\n      swap1\n      pop\n        /* \"#utility.yul\":10130:10179   */\n    tag_247:\n        /* \"#utility.yul\":10192:10272   */\n      tag_248\n        /* \"#utility.yul\":10248:10270   */\n      tag_249\n        /* \"#utility.yul\":10266:10269   */\n      dup6\n        /* \"#utility.yul\":10248:10270   */\n      tag_114\n      jump\t// in\n    tag_249:\n        /* \"#utility.yul\":10238:10246   */\n      dup4\n        /* \"#utility.yul\":10234:10271   */\n      add\n        /* \"#utility.yul\":10221:10232   */\n      dup3\n        /* \"#utility.yul\":10192:10272   */\n      tag_123\n      jump\t// in\n    tag_248:\n        /* \"#utility.yul\":9851:10282   */\n      pop\n      pop\n        /* \"#utility.yul\":9836:10282   */\n    tag_244:\n        /* \"#utility.yul\":9746:10289   */\n      pop\n      pop\n      pop\n      jump\t// out\n        /* \"#utility.yul\":10295:10412   */\n    tag_125:\n        /* \"#utility.yul\":10349:10357   */\n      0x00\n        /* \"#utility.yul\":10399:10404   */\n      dup3\n        /* \"#utility.yul\":10393:10397   */\n      dup3\n        /* \"#utility.yul\":10389:10405   */\n      shr\n        /* \"#utility.yul\":10368:10405   */\n      swap1\n      pop\n        /* \"#utility.yul\":10295:10412   */\n      swap3\n      swap2\n      pop\n      pop\n      jump\t// out\n        /* \"#utility.yul\":10418:10587   */\n    tag_126:\n        /* \"#utility.yul\":10462:10468   */\n      0x00\n        /* \"#utility.yul\":10495:10546   */\n      tag_252\n        /* \"#utility.yul\":10543:10544   */\n      0x00\n        /* \"#utility.yul\":10539:10545   */\n      not\n        /* \"#utility.yul\":10531:10536   */\n      dup5\n        /* \"#utility.yul\":10528:10529   */\n      0x08\n        /* \"#utility.yul\":10524:10537   */\n      mul\n        /* \"#utility.yul\":10495:10546   */\n      tag_125\n      jump\t// in\n    tag_252:\n        /* \"#utility.yul\":10491:10547   */\n      not\n        /* \"#utility.yul\":10576:10580   */\n      dup1\n        /* \"#utility.yul\":10570:10574   */\n      dup4\n        /* \"#utility.yul\":10566:10581   */\n      and\n        /* \"#utility.yul\":10556:10581   */\n      swap2\n      pop\n        /* \"#utility.yul\":10469:10587   */\n      pop\n        /* \"#utility.yul\":10418:10587   */\n      swap3\n      swap2\n      pop\n      pop\n      jump\t// out\n        /* \"#utility.yul\":10592:10887   */\n    tag_127:\n        /* \"#utility.yul\":10668:10672   */\n      0x00\n        /* \"#utility.yul\":10814:10843   */\n      tag_254\n        /* \"#utility.yul\":10839:10842   */\n      dup4\n        /* \"#utility.yul\":10833:10837   */\n      dup4\n        /* \"#utility.yul\":10814:10843   */\n      tag_126\n      jump\t// in\n    tag_254:\n        /* \"#utility.yul\":10806:10843   */\n      swap2\n      pop\n        /* \"#utility.yul\":10876:10879   */\n      dup3\n        /* \"#utility.yul\":10873:10874   */\n      0x02\n        /* \"#utility.yul\":10869:10880   */\n      mul\n        /* \"#utility.yul\":10863:10867   */\n      dup3\n        /* \"#utility.yul\":10860:10881   */\n      or\n        /* \"#utility.yul\":10852:10881   */\n      swap1\n      pop\n        /* \"#utility.yul\":10592:10887   */\n      swap3\n      swap2\n      pop\n      pop\n      jump\t// out\n        /* \"#utility.yul\":10892:12287   */\n    tag_55:\n        /* \"#utility.yul\":11009:11046   */\n      tag_256\n        /* \"#utility.yul\":11042:11045   */\n      dup3\n        /* \"#utility.yul\":11009:11046   */\n      tag_102\n      jump\t// in\n    tag_256:\n        /* \"#utility.yul\":11111:11129   */\n      0xffffffffffffffff\n        /* \"#utility.yul\":11103:11109   */\n      dup2\n        /* \"#utility.yul\":11100:11130   */\n      gt\n        /* \"#utility.yul\":11097:11153   */\n      iszero\n      tag_257\n      jumpi\n        /* \"#utility.yul\":11133:11151   */\n      tag_258\n      tag_91\n      jump\t// in\n    tag_258:\n        /* \"#utility.yul\":11097:11153   */\n    tag_257:\n        /* \"#utility.yul\":11177:11215   */\n      tag_259\n        /* \"#utility.yul\":11209:11213   */\n      dup3\n        /* \"#utility.yul\":11203:11214   */\n      sload\n        /* \"#utility.yul\":11177:11215   */\n      tag_64\n      jump\t// in\n    tag_259:\n        /* \"#utility.yul\":11262:11329   */\n      tag_260\n        /* \"#utility.yul\":11322:11328   */\n      dup3\n        /* \"#utility.yul\":11314:11320   */\n      dup3\n        /* \"#utility.yul\":11308:11312   */\n      dup6\n        /* \"#utility.yul\":11262:11329   */\n      tag_124\n      jump\t// in\n    tag_260:\n        /* \"#utility.yul\":11356:11357   */\n      0x00\n        /* \"#utility.yul\":11380:11384   */\n      0x20\n        /* \"#utility.yul\":11367:11384   */\n      swap1\n      pop\n        /* \"#utility.yul\":11412:11414   */\n      0x1f\n        /* \"#utility.yul\":11404:11410   */\n      dup4\n        /* \"#utility.yul\":11401:11415   */\n      gt\n        /* \"#utility.yul\":11429:11430   */\n      0x01\n        /* \"#utility.yul\":11424:12042   */\n      dup2\n      eq\n      tag_262\n      jumpi\n        /* \"#utility.yul\":12086:12087   */\n      0x00\n        /* \"#utility.yul\":12103:12109   */\n      dup5\n        /* \"#utility.yul\":12100:12177   */\n      iszero\n      tag_263\n      jumpi\n        /* \"#utility.yul\":12152:12161   */\n      dup3\n        /* \"#utility.yul\":12147:12150   */\n      dup8\n        /* \"#utility.yul\":12143:12162   */\n      add\n        /* \"#utility.yul\":12137:12163   */\n      mload\n        /* \"#utility.yul\":12128:12163   */\n      swap1\n      pop\n        /* \"#utility.yul\":12100:12177   */\n    tag_263:\n        /* \"#utility.yul\":12203:12270   */\n      tag_264\n        /* \"#utility.yul\":12263:12269   */\n      dup6\n        /* \"#utility.yul\":12256:12261   */\n      dup3\n        /* \"#utility.yul\":12203:12270   */\n      tag_127\n      jump\t// in\n    tag_264:\n        /* \"#utility.yul\":12197:12201   */\n      dup7\n        /* \"#utility.yul\":12190:12271   */\n      sstore\n        /* \"#utility.yul\":12059:12281   */\n      pop\n        /* \"#utility.yul\":11394:12281   */\n      jump(tag_261)\n        /* \"#utility.yul\":11424:12042   */\n    tag_262:\n        /* \"#utility.yul\":11476:11480   */\n      0x1f\n        /* \"#utility.yul\":11472:11481   */\n      not\n        /* \"#utility.yul\":11464:11470   */\n      dup5\n        /* \"#utility.yul\":11460:11482   */\n      and\n        /* \"#utility.yul\":11510:11547   */\n      tag_265\n        /* \"#utility.yul\":11542:11546   */\n      dup7\n        /* \"#utility.yul\":11510:11547   */\n      tag_113\n      jump\t// in\n    tag_265:\n        /* \"#utility.yul\":11569:11570   */\n      0x00\n        /* \"#utility.yul\":11583:11791   */\n    tag_266:\n        /* \"#utility.yul\":11597:11604   */\n      dup3\n        /* \"#utility.yul\":11594:11595   */\n      dup2\n        /* \"#utility.yul\":11591:11605   */\n      lt\n        /* \"#utility.yul\":11583:11791   */\n      iszero\n      tag_268\n      jumpi\n        /* \"#utility.yul\":11676:11685   */\n      dup5\n        /* \"#utility.yul\":11671:11674   */\n      dup10\n        /* \"#utility.yul\":11667:11686   */\n      add\n        /* \"#utility.yul\":11661:11687   */\n      mload\n        /* \"#utility.yul\":11653:11659   */\n      dup3\n        /* \"#utility.yul\":11646:11688   */\n      sstore\n        /* \"#utility.yul\":11727:11728   */\n      0x01\n        /* \"#utility.yul\":11719:11725   */\n      dup3\n        /* \"#utility.yul\":11715:11729   */\n      add\n        /* \"#utility.yul\":11705:11729   */\n      swap2\n      pop\n        /* \"#utility.yul\":11774:11776   */\n      0x20\n        /* \"#utility.yul\":11763:11772   */\n      dup6\n        /* \"#utility.yul\":11759:11777   */\n      add\n        /* \"#utility.yul\":11746:11777   */\n      swap5\n      pop\n        /* \"#utility.yul\":11620:11624   */\n      0x20\n        /* \"#utility.yul\":11617:11618   */\n      dup2\n        /* \"#utility.yul\":11613:11625   */\n      add\n        /* \"#utility.yul\":11608:11625   */\n      swap1\n      pop\n        /* \"#utility.yul\":11583:11791   */\n      jump(tag_266)\n    tag_268:\n        /* \"#utility.yul\":11819:11825   */\n      dup7\n        /* \"#utility.yul\":11810:11817   */\n      dup4\n        /* \"#utility.yul\":11807:11826   */\n      lt\n        /* \"#utility.yul\":11804:11983   */\n      iszero\n      tag_269\n      jumpi\n        /* \"#utility.yul\":11877:11886   */\n      dup5\n        /* \"#utility.yul\":11872:11875   */\n      dup10\n        /* \"#utility.yul\":11868:11887   */\n      add\n        /* \"#utility.yul\":11862:11888   */\n      mload\n        /* \"#utility.yul\":11920:11968   */\n      tag_270\n        /* \"#utility.yul\":11962:11966   */\n      0x1f\n        /* \"#utility.yul\":11954:11960   */\n      dup10\n        /* \"#utility.yul\":11950:11967   */\n      and\n        /* \"#utility.yul\":11939:11948   */\n      dup3\n        /* \"#utility.yul\":11920:11968   */\n      tag_126\n      jump\t// in\n    tag_270:\n        /* \"#utility.yul\":11912:11918   */\n      dup4\n        /* \"#utility.yul\":11905:11969   */\n      sstore\n        /* \"#utility.yul\":11827:11983   */\n      pop\n        /* \"#utility.yul\":11804:11983   */\n    tag_269:\n        /* \"#utility.yul\":12029:12030   */\n      0x01\n        /* \"#utility.yul\":12025:12026   */\n      0x02\n        /* \"#utility.yul\":12017:12023   */\n      dup9\n        /* \"#utility.yul\":12013:12027   */\n      mul\n        /* \"#utility.yul\":12009:12031   */\n      add\n        /* \"#utility.yul\":12003:12007   */\n      dup9\n        /* \"#utility.yul\":11996:12032   */\n      sstore\n        /* \"#utility.yul\":11431:12042   */\n      pop\n      pop\n      pop\n        /* \"#utility.yul\":11394:12281   */\n    tag_261:\n      pop\n        /* \"#utility.yul\":10984:12287   */\n      pop\n      pop\n      pop\n        /* \"#utility.yul\":10892:12287   */\n      pop\n      pop\n      jump\t// out\n        /* \"#utility.yul\":12293:12473   */\n    tag_128:\n        /* \"#utility.yul\":12341:12418   */\n      0x4e487b7100000000000000000000000000000000000000000000000000000000\n        /* \"#utility.yul\":12338:12339   */\n      0x00\n        /* \"#utility.yul\":12331:12419   */\n      mstore\n        /* \"#utility.yul\":12438:12442   */\n      0x11\n        /* \"#utility.yul\":12435:12436   */\n      0x04\n        /* \"#utility.yul\":12428:12443   */\n      mstore\n        /* \"#utility.yul\":12462:12466   */\n      0x24\n        /* \"#utility.yul\":12459:12460   */\n      0x00\n        /* \"#utility.yul\":12452:12467   */\n      revert\n        /* \"#utility.yul\":12479:12712   */\n    tag_57:\n        /* \"#utility.yul\":12518:12521   */\n      0x00\n        /* \"#utility.yul\":12541:12565   */\n      tag_273\n        /* \"#utility.yul\":12559:12564   */\n      dup3\n        /* \"#utility.yul\":12541:12565   */\n      tag_98\n      jump\t// in\n    tag_273:\n        /* \"#utility.yul\":12532:12565   */\n      swap2\n      pop\n        /* \"#utility.yul\":12587:12653   */\n      0xffffffffffffffffffffffffffffffffffffffffffffffffffffffffffffffff\n        /* \"#utility.yul\":12580:12585   */\n      dup3\n        /* \"#utility.yul\":12577:12654   */\n      sub\n        /* \"#utility.yul\":12574:12677   */\n      tag_274\n      jumpi\n        /* \"#utility.yul\":12657:12675   */\n      tag_275\n      tag_128\n      jump\t// in\n    tag_275:\n        /* \"#utility.yul\":12574:12677   */\n    tag_274:\n        /* \"#utility.yul\":12704:12705   */\n      0x01\n        /* \"#utility.yul\":12697:12702   */\n      dup3\n        /* \"#utility.yul\":12693:12706   */\n      add\n        /* \"#utility.yul\":12686:12706   */\n      swap1\n      pop\n        /* \"#utility.yul\":12479:12712   */\n      swap2\n      swap1\n      pop\n      jump\t// out\n        /* \"#utility.yul\":12718:12898   */\n    tag_61:\n        /* \"#utility.yul\":12766:12843   */\n      0x4e487b7100000000000000000000000000000000000000000000000000000000\n        /* \"#utility.yul\":12763:12764   */\n      0x00\n        /* \"#utility.yul\":12756:12844   */\n      mstore\n        /* \"#utility.yul\":12863:12867   */\n      0x32\n        /* \"#utility.yul\":12860:12861   */\n      0x04\n        /* \"#utility.yul\":12853:12868   */\n      mstore\n        /* \"#utility.yul\":12887:12891   */\n      0x24\n        /* \"#utility.yul\":12884:12885   */\n      0x00\n        /* \"#utility.yul\":12877:12892   */\n      revert\n        /* \"#utility.yul\":12904:13073   */\n    tag_129:\n        /* \"#utility.yul\":13044:13065   */\n      0x5461736b20646f6573206e6f7420657869737400000000000000000000000000\n        /* \"#utility.yul\":13040:13041   */\n      0x00\n        /* \"#utility.yul\":13032:13038   */\n      dup3\n        /* \"#utility.yul\":13028:13042   */\n      add\n        /* \"#utility.yul\":13021:13066   */\n      mstore\n        /* \"#utility.yul\":12904:13073   */\n      pop\n      jump\t// out\n        /* \"#utility.yul\":13079:13445   */\n    tag_130:\n        /* \"#utility.yul\":13221:13224   */\n      0x00\n        /* \"#utility.yul\":13242:13309   */\n      tag_279\n        /* \"#utility.yul\":13306:13308   */\n      0x13\n        /* \"#utility.yul\":13301:13304   */\n      dup4\n        /* \"#utility.yul\":13242:13309   */\n      tag_103\n      jump\t// in\n    tag_279:\n        /* \"#utility.yul\":13235:13309   */\n      swap2\n      pop\n        /* \"#utility.yul\":13318:13411   */\n      tag_280\n        /* \"#utility.yul\":13407:13410   */\n      dup3\n        /* \"#utility.yul\":13318:13411   */\n      tag_129\n      jump\t// in\n    tag_280:\n        /* \"#utility.yul\":13436:13438   */\n      0x20\n        /* \"#utility.yul\":13431:13434   */\n      dup3\n        /* \"#utility.yul\":13427:13439   */\n      add\n        /* \"#utility.yul\":13420:13439   */\n      swap1\n      pop\n        /* \"#utility.yul\":13079:13445   */\n      swap2\n      swap1\n      pop\n      jump\t// out\n        /* \"#utility.yul\":13451:13870   */\n    tag_81:\n        /* \"#utility.yul\":13617:13621   */\n      0x00\n        /* \"#utility.yul\":13655:13657   */\n      0x20\n        /* \"#utility.yul\":13644:13653   */\n      dup3\n        /* \"#utility.yul\":13640:13658   */\n      add\n        /* \"#utility.yul\":13632:13658   */\n      swap1\n      pop\n        /* \"#utility.yul\":13704:13713   */\n      dup2\n        /* \"#utility.yul\":13698:13702   */\n      dup2\n        /* \"#utility.yul\":13694:13714   */\n      sub\n        /* \"#utility.yul\":13690:13691   */\n      0x00\n        /* \"#utility.yul\":13679:13688   */\n      dup4\n        /* \"#utility.yul\":13675:13692   */\n      add\n        /* \"#utility.yul\":13668:13715   */\n      mstore\n        /* \"#utility.yul\":13732:13863   */\n      tag_282\n        /* \"#utility.yul\":13858:13862   */\n      dup2\n        /* \"#utility.yul\":13732:13863   */\n      tag_130\n      jump\t// in\n    tag_282:\n        /* \"#utility.yul\":13724:13863   */\n      swap1\n      pop\n        /* \"#utility.yul\":13451:13870   */\n      swap2\n      swap1\n      pop\n      jump\t// out\n\n    auxdata: 0xa26469706673582212202fbfc7eaa69566c5c5fd5925d2174447b43c57bf414e310f968b017a926dd25764736f6c634300081f0033\n}\n",
				"bytecode": {
					"linkReferences": {},
					"object": "60806040526001805f6101000a81548160ff0219169083151502179055503480156027575f5ffd5b50610d6b806100355f395ff3fe608060405234801561000f575f5ffd5b5060043610610091575f3560e01c80638d977672116100645780638d9776721461012f578063c17a340e14610161578063d22c81e51461017f578063e1e295581461019d578063e289fcb6146101b957610091565b8063111002aa146100955780631d65e77e146100b157806323049720146100e35780637fea0249146100ff575b5f5ffd5b6100af60048036038101906100aa9190610707565b6101d7565b005b6100cb60048036038101906100c69190610781565b6102ec565b6040516100da93929190610835565b60405180910390f35b6100fd60048036038101906100f8919061089b565b6103ed565b005b61011960048036038101906101149190610781565b610409565b60405161012691906108c6565b60405180910390f35b61014960048036038101906101449190610781565b610426565b60405161015893929190610835565b60405180910390f35b6101696104ed565b60405161017691906108df565b60405180910390f35b6101876104f9565b60405161019491906108df565b60405180910390f35b6101b760048036038101906101b29190610781565b6104fe565b005b6101c16105a8565b6040516101ce91906108c6565b60405180910390f35b60015f9054906101000a900460ff16610225576040517f08c379a000000000000000000000000000000000000000000000000000000000815260040161021c90610942565b60405180910390fd5b600260405180606001604052805f5481526020018381526020015f1515815250908060018154018082558091505060019003905f5260205f2090600302015f909190919091505f820151815f015560208201518160010190816102889190610b5d565b506040820151816002015f6101000a81548160ff02191690831515021790555050505f60035f5f5481526020019081526020015f205f6101000a81548160ff0219169083151502179055505f5f8154809291906102e490610c59565b919050555050565b5f60605f5f6002858154811061030557610304610ca0565b5b905f5260205f2090600302016040518060600160405290815f82015481526020016001820180546103359061098d565b80601f01602080910402602001604051908101604052809291908181526020018280546103619061098d565b80156103ac5780601f10610383576101008083540402835291602001916103ac565b820191905f5260205f20905b81548152906001019060200180831161038f57829003601f168201915b50505050508152602001600282015f9054906101000a900460ff1615151515815250509050805f015181602001518260400151935093509350509193909250565b8060015f6101000a81548160ff02191690831515021790555050565b6003602052805f5260405f205f915054906101000a900460ff1681565b60028181548110610435575f80fd5b905f5260205f2090600302015f91509050805f01549080600101805461045a9061098d565b80601f01602080910402602001604051908101604052809291908181526020018280546104869061098d565b80156104d15780601f106104a8576101008083540402835291602001916104d1565b820191905f5260205f20905b8154815290600101906020018083116104b457829003601f168201915b505050505090806002015f9054906101000a900460ff16905083565b5f600280549050905090565b5f5481565b5f548110610541576040517f08c379a000000000000000000000000000000000000000000000000000000000815260040161053890610d17565b60405180910390fd5b60016002828154811061055757610556610ca0565b5b905f5260205f2090600302016002015f6101000a81548160ff021916908315150217905550600160035f8381526020019081526020015f205f6101000a81548160ff02191690831515021790555050565b60015f9054906101000a900460ff1681565b5f604051905090565b5f5ffd5b5f5ffd5b5f5ffd5b5f5ffd5b5f601f19601f8301169050919050565b7f4e487b71000000000000000000000000000000000000000000000000000000005f52604160045260245ffd5b610619826105d3565b810181811067ffffffffffffffff82111715610638576106376105e3565b5b80604052505050565b5f61064a6105ba565b90506106568282610610565b919050565b5f67ffffffffffffffff821115610675576106746105e3565b5b61067e826105d3565b9050602081019050919050565b828183375f83830152505050565b5f6106ab6106a68461065b565b610641565b9050828152602081018484840111156106c7576106c66105cf565b5b6106d284828561068b565b509392505050565b5f82601f8301126106ee576106ed6105cb565b5b81356106fe848260208601610699565b91505092915050565b5f6020828403121561071c5761071b6105c3565b5b5f82013567ffffffffffffffff811115610739576107386105c7565b5b610745848285016106da565b91505092915050565b5f819050919050565b6107608161074e565b811461076a575f5ffd5b50565b5f8135905061077b81610757565b92915050565b5f60208284031215610796576107956105c3565b5b5f6107a38482850161076d565b91505092915050565b6107b58161074e565b82525050565b5f81519050919050565b5f82825260208201905092915050565b8281835e5f83830152505050565b5f6107ed826107bb565b6107f781856107c5565b93506108078185602086016107d5565b610810816105d3565b840191505092915050565b5f8115159050919050565b61082f8161081b565b82525050565b5f6060820190506108485f8301866107ac565b818103602083015261085a81856107e3565b90506108696040830184610826565b949350505050565b61087a8161081b565b8114610884575f5ffd5b50565b5f8135905061089581610871565b92915050565b5f602082840312156108b0576108af6105c3565b5b5f6108bd84828501610887565b91505092915050565b5f6020820190506108d95f830184610826565b92915050565b5f6020820190506108f25f8301846107ac565b92915050565b7f436f6e7472616374206973206e6f7420616374697665000000000000000000005f82015250565b5f61092c6016836107c5565b9150610937826108f8565b602082019050919050565b5f6020820190508181035f83015261095981610920565b9050919050565b7f4e487b71000000000000000000000000000000000000000000000000000000005f52602260045260245ffd5b5f60028204905060018216806109a457607f821691505b6020821081036109b7576109b6610960565b5b50919050565b5f819050815f5260205f209050919050565b5f6020601f8301049050919050565b5f82821b905092915050565b5f60088302610a197fffffffffffffffffffffffffffffffffffffffffffffffffffffffffffffffff826109de565b610a2386836109de565b95508019841693508086168417925050509392505050565b5f819050919050565b5f610a5e610a59610a548461074e565b610a3b565b61074e565b9050919050565b5f819050919050565b610a7783610a44565b610a8b610a8382610a65565b8484546109ea565b825550505050565b5f5f905090565b610aa2610a93565b610aad818484610a6e565b505050565b5b81811015610ad057610ac55f82610a9a565b600181019050610ab3565b5050565b601f821115610b1557610ae6816109bd565b610aef846109cf565b81016020851015610afe578190505b610b12610b0a856109cf565b830182610ab2565b50505b505050565b5f82821c905092915050565b5f610b355f1984600802610b1a565b1980831691505092915050565b5f610b4d8383610b26565b9150826002028217905092915050565b610b66826107bb565b67ffffffffffffffff811115610b7f57610b7e6105e3565b5b610b89825461098d565b610b94828285610ad4565b5f60209050601f831160018114610bc5575f8415610bb3578287015190505b610bbd8582610b42565b865550610c24565b601f198416610bd3866109bd565b5f5b82811015610bfa57848901518255600182019150602085019450602081019050610bd5565b86831015610c175784890151610c13601f891682610b26565b8355505b6001600288020188555050505b505050505050565b7f4e487b71000000000000000000000000000000000000000000000000000000005f52601160045260245ffd5b5f610c638261074e565b91507fffffffffffffffffffffffffffffffffffffffffffffffffffffffffffffffff8203610c9557610c94610c2c565b5b600182019050919050565b7f4e487b71000000000000000000000000000000000000000000000000000000005f52603260045260245ffd5b7f5461736b20646f6573206e6f74206578697374000000000000000000000000005f82015250565b5f610d016013836107c5565b9150610d0c82610ccd565b602082019050919050565b5f6020820190508181035f830152610d2e81610cf5565b905091905056fea26469706673582212202fbfc7eaa69566c5c5fd5925d2174447b43c57bf414e310f968b017a926dd25764736f6c634300081f0033",
					"opcodes": "PUSH1 0x80 PUSH1 0x40 MSTORE PUSH1 0x1 DUP1 PUSH0 PUSH2 0x100 EXP DUP2 SLOAD DUP2 PUSH1 0xFF MUL NOT AND SWAP1 DUP4 ISZERO ISZERO MUL OR SWAP1 SSTORE POP CALLVALUE DUP1 ISZERO PUSH1 0x27 JUMPI PUSH0 PUSH0 REVERT JUMPDEST POP PUSH2 0xD6B DUP1 PUSH2 0x35 PUSH0 CODECOPY PUSH0 RETURN INVALID PUSH1 0x80 PUSH1 0x40 MSTORE CALLVALUE DUP1 ISZERO PUSH2 0xF JUMPI PUSH0 PUSH0 REVERT JUMPDEST POP PUSH1 0x4 CALLDATASIZE LT PUSH2 0x91 JUMPI PUSH0 CALLDATALOAD PUSH1 0xE0 SHR DUP1 PUSH4 0x8D977672 GT PUSH2 0x64 JUMPI DUP1 PUSH4 0x8D977672 EQ PUSH2 0x12F JUMPI DUP1 PUSH4 0xC17A340E EQ PUSH2 0x161 JUMPI DUP1 PUSH4 0xD22C81E5 EQ PUSH2 0x17F JUMPI DUP1 PUSH4 0xE1E29558 EQ PUSH2 0x19D JUMPI DUP1 PUSH4 0xE289FCB6 EQ PUSH2 0x1B9 JUMPI PUSH2 0x91 JUMP JUMPDEST DUP1 PUSH4 0x111002AA EQ PUSH2 0x95 JUMPI DUP1 PUSH4 0x1D65E77E EQ PUSH2 0xB1 JUMPI DUP1 PUSH4 0x23049720 EQ PUSH2 0xE3 JUMPI DUP1 PUSH4 0x7FEA0249 EQ PUSH2 0xFF JUMPI JUMPDEST PUSH0 PUSH0 REVERT JUMPDEST PUSH2 0xAF PUSH1 0x4 DUP1 CALLDATASIZE SUB DUP2 ADD SWAP1 PUSH2 0xAA SWAP2 SWAP1 PUSH2 0x707 JUMP JUMPDEST PUSH2 0x1D7 JUMP JUMPDEST STOP JUMPDEST PUSH2 0xCB PUSH1 0x4 DUP1 CALLDATASIZE SUB DUP2 ADD SWAP1 PUSH2 0xC6 SWAP2 SWAP1 PUSH2 0x781 JUMP JUMPDEST PUSH2 0x2EC JUMP JUMPDEST PUSH1 0x40 MLOAD PUSH2 0xDA SWAP4 SWAP3 SWAP2 SWAP1 PUSH2 0x835 JUMP JUMPDEST PUSH1 0x40 MLOAD DUP1 SWAP2 SUB SWAP1 RETURN JUMPDEST PUSH2 0xFD PUSH1 0x4 DUP1 CALLDATASIZE SUB DUP2 ADD SWAP1 PUSH2 0xF8 SWAP2 SWAP1 PUSH2 0x89B JUMP JUMPDEST PUSH2 0x3ED JUMP JUMPDEST STOP JUMPDEST PUSH2 0x119 PUSH1 0x4 DUP1 CALLDATASIZE SUB DUP2 ADD SWAP1 PUSH2 0x114 SWAP2 SWAP1 PUSH2 0x781 JUMP JUMPDEST PUSH2 0x409 JUMP JUMPDEST PUSH1 0x40 MLOAD PUSH2 0x126 SWAP2 SWAP1 PUSH2 0x8C6 JUMP JUMPDEST PUSH1 0x40 MLOAD DUP1 SWAP2 SUB SWAP1 RETURN JUMPDEST PUSH2 0x149 PUSH1 0x4 DUP1 CALLDATASIZE SUB DUP2 ADD SWAP1 PUSH2 0x144 SWAP2 SWAP1 PUSH2 0x781 JUMP JUMPDEST PUSH2 0x426 JUMP JUMPDEST PUSH1 0x40 MLOAD PUSH2 0x158 SWAP4 SWAP3 SWAP2 SWAP1 PUSH2 0x835 JUMP JUMPDEST PUSH1 0x40 MLOAD DUP1 SWAP2 SUB SWAP1 RETURN JUMPDEST PUSH2 0x169 PUSH2 0x4ED JUMP JUMPDEST PUSH1 0x40 MLOAD PUSH2 0x176 SWAP2 SWAP1 PUSH2 0x8DF JUMP JUMPDEST PUSH1 0x40 MLOAD DUP1 SWAP2 SUB SWAP1 RETURN JUMPDEST PUSH2 0x187 PUSH2 0x4F9 JUMP JUMPDEST PUSH1 0x40 MLOAD PUSH2 0x194 SWAP2 SWAP1 PUSH2 0x8DF JUMP JUMPDEST PUSH1 0x40 MLOAD DUP1 SWAP2 SUB SWAP1 RETURN JUMPDEST PUSH2 0x1B7 PUSH1 0x4 DUP1 CALLDATASIZE SUB DUP2 ADD SWAP1 PUSH2 0x1B2 SWAP2 SWAP1 PUSH2 0x781 JUMP JUMPDEST PUSH2 0x4FE JUMP JUMPDEST STOP JUMPDEST PUSH2 0x1C1 PUSH2 0x5A8 JUMP JUMPDEST PUSH1 0x40 MLOAD PUSH2 0x1CE SWAP2 SWAP1 PUSH2 0x8C6 JUMP JUMPDEST PUSH1 0x40 MLOAD DUP1 SWAP2 SUB SWAP1 RETURN JUMPDEST PUSH1 0x1 PUSH0 SWAP1 SLOAD SWAP1 PUSH2 0x100 EXP SWAP1 DIV PUSH1 0xFF AND PUSH2 0x225 JUMPI PUSH1 0x40 MLOAD PUSH32 0x8C379A000000000000000000000000000000000000000000000000000000000 DUP2 MSTORE PUSH1 0x4 ADD PUSH2 0x21C SWAP1 PUSH2 0x942 JUMP JUMPDEST PUSH1 0x40 MLOAD DUP1 SWAP2 SUB SWAP1 REVERT JUMPDEST PUSH1 0x2 PUSH1 0x40 MLOAD DUP1 PUSH1 0x60 ADD PUSH1 0x40 MSTORE DUP1 PUSH0 SLOAD DUP2 MSTORE PUSH1 0x20 ADD DUP4 DUP2 MSTORE PUSH1 0x20 ADD PUSH0 ISZERO ISZERO DUP2 MSTORE POP SWAP1 DUP1 PUSH1 0x1 DUP2 SLOAD ADD DUP1 DUP3 SSTORE DUP1 SWAP2 POP POP PUSH1 0x1 SWAP1 SUB SWAP1 PUSH0 MSTORE PUSH1 0x20 PUSH0 KECCAK256 SWAP1 PUSH1 0x3 MUL ADD PUSH0 SWAP1 SWAP2 SWAP1 SWAP2 SWAP1 SWAP2 POP PUSH0 DUP3 ADD MLOAD DUP2 PUSH0 ADD SSTORE PUSH1 0x20 DUP3 ADD MLOAD DUP2 PUSH1 0x1 ADD SWAP1 DUP2 PUSH2 0x288 SWAP2 SWAP1 PUSH2 0xB5D JUMP JUMPDEST POP PUSH1 0x40 DUP3 ADD MLOAD DUP2 PUSH1 0x2 ADD PUSH0 PUSH2 0x100 EXP DUP2 SLOAD DUP2 PUSH1 0xFF MUL NOT AND SWAP1 DUP4 ISZERO ISZERO MUL OR SWAP1 SSTORE POP POP POP PUSH0 PUSH1 0x3 PUSH0 PUSH0 SLOAD DUP2 MSTORE PUSH1 0x20 ADD SWAP1 DUP2 MSTORE PUSH1 0x20 ADD PUSH0 KECCAK256 PUSH0 PUSH2 0x100 EXP DUP2 SLOAD DUP2 PUSH1 0xFF MUL NOT AND SWAP1 DUP4 ISZERO ISZERO MUL OR SWAP1 SSTORE POP PUSH0 PUSH0 DUP2 SLOAD DUP1 SWAP3 SWAP2 SWAP1 PUSH2 0x2E4 SWAP1 PUSH2 0xC59 JUMP JUMPDEST SWAP2 SWAP1 POP SSTORE POP POP JUMP JUMPDEST PUSH0 PUSH1 0x60 PUSH0 PUSH0 PUSH1 0x2 DUP6 DUP2 SLOAD DUP2 LT PUSH2 0x305 JUMPI PUSH2 0x304 PUSH2 0xCA0 JUMP JUMPDEST JUMPDEST SWAP1 PUSH0 MSTORE PUSH1 0x20 PUSH0 KECCAK256 SWAP1 PUSH1 0x3 MUL ADD PUSH1 0x40 MLOAD DUP1 PUSH1 0x60 ADD PUSH1 0x40 MSTORE SWAP1 DUP2 PUSH0 DUP3 ADD SLOAD DUP2 MSTORE PUSH1 0x20 ADD PUSH1 0x1 DUP3 ADD DUP1 SLOAD PUSH2 0x335 SWAP1 PUSH2 0x98D JUMP JUMPDEST DUP1 PUSH1 0x1F ADD PUSH1 0x20 DUP1 SWAP2 DIV MUL PUSH1 0x20 ADD PUSH1 0x40 MLOAD SWAP1 DUP2 ADD PUSH1 0x40 MSTORE DUP1 SWAP3 SWAP2 SWAP1 DUP2 DUP2 MSTORE PUSH1 0x20 ADD DUP3 DUP1 SLOAD PUSH2 0x361 SWAP1 PUSH2 0x98D JUMP JUMPDEST DUP1 ISZERO PUSH2 0x3AC JUMPI DUP1 PUSH1 0x1F LT PUSH2 0x383 JUMPI PUSH2 0x100 DUP1 DUP4 SLOAD DIV MUL DUP4 MSTORE SWAP2 PUSH1 0x20 ADD SWAP2 PUSH2 0x3AC JUMP JUMPDEST DUP3 ADD SWAP2 SWAP1 PUSH0 MSTORE PUSH1 0x20 PUSH0 KECCAK256 SWAP1 JUMPDEST DUP2 SLOAD DUP2 MSTORE SWAP1 PUSH1 0x1 ADD SWAP1 PUSH1 0x20 ADD DUP1 DUP4 GT PUSH2 0x38F JUMPI DUP3 SWAP1 SUB PUSH1 0x1F AND DUP3 ADD SWAP2 JUMPDEST POP POP POP POP POP DUP2 MSTORE PUSH1 0x20 ADD PUSH1 0x2 DUP3 ADD PUSH0 SWAP1 SLOAD SWAP1 PUSH2 0x100 EXP SWAP1 DIV PUSH1 0xFF AND ISZERO ISZERO ISZERO ISZERO DUP2 MSTORE POP POP SWAP1 POP DUP1 PUSH0 ADD MLOAD DUP2 PUSH1 0x20 ADD MLOAD DUP3 PUSH1 0x40 ADD MLOAD SWAP4 POP SWAP4 POP SWAP4 POP POP SWAP2 SWAP4 SWAP1 SWAP3 POP JUMP JUMPDEST DUP1 PUSH1 0x1 PUSH0 PUSH2 0x100 EXP DUP2 SLOAD DUP2 PUSH1 0xFF MUL NOT AND SWAP1 DUP4 ISZERO ISZERO MUL OR SWAP1 SSTORE POP POP JUMP JUMPDEST PUSH1 0x3 PUSH1 0x20 MSTORE DUP1 PUSH0 MSTORE PUSH1 0x40 PUSH0 KECCAK256 PUSH0 SWAP2 POP SLOAD SWAP1 PUSH2 0x100 EXP SWAP1 DIV PUSH1 0xFF AND DUP2 JUMP JUMPDEST PUSH1 0x2 DUP2 DUP2 SLOAD DUP2 LT PUSH2 0x435 JUMPI PUSH0 DUP1 REVERT JUMPDEST SWAP1 PUSH0 MSTORE PUSH1 0x20 PUSH0 KECCAK256 SWAP1 PUSH1 0x3 MUL ADD PUSH0 SWAP2 POP SWAP1 POP DUP1 PUSH0 ADD SLOAD SWAP1 DUP1 PUSH1 0x1 ADD DUP1 SLOAD PUSH2 0x45A SWAP1 PUSH2 0x98D JUMP JUMPDEST DUP1 PUSH1 0x1F ADD PUSH1 0x20 DUP1 SWAP2 DIV MUL PUSH1 0x20 ADD PUSH1 0x40 MLOAD SWAP1 DUP2 ADD PUSH1 0x40 MSTORE DUP1 SWAP3 SWAP2 SWAP1 DUP2 DUP2 MSTORE PUSH1 0x20 ADD DUP3 DUP1 SLOAD PUSH2 0x486 SWAP1 PUSH2 0x98D JUMP JUMPDEST DUP1 ISZERO PUSH2 0x4D1 JUMPI DUP1 PUSH1 0x1F LT PUSH2 0x4A8 JUMPI PUSH2 0x100 DUP1 DUP4 SLOAD DIV MUL DUP4 MSTORE SWAP2 PUSH1 0x20 ADD SWAP2 PUSH2 0x4D1 JUMP JUMPDEST DUP3 ADD SWAP2 SWAP1 PUSH0 MSTORE PUSH1 0x20 PUSH0 KECCAK256 SWAP1 JUMPDEST DUP2 SLOAD DUP2 MSTORE SWAP1 PUSH1 0x1 ADD SWAP1 PUSH1 0x20 ADD DUP1 DUP4 GT PUSH2 0x4B4 JUMPI DUP3 SWAP1 SUB PUSH1 0x1F AND DUP3 ADD SWAP2 JUMPDEST POP POP POP POP POP SWAP1 DUP1 PUSH1 0x2 ADD PUSH0 SWAP1 SLOAD SWAP1 PUSH2 0x100 EXP SWAP1 DIV PUSH1 0xFF AND SWAP1 POP DUP4 JUMP JUMPDEST PUSH0 PUSH1 0x2 DUP1 SLOAD SWAP1 POP SWAP1 POP SWAP1 JUMP JUMPDEST PUSH0 SLOAD DUP2 JUMP JUMPDEST PUSH0 SLOAD DUP2 LT PUSH2 0x541 JUMPI PUSH1 0x40 MLOAD PUSH32 0x8C379A000000000000000000000000000000000000000000000000000000000 DUP2 MSTORE PUSH1 0x4 ADD PUSH2 0x538 SWAP1 PUSH2 0xD17 JUMP JUMPDEST PUSH1 0x40 MLOAD DUP1 SWAP2 SUB SWAP1 REVERT JUMPDEST PUSH1 0x1 PUSH1 0x2 DUP3 DUP2 SLOAD DUP2 LT PUSH2 0x557 JUMPI PUSH2 0x556 PUSH2 0xCA0 JUMP JUMPDEST JUMPDEST SWAP1 PUSH0 MSTORE PUSH1 0x20 PUSH0 KECCAK256 SWAP1 PUSH1 0x3 MUL ADD PUSH1 0x2 ADD PUSH0 PUSH2 0x100 EXP DUP2 SLOAD DUP2 PUSH1 0xFF MUL NOT AND SWAP1 DUP4 ISZERO ISZERO MUL OR SWAP1 SSTORE POP PUSH1 0x1 PUSH1 0x3 PUSH0 DUP4 DUP2 MSTORE PUSH1 0x20 ADD SWAP1 DUP2 MSTORE PUSH1 0x20 ADD PUSH0 KECCAK256 PUSH0 PUSH2 0x100 EXP DUP2 SLOAD DUP2 PUSH1 0xFF MUL NOT AND SWAP1 DUP4 ISZERO ISZERO MUL OR SWAP1 SSTORE POP POP JUMP JUMPDEST PUSH1 0x1 PUSH0 SWAP1 SLOAD SWAP1 PUSH2 0x100 EXP SWAP1 DIV PUSH1 0xFF AND DUP2 JUMP JUMPDEST PUSH0 PUSH1 0x40 MLOAD SWAP1 POP SWAP1 JUMP JUMPDEST PUSH0 PUSH0 REVERT JUMPDEST PUSH0 PUSH0 REVERT JUMPDEST PUSH0 PUSH0 REVERT JUMPDEST PUSH0 PUSH0 REVERT JUMPDEST PUSH0 PUSH1 0x1F NOT PUSH1 0x1F DUP4 ADD AND SWAP1 POP SWAP2 SWAP1 POP JUMP JUMPDEST PUSH32 0x4E487B7100000000000000000000000000000000000000000000000000000000 PUSH0 MSTORE PUSH1 0x41 PUSH1 0x4 MSTORE PUSH1 0x24 PUSH0 REVERT JUMPDEST PUSH2 0x619 DUP3 PUSH2 0x5D3 JUMP JUMPDEST DUP2 ADD DUP2 DUP2 LT PUSH8 0xFFFFFFFFFFFFFFFF DUP3 GT OR ISZERO PUSH2 0x638 JUMPI PUSH2 0x637 PUSH2 0x5E3 JUMP JUMPDEST JUMPDEST DUP1 PUSH1 0x40 MSTORE POP POP POP JUMP JUMPDEST PUSH0 PUSH2 0x64A PUSH2 0x5BA JUMP JUMPDEST SWAP1 POP PUSH2 0x656 DUP3 DUP3 PUSH2 0x610 JUMP JUMPDEST SWAP2 SWAP1 POP JUMP JUMPDEST PUSH0 PUSH8 0xFFFFFFFFFFFFFFFF DUP3 GT ISZERO PUSH2 0x675 JUMPI PUSH2 0x674 PUSH2 0x5E3 JUMP JUMPDEST JUMPDEST PUSH2 0x67E DUP3 PUSH2 0x5D3 JUMP JUMPDEST SWAP1 POP PUSH1 0x20 DUP2 ADD SWAP1 POP SWAP2 SWAP1 POP JUMP JUMPDEST DUP3 DUP2 DUP4 CALLDATACOPY PUSH0 DUP4 DUP4 ADD MSTORE POP POP POP JUMP JUMPDEST PUSH0 PUSH2 0x6AB PUSH2 0x6A6 DUP5 PUSH2 0x65B JUMP JUMPDEST PUSH2 0x641 JUMP JUMPDEST SWAP1 POP DUP3 DUP2 MSTORE PUSH1 0x20 DUP2 ADD DUP5 DUP5 DUP5 ADD GT ISZERO PUSH2 0x6C7 JUMPI PUSH2 0x6C6 PUSH2 0x5CF JUMP JUMPDEST JUMPDEST PUSH2 0x6D2 DUP5 DUP3 DUP6 PUSH2 0x68B JUMP JUMPDEST POP SWAP4 SWAP3 POP POP POP JUMP JUMPDEST PUSH0 DUP3 PUSH1 0x1F DUP4 ADD SLT PUSH2 0x6EE JUMPI PUSH2 0x6ED PUSH2 0x5CB JUMP JUMPDEST JUMPDEST DUP2 CALLDATALOAD PUSH2 0x6FE DUP5 DUP3 PUSH1 0x20 DUP7 ADD PUSH2 0x699 JUMP JUMPDEST SWAP2 POP POP SWAP3 SWAP2 POP POP JUMP JUMPDEST PUSH0 PUSH1 0x20 DUP3 DUP5 SUB SLT ISZERO PUSH2 0x71C JUMPI PUSH2 0x71B PUSH2 0x5C3 JUMP JUMPDEST JUMPDEST PUSH0 DUP3 ADD CALLDATALOAD PUSH8 0xFFFFFFFFFFFFFFFF DUP2 GT ISZERO PUSH2 0x739 JUMPI PUSH2 0x738 PUSH2 0x5C7 JUMP JUMPDEST JUMPDEST PUSH2 0x745 DUP5 DUP3 DUP6 ADD PUSH2 0x6DA JUMP JUMPDEST SWAP2 POP POP SWAP3 SWAP2 POP POP JUMP JUMPDEST PUSH0 DUP2 SWAP1 POP SWAP2 SWAP1 POP JUMP JUMPDEST PUSH2 0x760 DUP2 PUSH2 0x74E JUMP JUMPDEST DUP2 EQ PUSH2 0x76A JUMPI PUSH0 PUSH0 REVERT JUMPDEST POP JUMP JUMPDEST PUSH0 DUP2 CALLDATALOAD SWAP1 POP PUSH2 0x77B DUP2 PUSH2 0x757 JUMP JUMPDEST SWAP3 SWAP2 POP POP JUMP JUMPDEST PUSH0 PUSH1 0x20 DUP3 DUP5 SUB SLT ISZERO PUSH2 0x796 JUMPI PUSH2 0x795 PUSH2 0x5C3 JUMP JUMPDEST JUMPDEST PUSH0 PUSH2 0x7A3 DUP5 DUP3 DUP6 ADD PUSH2 0x76D JUMP JUMPDEST SWAP2 POP POP SWAP3 SWAP2 POP POP JUMP JUMPDEST PUSH2 0x7B5 DUP2 PUSH2 0x74E JUMP JUMPDEST DUP3 MSTORE POP POP JUMP JUMPDEST PUSH0 DUP2 MLOAD SWAP1 POP SWAP2 SWAP1 POP JUMP JUMPDEST PUSH0 DUP3 DUP3 MSTORE PUSH1 0x20 DUP3 ADD SWAP1 POP SWAP3 SWAP2 POP POP JUMP JUMPDEST DUP3 DUP2 DUP4 MCOPY PUSH0 DUP4 DUP4 ADD MSTORE POP POP POP JUMP JUMPDEST PUSH0 PUSH2 0x7ED DUP3 PUSH2 0x7BB JUMP JUMPDEST PUSH2 0x7F7 DUP2 DUP6 PUSH2 0x7C5 JUMP JUMPDEST SWAP4 POP PUSH2 0x807 DUP2 DUP6 PUSH1 0x20 DUP7 ADD PUSH2 0x7D5 JUMP JUMPDEST PUSH2 0x810 DUP2 PUSH2 0x5D3 JUMP JUMPDEST DUP5 ADD SWAP2 POP POP SWAP3 SWAP2 POP POP JUMP JUMPDEST PUSH0 DUP2 ISZERO ISZERO SWAP1 POP SWAP2 SWAP1 POP JUMP JUMPDEST PUSH2 0x82F DUP2 PUSH2 0x81B JUMP JUMPDEST DUP3 MSTORE POP POP JUMP JUMPDEST PUSH0 PUSH1 0x60 DUP3 ADD SWAP1 POP PUSH2 0x848 PUSH0 DUP4 ADD DUP7 PUSH2 0x7AC JUMP JUMPDEST DUP2 DUP2 SUB PUSH1 0x20 DUP4 ADD MSTORE PUSH2 0x85A DUP2 DUP6 PUSH2 0x7E3 JUMP JUMPDEST SWAP1 POP PUSH2 0x869 PUSH1 0x40 DUP4 ADD DUP5 PUSH2 0x826 JUMP JUMPDEST SWAP5 SWAP4 POP POP POP POP JUMP JUMPDEST PUSH2 0x87A DUP2 PUSH2 0x81B JUMP JUMPDEST DUP2 EQ PUSH2 0x884 JUMPI PUSH0 PUSH0 REVERT JUMPDEST POP JUMP JUMPDEST PUSH0 DUP2 CALLDATALOAD SWAP1 POP PUSH2 0x895 DUP2 PUSH2 0x871 JUMP JUMPDEST SWAP3 SWAP2 POP POP JUMP JUMPDEST PUSH0 PUSH1 0x20 DUP3 DUP5 SUB SLT ISZERO PUSH2 0x8B0 JUMPI PUSH2 0x8AF PUSH2 0x5C3 JUMP JUMPDEST JUMPDEST PUSH0 PUSH2 0x8BD DUP5 DUP3 DUP6 ADD PUSH2 0x887 JUMP JUMPDEST SWAP2 POP POP SWAP3 SWAP2 POP POP JUMP JUMPDEST PUSH0 PUSH1 0x20 DUP3 ADD SWAP1 POP PUSH2 0x8D9 PUSH0 DUP4 ADD DUP5 PUSH2 0x826 JUMP JUMPDEST SWAP3 SWAP2 POP POP JUMP JUMPDEST PUSH0 PUSH1 0x20 DUP3 ADD SWAP1 POP PUSH2 0x8F2 PUSH0 DUP4 ADD DUP5 PUSH2 0x7AC JUMP JUMPDEST SWAP3 SWAP2 POP POP JUMP JUMPDEST PUSH32 0x436F6E7472616374206973206E6F742061637469766500000000000000000000 PUSH0 DUP3 ADD MSTORE POP JUMP JUMPDEST PUSH0 PUSH2 0x92C PUSH1 0x16 DUP4 PUSH2 0x7C5 JUMP JUMPDEST SWAP2 POP PUSH2 0x937 DUP3 PUSH2 0x8F8 JUMP JUMPDEST PUSH1 0x20 DUP3 ADD SWAP1 POP SWAP2 SWAP1 POP JUMP JUMPDEST PUSH0 PUSH1 0x20 DUP3 ADD SWAP1 POP DUP2 DUP2 SUB PUSH0 DUP4 ADD MSTORE PUSH2 0x959 DUP2 PUSH2 0x920 JUMP JUMPDEST SWAP1 POP SWAP2 SWAP1 POP JUMP JUMPDEST PUSH32 0x4E487B7100000000000000000000000000000000000000000000000000000000 PUSH0 MSTORE PUSH1 0x22 PUSH1 0x4 MSTORE PUSH1 0x24 PUSH0 REVERT JUMPDEST PUSH0 PUSH1 0x2 DUP3 DIV SWAP1 POP PUSH1 0x1 DUP3 AND DUP1 PUSH2 0x9A4 JUMPI PUSH1 0x7F DUP3 AND SWAP2 POP JUMPDEST PUSH1 0x20 DUP3 LT DUP2 SUB PUSH2 0x9B7 JUMPI PUSH2 0x9B6 PUSH2 0x960 JUMP JUMPDEST JUMPDEST POP SWAP2 SWAP1 POP JUMP JUMPDEST PUSH0 DUP2 SWAP1 POP DUP2 PUSH0 MSTORE PUSH1 0x20 PUSH0 KECCAK256 SWAP1 POP SWAP2 SWAP1 POP JUMP JUMPDEST PUSH0 PUSH1 0x20 PUSH1 0x1F DUP4 ADD DIV SWAP1 POP SWAP2 SWAP1 POP JUMP JUMPDEST PUSH0 DUP3 DUP3 SHL SWAP1 POP SWAP3 SWAP2 POP POP JUMP JUMPDEST PUSH0 PUSH1 0x8 DUP4 MUL PUSH2 0xA19 PUSH32 0xFFFFFFFFFFFFFFFFFFFFFFFFFFFFFFFFFFFFFFFFFFFFFFFFFFFFFFFFFFFFFFFF DUP3 PUSH2 0x9DE JUMP JUMPDEST PUSH2 0xA23 DUP7 DUP4 PUSH2 0x9DE JUMP JUMPDEST SWAP6 POP DUP1 NOT DUP5 AND SWAP4 POP DUP1 DUP7 AND DUP5 OR SWAP3 POP POP POP SWAP4 SWAP3 POP POP POP JUMP JUMPDEST PUSH0 DUP2 SWAP1 POP SWAP2 SWAP1 POP JUMP JUMPDEST PUSH0 PUSH2 0xA5E PUSH2 0xA59 PUSH2 0xA54 DUP5 PUSH2 0x74E JUMP JUMPDEST PUSH2 0xA3B JUMP JUMPDEST PUSH2 0x74E JUMP JUMPDEST SWAP1 POP SWAP2 SWAP1 POP JUMP JUMPDEST PUSH0 DUP2 SWAP1 POP SWAP2 SWAP1 POP JUMP JUMPDEST PUSH2 0xA77 DUP4 PUSH2 0xA44 JUMP JUMPDEST PUSH2 0xA8B PUSH2 0xA83 DUP3 PUSH2 0xA65 JUMP JUMPDEST DUP5 DUP5 SLOAD PUSH2 0x9EA JUMP JUMPDEST DUP3 SSTORE POP POP POP POP JUMP JUMPDEST PUSH0 PUSH0 SWAP1 POP SWAP1 JUMP JUMPDEST PUSH2 0xAA2 PUSH2 0xA93 JUMP JUMPDEST PUSH2 0xAAD DUP2 DUP5 DUP5 PUSH2 0xA6E JUMP JUMPDEST POP POP POP JUMP JUMPDEST JUMPDEST DUP2 DUP2 LT ISZERO PUSH2 0xAD0 JUMPI PUSH2 0xAC5 PUSH0 DUP3 PUSH2 0xA9A JUMP JUMPDEST PUSH1 0x1 DUP2 ADD SWAP1 POP PUSH2 0xAB3 JUMP JUMPDEST POP POP JUMP JUMPDEST PUSH1 0x1F DUP3 GT ISZERO PUSH2 0xB15 JUMPI PUSH2 0xAE6 DUP2 PUSH2 0x9BD JUMP JUMPDEST PUSH2 0xAEF DUP5 PUSH2 0x9CF JUMP JUMPDEST DUP2 ADD PUSH1 0x20 DUP6 LT ISZERO PUSH2 0xAFE JUMPI DUP2 SWAP1 POP JUMPDEST PUSH2 0xB12 PUSH2 0xB0A DUP6 PUSH2 0x9CF JUMP JUMPDEST DUP4 ADD DUP3 PUSH2 0xAB2 JUMP JUMPDEST POP POP JUMPDEST POP POP POP JUMP JUMPDEST PUSH0 DUP3 DUP3 SHR SWAP1 POP SWAP3 SWAP2 POP POP JUMP JUMPDEST PUSH0 PUSH2 0xB35 PUSH0 NOT DUP5 PUSH1 0x8 MUL PUSH2 0xB1A JUMP JUMPDEST NOT DUP1 DUP4 AND SWAP2 POP POP SWAP3 SWAP2 POP POP JUMP JUMPDEST PUSH0 PUSH2 0xB4D DUP4 DUP4 PUSH2 0xB26 JUMP JUMPDEST SWAP2 POP DUP3 PUSH1 0x2 MUL DUP3 OR SWAP1 POP SWAP3 SWAP2 POP POP JUMP JUMPDEST PUSH2 0xB66 DUP3 PUSH2 0x7BB JUMP JUMPDEST PUSH8 0xFFFFFFFFFFFFFFFF DUP2 GT ISZERO PUSH2 0xB7F JUMPI PUSH2 0xB7E PUSH2 0x5E3 JUMP JUMPDEST JUMPDEST PUSH2 0xB89 DUP3 SLOAD PUSH2 0x98D JUMP JUMPDEST PUSH2 0xB94 DUP3 DUP3 DUP6 PUSH2 0xAD4 JUMP JUMPDEST PUSH0 PUSH1 0x20 SWAP1 POP PUSH1 0x1F DUP4 GT PUSH1 0x1 DUP2 EQ PUSH2 0xBC5 JUMPI PUSH0 DUP5 ISZERO PUSH2 0xBB3 JUMPI DUP3 DUP8 ADD MLOAD SWAP1 POP JUMPDEST PUSH2 0xBBD DUP6 DUP3 PUSH2 0xB42 JUMP JUMPDEST DUP7 SSTORE POP PUSH2 0xC24 JUMP JUMPDEST PUSH1 0x1F NOT DUP5 AND PUSH2 0xBD3 DUP7 PUSH2 0x9BD JUMP JUMPDEST PUSH0 JUMPDEST DUP3 DUP2 LT ISZERO PUSH2 0xBFA JUMPI DUP5 DUP10 ADD MLOAD DUP3 SSTORE PUSH1 0x1 DUP3 ADD SWAP2 POP PUSH1 0x20 DUP6 ADD SWAP5 POP PUSH1 0x20 DUP2 ADD SWAP1 POP PUSH2 0xBD5 JUMP JUMPDEST DUP7 DUP4 LT ISZERO PUSH2 0xC17 JUMPI DUP5 DUP10 ADD MLOAD PUSH2 0xC13 PUSH1 0x1F DUP10 AND DUP3 PUSH2 0xB26 JUMP JUMPDEST DUP4 SSTORE POP JUMPDEST PUSH1 0x1 PUSH1 0x2 DUP9 MUL ADD DUP9 SSTORE POP POP POP JUMPDEST POP POP POP POP POP POP JUMP JUMPDEST PUSH32 0x4E487B7100000000000000000000000000000000000000000000000000000000 PUSH0 MSTORE PUSH1 0x11 PUSH1 0x4 MSTORE PUSH1 0x24 PUSH0 REVERT JUMPDEST PUSH0 PUSH2 0xC63 DUP3 PUSH2 0x74E JUMP JUMPDEST SWAP2 POP PUSH32 0xFFFFFFFFFFFFFFFFFFFFFFFFFFFFFFFFFFFFFFFFFFFFFFFFFFFFFFFFFFFFFFFF DUP3 SUB PUSH2 0xC95 JUMPI PUSH2 0xC94 PUSH2 0xC2C JUMP JUMPDEST JUMPDEST PUSH1 0x1 DUP3 ADD SWAP1 POP SWAP2 SWAP1 POP JUMP JUMPDEST PUSH32 0x4E487B7100000000000000000000000000000000000000000000000000000000 PUSH0 MSTORE PUSH1 0x32 PUSH1 0x4 MSTORE PUSH1 0x24 PUSH0 REVERT JUMPDEST PUSH32 0x5461736B20646F6573206E6F7420657869737400000000000000000000000000 PUSH0 DUP3 ADD MSTORE POP JUMP JUMPDEST PUSH0 PUSH2 0xD01 PUSH1 0x13 DUP4 PUSH2 0x7C5 JUMP JUMPDEST SWAP2 POP PUSH2 0xD0C DUP3 PUSH2 0xCCD JUMP JUMPDEST PUSH1 0x20 DUP3 ADD SWAP1 POP SWAP2 SWAP1 POP JUMP JUMPDEST PUSH0 PUSH1 0x20 DUP3 ADD SWAP1 POP DUP2 DUP2 SUB PUSH0 DUP4 ADD MSTORE PUSH2 0xD2E DUP2 PUSH2 0xCF5 JUMP JUMPDEST SWAP1 POP SWAP2 SWAP1 POP JUMP INVALID LOG2 PUSH5 0x6970667358 0x22 SLT KECCAK256 0x2F 0xBF 0xC7 0xEA 0xA6 SWAP6 PUSH7 0xC5C5FD5925D217 PREVRANDAO SELFBALANCE 0xB4 EXTCODECOPY JUMPI 0xBF COINBASE 0x4E BALANCE 0xF SWAP7 DUP12 ADD PUSH27 0x926DD25764736F6C634300081F0033000000000000000000000000 "
				},
				"gasEstimates": {
					"creation": {
						"codeDepositCost": "687000",
						"executionCost": "24985",
						"totalCost": "711985"
					},
					"external": {
						"completeTask(uint256)": "53392",
						"contractActive()": "2554",
						"createTask(string)": "infinite",
						"getTask(uint256)": "infinite",
						"getTaskCount()": "2462",
						"taskCompleted(uint256)": "2852",
						"tasks(uint256)": "infinite",
						"toggleContract(bool)": "24718",
						"totalTasks()": "2468"
					}
				},
				"methodIdentifiers": {
					"completeTask(uint256)": "e1e29558",
					"contractActive()": "e289fcb6",
					"createTask(string)": "111002aa",
					"getTask(uint256)": "1d65e77e",
					"getTaskCount()": "c17a340e",
					"taskCompleted(uint256)": "7fea0249",
					"tasks(uint256)": "8d977672",
					"toggleContract(bool)": "23049720",
					"totalTasks()": "d22c81e5"
				}
			},
			"storageLayout": {
				"storage": [
					{
						"astId": 3,
						"contract": "contract/task.sol:TaskManager",
						"label": "totalTasks",
						"offset": 0,
						"slot": "0",
						"type": "t_uint256"
					},
					{
						"astId": 6,
						"contract": "contract/task.sol:TaskManager",
						"label": "contractActive",
						"offset": 0,
						"slot": "1",
						"type": "t_bool"
					},
					{
						"astId": 17,
						"contract": "contract/task.sol:TaskManager",
						"label": "tasks",
						"offset": 0,
						"slot": "2",
						"type": "t_array(t_struct(Task)13_storage)dyn_storage"
					},
					{
						"astId": 21,
						"contract": "contract/task.sol:TaskManager",
						"label": "taskCompleted",
						"offset": 0,
						"slot": "3",
						"type": "t_mapping(t_uint256,t_bool)"
					}
				],
				"types": {
					"t_array(t_struct(Task)13_storage)dyn_storage": {
						"base": "t_struct(Task)13_storage",
						"encoding": "dynamic_array",
						"label": "struct TaskManager.Task[]",
						"numberOfBytes": "32"
					},
					"t_bool": {
						"encoding": "inplace",
						"label": "bool",
						"numberOfBytes": "1"
					},
					"t_mapping(t_uint256,t_bool)": {
						"encoding": "mapping",
						"key": "t_uint256",
						"label": "mapping(uint256 => bool)",
						"numberOfBytes": "32",
						"value": "t_bool"
					},
					"t_string_storage": {
						"encoding": "bytes",
						"label": "string",
						"numberOfBytes": "32"
					},
					"t_struct(Task)13_storage": {
						"encoding": "inplace",
						"label": "struct TaskManager.Task",
						"members": [
							{
								"astId": 8,
								"contract": "contract/task.sol:TaskManager",
								"label": "id",
								"offset": 0,
								"slot": "0",
								"type": "t_uint256"
							},
							{
								"astId": 10,
								"contract": "contract/task.sol:TaskManager",
								"label": "title",
								"offset": 0,
								"slot": "1",
								"type": "t_string_storage"
							},
							{
								"astId": 12,
								"contract": "contract/task.sol:TaskManager",
								"label": "completed",
								"offset": 0,
								"slot": "2",
								"type": "t_bool"
							}
						],
						"numberOfBytes": "96"
					},
					"t_uint256": {
						"encoding": "inplace",
						"label": "uint256",
						"numberOfBytes": "32"
					}
				}
			},
			"userdoc": {
				"kind": "user",
				"methods": {},
				"version": 1
			}
		}
	}
}