{
	"contract/task.sol": {
		"TaskManager": {
			"abi": [
				{
					"inputs": [],
					"name": "contractActive",
					"outputs": [
						{
							"internalType": "bool",
							"name": "",
							"type": "bool"
						}
					],
					"stateMutability": "view",
					"type": "function"
				},
				{
					"inputs": [
						{
							"internalType": "string",
							"name": "_title",
							"type": "string"
						}
					],
					"name": "createTask",
					"outputs": [],
					"stateMutability": "nonpayable",
					"type": "function"
				},
				{
					"inputs": [
						{
							"internalType": "uint256",
							"name": "",
							"type": "uint256"
						}
					],
					"name": "taskCompleted",
					"outputs": [
						{
							"internalType": "bool",
							"name": "",
							"type": "bool"
						}
					],
					"stateMutability": "view",
					"type": "function"
				},
				{
					"inputs": [
						{
							"internalType": "uint256",
							"name": "",
							"type": "uint256"
						}
					],
					"name": "tasks",
					"outputs": [
						{
							"internalType": "uint256",
							"name": "id",
							"type": "uint256"
						},
						{
							"internalType": "string",
							"name": "title",
							"type": "string"
						},
						{
							"internalType": "bool",
							"name": "completed",
							"type": "bool"
						}
					],
					"stateMutability": "view",
					"type": "function"
				},
				{
					"inputs": [],
					"name": "totalTasks",
					"outputs": [
						{
							"internalType": "uint256",
							"name": "",
							"type": "uint256"
						}
					],
					"stateMutability": "view",
					"type": "function"
				}
			],
			"devdoc": {
				"kind": "dev",
				"methods": {},
				"version": 1
			},
			"evm": {
				"assembly": "    /* \"contract/task.sol\":58:616  contract TaskManager {... */\n  mstore(0x40, 0x80)\n    /* \"contract/task.sol\":146:150  true */\n  0x01\n    /* \"contract/task.sol\":117:150  bool public contractActive = true */\n  dup1\n  exp(0x0100, 0x00)\n  dup2\n  sload\n  dup2\n  0xff\n  mul\n  not\n  and\n  swap1\n  dup4\n  iszero\n  iszero\n  mul\n  or\n  swap1\n  sstore\n  pop\n    /* \"contract/task.sol\":58:616  contract TaskManager {... */\n  callvalue\n  dup1\n  iszero\n  tag_1\n  jumpi\n  revert(0x00, 0x00)\ntag_1:\n  pop\n  dataSize(sub_0)\n  dup1\n  dataOffset(sub_0)\n  0x00\n  codecopy\n  0x00\n  return\nstop\n\nsub_0: assembly {\n        /* \"contract/task.sol\":58:616  contract TaskManager {... */\n      mstore(0x40, 0x80)\n      callvalue\n      dup1\n      iszero\n      tag_1\n      jumpi\n      revert(0x00, 0x00)\n    tag_1:\n      pop\n      jumpi(tag_2, lt(calldatasize, 0x04))\n      shr(0xe0, calldataload(0x00))\n      dup1\n      0x111002aa\n      eq\n      tag_3\n      jumpi\n      dup1\n      0x7fea0249\n      eq\n      tag_4\n      jumpi\n      dup1\n      0x8d977672\n      eq\n      tag_5\n      jumpi\n      dup1\n      0xd22c81e5\n      eq\n      tag_6\n      jumpi\n      dup1\n      0xe289fcb6\n      eq\n      tag_7\n      jumpi\n    tag_2:\n      revert(0x00, 0x00)\n        /* \"contract/task.sol\":327:608  function createTask(string memory _title) public {... */\n    tag_3:\n      tag_8\n      0x04\n      dup1\n      calldatasize\n      sub\n      dup2\n      add\n      swap1\n      tag_9\n      swap2\n      swap1\n      tag_10\n      jump\t// in\n    tag_9:\n      tag_11\n      jump\t// in\n    tag_8:\n      stop\n        /* \"contract/task.sol\":274:316  mapping(uint => bool) public taskCompleted */\n    tag_4:\n      tag_12\n      0x04\n      dup1\n      calldatasize\n      sub\n      dup2\n      add\n      swap1\n      tag_13\n      swap2\n      swap1\n      tag_14\n      jump\t// in\n    tag_13:\n      tag_15\n      jump\t// in\n    tag_12:\n      mload(0x40)\n      tag_16\n      swap2\n      swap1\n      tag_17\n      jump\t// in\n    tag_16:\n      mload(0x40)\n      dup1\n      swap2\n      sub\n      swap1\n      return\n        /* \"contract/task.sol\":248:267  Task[] public tasks */\n    tag_5:\n      tag_18\n      0x04\n      dup1\n      calldatasize\n      sub\n      dup2\n      add\n      swap1\n      tag_19\n      swap2\n      swap1\n      tag_14\n      jump\t// in\n    tag_19:\n      tag_20\n      jump\t// in\n    tag_18:\n      mload(0x40)\n      tag_21\n      swap4\n      swap3\n      swap2\n      swap1\n      tag_22\n      jump\t// in\n    tag_21:\n      mload(0x40)\n      dup1\n      swap2\n      sub\n      swap1\n      return\n        /* \"contract/task.sol\":89:111  uint public totalTasks */\n    tag_6:\n      tag_23\n      tag_24\n      jump\t// in\n    tag_23:\n      mload(0x40)\n      tag_25\n      swap2\n      swap1\n      tag_26\n      jump\t// in\n    tag_25:\n      mload(0x40)\n      dup1\n      swap2\n      sub\n      swap1\n      return\n        /* \"contract/task.sol\":117:150  bool public contractActive = true */\n    tag_7:\n      tag_27\n      tag_28\n      jump\t// in\n    tag_27:\n      mload(0x40)\n      tag_29\n      swap2\n      swap1\n      tag_17\n      jump\t// in\n    tag_29:\n      mload(0x40)\n      dup1\n      swap2\n      sub\n      swap1\n      return\n        /* \"contract/task.sol\":327:608  function createTask(string memory _title) public {... */\n    tag_11:\n        /* \"contract/task.sol\":394:408  contractActive */\n      0x01\n      0x00\n      swap1\n      sload\n      swap1\n      0x0100\n      exp\n      swap1\n      div\n      0xff\n      and\n        /* \"contract/task.sol\":386:435  require(contractActive, \"Contract is not active\") */\n      tag_31\n      jumpi\n      mload(0x40)\n      0x08c379a000000000000000000000000000000000000000000000000000000000\n      dup2\n      mstore\n      0x04\n      add\n      tag_32\n      swap1\n      tag_33\n      jump\t// in\n    tag_32:\n      mload(0x40)\n      dup1\n      swap2\n      sub\n      swap1\n      revert\n    tag_31:\n        /* \"contract/task.sol\":446:451  tasks */\n      0x02\n        /* \"contract/task.sol\":457:534  Task(... */\n      mload(0x40)\n      dup1\n      0x60\n      add\n      0x40\n      mstore\n      dup1\n        /* \"contract/task.sol\":475:485  totalTasks */\n      sload(0x00)\n        /* \"contract/task.sol\":457:534  Task(... */\n      dup2\n      mstore\n      0x20\n      add\n        /* \"contract/task.sol\":499:505  _title */\n      dup4\n        /* \"contract/task.sol\":457:534  Task(... */\n      dup2\n      mstore\n      0x20\n      add\n        /* \"contract/task.sol\":519:524  false */\n      0x00\n        /* \"contract/task.sol\":457:534  Task(... */\n      iszero\n      iszero\n      dup2\n      mstore\n      pop\n        /* \"contract/task.sol\":446:535  tasks.push(Task(... */\n      swap1\n      dup1\n      0x01\n      dup2\n      sload\n      add\n      dup1\n      dup3\n      sstore\n      dup1\n      swap2\n      pop\n      pop\n      0x01\n      swap1\n      sub\n      swap1\n      0x00\n      mstore\n      keccak256(0x00, 0x20)\n      swap1\n      0x03\n      mul\n      add\n      0x00\n      swap1\n      swap2\n      swap1\n      swap2\n      swap1\n      swap2\n      pop\n      0x00\n      dup3\n      add\n      mload\n      dup2\n      0x00\n      add\n      sstore\n      0x20\n      dup3\n      add\n      mload\n      dup2\n      0x01\n      add\n      swap1\n      dup2\n      tag_35\n      swap2\n      swap1\n      tag_36\n      jump\t// in\n    tag_35:\n      pop\n      0x40\n      dup3\n      add\n      mload\n      dup2\n      0x02\n      add\n      exp(0x0100, 0x00)\n      dup2\n      sload\n      dup2\n      0xff\n      mul\n      not\n      and\n      swap1\n      dup4\n      iszero\n      iszero\n      mul\n      or\n      swap1\n      sstore\n      pop\n      pop\n      pop\n        /* \"contract/task.sol\":574:579  false */\n      0x00\n        /* \"contract/task.sol\":546:559  taskCompleted */\n      0x03\n        /* \"contract/task.sol\":546:571  taskCompleted[totalTasks] */\n      0x00\n        /* \"contract/task.sol\":560:570  totalTasks */\n      sload(0x00)\n        /* \"contract/task.sol\":546:571  taskCompleted[totalTasks] */\n      dup2\n      mstore\n      0x20\n      add\n      swap1\n      dup2\n      mstore\n      0x20\n      add\n      0x00\n      keccak256\n      0x00\n        /* \"contract/task.sol\":546:579  taskCompleted[totalTasks] = false */\n      0x0100\n      exp\n      dup2\n      sload\n      dup2\n      0xff\n      mul\n      not\n      and\n      swap1\n      dup4\n      iszero\n      iszero\n      mul\n      or\n      swap1\n      sstore\n      pop\n        /* \"contract/task.sol\":589:599  totalTasks */\n      0x00\n      0x00\n        /* \"contract/task.sol\":589:601  totalTasks++ */\n      dup2\n      sload\n      dup1\n      swap3\n      swap2\n      swap1\n      tag_37\n      swap1\n      tag_38\n      jump\t// in\n    tag_37:\n      swap2\n      swap1\n      pop\n      sstore\n      pop\n        /* \"contract/task.sol\":327:608  function createTask(string memory _title) public {... */\n      pop\n      jump\t// out\n        /* \"contract/task.sol\":274:316  mapping(uint => bool) public taskCompleted */\n    tag_15:\n      mstore(0x20, 0x03)\n      dup1\n      0x00\n      mstore\n      keccak256(0x00, 0x40)\n      0x00\n      swap2\n      pop\n      sload\n      swap1\n      0x0100\n      exp\n      swap1\n      div\n      0xff\n      and\n      dup2\n      jump\t// out\n        /* \"contract/task.sol\":248:267  Task[] public tasks */\n    tag_20:\n      0x02\n      dup2\n      dup2\n      sload\n      dup2\n      lt\n      tag_39\n      jumpi\n      0x00\n      dup1\n      revert\n    tag_39:\n      swap1\n      0x00\n      mstore\n      keccak256(0x00, 0x20)\n      swap1\n      0x03\n      mul\n      add\n      0x00\n      swap2\n      pop\n      swap1\n      pop\n      dup1\n      0x00\n      add\n      sload\n      swap1\n      dup1\n      0x01\n      add\n      dup1\n      sload\n      tag_41\n      swap1\n      tag_42\n      jump\t// in\n    tag_41:\n      dup1\n      0x1f\n      add\n      0x20\n      dup1\n      swap2\n      div\n      mul\n      0x20\n      add\n      mload(0x40)\n      swap1\n      dup2\n      add\n      0x40\n      mstore\n      dup1\n      swap3\n      swap2\n      swap1\n      dup2\n      dup2\n      mstore\n      0x20\n      add\n      dup3\n      dup1\n      sload\n      tag_43\n      swap1\n      tag_42\n      jump\t// in\n    tag_43:\n      dup1\n      iszero\n      tag_44\n      jumpi\n      dup1\n      0x1f\n      lt\n      tag_45\n      jumpi\n      0x0100\n      dup1\n      dup4\n      sload\n      div\n      mul\n      dup4\n      mstore\n      swap2\n      0x20\n      add\n      swap2\n      jump(tag_44)\n    tag_45:\n      dup3\n      add\n      swap2\n      swap1\n      0x00\n      mstore\n      keccak256(0x00, 0x20)\n      swap1\n    tag_46:\n      dup2\n      sload\n      dup2\n      mstore\n      swap1\n      0x01\n      add\n      swap1\n      0x20\n      add\n      dup1\n      dup4\n      gt\n      tag_46\n      jumpi\n      dup3\n      swap1\n      sub\n      0x1f\n      and\n      dup3\n      add\n      swap2\n    tag_44:\n      pop\n      pop\n      pop\n      pop\n      pop\n      swap1\n      dup1\n      0x02\n      add\n      0x00\n      swap1\n      sload\n      swap1\n      0x0100\n      exp\n      swap1\n      div\n      0xff\n      and\n      swap1\n      pop\n      dup4\n      jump\t// out\n        /* \"contract/task.sol\":89:111  uint public totalTasks */\n    tag_24:\n      sload(0x00)\n      dup2\n      jump\t// out\n        /* \"contract/task.sol\":117:150  bool public contractActive = true */\n    tag_28:\n      0x01\n      0x00\n      swap1\n      sload\n      swap1\n      0x0100\n      exp\n      swap1\n      div\n      0xff\n      and\n      dup2\n      jump\t// out\n        /* \"#utility.yul\":7:82   */\n    tag_47:\n        /* \"#utility.yul\":40:46   */\n      0x00\n        /* \"#utility.yul\":73:75   */\n      0x40\n        /* \"#utility.yul\":67:76   */\n      mload\n        /* \"#utility.yul\":57:76   */\n      swap1\n      pop\n        /* \"#utility.yul\":7:82   */\n      swap1\n      jump\t// out\n        /* \"#utility.yul\":88:205   */\n    tag_48:\n        /* \"#utility.yul\":197:198   */\n      0x00\n        /* \"#utility.yul\":194:195   */\n      0x00\n        /* \"#utility.yul\":187:199   */\n      revert\n        /* \"#utility.yul\":211:328   */\n    tag_49:\n        /* \"#utility.yul\":320:321   */\n      0x00\n        /* \"#utility.yul\":317:318   */\n      0x00\n        /* \"#utility.yul\":310:322   */\n      revert\n        /* \"#utility.yul\":334:451   */\n    tag_50:\n        /* \"#utility.yul\":443:444   */\n      0x00\n        /* \"#utility.yul\":440:441   */\n      0x00\n        /* \"#utility.yul\":433:445   */\n      revert\n        /* \"#utility.yul\":457:574   */\n    tag_51:\n        /* \"#utility.yul\":566:567   */\n      0x00\n        /* \"#utility.yul\":563:564   */\n      0x00\n        /* \"#utility.yul\":556:568   */\n      revert\n        /* \"#utility.yul\":580:682   */\n    tag_52:\n        /* \"#utility.yul\":621:627   */\n      0x00\n        /* \"#utility.yul\":672:674   */\n      0x1f\n        /* \"#utility.yul\":668:675   */\n      not\n        /* \"#utility.yul\":663:665   */\n      0x1f\n        /* \"#utility.yul\":656:661   */\n      dup4\n        /* \"#utility.yul\":652:666   */\n      add\n        /* \"#utility.yul\":648:676   */\n      and\n        /* \"#utility.yul\":638:676   */\n      swap1\n      pop\n        /* \"#utility.yul\":580:682   */\n      swap2\n      swap1\n      pop\n      jump\t// out\n        /* \"#utility.yul\":688:868   */\n    tag_53:\n        /* \"#utility.yul\":736:813   */\n      0x4e487b7100000000000000000000000000000000000000000000000000000000\n        /* \"#utility.yul\":733:734   */\n      0x00\n        /* \"#utility.yul\":726:814   */\n      mstore\n        /* \"#utility.yul\":833:837   */\n      0x41\n        /* \"#utility.yul\":830:831   */\n      0x04\n        /* \"#utility.yul\":823:838   */\n      mstore\n        /* \"#utility.yul\":857:861   */\n      0x24\n        /* \"#utility.yul\":854:855   */\n      0x00\n        /* \"#utility.yul\":847:862   */\n      revert\n        /* \"#utility.yul\":874:1155   */\n    tag_54:\n        /* \"#utility.yul\":957:984   */\n      tag_98\n        /* \"#utility.yul\":979:983   */\n      dup3\n        /* \"#utility.yul\":957:984   */\n      tag_52\n      jump\t// in\n    tag_98:\n        /* \"#utility.yul\":949:955   */\n      dup2\n        /* \"#utility.yul\":945:985   */\n      add\n        /* \"#utility.yul\":1087:1093   */\n      dup2\n        /* \"#utility.yul\":1075:1085   */\n      dup2\n        /* \"#utility.yul\":1072:1094   */\n      lt\n        /* \"#utility.yul\":1051:1069   */\n      0xffffffffffffffff\n        /* \"#utility.yul\":1039:1049   */\n      dup3\n        /* \"#utility.yul\":1036:1070   */\n      gt\n        /* \"#utility.yul\":1033:1095   */\n      or\n        /* \"#utility.yul\":1030:1118   */\n      iszero\n      tag_99\n      jumpi\n        /* \"#utility.yul\":1098:1116   */\n      tag_100\n      tag_53\n      jump\t// in\n    tag_100:\n        /* \"#utility.yul\":1030:1118   */\n    tag_99:\n        /* \"#utility.yul\":1138:1148   */\n      dup1\n        /* \"#utility.yul\":1134:1136   */\n      0x40\n        /* \"#utility.yul\":1127:1149   */\n      mstore\n        /* \"#utility.yul\":917:1155   */\n      pop\n        /* \"#utility.yul\":874:1155   */\n      pop\n      pop\n      jump\t// out\n        /* \"#utility.yul\":1161:1290   */\n    tag_55:\n        /* \"#utility.yul\":1195:1201   */\n      0x00\n        /* \"#utility.yul\":1222:1242   */\n      tag_102\n      tag_47\n      jump\t// in\n    tag_102:\n        /* \"#utility.yul\":1212:1242   */\n      swap1\n      pop\n        /* \"#utility.yul\":1251:1284   */\n      tag_103\n        /* \"#utility.yul\":1279:1283   */\n      dup3\n        /* \"#utility.yul\":1271:1277   */\n      dup3\n        /* \"#utility.yul\":1251:1284   */\n      tag_54\n      jump\t// in\n    tag_103:\n        /* \"#utility.yul\":1161:1290   */\n      swap2\n      swap1\n      pop\n      jump\t// out\n        /* \"#utility.yul\":1296:1604   */\n    tag_56:\n        /* \"#utility.yul\":1358:1362   */\n      0x00\n        /* \"#utility.yul\":1448:1466   */\n      0xffffffffffffffff\n        /* \"#utility.yul\":1440:1446   */\n      dup3\n        /* \"#utility.yul\":1437:1467   */\n      gt\n        /* \"#utility.yul\":1434:1490   */\n      iszero\n      tag_105\n      jumpi\n        /* \"#utility.yul\":1470:1488   */\n      tag_106\n      tag_53\n      jump\t// in\n    tag_106:\n        /* \"#utility.yul\":1434:1490   */\n    tag_105:\n        /* \"#utility.yul\":1508:1537   */\n      tag_107\n        /* \"#utility.yul\":1530:1536   */\n      dup3\n        /* \"#utility.yul\":1508:1537   */\n      tag_52\n      jump\t// in\n    tag_107:\n        /* \"#utility.yul\":1500:1537   */\n      swap1\n      pop\n        /* \"#utility.yul\":1592:1596   */\n      0x20\n        /* \"#utility.yul\":1586:1590   */\n      dup2\n        /* \"#utility.yul\":1582:1597   */\n      add\n        /* \"#utility.yul\":1574:1597   */\n      swap1\n      pop\n        /* \"#utility.yul\":1296:1604   */\n      swap2\n      swap1\n      pop\n      jump\t// out\n        /* \"#utility.yul\":1610:1758   */\n    tag_57:\n        /* \"#utility.yul\":1708:1714   */\n      dup3\n        /* \"#utility.yul\":1703:1706   */\n      dup2\n        /* \"#utility.yul\":1698:1701   */\n      dup4\n        /* \"#utility.yul\":1685:1715   */\n      calldatacopy\n        /* \"#utility.yul\":1749:1750   */\n      0x00\n        /* \"#utility.yul\":1740:1746   */\n      dup4\n        /* \"#utility.yul\":1735:1738   */\n      dup4\n        /* \"#utility.yul\":1731:1747   */\n      add\n        /* \"#utility.yul\":1724:1751   */\n      mstore\n        /* \"#utility.yul\":1610:1758   */\n      pop\n      pop\n      pop\n      jump\t// out\n        /* \"#utility.yul\":1764:2189   */\n    tag_58:\n        /* \"#utility.yul\":1842:1847   */\n      0x00\n        /* \"#utility.yul\":1867:1933   */\n      tag_110\n        /* \"#utility.yul\":1883:1932   */\n      tag_111\n        /* \"#utility.yul\":1925:1931   */\n      dup5\n        /* \"#utility.yul\":1883:1932   */\n      tag_56\n      jump\t// in\n    tag_111:\n        /* \"#utility.yul\":1867:1933   */\n      tag_55\n      jump\t// in\n    tag_110:\n        /* \"#utility.yul\":1858:1933   */\n      swap1\n      pop\n        /* \"#utility.yul\":1956:1962   */\n      dup3\n        /* \"#utility.yul\":1949:1954   */\n      dup2\n        /* \"#utility.yul\":1942:1963   */\n      mstore\n        /* \"#utility.yul\":1994:1998   */\n      0x20\n        /* \"#utility.yul\":1987:1992   */\n      dup2\n        /* \"#utility.yul\":1983:1999   */\n      add\n        /* \"#utility.yul\":2032:2035   */\n      dup5\n        /* \"#utility.yul\":2023:2029   */\n      dup5\n        /* \"#utility.yul\":2018:2021   */\n      dup5\n        /* \"#utility.yul\":2014:2030   */\n      add\n        /* \"#utility.yul\":2011:2036   */\n      gt\n        /* \"#utility.yul\":2008:2120   */\n      iszero\n      tag_112\n      jumpi\n        /* \"#utility.yul\":2039:2118   */\n      tag_113\n      tag_51\n      jump\t// in\n    tag_113:\n        /* \"#utility.yul\":2008:2120   */\n    tag_112:\n        /* \"#utility.yul\":2129:2183   */\n      tag_114\n        /* \"#utility.yul\":2176:2182   */\n      dup5\n        /* \"#utility.yul\":2171:2174   */\n      dup3\n        /* \"#utility.yul\":2166:2169   */\n      dup6\n        /* \"#utility.yul\":2129:2183   */\n      tag_57\n      jump\t// in\n    tag_114:\n        /* \"#utility.yul\":1848:2189   */\n      pop\n        /* \"#utility.yul\":1764:2189   */\n      swap4\n      swap3\n      pop\n      pop\n      pop\n      jump\t// out\n        /* \"#utility.yul\":2209:2549   */\n    tag_59:\n        /* \"#utility.yul\":2265:2270   */\n      0x00\n        /* \"#utility.yul\":2314:2317   */\n      dup3\n        /* \"#utility.yul\":2307:2311   */\n      0x1f\n        /* \"#utility.yul\":2299:2305   */\n      dup4\n        /* \"#utility.yul\":2295:2312   */\n      add\n        /* \"#utility.yul\":2291:2318   */\n      slt\n        /* \"#utility.yul\":2281:2403   */\n      tag_116\n      jumpi\n        /* \"#utility.yul\":2322:2401   */\n      tag_117\n      tag_50\n      jump\t// in\n    tag_117:\n        /* \"#utility.yul\":2281:2403   */\n    tag_116:\n        /* \"#utility.yul\":2439:2445   */\n      dup2\n        /* \"#utility.yul\":2426:2446   */\n      calldataload\n        /* \"#utility.yul\":2464:2543   */\n      tag_118\n        /* \"#utility.yul\":2539:2542   */\n      dup5\n        /* \"#utility.yul\":2531:2537   */\n      dup3\n        /* \"#utility.yul\":2524:2528   */\n      0x20\n        /* \"#utility.yul\":2516:2522   */\n      dup7\n        /* \"#utility.yul\":2512:2529   */\n      add\n        /* \"#utility.yul\":2464:2543   */\n      tag_58\n      jump\t// in\n    tag_118:\n        /* \"#utility.yul\":2455:2543   */\n      swap2\n      pop\n        /* \"#utility.yul\":2271:2549   */\n      pop\n        /* \"#utility.yul\":2209:2549   */\n      swap3\n      swap2\n      pop\n      pop\n      jump\t// out\n        /* \"#utility.yul\":2555:3064   */\n    tag_10:\n        /* \"#utility.yul\":2624:2630   */\n      0x00\n        /* \"#utility.yul\":2673:2675   */\n      0x20\n        /* \"#utility.yul\":2661:2670   */\n      dup3\n        /* \"#utility.yul\":2652:2659   */\n      dup5\n        /* \"#utility.yul\":2648:2671   */\n      sub\n        /* \"#utility.yul\":2644:2676   */\n      slt\n        /* \"#utility.yul\":2641:2760   */\n      iszero\n      tag_120\n      jumpi\n        /* \"#utility.yul\":2679:2758   */\n      tag_121\n      tag_48\n      jump\t// in\n    tag_121:\n        /* \"#utility.yul\":2641:2760   */\n    tag_120:\n        /* \"#utility.yul\":2827:2828   */\n      0x00\n        /* \"#utility.yul\":2816:2825   */\n      dup3\n        /* \"#utility.yul\":2812:2829   */\n      add\n        /* \"#utility.yul\":2799:2830   */\n      calldataload\n        /* \"#utility.yul\":2857:2875   */\n      0xffffffffffffffff\n        /* \"#utility.yul\":2849:2855   */\n      dup2\n        /* \"#utility.yul\":2846:2876   */\n      gt\n        /* \"#utility.yul\":2843:2960   */\n      iszero\n      tag_122\n      jumpi\n        /* \"#utility.yul\":2879:2958   */\n      tag_123\n      tag_49\n      jump\t// in\n    tag_123:\n        /* \"#utility.yul\":2843:2960   */\n    tag_122:\n        /* \"#utility.yul\":2984:3047   */\n      tag_124\n        /* \"#utility.yul\":3039:3046   */\n      dup5\n        /* \"#utility.yul\":3030:3036   */\n      dup3\n        /* \"#utility.yul\":3019:3028   */\n      dup6\n        /* \"#utility.yul\":3015:3037   */\n      add\n        /* \"#utility.yul\":2984:3047   */\n      tag_59\n      jump\t// in\n    tag_124:\n        /* \"#utility.yul\":2974:3047   */\n      swap2\n      pop\n        /* \"#utility.yul\":2770:3057   */\n      pop\n        /* \"#utility.yul\":2555:3064   */\n      swap3\n      swap2\n      pop\n      pop\n      jump\t// out\n        /* \"#utility.yul\":3070:3147   */\n    tag_60:\n        /* \"#utility.yul\":3107:3114   */\n      0x00\n        /* \"#utility.yul\":3136:3141   */\n      dup2\n        /* \"#utility.yul\":3125:3141   */\n      swap1\n      pop\n        /* \"#utility.yul\":3070:3147   */\n      swap2\n      swap1\n      pop\n      jump\t// out\n        /* \"#utility.yul\":3153:3275   */\n    tag_61:\n        /* \"#utility.yul\":3226:3250   */\n      tag_127\n        /* \"#utility.yul\":3244:3249   */\n      dup2\n        /* \"#utility.yul\":3226:3250   */\n      tag_60\n      jump\t// in\n    tag_127:\n        /* \"#utility.yul\":3219:3224   */\n      dup2\n        /* \"#utility.yul\":3216:3251   */\n      eq\n        /* \"#utility.yul\":3206:3269   */\n      tag_128\n      jumpi\n        /* \"#utility.yul\":3265:3266   */\n      0x00\n        /* \"#utility.yul\":3262:3263   */\n      0x00\n        /* \"#utility.yul\":3255:3267   */\n      revert\n        /* \"#utility.yul\":3206:3269   */\n    tag_128:\n        /* \"#utility.yul\":3153:3275   */\n      pop\n      jump\t// out\n        /* \"#utility.yul\":3281:3420   */\n    tag_62:\n        /* \"#utility.yul\":3327:3332   */\n      0x00\n        /* \"#utility.yul\":3365:3371   */\n      dup2\n        /* \"#utility.yul\":3352:3372   */\n      calldataload\n        /* \"#utility.yul\":3343:3372   */\n      swap1\n      pop\n        /* \"#utility.yul\":3381:3414   */\n      tag_130\n        /* \"#utility.yul\":3408:3413   */\n      dup2\n        /* \"#utility.yul\":3381:3414   */\n      tag_61\n      jump\t// in\n    tag_130:\n        /* \"#utility.yul\":3281:3420   */\n      swap3\n      swap2\n      pop\n      pop\n      jump\t// out\n        /* \"#utility.yul\":3426:3755   */\n    tag_14:\n        /* \"#utility.yul\":3485:3491   */\n      0x00\n        /* \"#utility.yul\":3534:3536   */\n      0x20\n        /* \"#utility.yul\":3522:3531   */\n      dup3\n        /* \"#utility.yul\":3513:3520   */\n      dup5\n        /* \"#utility.yul\":3509:3532   */\n      sub\n        /* \"#utility.yul\":3505:3537   */\n      slt\n        /* \"#utility.yul\":3502:3621   */\n      iszero\n      tag_132\n      jumpi\n        /* \"#utility.yul\":3540:3619   */\n      tag_133\n      tag_48\n      jump\t// in\n    tag_133:\n        /* \"#utility.yul\":3502:3621   */\n    tag_132:\n        /* \"#utility.yul\":3660:3661   */\n      0x00\n        /* \"#utility.yul\":3685:3738   */\n      tag_134\n        /* \"#utility.yul\":3730:3737   */\n      dup5\n        /* \"#utility.yul\":3721:3727   */\n      dup3\n        /* \"#utility.yul\":3710:3719   */\n      dup6\n        /* \"#utility.yul\":3706:3728   */\n      add\n        /* \"#utility.yul\":3685:3738   */\n      tag_62\n      jump\t// in\n    tag_134:\n        /* \"#utility.yul\":3675:3738   */\n      swap2\n      pop\n        /* \"#utility.yul\":3631:3748   */\n      pop\n        /* \"#utility.yul\":3426:3755   */\n      swap3\n      swap2\n      pop\n      pop\n      jump\t// out\n        /* \"#utility.yul\":3761:3851   */\n    tag_63:\n        /* \"#utility.yul\":3795:3802   */\n      0x00\n        /* \"#utility.yul\":3838:3843   */\n      dup2\n        /* \"#utility.yul\":3831:3844   */\n      iszero\n        /* \"#utility.yul\":3824:3845   */\n      iszero\n        /* \"#utility.yul\":3813:3845   */\n      swap1\n      pop\n        /* \"#utility.yul\":3761:3851   */\n      swap2\n      swap1\n      pop\n      jump\t// out\n        /* \"#utility.yul\":3857:3966   */\n    tag_64:\n        /* \"#utility.yul\":3938:3959   */\n      tag_137\n        /* \"#utility.yul\":3953:3958   */\n      dup2\n        /* \"#utility.yul\":3938:3959   */\n      tag_63\n      jump\t// in\n    tag_137:\n        /* \"#utility.yul\":3933:3936   */\n      dup3\n        /* \"#utility.yul\":3926:3960   */\n      mstore\n        /* \"#utility.yul\":3857:3966   */\n      pop\n      pop\n      jump\t// out\n        /* \"#utility.yul\":3972:4182   */\n    tag_17:\n        /* \"#utility.yul\":4059:4063   */\n      0x00\n        /* \"#utility.yul\":4097:4099   */\n      0x20\n        /* \"#utility.yul\":4086:4095   */\n      dup3\n        /* \"#utility.yul\":4082:4100   */\n      add\n        /* \"#utility.yul\":4074:4100   */\n      swap1\n      pop\n        /* \"#utility.yul\":4110:4175   */\n      tag_139\n        /* \"#utility.yul\":4172:4173   */\n      0x00\n        /* \"#utility.yul\":4161:4170   */\n      dup4\n        /* \"#utility.yul\":4157:4174   */\n      add\n        /* \"#utility.yul\":4148:4154   */\n      dup5\n        /* \"#utility.yul\":4110:4175   */\n      tag_64\n      jump\t// in\n    tag_139:\n        /* \"#utility.yul\":3972:4182   */\n      swap3\n      swap2\n      pop\n      pop\n      jump\t// out\n        /* \"#utility.yul\":4188:4306   */\n    tag_65:\n        /* \"#utility.yul\":4275:4299   */\n      tag_141\n        /* \"#utility.yul\":4293:4298   */\n      dup2\n        /* \"#utility.yul\":4275:4299   */\n      tag_60\n      jump\t// in\n    tag_141:\n        /* \"#utility.yul\":4270:4273   */\n      dup3\n        /* \"#utility.yul\":4263:4300   */\n      mstore\n        /* \"#utility.yul\":4188:4306   */\n      pop\n      pop\n      jump\t// out\n        /* \"#utility.yul\":4312:4411   */\n    tag_66:\n        /* \"#utility.yul\":4364:4370   */\n      0x00\n        /* \"#utility.yul\":4398:4403   */\n      dup2\n        /* \"#utility.yul\":4392:4404   */\n      mload\n        /* \"#utility.yul\":4382:4404   */\n      swap1\n      pop\n        /* \"#utility.yul\":4312:4411   */\n      swap2\n      swap1\n      pop\n      jump\t// out\n        /* \"#utility.yul\":4417:4586   */\n    tag_67:\n        /* \"#utility.yul\":4501:4512   */\n      0x00\n        /* \"#utility.yul\":4535:4541   */\n      dup3\n        /* \"#utility.yul\":4530:4533   */\n      dup3\n        /* \"#utility.yul\":4523:4542   */\n      mstore\n        /* \"#utility.yul\":4575:4579   */\n      0x20\n        /* \"#utility.yul\":4570:4573   */\n      dup3\n        /* \"#utility.yul\":4566:4580   */\n      add\n        /* \"#utility.yul\":4551:4580   */\n      swap1\n      pop\n        /* \"#utility.yul\":4417:4586   */\n      swap3\n      swap2\n      pop\n      pop\n      jump\t// out\n        /* \"#utility.yul\":4592:4731   */\n    tag_68:\n        /* \"#utility.yul\":4681:4687   */\n      dup3\n        /* \"#utility.yul\":4676:4679   */\n      dup2\n        /* \"#utility.yul\":4671:4674   */\n      dup4\n        /* \"#utility.yul\":4665:4688   */\n      mcopy\n        /* \"#utility.yul\":4722:4723   */\n      0x00\n        /* \"#utility.yul\":4713:4719   */\n      dup4\n        /* \"#utility.yul\":4708:4711   */\n      dup4\n        /* \"#utility.yul\":4704:4720   */\n      add\n        /* \"#utility.yul\":4697:4724   */\n      mstore\n        /* \"#utility.yul\":4592:4731   */\n      pop\n      pop\n      pop\n      jump\t// out\n        /* \"#utility.yul\":4737:5114   */\n    tag_69:\n        /* \"#utility.yul\":4825:4828   */\n      0x00\n        /* \"#utility.yul\":4853:4892   */\n      tag_146\n        /* \"#utility.yul\":4886:4891   */\n      dup3\n        /* \"#utility.yul\":4853:4892   */\n      tag_66\n      jump\t// in\n    tag_146:\n        /* \"#utility.yul\":4908:4979   */\n      tag_147\n        /* \"#utility.yul\":4972:4978   */\n      dup2\n        /* \"#utility.yul\":4967:4970   */\n      dup6\n        /* \"#utility.yul\":4908:4979   */\n      tag_67\n      jump\t// in\n    tag_147:\n        /* \"#utility.yul\":4901:4979   */\n      swap4\n      pop\n        /* \"#utility.yul\":4988:5053   */\n      tag_148\n        /* \"#utility.yul\":5046:5052   */\n      dup2\n        /* \"#utility.yul\":5041:5044   */\n      dup6\n        /* \"#utility.yul\":5034:5038   */\n      0x20\n        /* \"#utility.yul\":5027:5032   */\n      dup7\n        /* \"#utility.yul\":5023:5039   */\n      add\n        /* \"#utility.yul\":4988:5053   */\n      tag_68\n      jump\t// in\n    tag_148:\n        /* \"#utility.yul\":5078:5107   */\n      tag_149\n        /* \"#utility.yul\":5100:5106   */\n      dup2\n        /* \"#utility.yul\":5078:5107   */\n      tag_52\n      jump\t// in\n    tag_149:\n        /* \"#utility.yul\":5073:5076   */\n      dup5\n        /* \"#utility.yul\":5069:5108   */\n      add\n        /* \"#utility.yul\":5062:5108   */\n      swap2\n      pop\n        /* \"#utility.yul\":4829:5114   */\n      pop\n        /* \"#utility.yul\":4737:5114   */\n      swap3\n      swap2\n      pop\n      pop\n      jump\t// out\n        /* \"#utility.yul\":5120:5641   */\n    tag_22:\n        /* \"#utility.yul\":5283:5287   */\n      0x00\n        /* \"#utility.yul\":5321:5323   */\n      0x60\n        /* \"#utility.yul\":5310:5319   */\n      dup3\n        /* \"#utility.yul\":5306:5324   */\n      add\n        /* \"#utility.yul\":5298:5324   */\n      swap1\n      pop\n        /* \"#utility.yul\":5334:5405   */\n      tag_151\n        /* \"#utility.yul\":5402:5403   */\n      0x00\n        /* \"#utility.yul\":5391:5400   */\n      dup4\n        /* \"#utility.yul\":5387:5404   */\n      add\n        /* \"#utility.yul\":5378:5384   */\n      dup7\n        /* \"#utility.yul\":5334:5405   */\n      tag_65\n      jump\t// in\n    tag_151:\n        /* \"#utility.yul\":5452:5461   */\n      dup2\n        /* \"#utility.yul\":5446:5450   */\n      dup2\n        /* \"#utility.yul\":5442:5462   */\n      sub\n        /* \"#utility.yul\":5437:5439   */\n      0x20\n        /* \"#utility.yul\":5426:5435   */\n      dup4\n        /* \"#utility.yul\":5422:5440   */\n      add\n        /* \"#utility.yul\":5415:5463   */\n      mstore\n        /* \"#utility.yul\":5480:5558   */\n      tag_152\n        /* \"#utility.yul\":5553:5557   */\n      dup2\n        /* \"#utility.yul\":5544:5550   */\n      dup6\n        /* \"#utility.yul\":5480:5558   */\n      tag_69\n      jump\t// in\n    tag_152:\n        /* \"#utility.yul\":5472:5558   */\n      swap1\n      pop\n        /* \"#utility.yul\":5568:5634   */\n      tag_153\n        /* \"#utility.yul\":5630:5632   */\n      0x40\n        /* \"#utility.yul\":5619:5628   */\n      dup4\n        /* \"#utility.yul\":5615:5633   */\n      add\n        /* \"#utility.yul\":5606:5612   */\n      dup5\n        /* \"#utility.yul\":5568:5634   */\n      tag_64\n      jump\t// in\n    tag_153:\n        /* \"#utility.yul\":5120:5641   */\n      swap5\n      swap4\n      pop\n      pop\n      pop\n      pop\n      jump\t// out\n        /* \"#utility.yul\":5647:5869   */\n    tag_26:\n        /* \"#utility.yul\":5740:5744   */\n      0x00\n        /* \"#utility.yul\":5778:5780   */\n      0x20\n        /* \"#utility.yul\":5767:5776   */\n      dup3\n        /* \"#utility.yul\":5763:5781   */\n      add\n        /* \"#utility.yul\":5755:5781   */\n      swap1\n      pop\n        /* \"#utility.yul\":5791:5862   */\n      tag_155\n        /* \"#utility.yul\":5859:5860   */\n      0x00\n        /* \"#utility.yul\":5848:5857   */\n      dup4\n        /* \"#utility.yul\":5844:5861   */\n      add\n        /* \"#utility.yul\":5835:5841   */\n      dup5\n        /* \"#utility.yul\":5791:5862   */\n      tag_65\n      jump\t// in\n    tag_155:\n        /* \"#utility.yul\":5647:5869   */\n      swap3\n      swap2\n      pop\n      pop\n      jump\t// out\n        /* \"#utility.yul\":5875:6047   */\n    tag_70:\n        /* \"#utility.yul\":6015:6039   */\n      0x436f6e7472616374206973206e6f742061637469766500000000000000000000\n        /* \"#utility.yul\":6011:6012   */\n      0x00\n        /* \"#utility.yul\":6003:6009   */\n      dup3\n        /* \"#utility.yul\":5999:6013   */\n      add\n        /* \"#utility.yul\":5992:6040   */\n      mstore\n        /* \"#utility.yul\":5875:6047   */\n      pop\n      jump\t// out\n        /* \"#utility.yul\":6053:6419   */\n    tag_71:\n        /* \"#utility.yul\":6195:6198   */\n      0x00\n        /* \"#utility.yul\":6216:6283   */\n      tag_158\n        /* \"#utility.yul\":6280:6282   */\n      0x16\n        /* \"#utility.yul\":6275:6278   */\n      dup4\n        /* \"#utility.yul\":6216:6283   */\n      tag_67\n      jump\t// in\n    tag_158:\n        /* \"#utility.yul\":6209:6283   */\n      swap2\n      pop\n        /* \"#utility.yul\":6292:6385   */\n      tag_159\n        /* \"#utility.yul\":6381:6384   */\n      dup3\n        /* \"#utility.yul\":6292:6385   */\n      tag_70\n      jump\t// in\n    tag_159:\n        /* \"#utility.yul\":6410:6412   */\n      0x20\n        /* \"#utility.yul\":6405:6408   */\n      dup3\n        /* \"#utility.yul\":6401:6413   */\n      add\n        /* \"#utility.yul\":6394:6413   */\n      swap1\n      pop\n        /* \"#utility.yul\":6053:6419   */\n      swap2\n      swap1\n      pop\n      jump\t// out\n        /* \"#utility.yul\":6425:6844   */\n    tag_33:\n        /* \"#utility.yul\":6591:6595   */\n      0x00\n        /* \"#utility.yul\":6629:6631   */\n      0x20\n        /* \"#utility.yul\":6618:6627   */\n      dup3\n        /* \"#utility.yul\":6614:6632   */\n      add\n        /* \"#utility.yul\":6606:6632   */\n      swap1\n      pop\n        /* \"#utility.yul\":6678:6687   */\n      dup2\n        /* \"#utility.yul\":6672:6676   */\n      dup2\n        /* \"#utility.yul\":6668:6688   */\n      sub\n        /* \"#utility.yul\":6664:6665   */\n      0x00\n        /* \"#utility.yul\":6653:6662   */\n      dup4\n        /* \"#utility.yul\":6649:6666   */\n      add\n        /* \"#utility.yul\":6642:6689   */\n      mstore\n        /* \"#utility.yul\":6706:6837   */\n      tag_161\n        /* \"#utility.yul\":6832:6836   */\n      dup2\n        /* \"#utility.yul\":6706:6837   */\n      tag_71\n      jump\t// in\n    tag_161:\n        /* \"#utility.yul\":6698:6837   */\n      swap1\n      pop\n        /* \"#utility.yul\":6425:6844   */\n      swap2\n      swap1\n      pop\n      jump\t// out\n        /* \"#utility.yul\":6850:7030   */\n    tag_72:\n        /* \"#utility.yul\":6898:6975   */\n      0x4e487b7100000000000000000000000000000000000000000000000000000000\n        /* \"#utility.yul\":6895:6896   */\n      0x00\n        /* \"#utility.yul\":6888:6976   */\n      mstore\n        /* \"#utility.yul\":6995:6999   */\n      0x22\n        /* \"#utility.yul\":6992:6993   */\n      0x04\n        /* \"#utility.yul\":6985:7000   */\n      mstore\n        /* \"#utility.yul\":7019:7023   */\n      0x24\n        /* \"#utility.yul\":7016:7017   */\n      0x00\n        /* \"#utility.yul\":7009:7024   */\n      revert\n        /* \"#utility.yul\":7036:7356   */\n    tag_42:\n        /* \"#utility.yul\":7080:7086   */\n      0x00\n        /* \"#utility.yul\":7117:7118   */\n      0x02\n        /* \"#utility.yul\":7111:7115   */\n      dup3\n        /* \"#utility.yul\":7107:7119   */\n      div\n        /* \"#utility.yul\":7097:7119   */\n      swap1\n      pop\n        /* \"#utility.yul\":7164:7165   */\n      0x01\n        /* \"#utility.yul\":7158:7162   */\n      dup3\n        /* \"#utility.yul\":7154:7166   */\n      and\n        /* \"#utility.yul\":7185:7203   */\n      dup1\n        /* \"#utility.yul\":7175:7256   */\n      tag_164\n      jumpi\n        /* \"#utility.yul\":7241:7245   */\n      0x7f\n        /* \"#utility.yul\":7233:7239   */\n      dup3\n        /* \"#utility.yul\":7229:7246   */\n      and\n        /* \"#utility.yul\":7219:7246   */\n      swap2\n      pop\n        /* \"#utility.yul\":7175:7256   */\n    tag_164:\n        /* \"#utility.yul\":7303:7305   */\n      0x20\n        /* \"#utility.yul\":7295:7301   */\n      dup3\n        /* \"#utility.yul\":7292:7306   */\n      lt\n        /* \"#utility.yul\":7272:7290   */\n      dup2\n        /* \"#utility.yul\":7269:7307   */\n      sub\n        /* \"#utility.yul\":7266:7350   */\n      tag_165\n      jumpi\n        /* \"#utility.yul\":7322:7340   */\n      tag_166\n      tag_72\n      jump\t// in\n    tag_166:\n        /* \"#utility.yul\":7266:7350   */\n    tag_165:\n        /* \"#utility.yul\":7087:7356   */\n      pop\n        /* \"#utility.yul\":7036:7356   */\n      swap2\n      swap1\n      pop\n      jump\t// out\n        /* \"#utility.yul\":7362:7503   */\n    tag_73:\n        /* \"#utility.yul\":7411:7415   */\n      0x00\n        /* \"#utility.yul\":7434:7437   */\n      dup2\n        /* \"#utility.yul\":7426:7437   */\n      swap1\n      pop\n        /* \"#utility.yul\":7457:7460   */\n      dup2\n        /* \"#utility.yul\":7454:7455   */\n      0x00\n        /* \"#utility.yul\":7447:7461   */\n      mstore\n        /* \"#utility.yul\":7491:7495   */\n      0x20\n        /* \"#utility.yul\":7488:7489   */\n      0x00\n        /* \"#utility.yul\":7478:7496   */\n      keccak256\n        /* \"#utility.yul\":7470:7496   */\n      swap1\n      pop\n        /* \"#utility.yul\":7362:7503   */\n      swap2\n      swap1\n      pop\n      jump\t// out\n        /* \"#utility.yul\":7509:7602   */\n    tag_74:\n        /* \"#utility.yul\":7546:7552   */\n      0x00\n        /* \"#utility.yul\":7593:7595   */\n      0x20\n        /* \"#utility.yul\":7588:7590   */\n      0x1f\n        /* \"#utility.yul\":7581:7586   */\n      dup4\n        /* \"#utility.yul\":7577:7591   */\n      add\n        /* \"#utility.yul\":7573:7596   */\n      div\n        /* \"#utility.yul\":7563:7596   */\n      swap1\n      pop\n        /* \"#utility.yul\":7509:7602   */\n      swap2\n      swap1\n      pop\n      jump\t// out\n        /* \"#utility.yul\":7608:7715   */\n    tag_75:\n        /* \"#utility.yul\":7652:7660   */\n      0x00\n        /* \"#utility.yul\":7702:7707   */\n      dup3\n        /* \"#utility.yul\":7696:7700   */\n      dup3\n        /* \"#utility.yul\":7692:7708   */\n      shl\n        /* \"#utility.yul\":7671:7708   */\n      swap1\n      pop\n        /* \"#utility.yul\":7608:7715   */\n      swap3\n      swap2\n      pop\n      pop\n      jump\t// out\n        /* \"#utility.yul\":7721:8114   */\n    tag_76:\n        /* \"#utility.yul\":7790:7796   */\n      0x00\n        /* \"#utility.yul\":7840:7841   */\n      0x08\n        /* \"#utility.yul\":7828:7838   */\n      dup4\n        /* \"#utility.yul\":7824:7842   */\n      mul\n        /* \"#utility.yul\":7863:7960   */\n      tag_171\n        /* \"#utility.yul\":7893:7959   */\n      0xffffffffffffffffffffffffffffffffffffffffffffffffffffffffffffffff\n        /* \"#utility.yul\":7882:7891   */\n      dup3\n        /* \"#utility.yul\":7863:7960   */\n      tag_75\n      jump\t// in\n    tag_171:\n        /* \"#utility.yul\":7981:8020   */\n      tag_172\n        /* \"#utility.yul\":8011:8019   */\n      dup7\n        /* \"#utility.yul\":8000:8009   */\n      dup4\n        /* \"#utility.yul\":7981:8020   */\n      tag_75\n      jump\t// in\n    tag_172:\n        /* \"#utility.yul\":7969:8020   */\n      swap6\n      pop\n        /* \"#utility.yul\":8053:8057   */\n      dup1\n        /* \"#utility.yul\":8049:8058   */\n      not\n        /* \"#utility.yul\":8042:8047   */\n      dup5\n        /* \"#utility.yul\":8038:8059   */\n      and\n        /* \"#utility.yul\":8029:8059   */\n      swap4\n      pop\n        /* \"#utility.yul\":8102:8106   */\n      dup1\n        /* \"#utility.yul\":8092:8100   */\n      dup7\n        /* \"#utility.yul\":8088:8107   */\n      and\n        /* \"#utility.yul\":8081:8086   */\n      dup5\n        /* \"#utility.yul\":8078:8108   */\n      or\n        /* \"#utility.yul\":8068:8108   */\n      swap3\n      pop\n        /* \"#utility.yul\":7797:8114   */\n      pop\n      pop\n        /* \"#utility.yul\":7721:8114   */\n      swap4\n      swap3\n      pop\n      pop\n      pop\n      jump\t// out\n        /* \"#utility.yul\":8120:8180   */\n    tag_77:\n        /* \"#utility.yul\":8148:8151   */\n      0x00\n        /* \"#utility.yul\":8169:8174   */\n      dup2\n        /* \"#utility.yul\":8162:8174   */\n      swap1\n      pop\n        /* \"#utility.yul\":8120:8180   */\n      swap2\n      swap1\n      pop\n      jump\t// out\n        /* \"#utility.yul\":8186:8328   */\n    tag_78:\n        /* \"#utility.yul\":8236:8245   */\n      0x00\n        /* \"#utility.yul\":8269:8322   */\n      tag_175\n        /* \"#utility.yul\":8287:8321   */\n      tag_176\n        /* \"#utility.yul\":8296:8320   */\n      tag_177\n        /* \"#utility.yul\":8314:8319   */\n      dup5\n        /* \"#utility.yul\":8296:8320   */\n      tag_60\n      jump\t// in\n    tag_177:\n        /* \"#utility.yul\":8287:8321   */\n      tag_77\n      jump\t// in\n    tag_176:\n        /* \"#utility.yul\":8269:8322   */\n      tag_60\n      jump\t// in\n    tag_175:\n        /* \"#utility.yul\":8256:8322   */\n      swap1\n      pop\n        /* \"#utility.yul\":8186:8328   */\n      swap2\n      swap1\n      pop\n      jump\t// out\n        /* \"#utility.yul\":8334:8409   */\n    tag_79:\n        /* \"#utility.yul\":8377:8380   */\n      0x00\n        /* \"#utility.yul\":8398:8403   */\n      dup2\n        /* \"#utility.yul\":8391:8403   */\n      swap1\n      pop\n        /* \"#utility.yul\":8334:8409   */\n      swap2\n      swap1\n      pop\n      jump\t// out\n        /* \"#utility.yul\":8415:8684   */\n    tag_80:\n        /* \"#utility.yul\":8525:8564   */\n      tag_180\n        /* \"#utility.yul\":8556:8563   */\n      dup4\n        /* \"#utility.yul\":8525:8564   */\n      tag_78\n      jump\t// in\n    tag_180:\n        /* \"#utility.yul\":8586:8677   */\n      tag_181\n        /* \"#utility.yul\":8635:8676   */\n      tag_182\n        /* \"#utility.yul\":8659:8675   */\n      dup3\n        /* \"#utility.yul\":8635:8676   */\n      tag_79\n      jump\t// in\n    tag_182:\n        /* \"#utility.yul\":8627:8633   */\n      dup5\n        /* \"#utility.yul\":8620:8624   */\n      dup5\n        /* \"#utility.yul\":8614:8625   */\n      sload\n        /* \"#utility.yul\":8586:8677   */\n      tag_76\n      jump\t// in\n    tag_181:\n        /* \"#utility.yul\":8580:8584   */\n      dup3\n        /* \"#utility.yul\":8573:8678   */\n      sstore\n        /* \"#utility.yul\":8491:8684   */\n      pop\n        /* \"#utility.yul\":8415:8684   */\n      pop\n      pop\n      pop\n      jump\t// out\n        /* \"#utility.yul\":8690:8763   */\n    tag_81:\n        /* \"#utility.yul\":8735:8738   */\n      0x00\n        /* \"#utility.yul\":8756:8757   */\n      0x00\n        /* \"#utility.yul\":8749:8757   */\n      swap1\n      pop\n        /* \"#utility.yul\":8690:8763   */\n      swap1\n      jump\t// out\n        /* \"#utility.yul\":8769:8958   */\n    tag_82:\n        /* \"#utility.yul\":8846:8878   */\n      tag_185\n      tag_81\n      jump\t// in\n    tag_185:\n        /* \"#utility.yul\":8887:8952   */\n      tag_186\n        /* \"#utility.yul\":8945:8951   */\n      dup2\n        /* \"#utility.yul\":8937:8943   */\n      dup5\n        /* \"#utility.yul\":8931:8935   */\n      dup5\n        /* \"#utility.yul\":8887:8952   */\n      tag_80\n      jump\t// in\n    tag_186:\n        /* \"#utility.yul\":8822:8958   */\n      pop\n        /* \"#utility.yul\":8769:8958   */\n      pop\n      pop\n      jump\t// out\n        /* \"#utility.yul\":8964:9150   */\n    tag_83:\n        /* \"#utility.yul\":9024:9144   */\n    tag_188:\n        /* \"#utility.yul\":9041:9044   */\n      dup2\n        /* \"#utility.yul\":9034:9039   */\n      dup2\n        /* \"#utility.yul\":9031:9045   */\n      lt\n        /* \"#utility.yul\":9024:9144   */\n      iszero\n      tag_190\n      jumpi\n        /* \"#utility.yul\":9095:9134   */\n      tag_191\n        /* \"#utility.yul\":9132:9133   */\n      0x00\n        /* \"#utility.yul\":9125:9130   */\n      dup3\n        /* \"#utility.yul\":9095:9134   */\n      tag_82\n      jump\t// in\n    tag_191:\n        /* \"#utility.yul\":9068:9069   */\n      0x01\n        /* \"#utility.yul\":9061:9066   */\n      dup2\n        /* \"#utility.yul\":9057:9070   */\n      add\n        /* \"#utility.yul\":9048:9070   */\n      swap1\n      pop\n        /* \"#utility.yul\":9024:9144   */\n      jump(tag_188)\n    tag_190:\n        /* \"#utility.yul\":8964:9150   */\n      pop\n      pop\n      jump\t// out\n        /* \"#utility.yul\":9156:9699   */\n    tag_84:\n        /* \"#utility.yul\":9257:9259   */\n      0x1f\n        /* \"#utility.yul\":9252:9255   */\n      dup3\n        /* \"#utility.yul\":9249:9260   */\n      gt\n        /* \"#utility.yul\":9246:9692   */\n      iszero\n      tag_193\n      jumpi\n        /* \"#utility.yul\":9291:9329   */\n      tag_194\n        /* \"#utility.yul\":9323:9328   */\n      dup2\n        /* \"#utility.yul\":9291:9329   */\n      tag_73\n      jump\t// in\n    tag_194:\n        /* \"#utility.yul\":9375:9404   */\n      tag_195\n        /* \"#utility.yul\":9393:9403   */\n      dup5\n        /* \"#utility.yul\":9375:9404   */\n      tag_74\n      jump\t// in\n    tag_195:\n        /* \"#utility.yul\":9365:9373   */\n      dup2\n        /* \"#utility.yul\":9361:9405   */\n      add\n        /* \"#utility.yul\":9558:9560   */\n      0x20\n        /* \"#utility.yul\":9546:9556   */\n      dup6\n        /* \"#utility.yul\":9543:9561   */\n      lt\n        /* \"#utility.yul\":9540:9589   */\n      iszero\n      tag_196\n      jumpi\n        /* \"#utility.yul\":9579:9587   */\n      dup2\n        /* \"#utility.yul\":9564:9587   */\n      swap1\n      pop\n        /* \"#utility.yul\":9540:9589   */\n    tag_196:\n        /* \"#utility.yul\":9602:9682   */\n      tag_197\n        /* \"#utility.yul\":9658:9680   */\n      tag_198\n        /* \"#utility.yul\":9676:9679   */\n      dup6\n        /* \"#utility.yul\":9658:9680   */\n      tag_74\n      jump\t// in\n    tag_198:\n        /* \"#utility.yul\":9648:9656   */\n      dup4\n        /* \"#utility.yul\":9644:9681   */\n      add\n        /* \"#utility.yul\":9631:9642   */\n      dup3\n        /* \"#utility.yul\":9602:9682   */\n      tag_83\n      jump\t// in\n    tag_197:\n        /* \"#utility.yul\":9261:9692   */\n      pop\n      pop\n        /* \"#utility.yul\":9246:9692   */\n    tag_193:\n        /* \"#utility.yul\":9156:9699   */\n      pop\n      pop\n      pop\n      jump\t// out\n        /* \"#utility.yul\":9705:9822   */\n    tag_85:\n        /* \"#utility.yul\":9759:9767   */\n      0x00\n        /* \"#utility.yul\":9809:9814   */\n      dup3\n        /* \"#utility.yul\":9803:9807   */\n      dup3\n        /* \"#utility.yul\":9799:9815   */\n      shr\n        /* \"#utility.yul\":9778:9815   */\n      swap1\n      pop\n        /* \"#utility.yul\":9705:9822   */\n      swap3\n      swap2\n      pop\n      pop\n      jump\t// out\n        /* \"#utility.yul\":9828:9997   */\n    tag_86:\n        /* \"#utility.yul\":9872:9878   */\n      0x00\n        /* \"#utility.yul\":9905:9956   */\n      tag_201\n        /* \"#utility.yul\":9953:9954   */\n      0x00\n        /* \"#utility.yul\":9949:9955   */\n      not\n        /* \"#utility.yul\":9941:9946   */\n      dup5\n        /* \"#utility.yul\":9938:9939   */\n      0x08\n        /* \"#utility.yul\":9934:9947   */\n      mul\n        /* \"#utility.yul\":9905:9956   */\n      tag_85\n      jump\t// in\n    tag_201:\n        /* \"#utility.yul\":9901:9957   */\n      not\n        /* \"#utility.yul\":9986:9990   */\n      dup1\n        /* \"#utility.yul\":9980:9984   */\n      dup4\n        /* \"#utility.yul\":9976:9991   */\n      and\n        /* \"#utility.yul\":9966:9991   */\n      swap2\n      pop\n        /* \"#utility.yul\":9879:9997   */\n      pop\n        /* \"#utility.yul\":9828:9997   */\n      swap3\n      swap2\n      pop\n      pop\n      jump\t// out\n        /* \"#utility.yul\":10002:10297   */\n    tag_87:\n        /* \"#utility.yul\":10078:10082   */\n      0x00\n        /* \"#utility.yul\":10224:10253   */\n      tag_203\n        /* \"#utility.yul\":10249:10252   */\n      dup4\n        /* \"#utility.yul\":10243:10247   */\n      dup4\n        /* \"#utility.yul\":10224:10253   */\n      tag_86\n      jump\t// in\n    tag_203:\n        /* \"#utility.yul\":10216:10253   */\n      swap2\n      pop\n        /* \"#utility.yul\":10286:10289   */\n      dup3\n        /* \"#utility.yul\":10283:10284   */\n      0x02\n        /* \"#utility.yul\":10279:10290   */\n      mul\n        /* \"#utility.yul\":10273:10277   */\n      dup3\n        /* \"#utility.yul\":10270:10291   */\n      or\n        /* \"#utility.yul\":10262:10291   */\n      swap1\n      pop\n        /* \"#utility.yul\":10002:10297   */\n      swap3\n      swap2\n      pop\n      pop\n      jump\t// out\n        /* \"#utility.yul\":10302:11697   */\n    tag_36:\n        /* \"#utility.yul\":10419:10456   */\n      tag_205\n        /* \"#utility.yul\":10452:10455   */\n      dup3\n        /* \"#utility.yul\":10419:10456   */\n      tag_66\n      jump\t// in\n    tag_205:\n        /* \"#utility.yul\":10521:10539   */\n      0xffffffffffffffff\n        /* \"#utility.yul\":10513:10519   */\n      dup2\n        /* \"#utility.yul\":10510:10540   */\n      gt\n        /* \"#utility.yul\":10507:10563   */\n      iszero\n      tag_206\n      jumpi\n        /* \"#utility.yul\":10543:10561   */\n      tag_207\n      tag_53\n      jump\t// in\n    tag_207:\n        /* \"#utility.yul\":10507:10563   */\n    tag_206:\n        /* \"#utility.yul\":10587:10625   */\n      tag_208\n        /* \"#utility.yul\":10619:10623   */\n      dup3\n        /* \"#utility.yul\":10613:10624   */\n      sload\n        /* \"#utility.yul\":10587:10625   */\n      tag_42\n      jump\t// in\n    tag_208:\n        /* \"#utility.yul\":10672:10739   */\n      tag_209\n        /* \"#utility.yul\":10732:10738   */\n      dup3\n        /* \"#utility.yul\":10724:10730   */\n      dup3\n        /* \"#utility.yul\":10718:10722   */\n      dup6\n        /* \"#utility.yul\":10672:10739   */\n      tag_84\n      jump\t// in\n    tag_209:\n        /* \"#utility.yul\":10766:10767   */\n      0x00\n        /* \"#utility.yul\":10790:10794   */\n      0x20\n        /* \"#utility.yul\":10777:10794   */\n      swap1\n      pop\n        /* \"#utility.yul\":10822:10824   */\n      0x1f\n        /* \"#utility.yul\":10814:10820   */\n      dup4\n        /* \"#utility.yul\":10811:10825   */\n      gt\n        /* \"#utility.yul\":10839:10840   */\n      0x01\n        /* \"#utility.yul\":10834:11452   */\n      dup2\n      eq\n      tag_211\n      jumpi\n        /* \"#utility.yul\":11496:11497   */\n      0x00\n        /* \"#utility.yul\":11513:11519   */\n      dup5\n        /* \"#utility.yul\":11510:11587   */\n      iszero\n      tag_212\n      jumpi\n        /* \"#utility.yul\":11562:11571   */\n      dup3\n        /* \"#utility.yul\":11557:11560   */\n      dup8\n        /* \"#utility.yul\":11553:11572   */\n      add\n        /* \"#utility.yul\":11547:11573   */\n      mload\n        /* \"#utility.yul\":11538:11573   */\n      swap1\n      pop\n        /* \"#utility.yul\":11510:11587   */\n    tag_212:\n        /* \"#utility.yul\":11613:11680   */\n      tag_213\n        /* \"#utility.yul\":11673:11679   */\n      dup6\n        /* \"#utility.yul\":11666:11671   */\n      dup3\n        /* \"#utility.yul\":11613:11680   */\n      tag_87\n      jump\t// in\n    tag_213:\n        /* \"#utility.yul\":11607:11611   */\n      dup7\n        /* \"#utility.yul\":11600:11681   */\n      sstore\n        /* \"#utility.yul\":11469:11691   */\n      pop\n        /* \"#utility.yul\":10804:11691   */\n      jump(tag_210)\n        /* \"#utility.yul\":10834:11452   */\n    tag_211:\n        /* \"#utility.yul\":10886:10890   */\n      0x1f\n        /* \"#utility.yul\":10882:10891   */\n      not\n        /* \"#utility.yul\":10874:10880   */\n      dup5\n        /* \"#utility.yul\":10870:10892   */\n      and\n        /* \"#utility.yul\":10920:10957   */\n      tag_214\n        /* \"#utility.yul\":10952:10956   */\n      dup7\n        /* \"#utility.yul\":10920:10957   */\n      tag_73\n      jump\t// in\n    tag_214:\n        /* \"#utility.yul\":10979:10980   */\n      0x00\n        /* \"#utility.yul\":10993:11201   */\n    tag_215:\n        /* \"#utility.yul\":11007:11014   */\n      dup3\n        /* \"#utility.yul\":11004:11005   */\n      dup2\n        /* \"#utility.yul\":11001:11015   */\n      lt\n        /* \"#utility.yul\":10993:11201   */\n      iszero\n      tag_217\n      jumpi\n        /* \"#utility.yul\":11086:11095   */\n      dup5\n        /* \"#utility.yul\":11081:11084   */\n      dup10\n        /* \"#utility.yul\":11077:11096   */\n      add\n        /* \"#utility.yul\":11071:11097   */\n      mload\n        /* \"#utility.yul\":11063:11069   */\n      dup3\n        /* \"#utility.yul\":11056:11098   */\n      sstore\n        /* \"#utility.yul\":11137:11138   */\n      0x01\n        /* \"#utility.yul\":11129:11135   */\n      dup3\n        /* \"#utility.yul\":11125:11139   */\n      add\n        /* \"#utility.yul\":11115:11139   */\n      swap2\n      pop\n        /* \"#utility.yul\":11184:11186   */\n      0x20\n        /* \"#utility.yul\":11173:11182   */\n      dup6\n        /* \"#utility.yul\":11169:11187   */\n      add\n        /* \"#utility.yul\":11156:11187   */\n      swap5\n      pop\n        /* \"#utility.yul\":11030:11034   */\n      0x20\n        /* \"#utility.yul\":11027:11028   */\n      dup2\n        /* \"#utility.yul\":11023:11035   */\n      add\n        /* \"#utility.yul\":11018:11035   */\n      swap1\n      pop\n        /* \"#utility.yul\":10993:11201   */\n      jump(tag_215)\n    tag_217:\n        /* \"#utility.yul\":11229:11235   */\n      dup7\n        /* \"#utility.yul\":11220:11227   */\n      dup4\n        /* \"#utility.yul\":11217:11236   */\n      lt\n        /* \"#utility.yul\":11214:11393   */\n      iszero\n      tag_218\n      jumpi\n        /* \"#utility.yul\":11287:11296   */\n      dup5\n        /* \"#utility.yul\":11282:11285   */\n      dup10\n        /* \"#utility.yul\":11278:11297   */\n      add\n        /* \"#utility.yul\":11272:11298   */\n      mload\n        /* \"#utility.yul\":11330:11378   */\n      tag_219\n        /* \"#utility.yul\":11372:11376   */\n      0x1f\n        /* \"#utility.yul\":11364:11370   */\n      dup10\n        /* \"#utility.yul\":11360:11377   */\n      and\n        /* \"#utility.yul\":11349:11358   */\n      dup3\n        /* \"#utility.yul\":11330:11378   */\n      tag_86\n      jump\t// in\n    tag_219:\n        /* \"#utility.yul\":11322:11328   */\n      dup4\n        /* \"#utility.yul\":11315:11379   */\n      sstore\n        /* \"#utility.yul\":11237:11393   */\n      pop\n        /* \"#utility.yul\":11214:11393   */\n    tag_218:\n        /* \"#utility.yul\":11439:11440   */\n      0x01\n        /* \"#utility.yul\":11435:11436   */\n      0x02\n        /* \"#utility.yul\":11427:11433   */\n      dup9\n        /* \"#utility.yul\":11423:11437   */\n      mul\n        /* \"#utility.yul\":11419:11441   */\n      add\n        /* \"#utility.yul\":11413:11417   */\n      dup9\n        /* \"#utility.yul\":11406:11442   */\n      sstore\n        /* \"#utility.yul\":10841:11452   */\n      pop\n      pop\n      pop\n        /* \"#utility.yul\":10804:11691   */\n    tag_210:\n      pop\n        /* \"#utility.yul\":10394:11697   */\n      pop\n      pop\n      pop\n        /* \"#utility.yul\":10302:11697   */\n      pop\n      pop\n      jump\t// out\n        /* \"#utility.yul\":11703:11883   */\n    tag_88:\n        /* \"#utility.yul\":11751:11828   */\n      0x4e487b7100000000000000000000000000000000000000000000000000000000\n        /* \"#utility.yul\":11748:11749   */\n      0x00\n        /* \"#utility.yul\":11741:11829   */\n      mstore\n        /* \"#utility.yul\":11848:11852   */\n      0x11\n        /* \"#utility.yul\":11845:11846   */\n      0x04\n        /* \"#utility.yul\":11838:11853   */\n      mstore\n        /* \"#utility.yul\":11872:11876   */\n      0x24\n        /* \"#utility.yul\":11869:11870   */\n      0x00\n        /* \"#utility.yul\":11862:11877   */\n      revert\n        /* \"#utility.yul\":11889:12122   */\n    tag_38:\n        /* \"#utility.yul\":11928:11931   */\n      0x00\n        /* \"#utility.yul\":11951:11975   */\n      tag_222\n        /* \"#utility.yul\":11969:11974   */\n      dup3\n        /* \"#utility.yul\":11951:11975   */\n      tag_60\n      jump\t// in\n    tag_222:\n        /* \"#utility.yul\":11942:11975   */\n      swap2\n      pop\n        /* \"#utility.yul\":11997:12063   */\n      0xffffffffffffffffffffffffffffffffffffffffffffffffffffffffffffffff\n        /* \"#utility.yul\":11990:11995   */\n      dup3\n        /* \"#utility.yul\":11987:12064   */\n      sub\n        /* \"#utility.yul\":11984:12087   */\n      tag_223\n      jumpi\n        /* \"#utility.yul\":12067:12085   */\n      tag_224\n      tag_88\n      jump\t// in\n    tag_224:\n        /* \"#utility.yul\":11984:12087   */\n    tag_223:\n        /* \"#utility.yul\":12114:12115   */\n      0x01\n        /* \"#utility.yul\":12107:12112   */\n      dup3\n        /* \"#utility.yul\":12103:12116   */\n      add\n        /* \"#utility.yul\":12096:12116   */\n      swap1\n      pop\n        /* \"#utility.yul\":11889:12122   */\n      swap2\n      swap1\n      pop\n      jump\t// out\n\n    auxdata: 0xa26469706673582212207e472d1587024145e92ea2ab0995421175479a73ee2c04e8df0cd9f621179fa964736f6c634300081f0033\n}\n",
				"bytecode": {
					"linkReferences": {},
					"object": "60806040526001805f6101000a81548160ff0219169083151502179055503480156027575f5ffd5b506109ea806100355f395ff3fe608060405234801561000f575f5ffd5b5060043610610055575f3560e01c8063111002aa146100595780637fea0249146100755780638d977672146100a5578063d22c81e5146100d7578063e289fcb6146100f5575b5f5ffd5b610073600480360381019061006e9190610470565b610113565b005b61008f600480360381019061008a91906104ea565b610228565b60405161009c919061052f565b60405180910390f35b6100bf60048036038101906100ba91906104ea565b610245565b6040516100ce939291906105b7565b60405180910390f35b6100df61030c565b6040516100ec91906105f3565b60405180910390f35b6100fd610311565b60405161010a919061052f565b60405180910390f35b60015f9054906101000a900460ff16610161576040517f08c379a000000000000000000000000000000000000000000000000000000000815260040161015890610656565b60405180910390fd5b600260405180606001604052805f5481526020018381526020015f1515815250908060018154018082558091505060019003905f5260205f2090600302015f909190919091505f820151815f015560208201518160010190816101c49190610871565b506040820151816002015f6101000a81548160ff02191690831515021790555050505f60035f5f5481526020019081526020015f205f6101000a81548160ff0219169083151502179055505f5f8154809291906102209061096d565b919050555050565b6003602052805f5260405f205f915054906101000a900460ff1681565b60028181548110610254575f80fd5b905f5260205f2090600302015f91509050805f015490806001018054610279906106a1565b80601f01602080910402602001604051908101604052809291908181526020018280546102a5906106a1565b80156102f05780601f106102c7576101008083540402835291602001916102f0565b820191905f5260205f20905b8154815290600101906020018083116102d357829003601f168201915b505050505090806002015f9054906101000a900460ff16905083565b5f5481565b60015f9054906101000a900460ff1681565b5f604051905090565b5f5ffd5b5f5ffd5b5f5ffd5b5f5ffd5b5f601f19601f8301169050919050565b7f4e487b71000000000000000000000000000000000000000000000000000000005f52604160045260245ffd5b6103828261033c565b810181811067ffffffffffffffff821117156103a1576103a061034c565b5b80604052505050565b5f6103b3610323565b90506103bf8282610379565b919050565b5f67ffffffffffffffff8211156103de576103dd61034c565b5b6103e78261033c565b9050602081019050919050565b828183375f83830152505050565b5f61041461040f846103c4565b6103aa565b9050828152602081018484840111156104305761042f610338565b5b61043b8482856103f4565b509392505050565b5f82601f83011261045757610456610334565b5b8135610467848260208601610402565b91505092915050565b5f602082840312156104855761048461032c565b5b5f82013567ffffffffffffffff8111156104a2576104a1610330565b5b6104ae84828501610443565b91505092915050565b5f819050919050565b6104c9816104b7565b81146104d3575f5ffd5b50565b5f813590506104e4816104c0565b92915050565b5f602082840312156104ff576104fe61032c565b5b5f61050c848285016104d6565b91505092915050565b5f8115159050919050565b61052981610515565b82525050565b5f6020820190506105425f830184610520565b92915050565b610551816104b7565b82525050565b5f81519050919050565b5f82825260208201905092915050565b8281835e5f83830152505050565b5f61058982610557565b6105938185610561565b93506105a3818560208601610571565b6105ac8161033c565b840191505092915050565b5f6060820190506105ca5f830186610548565b81810360208301526105dc818561057f565b90506105eb6040830184610520565b949350505050565b5f6020820190506106065f830184610548565b92915050565b7f436f6e7472616374206973206e6f7420616374697665000000000000000000005f82015250565b5f610640601683610561565b915061064b8261060c565b602082019050919050565b5f6020820190508181035f83015261066d81610634565b9050919050565b7f4e487b71000000000000000000000000000000000000000000000000000000005f52602260045260245ffd5b5f60028204905060018216806106b857607f821691505b6020821081036106cb576106ca610674565b5b50919050565b5f819050815f5260205f209050919050565b5f6020601f8301049050919050565b5f82821b905092915050565b5f6008830261072d7fffffffffffffffffffffffffffffffffffffffffffffffffffffffffffffffff826106f2565b61073786836106f2565b95508019841693508086168417925050509392505050565b5f819050919050565b5f61077261076d610768846104b7565b61074f565b6104b7565b9050919050565b5f819050919050565b61078b83610758565b61079f61079782610779565b8484546106fe565b825550505050565b5f5f905090565b6107b66107a7565b6107c1818484610782565b505050565b5b818110156107e4576107d95f826107ae565b6001810190506107c7565b5050565b601f821115610829576107fa816106d1565b610803846106e3565b81016020851015610812578190505b61082661081e856106e3565b8301826107c6565b50505b505050565b5f82821c905092915050565b5f6108495f198460080261082e565b1980831691505092915050565b5f610861838361083a565b9150826002028217905092915050565b61087a82610557565b67ffffffffffffffff8111156108935761089261034c565b5b61089d82546106a1565b6108a88282856107e8565b5f60209050601f8311600181146108d9575f84156108c7578287015190505b6108d18582610856565b865550610938565b601f1984166108e7866106d1565b5f5b8281101561090e578489015182556001820191506020850194506020810190506108e9565b8683101561092b5784890151610927601f89168261083a565b8355505b6001600288020188555050505b505050505050565b7f4e487b71000000000000000000000000000000000000000000000000000000005f52601160045260245ffd5b5f610977826104b7565b91507fffffffffffffffffffffffffffffffffffffffffffffffffffffffffffffffff82036109a9576109a8610940565b5b60018201905091905056fea26469706673582212207e472d1587024145e92ea2ab0995421175479a73ee2c04e8df0cd9f621179fa964736f6c634300081f0033",
					"opcodes": "PUSH1 0x80 PUSH1 0x40 MSTORE PUSH1 0x1 DUP1 PUSH0 PUSH2 0x100 EXP DUP2 SLOAD DUP2 PUSH1 0xFF MUL NOT AND SWAP1 DUP4 ISZERO ISZERO MUL OR SWAP1 SSTORE POP CALLVALUE DUP1 ISZERO PUSH1 0x27 JUMPI PUSH0 PUSH0 REVERT JUMPDEST POP PUSH2 0x9EA DUP1 PUSH2 0x35 PUSH0 CODECOPY PUSH0 RETURN INVALID PUSH1 0x80 PUSH1 0x40 MSTORE CALLVALUE DUP1 ISZERO PUSH2 0xF JUMPI PUSH0 PUSH0 REVERT JUMPDEST POP PUSH1 0x4 CALLDATASIZE LT PUSH2 0x55 JUMPI PUSH0 CALLDATALOAD PUSH1 0xE0 SHR DUP1 PUSH4 0x111002AA EQ PUSH2 0x59 JUMPI DUP1 PUSH4 0x7FEA0249 EQ PUSH2 0x75 JUMPI DUP1 PUSH4 0x8D977672 EQ PUSH2 0xA5 JUMPI DUP1 PUSH4 0xD22C81E5 EQ PUSH2 0xD7 JUMPI DUP1 PUSH4 0xE289FCB6 EQ PUSH2 0xF5 JUMPI JUMPDEST PUSH0 PUSH0 REVERT JUMPDEST PUSH2 0x73 PUSH1 0x4 DUP1 CALLDATASIZE SUB DUP2 ADD SWAP1 PUSH2 0x6E SWAP2 SWAP1 PUSH2 0x470 JUMP JUMPDEST PUSH2 0x113 JUMP JUMPDEST STOP JUMPDEST PUSH2 0x8F PUSH1 0x4 DUP1 CALLDATASIZE SUB DUP2 ADD SWAP1 PUSH2 0x8A SWAP2 SWAP1 PUSH2 0x4EA JUMP JUMPDEST PUSH2 0x228 JUMP JUMPDEST PUSH1 0x40 MLOAD PUSH2 0x9C SWAP2 SWAP1 PUSH2 0x52F JUMP JUMPDEST PUSH1 0x40 MLOAD DUP1 SWAP2 SUB SWAP1 RETURN JUMPDEST PUSH2 0xBF PUSH1 0x4 DUP1 CALLDATASIZE SUB DUP2 ADD SWAP1 PUSH2 0xBA SWAP2 SWAP1 PUSH2 0x4EA JUMP JUMPDEST PUSH2 0x245 JUMP JUMPDEST PUSH1 0x40 MLOAD PUSH2 0xCE SWAP4 SWAP3 SWAP2 SWAP1 PUSH2 0x5B7 JUMP JUMPDEST PUSH1 0x40 MLOAD DUP1 SWAP2 SUB SWAP1 RETURN JUMPDEST PUSH2 0xDF PUSH2 0x30C JUMP JUMPDEST PUSH1 0x40 MLOAD PUSH2 0xEC SWAP2 SWAP1 PUSH2 0x5F3 JUMP JUMPDEST PUSH1 0x40 MLOAD DUP1 SWAP2 SUB SWAP1 RETURN JUMPDEST PUSH2 0xFD PUSH2 0x311 JUMP JUMPDEST PUSH1 0x40 MLOAD PUSH2 0x10A SWAP2 SWAP1 PUSH2 0x52F JUMP JUMPDEST PUSH1 0x40 MLOAD DUP1 SWAP2 SUB SWAP1 RETURN JUMPDEST PUSH1 0x1 PUSH0 SWAP1 SLOAD SWAP1 PUSH2 0x100 EXP SWAP1 DIV PUSH1 0xFF AND PUSH2 0x161 JUMPI PUSH1 0x40 MLOAD PUSH32 0x8C379A000000000000000000000000000000000000000000000000000000000 DUP2 MSTORE PUSH1 0x4 ADD PUSH2 0x158 SWAP1 PUSH2 0x656 JUMP JUMPDEST PUSH1 0x40 MLOAD DUP1 SWAP2 SUB SWAP1 REVERT JUMPDEST PUSH1 0x2 PUSH1 0x40 MLOAD DUP1 PUSH1 0x60 ADD PUSH1 0x40 MSTORE DUP1 PUSH0 SLOAD DUP2 MSTORE PUSH1 0x20 ADD DUP4 DUP2 MSTORE PUSH1 0x20 ADD PUSH0 ISZERO ISZERO DUP2 MSTORE POP SWAP1 DUP1 PUSH1 0x1 DUP2 SLOAD ADD DUP1 DUP3 SSTORE DUP1 SWAP2 POP POP PUSH1 0x1 SWAP1 SUB SWAP1 PUSH0 MSTORE PUSH1 0x20 PUSH0 KECCAK256 SWAP1 PUSH1 0x3 MUL ADD PUSH0 SWAP1 SWAP2 SWAP1 SWAP2 SWAP1 SWAP2 POP PUSH0 DUP3 ADD MLOAD DUP2 PUSH0 ADD SSTORE PUSH1 0x20 DUP3 ADD MLOAD DUP2 PUSH1 0x1 ADD SWAP1 DUP2 PUSH2 0x1C4 SWAP2 SWAP1 PUSH2 0x871 JUMP JUMPDEST POP PUSH1 0x40 DUP3 ADD MLOAD DUP2 PUSH1 0x2 ADD PUSH0 PUSH2 0x100 EXP DUP2 SLOAD DUP2 PUSH1 0xFF MUL NOT AND SWAP1 DUP4 ISZERO ISZERO MUL OR SWAP1 SSTORE POP POP POP PUSH0 PUSH1 0x3 PUSH0 PUSH0 SLOAD DUP2 MSTORE PUSH1 0x20 ADD SWAP1 DUP2 MSTORE PUSH1 0x20 ADD PUSH0 KECCAK256 PUSH0 PUSH2 0x100 EXP DUP2 SLOAD DUP2 PUSH1 0xFF MUL NOT AND SWAP1 DUP4 ISZERO ISZERO MUL OR SWAP1 SSTORE POP PUSH0 PUSH0 DUP2 SLOAD DUP1 SWAP3 SWAP2 SWAP1 PUSH2 0x220 SWAP1 PUSH2 0x96D JUMP JUMPDEST SWAP2 SWAP1 POP SSTORE POP POP JUMP JUMPDEST PUSH1 0x3 PUSH1 0x20 MSTORE DUP1 PUSH0 MSTORE PUSH1 0x40 PUSH0 KECCAK256 PUSH0 SWAP2 POP SLOAD SWAP1 PUSH2 0x100 EXP SWAP1 DIV PUSH1 0xFF AND DUP2 JUMP JUMPDEST PUSH1 0x2 DUP2 DUP2 SLOAD DUP2 LT PUSH2 0x254 JUMPI PUSH0 DUP1 REVERT JUMPDEST SWAP1 PUSH0 MSTORE PUSH1 0x20 PUSH0 KECCAK256 SWAP1 PUSH1 0x3 MUL ADD PUSH0 SWAP2 POP SWAP1 POP DUP1 PUSH0 ADD SLOAD SWAP1 DUP1 PUSH1 0x1 ADD DUP1 SLOAD PUSH2 0x279 SWAP1 PUSH2 0x6A1 JUMP JUMPDEST DUP1 PUSH1 0x1F ADD PUSH1 0x20 DUP1 SWAP2 DIV MUL PUSH1 0x20 ADD PUSH1 0x40 MLOAD SWAP1 DUP2 ADD PUSH1 0x40 MSTORE DUP1 SWAP3 SWAP2 SWAP1 DUP2 DUP2 MSTORE PUSH1 0x20 ADD DUP3 DUP1 SLOAD PUSH2 0x2A5 SWAP1 PUSH2 0x6A1 JUMP JUMPDEST DUP1 ISZERO PUSH2 0x2F0 JUMPI DUP1 PUSH1 0x1F LT PUSH2 0x2C7 JUMPI PUSH2 0x100 DUP1 DUP4 SLOAD DIV MUL DUP4 MSTORE SWAP2 PUSH1 0x20 ADD SWAP2 PUSH2 0x2F0 JUMP JUMPDEST DUP3 ADD SWAP2 SWAP1 PUSH0 MSTORE PUSH1 0x20 PUSH0 KECCAK256 SWAP1 JUMPDEST DUP2 SLOAD DUP2 MSTORE SWAP1 PUSH1 0x1 ADD SWAP1 PUSH1 0x20 ADD DUP1 DUP4 GT PUSH2 0x2D3 JUMPI DUP3 SWAP1 SUB PUSH1 0x1F AND DUP3 ADD SWAP2 JUMPDEST POP POP POP POP POP SWAP1 DUP1 PUSH1 0x2 ADD PUSH0 SWAP1 SLOAD SWAP1 PUSH2 0x100 EXP SWAP1 DIV PUSH1 0xFF AND SWAP1 POP DUP4 JUMP JUMPDEST PUSH0 SLOAD DUP2 JUMP JUMPDEST PUSH1 0x1 PUSH0 SWAP1 SLOAD SWAP1 PUSH2 0x100 EXP SWAP1 DIV PUSH1 0xFF AND DUP2 JUMP JUMPDEST PUSH0 PUSH1 0x40 MLOAD SWAP1 POP SWAP1 JUMP JUMPDEST PUSH0 PUSH0 REVERT JUMPDEST PUSH0 PUSH0 REVERT JUMPDEST PUSH0 PUSH0 REVERT JUMPDEST PUSH0 PUSH0 REVERT JUMPDEST PUSH0 PUSH1 0x1F NOT PUSH1 0x1F DUP4 ADD AND SWAP1 POP SWAP2 SWAP1 POP JUMP JUMPDEST PUSH32 0x4E487B7100000000000000000000000000000000000000000000000000000000 PUSH0 MSTORE PUSH1 0x41 PUSH1 0x4 MSTORE PUSH1 0x24 PUSH0 REVERT JUMPDEST PUSH2 0x382 DUP3 PUSH2 0x33C JUMP JUMPDEST DUP2 ADD DUP2 DUP2 LT PUSH8 0xFFFFFFFFFFFFFFFF DUP3 GT OR ISZERO PUSH2 0x3A1 JUMPI PUSH2 0x3A0 PUSH2 0x34C JUMP JUMPDEST JUMPDEST DUP1 PUSH1 0x40 MSTORE POP POP POP JUMP JUMPDEST PUSH0 PUSH2 0x3B3 PUSH2 0x323 JUMP JUMPDEST SWAP1 POP PUSH2 0x3BF DUP3 DUP3 PUSH2 0x379 JUMP JUMPDEST SWAP2 SWAP1 POP JUMP JUMPDEST PUSH0 PUSH8 0xFFFFFFFFFFFFFFFF DUP3 GT ISZERO PUSH2 0x3DE JUMPI PUSH2 0x3DD PUSH2 0x34C JUMP JUMPDEST JUMPDEST PUSH2 0x3E7 DUP3 PUSH2 0x33C JUMP JUMPDEST SWAP1 POP PUSH1 0x20 DUP2 ADD SWAP1 POP SWAP2 SWAP1 POP JUMP JUMPDEST DUP3 DUP2 DUP4 CALLDATACOPY PUSH0 DUP4 DUP4 ADD MSTORE POP POP POP JUMP JUMPDEST PUSH0 PUSH2 0x414 PUSH2 0x40F DUP5 PUSH2 0x3C4 JUMP JUMPDEST PUSH2 0x3AA JUMP JUMPDEST SWAP1 POP DUP3 DUP2 MSTORE PUSH1 0x20 DUP2 ADD DUP5 DUP5 DUP5 ADD GT ISZERO PUSH2 0x430 JUMPI PUSH2 0x42F PUSH2 0x338 JUMP JUMPDEST JUMPDEST PUSH2 0x43B DUP5 DUP3 DUP6 PUSH2 0x3F4 JUMP JUMPDEST POP SWAP4 SWAP3 POP POP POP JUMP JUMPDEST PUSH0 DUP3 PUSH1 0x1F DUP4 ADD SLT PUSH2 0x457 JUMPI PUSH2 0x456 PUSH2 0x334 JUMP JUMPDEST JUMPDEST DUP2 CALLDATALOAD PUSH2 0x467 DUP5 DUP3 PUSH1 0x20 DUP7 ADD PUSH2 0x402 JUMP JUMPDEST SWAP2 POP POP SWAP3 SWAP2 POP POP JUMP JUMPDEST PUSH0 PUSH1 0x20 DUP3 DUP5 SUB SLT ISZERO PUSH2 0x485 JUMPI PUSH2 0x484 PUSH2 0x32C JUMP JUMPDEST JUMPDEST PUSH0 DUP3 ADD CALLDATALOAD PUSH8 0xFFFFFFFFFFFFFFFF DUP2 GT ISZERO PUSH2 0x4A2 JUMPI PUSH2 0x4A1 PUSH2 0x330 JUMP JUMPDEST JUMPDEST PUSH2 0x4AE DUP5 DUP3 DUP6 ADD PUSH2 0x443 JUMP JUMPDEST SWAP2 POP POP SWAP3 SWAP2 POP POP JUMP JUMPDEST PUSH0 DUP2 SWAP1 POP SWAP2 SWAP1 POP JUMP JUMPDEST PUSH2 0x4C9 DUP2 PUSH2 0x4B7 JUMP JUMPDEST DUP2 EQ PUSH2 0x4D3 JUMPI PUSH0 PUSH0 REVERT JUMPDEST POP JUMP JUMPDEST PUSH0 DUP2 CALLDATALOAD SWAP1 POP PUSH2 0x4E4 DUP2 PUSH2 0x4C0 JUMP JUMPDEST SWAP3 SWAP2 POP POP JUMP JUMPDEST PUSH0 PUSH1 0x20 DUP3 DUP5 SUB SLT ISZERO PUSH2 0x4FF JUMPI PUSH2 0x4FE PUSH2 0x32C JUMP JUMPDEST JUMPDEST PUSH0 PUSH2 0x50C DUP5 DUP3 DUP6 ADD PUSH2 0x4D6 JUMP JUMPDEST SWAP2 POP POP SWAP3 SWAP2 POP POP JUMP JUMPDEST PUSH0 DUP2 ISZERO ISZERO SWAP1 POP SWAP2 SWAP1 POP JUMP JUMPDEST PUSH2 0x529 DUP2 PUSH2 0x515 JUMP JUMPDEST DUP3 MSTORE POP POP JUMP JUMPDEST PUSH0 PUSH1 0x20 DUP3 ADD SWAP1 POP PUSH2 0x542 PUSH0 DUP4 ADD DUP5 PUSH2 0x520 JUMP JUMPDEST SWAP3 SWAP2 POP POP JUMP JUMPDEST PUSH2 0x551 DUP2 PUSH2 0x4B7 JUMP JUMPDEST DUP3 MSTORE POP POP JUMP JUMPDEST PUSH0 DUP2 MLOAD SWAP1 POP SWAP2 SWAP1 POP JUMP JUMPDEST PUSH0 DUP3 DUP3 MSTORE PUSH1 0x20 DUP3 ADD SWAP1 POP SWAP3 SWAP2 POP POP JUMP JUMPDEST DUP3 DUP2 DUP4 MCOPY PUSH0 DUP4 DUP4 ADD MSTORE POP POP POP JUMP JUMPDEST PUSH0 PUSH2 0x589 DUP3 PUSH2 0x557 JUMP JUMPDEST PUSH2 0x593 DUP2 DUP6 PUSH2 0x561 JUMP JUMPDEST SWAP4 POP PUSH2 0x5A3 DUP2 DUP6 PUSH1 0x20 DUP7 ADD PUSH2 0x571 JUMP JUMPDEST PUSH2 0x5AC DUP2 PUSH2 0x33C JUMP JUMPDEST DUP5 ADD SWAP2 POP POP SWAP3 SWAP2 POP POP JUMP JUMPDEST PUSH0 PUSH1 0x60 DUP3 ADD SWAP1 POP PUSH2 0x5CA PUSH0 DUP4 ADD DUP7 PUSH2 0x548 JUMP JUMPDEST DUP2 DUP2 SUB PUSH1 0x20 DUP4 ADD MSTORE PUSH2 0x5DC DUP2 DUP6 PUSH2 0x57F JUMP JUMPDEST SWAP1 POP PUSH2 0x5EB PUSH1 0x40 DUP4 ADD DUP5 PUSH2 0x520 JUMP JUMPDEST SWAP5 SWAP4 POP POP POP POP JUMP JUMPDEST PUSH0 PUSH1 0x20 DUP3 ADD SWAP1 POP PUSH2 0x606 PUSH0 DUP4 ADD DUP5 PUSH2 0x548 JUMP JUMPDEST SWAP3 SWAP2 POP POP JUMP JUMPDEST PUSH32 0x436F6E7472616374206973206E6F742061637469766500000000000000000000 PUSH0 DUP3 ADD MSTORE POP JUMP JUMPDEST PUSH0 PUSH2 0x640 PUSH1 0x16 DUP4 PUSH2 0x561 JUMP JUMPDEST SWAP2 POP PUSH2 0x64B DUP3 PUSH2 0x60C JUMP JUMPDEST PUSH1 0x20 DUP3 ADD SWAP1 POP SWAP2 SWAP1 POP JUMP JUMPDEST PUSH0 PUSH1 0x20 DUP3 ADD SWAP1 POP DUP2 DUP2 SUB PUSH0 DUP4 ADD MSTORE PUSH2 0x66D DUP2 PUSH2 0x634 JUMP JUMPDEST SWAP1 POP SWAP2 SWAP1 POP JUMP JUMPDEST PUSH32 0x4E487B7100000000000000000000000000000000000000000000000000000000 PUSH0 MSTORE PUSH1 0x22 PUSH1 0x4 MSTORE PUSH1 0x24 PUSH0 REVERT JUMPDEST PUSH0 PUSH1 0x2 DUP3 DIV SWAP1 POP PUSH1 0x1 DUP3 AND DUP1 PUSH2 0x6B8 JUMPI PUSH1 0x7F DUP3 AND SWAP2 POP JUMPDEST PUSH1 0x20 DUP3 LT DUP2 SUB PUSH2 0x6CB JUMPI PUSH2 0x6CA PUSH2 0x674 JUMP JUMPDEST JUMPDEST POP SWAP2 SWAP1 POP JUMP JUMPDEST PUSH0 DUP2 SWAP1 POP DUP2 PUSH0 MSTORE PUSH1 0x20 PUSH0 KECCAK256 SWAP1 POP SWAP2 SWAP1 POP JUMP JUMPDEST PUSH0 PUSH1 0x20 PUSH1 0x1F DUP4 ADD DIV SWAP1 POP SWAP2 SWAP1 POP JUMP JUMPDEST PUSH0 DUP3 DUP3 SHL SWAP1 POP SWAP3 SWAP2 POP POP JUMP JUMPDEST PUSH0 PUSH1 0x8 DUP4 MUL PUSH2 0x72D PUSH32 0xFFFFFFFFFFFFFFFFFFFFFFFFFFFFFFFFFFFFFFFFFFFFFFFFFFFFFFFFFFFFFFFF DUP3 PUSH2 0x6F2 JUMP JUMPDEST PUSH2 0x737 DUP7 DUP4 PUSH2 0x6F2 JUMP JUMPDEST SWAP6 POP DUP1 NOT DUP5 AND SWAP4 POP DUP1 DUP7 AND DUP5 OR SWAP3 POP POP POP SWAP4 SWAP3 POP POP POP JUMP JUMPDEST PUSH0 DUP2 SWAP1 POP SWAP2 SWAP1 POP JUMP JUMPDEST PUSH0 PUSH2 0x772 PUSH2 0x76D PUSH2 0x768 DUP5 PUSH2 0x4B7 JUMP JUMPDEST PUSH2 0x74F JUMP JUMPDEST PUSH2 0x4B7 JUMP JUMPDEST SWAP1 POP SWAP2 SWAP1 POP JUMP JUMPDEST PUSH0 DUP2 SWAP1 POP SWAP2 SWAP1 POP JUMP JUMPDEST PUSH2 0x78B DUP4 PUSH2 0x758 JUMP JUMPDEST PUSH2 0x79F PUSH2 0x797 DUP3 PUSH2 0x779 JUMP JUMPDEST DUP5 DUP5 SLOAD PUSH2 0x6FE JUMP JUMPDEST DUP3 SSTORE POP POP POP POP JUMP JUMPDEST PUSH0 PUSH0 SWAP1 POP SWAP1 JUMP JUMPDEST PUSH2 0x7B6 PUSH2 0x7A7 JUMP JUMPDEST PUSH2 0x7C1 DUP2 DUP5 DUP5 PUSH2 0x782 JUMP JUMPDEST POP POP POP JUMP JUMPDEST JUMPDEST DUP2 DUP2 LT ISZERO PUSH2 0x7E4 JUMPI PUSH2 0x7D9 PUSH0 DUP3 PUSH2 0x7AE JUMP JUMPDEST PUSH1 0x1 DUP2 ADD SWAP1 POP PUSH2 0x7C7 JUMP JUMPDEST POP POP JUMP JUMPDEST PUSH1 0x1F DUP3 GT ISZERO PUSH2 0x829 JUMPI PUSH2 0x7FA DUP2 PUSH2 0x6D1 JUMP JUMPDEST PUSH2 0x803 DUP5 PUSH2 0x6E3 JUMP JUMPDEST DUP2 ADD PUSH1 0x20 DUP6 LT ISZERO PUSH2 0x812 JUMPI DUP2 SWAP1 POP JUMPDEST PUSH2 0x826 PUSH2 0x81E DUP6 PUSH2 0x6E3 JUMP JUMPDEST DUP4 ADD DUP3 PUSH2 0x7C6 JUMP JUMPDEST POP POP JUMPDEST POP POP POP JUMP JUMPDEST PUSH0 DUP3 DUP3 SHR SWAP1 POP SWAP3 SWAP2 POP POP JUMP JUMPDEST PUSH0 PUSH2 0x849 PUSH0 NOT DUP5 PUSH1 0x8 MUL PUSH2 0x82E JUMP JUMPDEST NOT DUP1 DUP4 AND SWAP2 POP POP SWAP3 SWAP2 POP POP JUMP JUMPDEST PUSH0 PUSH2 0x861 DUP4 DUP4 PUSH2 0x83A JUMP JUMPDEST SWAP2 POP DUP3 PUSH1 0x2 MUL DUP3 OR SWAP1 POP SWAP3 SWAP2 POP POP JUMP JUMPDEST PUSH2 0x87A DUP3 PUSH2 0x557 JUMP JUMPDEST PUSH8 0xFFFFFFFFFFFFFFFF DUP2 GT ISZERO PUSH2 0x893 JUMPI PUSH2 0x892 PUSH2 0x34C JUMP JUMPDEST JUMPDEST PUSH2 0x89D DUP3 SLOAD PUSH2 0x6A1 JUMP JUMPDEST PUSH2 0x8A8 DUP3 DUP3 DUP6 PUSH2 0x7E8 JUMP JUMPDEST PUSH0 PUSH1 0x20 SWAP1 POP PUSH1 0x1F DUP4 GT PUSH1 0x1 DUP2 EQ PUSH2 0x8D9 JUMPI PUSH0 DUP5 ISZERO PUSH2 0x8C7 JUMPI DUP3 DUP8 ADD MLOAD SWAP1 POP JUMPDEST PUSH2 0x8D1 DUP6 DUP3 PUSH2 0x856 JUMP JUMPDEST DUP7 SSTORE POP PUSH2 0x938 JUMP JUMPDEST PUSH1 0x1F NOT DUP5 AND PUSH2 0x8E7 DUP7 PUSH2 0x6D1 JUMP JUMPDEST PUSH0 JUMPDEST DUP3 DUP2 LT ISZERO PUSH2 0x90E JUMPI DUP5 DUP10 ADD MLOAD DUP3 SSTORE PUSH1 0x1 DUP3 ADD SWAP2 POP PUSH1 0x20 DUP6 ADD SWAP5 POP PUSH1 0x20 DUP2 ADD SWAP1 POP PUSH2 0x8E9 JUMP JUMPDEST DUP7 DUP4 LT ISZERO PUSH2 0x92B JUMPI DUP5 DUP10 ADD MLOAD PUSH2 0x927 PUSH1 0x1F DUP10 AND DUP3 PUSH2 0x83A JUMP JUMPDEST DUP4 SSTORE POP JUMPDEST PUSH1 0x1 PUSH1 0x2 DUP9 MUL ADD DUP9 SSTORE POP POP POP JUMPDEST POP POP POP POP POP POP JUMP JUMPDEST PUSH32 0x4E487B7100000000000000000000000000000000000000000000000000000000 PUSH0 MSTORE PUSH1 0x11 PUSH1 0x4 MSTORE PUSH1 0x24 PUSH0 REVERT JUMPDEST PUSH0 PUSH2 0x977 DUP3 PUSH2 0x4B7 JUMP JUMPDEST SWAP2 POP PUSH32 0xFFFFFFFFFFFFFFFFFFFFFFFFFFFFFFFFFFFFFFFFFFFFFFFFFFFFFFFFFFFFFFFF DUP3 SUB PUSH2 0x9A9 JUMPI PUSH2 0x9A8 PUSH2 0x940 JUMP JUMPDEST JUMPDEST PUSH1 0x1 DUP3 ADD SWAP1 POP SWAP2 SWAP1 POP JUMP INVALID LOG2 PUSH5 0x6970667358 0x22 SLT KECCAK256 PUSH31 0x472D1587024145E92EA2AB0995421175479A73EE2C04E8DF0CD9F621179FA9 PUSH5 0x736F6C6343 STOP ADDMOD 0x1F STOP CALLER "
				},
				"gasEstimates": {
					"creation": {
						"codeDepositCost": "507600",
						"executionCost": "24807",
						"totalCost": "532407"
					},
					"external": {
						"contractActive()": "2532",
						"createTask(string)": "infinite",
						"taskCompleted(uint256)": "2785",
						"tasks(uint256)": "infinite",
						"totalTasks()": "2468"
					}
				},
				"methodIdentifiers": {
					"contractActive()": "e289fcb6",
					"createTask(string)": "111002aa",
					"taskCompleted(uint256)": "7fea0249",
					"tasks(uint256)": "8d977672",
					"totalTasks()": "d22c81e5"
				}
			},
			"storageLayout": {
				"storage": [
					{
						"astId": 3,
						"contract": "contract/task.sol:TaskManager",
						"label": "totalTasks",
						"offset": 0,
						"slot": "0",
						"type": "t_uint256"
					},
					{
						"astId": 6,
						"contract": "contract/task.sol:TaskManager",
						"label": "contractActive",
						"offset": 0,
						"slot": "1",
						"type": "t_bool"
					},
					{
						"astId": 17,
						"contract": "contract/task.sol:TaskManager",
						"label": "tasks",
						"offset": 0,
						"slot": "2",
						"type": "t_array(t_struct(Task)13_storage)dyn_storage"
					},
					{
						"astId": 21,
						"contract": "contract/task.sol:TaskManager",
						"label": "taskCompleted",
						"offset": 0,
						"slot": "3",
						"type": "t_mapping(t_uint256,t_bool)"
					}
				],
				"types": {
					"t_array(t_struct(Task)13_storage)dyn_storage": {
						"base": "t_struct(Task)13_storage",
						"encoding": "dynamic_array",
						"label": "struct TaskManager.Task[]",
						"numberOfBytes": "32"
					},
					"t_bool": {
						"encoding": "inplace",
						"label": "bool",
						"numberOfBytes": "1"
					},
					"t_mapping(t_uint256,t_bool)": {
						"encoding": "mapping",
						"key": "t_uint256",
						"label": "mapping(uint256 => bool)",
						"numberOfBytes": "32",
						"value": "t_bool"
					},
					"t_string_storage": {
						"encoding": "bytes",
						"label": "string",
						"numberOfBytes": "32"
					},
					"t_struct(Task)13_storage": {
						"encoding": "inplace",
						"label": "struct TaskManager.Task",
						"members": [
							{
								"astId": 8,
								"contract": "contract/task.sol:TaskManager",
								"label": "id",
								"offset": 0,
								"slot": "0",
								"type": "t_uint256"
							},
							{
								"astId": 10,
								"contract": "contract/task.sol:TaskManager",
								"label": "title",
								"offset": 0,
								"slot": "1",
								"type": "t_string_storage"
							},
							{
								"astId": 12,
								"contract": "contract/task.sol:TaskManager",
								"label": "completed",
								"offset": 0,
								"slot": "2",
								"type": "t_bool"
							}
						],
						"numberOfBytes": "96"
					},
					"t_uint256": {
						"encoding": "inplace",
						"label": "uint256",
						"numberOfBytes": "32"
					}
				}
			},
			"userdoc": {
				"kind": "user",
				"methods": {},
				"version": 1
			}
		}
	}
}