{
	"contract/simplestorage.sol": {
		"Project": {
			"abi": [
				{
					"inputs": [
						{
							"internalType": "string",
							"name": "_name",
							"type": "string"
						},
						{
							"internalType": "uint256",
							"name": "_age",
							"type": "uint256"
						},
						{
							"internalType": "uint256",
							"name": "_favoriteNumber",
							"type": "uint256"
						}
					],
					"name": "addPerson",
					"outputs": [],
					"stateMutability": "nonpayable",
					"type": "function"
				},
				{
					"inputs": [],
					"name": "addition",
					"outputs": [
						{
							"internalType": "uint256",
							"name": "",
							"type": "uint256"
						}
					],
					"stateMutability": "view",
					"type": "function"
				},
				{
					"inputs": [],
					"name": "division",
					"outputs": [
						{
							"internalType": "uint256",
							"name": "",
							"type": "uint256"
						}
					],
					"stateMutability": "view",
					"type": "function"
				},
				{
					"inputs": [],
					"name": "firstNumber",
					"outputs": [
						{
							"internalType": "uint256",
							"name": "",
							"type": "uint256"
						}
					],
					"stateMutability": "view",
					"type": "function"
				},
				{
					"inputs": [],
					"name": "multiplication",
					"outputs": [
						{
							"internalType": "uint256",
							"name": "",
							"type": "uint256"
						}
					],
					"stateMutability": "view",
					"type": "function"
				},
				{
					"inputs": [
						{
							"internalType": "string",
							"name": "",
							"type": "string"
						}
					],
					"name": "nameToAge",
					"outputs": [
						{
							"internalType": "uint256",
							"name": "",
							"type": "uint256"
						}
					],
					"stateMutability": "view",
					"type": "function"
				},
				{
					"inputs": [
						{
							"internalType": "string",
							"name": "",
							"type": "string"
						}
					],
					"name": "nameToFavoriteNumber",
					"outputs": [
						{
							"internalType": "uint256",
							"name": "",
							"type": "uint256"
						}
					],
					"stateMutability": "view",
					"type": "function"
				},
				{
					"inputs": [
						{
							"internalType": "uint256",
							"name": "",
							"type": "uint256"
						}
					],
					"name": "people",
					"outputs": [
						{
							"internalType": "string",
							"name": "name",
							"type": "string"
						},
						{
							"internalType": "uint256",
							"name": "age",
							"type": "uint256"
						},
						{
							"internalType": "uint256",
							"name": "favoriteNumber",
							"type": "uint256"
						}
					],
					"stateMutability": "view",
					"type": "function"
				},
				{
					"inputs": [],
					"name": "secondNumber",
					"outputs": [
						{
							"internalType": "uint256",
							"name": "",
							"type": "uint256"
						}
					],
					"stateMutability": "view",
					"type": "function"
				},
				{
					"inputs": [
						{
							"internalType": "uint256",
							"name": "_firstNumber",
							"type": "uint256"
						}
					],
					"name": "setFirstNumber",
					"outputs": [],
					"stateMutability": "nonpayable",
					"type": "function"
				},
				{
					"inputs": [
						{
							"internalType": "uint256",
							"name": "_secondNumber",
							"type": "uint256"
						}
					],
					"name": "setSecondNumber",
					"outputs": [],
					"stateMutability": "nonpayable",
					"type": "function"
				},
				{
					"inputs": [],
					"name": "subtraction",
					"outputs": [
						{
							"internalType": "uint256",
							"name": "",
							"type": "uint256"
						}
					],
					"stateMutability": "view",
					"type": "function"
				}
			],
			"devdoc": {
				"kind": "dev",
				"methods": {},
				"version": 1
			},
			"evm": {
				"assembly": "    /* \"contract/simplestorage.sol\":58:1309  contract Project {... */\n  mstore(0x40, 0x80)\n  callvalue\n  dup1\n  iszero\n  tag_1\n  jumpi\n  revert(0x00, 0x00)\ntag_1:\n  pop\n  dataSize(sub_0)\n  dup1\n  dataOffset(sub_0)\n  0x00\n  codecopy\n  0x00\n  return\nstop\n\nsub_0: assembly {\n        /* \"contract/simplestorage.sol\":58:1309  contract Project {... */\n      mstore(0x40, 0x80)\n      callvalue\n      dup1\n      iszero\n      tag_1\n      jumpi\n      revert(0x00, 0x00)\n    tag_1:\n      pop\n      jumpi(tag_2, lt(calldatasize, 0x04))\n      shr(0xe0, calldataload(0x00))\n      dup1\n      0x90c3ee4d\n      gt\n      tag_15\n      jumpi\n      dup1\n      0x90c3ee4d\n      eq\n      tag_9\n      jumpi\n      dup1\n      0x9e7a13ad\n      eq\n      tag_10\n      jumpi\n      dup1\n      0xabbc0a8a\n      eq\n      tag_11\n      jumpi\n      dup1\n      0xcd89e72a\n      eq\n      tag_12\n      jumpi\n      dup1\n      0xe3ec0251\n      eq\n      tag_13\n      jumpi\n      dup1\n      0xec597128\n      eq\n      tag_14\n      jumpi\n      jump(tag_2)\n    tag_15:\n      dup1\n      0x011285da\n      eq\n      tag_3\n      jumpi\n      dup1\n      0x2173d6e9\n      eq\n      tag_4\n      jumpi\n      dup1\n      0x3205f5fc\n      eq\n      tag_5\n      jumpi\n      dup1\n      0x4caadbef\n      eq\n      tag_6\n      jumpi\n      dup1\n      0x7cc5c136\n      eq\n      tag_7\n      jumpi\n      dup1\n      0x8bab8dd5\n      eq\n      tag_8\n      jumpi\n    tag_2:\n      revert(0x00, 0x00)\n        /* \"contract/simplestorage.sol\":819:925  function multiplication() public view returns (uint256) {... */\n    tag_3:\n      tag_16\n      tag_17\n      jump\t// in\n    tag_16:\n      mload(0x40)\n      tag_18\n      swap2\n      swap1\n      tag_19\n      jump\t// in\n    tag_18:\n      mload(0x40)\n      dup1\n      swap2\n      sub\n      swap1\n      return\n        /* \"contract/simplestorage.sol\":82:108  uint256 public firstNumber */\n    tag_4:\n      tag_20\n      tag_21\n      jump\t// in\n    tag_20:\n      mload(0x40)\n      tag_22\n      swap2\n      swap1\n      tag_19\n      jump\t// in\n    tag_22:\n      mload(0x40)\n      dup1\n      swap2\n      sub\n      swap1\n      return\n        /* \"contract/simplestorage.sol\":931:1031  function division() public view returns (uint256) {... */\n    tag_5:\n      tag_23\n      tag_24\n      jump\t// in\n    tag_23:\n      mload(0x40)\n      tag_25\n      swap2\n      swap1\n      tag_19\n      jump\t// in\n    tag_25:\n      mload(0x40)\n      dup1\n      swap2\n      sub\n      swap1\n      return\n        /* \"contract/simplestorage.sol\":490:590  function setSecondNumber(uint256 _secondNumber) public {... */\n    tag_6:\n      tag_26\n      0x04\n      dup1\n      calldatasize\n      sub\n      dup2\n      add\n      swap1\n      tag_27\n      swap2\n      swap1\n      tag_28\n      jump\t// in\n    tag_27:\n      tag_29\n      jump\t// in\n    tag_26:\n      stop\n        /* \"contract/simplestorage.sol\":114:141  uint256 public secondNumber */\n    tag_7:\n      tag_30\n      tag_31\n      jump\t// in\n    tag_30:\n      mload(0x40)\n      tag_32\n      swap2\n      swap1\n      tag_19\n      jump\t// in\n    tag_32:\n      mload(0x40)\n      dup1\n      swap2\n      sub\n      swap1\n      return\n        /* \"contract/simplestorage.sol\":327:381  mapping(string => uint256) public nameToFavoriteNumber */\n    tag_8:\n      tag_33\n      0x04\n      dup1\n      calldatasize\n      sub\n      dup2\n      add\n      swap1\n      tag_34\n      swap2\n      swap1\n      tag_35\n      jump\t// in\n    tag_34:\n      tag_36\n      jump\t// in\n    tag_33:\n      mload(0x40)\n      tag_37\n      swap2\n      swap1\n      tag_19\n      jump\t// in\n    tag_37:\n      mload(0x40)\n      dup1\n      swap2\n      sub\n      swap1\n      return\n        /* \"contract/simplestorage.sol\":278:321  mapping(string => uint256) public nameToAge */\n    tag_9:\n      tag_38\n      0x04\n      dup1\n      calldatasize\n      sub\n      dup2\n      add\n      swap1\n      tag_39\n      swap2\n      swap1\n      tag_35\n      jump\t// in\n    tag_39:\n      tag_40\n      jump\t// in\n    tag_38:\n      mload(0x40)\n      tag_41\n      swap2\n      swap1\n      tag_19\n      jump\t// in\n    tag_41:\n      mload(0x40)\n      dup1\n      swap2\n      sub\n      swap1\n      return\n        /* \"contract/simplestorage.sol\":249:271  Person[] public people */\n    tag_10:\n      tag_42\n      0x04\n      dup1\n      calldatasize\n      sub\n      dup2\n      add\n      swap1\n      tag_43\n      swap2\n      swap1\n      tag_28\n      jump\t// in\n    tag_43:\n      tag_44\n      jump\t// in\n    tag_42:\n      mload(0x40)\n      tag_45\n      swap4\n      swap3\n      swap2\n      swap1\n      tag_46\n      jump\t// in\n    tag_45:\n      mload(0x40)\n      dup1\n      swap2\n      sub\n      swap1\n      return\n        /* \"contract/simplestorage.sol\":1037:1307  function addPerson(... */\n    tag_11:\n      tag_47\n      0x04\n      dup1\n      calldatasize\n      sub\n      dup2\n      add\n      swap1\n      tag_48\n      swap2\n      swap1\n      tag_49\n      jump\t// in\n    tag_48:\n      tag_50\n      jump\t// in\n    tag_47:\n      stop\n        /* \"contract/simplestorage.sol\":388:484  function setFirstNumber(uint256 _firstNumber) public {... */\n    tag_12:\n      tag_51\n      0x04\n      dup1\n      calldatasize\n      sub\n      dup2\n      add\n      swap1\n      tag_52\n      swap2\n      swap1\n      tag_28\n      jump\t// in\n    tag_52:\n      tag_53\n      jump\t// in\n    tag_51:\n      stop\n        /* \"contract/simplestorage.sol\":702:813  function subtraction() public view returns (uint256) {... */\n    tag_13:\n      tag_54\n      tag_55\n      jump\t// in\n    tag_54:\n      mload(0x40)\n      tag_56\n      swap2\n      swap1\n      tag_19\n      jump\t// in\n    tag_56:\n      mload(0x40)\n      dup1\n      swap2\n      sub\n      swap1\n      return\n        /* \"contract/simplestorage.sol\":596:696  function addition() public view returns (uint256) {... */\n    tag_14:\n      tag_57\n      tag_58\n      jump\t// in\n    tag_57:\n      mload(0x40)\n      tag_59\n      swap2\n      swap1\n      tag_19\n      jump\t// in\n    tag_59:\n      mload(0x40)\n      dup1\n      swap2\n      sub\n      swap1\n      return\n        /* \"contract/simplestorage.sol\":819:925  function multiplication() public view returns (uint256) {... */\n    tag_17:\n        /* \"contract/simplestorage.sol\":866:873  uint256 */\n      0x00\n        /* \"contract/simplestorage.sol\":906:918  secondNumber */\n      sload(0x01)\n        /* \"contract/simplestorage.sol\":892:903  firstNumber */\n      sload(0x00)\n        /* \"contract/simplestorage.sol\":892:918  firstNumber * secondNumber */\n      tag_61\n      swap2\n      swap1\n      tag_62\n      jump\t// in\n    tag_61:\n        /* \"contract/simplestorage.sol\":885:918  return firstNumber * secondNumber */\n      swap1\n      pop\n        /* \"contract/simplestorage.sol\":819:925  function multiplication() public view returns (uint256) {... */\n      swap1\n      jump\t// out\n        /* \"contract/simplestorage.sol\":82:108  uint256 public firstNumber */\n    tag_21:\n      sload(0x00)\n      dup2\n      jump\t// out\n        /* \"contract/simplestorage.sol\":931:1031  function division() public view returns (uint256) {... */\n    tag_24:\n        /* \"contract/simplestorage.sol\":972:979  uint256 */\n      0x00\n        /* \"contract/simplestorage.sol\":1012:1024  secondNumber */\n      sload(0x01)\n        /* \"contract/simplestorage.sol\":998:1009  firstNumber */\n      sload(0x00)\n        /* \"contract/simplestorage.sol\":998:1024  firstNumber / secondNumber */\n      tag_64\n      swap2\n      swap1\n      tag_65\n      jump\t// in\n    tag_64:\n        /* \"contract/simplestorage.sol\":991:1024  return firstNumber / secondNumber */\n      swap1\n      pop\n        /* \"contract/simplestorage.sol\":931:1031  function division() public view returns (uint256) {... */\n      swap1\n      jump\t// out\n        /* \"contract/simplestorage.sol\":490:590  function setSecondNumber(uint256 _secondNumber) public {... */\n    tag_29:\n        /* \"contract/simplestorage.sol\":570:583  _secondNumber */\n      dup1\n        /* \"contract/simplestorage.sol\":555:567  secondNumber */\n      0x01\n        /* \"contract/simplestorage.sol\":555:583  secondNumber = _secondNumber */\n      dup2\n      swap1\n      sstore\n      pop\n        /* \"contract/simplestorage.sol\":490:590  function setSecondNumber(uint256 _secondNumber) public {... */\n      pop\n      jump\t// out\n        /* \"contract/simplestorage.sol\":114:141  uint256 public secondNumber */\n    tag_31:\n      sload(0x01)\n      dup2\n      jump\t// out\n        /* \"contract/simplestorage.sol\":327:381  mapping(string => uint256) public nameToFavoriteNumber */\n    tag_36:\n      0x04\n      dup2\n      dup1\n      mload\n      0x20\n      dup2\n      add\n      dup3\n      add\n      dup1\n      mload\n      dup5\n      dup3\n      mstore\n      0x20\n      dup4\n      add\n      0x20\n      dup6\n      add\n      keccak256\n      dup2\n      dup4\n      mstore\n      dup1\n      swap6\n      pop\n      pop\n      pop\n      pop\n      pop\n      pop\n      0x00\n      swap2\n      pop\n      swap1\n      pop\n      sload\n      dup2\n      jump\t// out\n        /* \"contract/simplestorage.sol\":278:321  mapping(string => uint256) public nameToAge */\n    tag_40:\n      0x03\n      dup2\n      dup1\n      mload\n      0x20\n      dup2\n      add\n      dup3\n      add\n      dup1\n      mload\n      dup5\n      dup3\n      mstore\n      0x20\n      dup4\n      add\n      0x20\n      dup6\n      add\n      keccak256\n      dup2\n      dup4\n      mstore\n      dup1\n      swap6\n      pop\n      pop\n      pop\n      pop\n      pop\n      pop\n      0x00\n      swap2\n      pop\n      swap1\n      pop\n      sload\n      dup2\n      jump\t// out\n        /* \"contract/simplestorage.sol\":249:271  Person[] public people */\n    tag_44:\n      0x02\n      dup2\n      dup2\n      sload\n      dup2\n      lt\n      tag_67\n      jumpi\n      0x00\n      dup1\n      revert\n    tag_67:\n      swap1\n      0x00\n      mstore\n      keccak256(0x00, 0x20)\n      swap1\n      0x03\n      mul\n      add\n      0x00\n      swap2\n      pop\n      swap1\n      pop\n      dup1\n      0x00\n      add\n      dup1\n      sload\n      tag_69\n      swap1\n      tag_70\n      jump\t// in\n    tag_69:\n      dup1\n      0x1f\n      add\n      0x20\n      dup1\n      swap2\n      div\n      mul\n      0x20\n      add\n      mload(0x40)\n      swap1\n      dup2\n      add\n      0x40\n      mstore\n      dup1\n      swap3\n      swap2\n      swap1\n      dup2\n      dup2\n      mstore\n      0x20\n      add\n      dup3\n      dup1\n      sload\n      tag_71\n      swap1\n      tag_70\n      jump\t// in\n    tag_71:\n      dup1\n      iszero\n      tag_72\n      jumpi\n      dup1\n      0x1f\n      lt\n      tag_73\n      jumpi\n      0x0100\n      dup1\n      dup4\n      sload\n      div\n      mul\n      dup4\n      mstore\n      swap2\n      0x20\n      add\n      swap2\n      jump(tag_72)\n    tag_73:\n      dup3\n      add\n      swap2\n      swap1\n      0x00\n      mstore\n      keccak256(0x00, 0x20)\n      swap1\n    tag_74:\n      dup2\n      sload\n      dup2\n      mstore\n      swap1\n      0x01\n      add\n      swap1\n      0x20\n      add\n      dup1\n      dup4\n      gt\n      tag_74\n      jumpi\n      dup3\n      swap1\n      sub\n      0x1f\n      and\n      dup3\n      add\n      swap2\n    tag_72:\n      pop\n      pop\n      pop\n      pop\n      pop\n      swap1\n      dup1\n      0x01\n      add\n      sload\n      swap1\n      dup1\n      0x02\n      add\n      sload\n      swap1\n      pop\n      dup4\n      jump\t// out\n        /* \"contract/simplestorage.sol\":1037:1307  function addPerson(... */\n    tag_50:\n        /* \"contract/simplestorage.sol\":1163:1169  people */\n      0x02\n        /* \"contract/simplestorage.sol\":1175:1211  Person(_name, _age, _favoriteNumber) */\n      mload(0x40)\n      dup1\n      0x60\n      add\n      0x40\n      mstore\n      dup1\n        /* \"contract/simplestorage.sol\":1182:1187  _name */\n      dup6\n        /* \"contract/simplestorage.sol\":1175:1211  Person(_name, _age, _favoriteNumber) */\n      dup2\n      mstore\n      0x20\n      add\n        /* \"contract/simplestorage.sol\":1189:1193  _age */\n      dup5\n        /* \"contract/simplestorage.sol\":1175:1211  Person(_name, _age, _favoriteNumber) */\n      dup2\n      mstore\n      0x20\n      add\n        /* \"contract/simplestorage.sol\":1195:1210  _favoriteNumber */\n      dup4\n        /* \"contract/simplestorage.sol\":1175:1211  Person(_name, _age, _favoriteNumber) */\n      dup2\n      mstore\n      pop\n        /* \"contract/simplestorage.sol\":1163:1212  people.push(Person(_name, _age, _favoriteNumber)) */\n      swap1\n      dup1\n      0x01\n      dup2\n      sload\n      add\n      dup1\n      dup3\n      sstore\n      dup1\n      swap2\n      pop\n      pop\n      0x01\n      swap1\n      sub\n      swap1\n      0x00\n      mstore\n      keccak256(0x00, 0x20)\n      swap1\n      0x03\n      mul\n      add\n      0x00\n      swap1\n      swap2\n      swap1\n      swap2\n      swap1\n      swap2\n      pop\n      0x00\n      dup3\n      add\n      mload\n      dup2\n      0x00\n      add\n      swap1\n      dup2\n      tag_77\n      swap2\n      swap1\n      tag_78\n      jump\t// in\n    tag_77:\n      pop\n      0x20\n      dup3\n      add\n      mload\n      dup2\n      0x01\n      add\n      sstore\n      0x40\n      dup3\n      add\n      mload\n      dup2\n      0x02\n      add\n      sstore\n      pop\n      pop\n        /* \"contract/simplestorage.sol\":1241:1245  _age */\n      dup2\n        /* \"contract/simplestorage.sol\":1222:1231  nameToAge */\n      0x03\n        /* \"contract/simplestorage.sol\":1232:1237  _name */\n      dup5\n        /* \"contract/simplestorage.sol\":1222:1238  nameToAge[_name] */\n      mload(0x40)\n      tag_79\n      swap2\n      swap1\n      tag_80\n      jump\t// in\n    tag_79:\n      swap1\n      dup2\n      mstore\n      0x20\n      add\n      mload(0x40)\n      dup1\n      swap2\n      sub\n      swap1\n      keccak256\n        /* \"contract/simplestorage.sol\":1222:1245  nameToAge[_name] = _age */\n      dup2\n      swap1\n      sstore\n      pop\n        /* \"contract/simplestorage.sol\":1285:1300  _favoriteNumber */\n      dup1\n        /* \"contract/simplestorage.sol\":1255:1275  nameToFavoriteNumber */\n      0x04\n        /* \"contract/simplestorage.sol\":1276:1281  _name */\n      dup5\n        /* \"contract/simplestorage.sol\":1255:1282  nameToFavoriteNumber[_name] */\n      mload(0x40)\n      tag_81\n      swap2\n      swap1\n      tag_80\n      jump\t// in\n    tag_81:\n      swap1\n      dup2\n      mstore\n      0x20\n      add\n      mload(0x40)\n      dup1\n      swap2\n      sub\n      swap1\n      keccak256\n        /* \"contract/simplestorage.sol\":1255:1300  nameToFavoriteNumber[_name] = _favoriteNumber */\n      dup2\n      swap1\n      sstore\n      pop\n        /* \"contract/simplestorage.sol\":1037:1307  function addPerson(... */\n      pop\n      pop\n      pop\n      jump\t// out\n        /* \"contract/simplestorage.sol\":388:484  function setFirstNumber(uint256 _firstNumber) public {... */\n    tag_53:\n        /* \"contract/simplestorage.sol\":465:477  _firstNumber */\n      dup1\n        /* \"contract/simplestorage.sol\":451:462  firstNumber */\n      0x00\n        /* \"contract/simplestorage.sol\":451:477  firstNumber = _firstNumber */\n      dup2\n      swap1\n      sstore\n      pop\n        /* \"contract/simplestorage.sol\":388:484  function setFirstNumber(uint256 _firstNumber) public {... */\n      pop\n      jump\t// out\n        /* \"contract/simplestorage.sol\":702:813  function subtraction() public view returns (uint256) {... */\n    tag_55:\n        /* \"contract/simplestorage.sol\":746:753  uint256 */\n      0x00\n        /* \"contract/simplestorage.sol\":794:806  secondNumber */\n      sload(0x01)\n        /* \"contract/simplestorage.sol\":780:791  firstNumber */\n      sload(0x00)\n        /* \"contract/simplestorage.sol\":780:806  firstNumber - secondNumber */\n      tag_84\n      swap2\n      swap1\n      tag_85\n      jump\t// in\n    tag_84:\n        /* \"contract/simplestorage.sol\":773:806  return firstNumber - secondNumber */\n      swap1\n      pop\n        /* \"contract/simplestorage.sol\":702:813  function subtraction() public view returns (uint256) {... */\n      swap1\n      jump\t// out\n        /* \"contract/simplestorage.sol\":596:696  function addition() public view returns (uint256) {... */\n    tag_58:\n        /* \"contract/simplestorage.sol\":637:644  uint256 */\n      0x00\n        /* \"contract/simplestorage.sol\":677:689  secondNumber */\n      sload(0x01)\n        /* \"contract/simplestorage.sol\":663:674  firstNumber */\n      sload(0x00)\n        /* \"contract/simplestorage.sol\":663:689  firstNumber + secondNumber */\n      tag_87\n      swap2\n      swap1\n      tag_88\n      jump\t// in\n    tag_87:\n        /* \"contract/simplestorage.sol\":656:689  return firstNumber + secondNumber */\n      swap1\n      pop\n        /* \"contract/simplestorage.sol\":596:696  function addition() public view returns (uint256) {... */\n      swap1\n      jump\t// out\n        /* \"#utility.yul\":7:84   */\n    tag_89:\n        /* \"#utility.yul\":44:51   */\n      0x00\n        /* \"#utility.yul\":73:78   */\n      dup2\n        /* \"#utility.yul\":62:78   */\n      swap1\n      pop\n        /* \"#utility.yul\":7:84   */\n      swap2\n      swap1\n      pop\n      jump\t// out\n        /* \"#utility.yul\":90:208   */\n    tag_90:\n        /* \"#utility.yul\":177:201   */\n      tag_133\n        /* \"#utility.yul\":195:200   */\n      dup2\n        /* \"#utility.yul\":177:201   */\n      tag_89\n      jump\t// in\n    tag_133:\n        /* \"#utility.yul\":172:175   */\n      dup3\n        /* \"#utility.yul\":165:202   */\n      mstore\n        /* \"#utility.yul\":90:208   */\n      pop\n      pop\n      jump\t// out\n        /* \"#utility.yul\":214:436   */\n    tag_19:\n        /* \"#utility.yul\":307:311   */\n      0x00\n        /* \"#utility.yul\":345:347   */\n      0x20\n        /* \"#utility.yul\":334:343   */\n      dup3\n        /* \"#utility.yul\":330:348   */\n      add\n        /* \"#utility.yul\":322:348   */\n      swap1\n      pop\n        /* \"#utility.yul\":358:429   */\n      tag_135\n        /* \"#utility.yul\":426:427   */\n      0x00\n        /* \"#utility.yul\":415:424   */\n      dup4\n        /* \"#utility.yul\":411:428   */\n      add\n        /* \"#utility.yul\":402:408   */\n      dup5\n        /* \"#utility.yul\":358:429   */\n      tag_90\n      jump\t// in\n    tag_135:\n        /* \"#utility.yul\":214:436   */\n      swap3\n      swap2\n      pop\n      pop\n      jump\t// out\n        /* \"#utility.yul\":442:517   */\n    tag_91:\n        /* \"#utility.yul\":475:481   */\n      0x00\n        /* \"#utility.yul\":508:510   */\n      0x40\n        /* \"#utility.yul\":502:511   */\n      mload\n        /* \"#utility.yul\":492:511   */\n      swap1\n      pop\n        /* \"#utility.yul\":442:517   */\n      swap1\n      jump\t// out\n        /* \"#utility.yul\":523:640   */\n    tag_92:\n        /* \"#utility.yul\":632:633   */\n      0x00\n        /* \"#utility.yul\":629:630   */\n      0x00\n        /* \"#utility.yul\":622:634   */\n      revert\n        /* \"#utility.yul\":646:763   */\n    tag_93:\n        /* \"#utility.yul\":755:756   */\n      0x00\n        /* \"#utility.yul\":752:753   */\n      0x00\n        /* \"#utility.yul\":745:757   */\n      revert\n        /* \"#utility.yul\":769:891   */\n    tag_94:\n        /* \"#utility.yul\":842:866   */\n      tag_140\n        /* \"#utility.yul\":860:865   */\n      dup2\n        /* \"#utility.yul\":842:866   */\n      tag_89\n      jump\t// in\n    tag_140:\n        /* \"#utility.yul\":835:840   */\n      dup2\n        /* \"#utility.yul\":832:867   */\n      eq\n        /* \"#utility.yul\":822:885   */\n      tag_141\n      jumpi\n        /* \"#utility.yul\":881:882   */\n      0x00\n        /* \"#utility.yul\":878:879   */\n      0x00\n        /* \"#utility.yul\":871:883   */\n      revert\n        /* \"#utility.yul\":822:885   */\n    tag_141:\n        /* \"#utility.yul\":769:891   */\n      pop\n      jump\t// out\n        /* \"#utility.yul\":897:1036   */\n    tag_95:\n        /* \"#utility.yul\":943:948   */\n      0x00\n        /* \"#utility.yul\":981:987   */\n      dup2\n        /* \"#utility.yul\":968:988   */\n      calldataload\n        /* \"#utility.yul\":959:988   */\n      swap1\n      pop\n        /* \"#utility.yul\":997:1030   */\n      tag_143\n        /* \"#utility.yul\":1024:1029   */\n      dup2\n        /* \"#utility.yul\":997:1030   */\n      tag_94\n      jump\t// in\n    tag_143:\n        /* \"#utility.yul\":897:1036   */\n      swap3\n      swap2\n      pop\n      pop\n      jump\t// out\n        /* \"#utility.yul\":1042:1371   */\n    tag_28:\n        /* \"#utility.yul\":1101:1107   */\n      0x00\n        /* \"#utility.yul\":1150:1152   */\n      0x20\n        /* \"#utility.yul\":1138:1147   */\n      dup3\n        /* \"#utility.yul\":1129:1136   */\n      dup5\n        /* \"#utility.yul\":1125:1148   */\n      sub\n        /* \"#utility.yul\":1121:1153   */\n      slt\n        /* \"#utility.yul\":1118:1237   */\n      iszero\n      tag_145\n      jumpi\n        /* \"#utility.yul\":1156:1235   */\n      tag_146\n      tag_92\n      jump\t// in\n    tag_146:\n        /* \"#utility.yul\":1118:1237   */\n    tag_145:\n        /* \"#utility.yul\":1276:1277   */\n      0x00\n        /* \"#utility.yul\":1301:1354   */\n      tag_147\n        /* \"#utility.yul\":1346:1353   */\n      dup5\n        /* \"#utility.yul\":1337:1343   */\n      dup3\n        /* \"#utility.yul\":1326:1335   */\n      dup6\n        /* \"#utility.yul\":1322:1344   */\n      add\n        /* \"#utility.yul\":1301:1354   */\n      tag_95\n      jump\t// in\n    tag_147:\n        /* \"#utility.yul\":1291:1354   */\n      swap2\n      pop\n        /* \"#utility.yul\":1247:1364   */\n      pop\n        /* \"#utility.yul\":1042:1371   */\n      swap3\n      swap2\n      pop\n      pop\n      jump\t// out\n        /* \"#utility.yul\":1377:1494   */\n    tag_96:\n        /* \"#utility.yul\":1486:1487   */\n      0x00\n        /* \"#utility.yul\":1483:1484   */\n      0x00\n        /* \"#utility.yul\":1476:1488   */\n      revert\n        /* \"#utility.yul\":1500:1617   */\n    tag_97:\n        /* \"#utility.yul\":1609:1610   */\n      0x00\n        /* \"#utility.yul\":1606:1607   */\n      0x00\n        /* \"#utility.yul\":1599:1611   */\n      revert\n        /* \"#utility.yul\":1623:1725   */\n    tag_98:\n        /* \"#utility.yul\":1664:1670   */\n      0x00\n        /* \"#utility.yul\":1715:1717   */\n      0x1f\n        /* \"#utility.yul\":1711:1718   */\n      not\n        /* \"#utility.yul\":1706:1708   */\n      0x1f\n        /* \"#utility.yul\":1699:1704   */\n      dup4\n        /* \"#utility.yul\":1695:1709   */\n      add\n        /* \"#utility.yul\":1691:1719   */\n      and\n        /* \"#utility.yul\":1681:1719   */\n      swap1\n      pop\n        /* \"#utility.yul\":1623:1725   */\n      swap2\n      swap1\n      pop\n      jump\t// out\n        /* \"#utility.yul\":1731:1911   */\n    tag_99:\n        /* \"#utility.yul\":1779:1856   */\n      0x4e487b7100000000000000000000000000000000000000000000000000000000\n        /* \"#utility.yul\":1776:1777   */\n      0x00\n        /* \"#utility.yul\":1769:1857   */\n      mstore\n        /* \"#utility.yul\":1876:1880   */\n      0x41\n        /* \"#utility.yul\":1873:1874   */\n      0x04\n        /* \"#utility.yul\":1866:1881   */\n      mstore\n        /* \"#utility.yul\":1900:1904   */\n      0x24\n        /* \"#utility.yul\":1897:1898   */\n      0x00\n        /* \"#utility.yul\":1890:1905   */\n      revert\n        /* \"#utility.yul\":1917:2198   */\n    tag_100:\n        /* \"#utility.yul\":2000:2027   */\n      tag_153\n        /* \"#utility.yul\":2022:2026   */\n      dup3\n        /* \"#utility.yul\":2000:2027   */\n      tag_98\n      jump\t// in\n    tag_153:\n        /* \"#utility.yul\":1992:1998   */\n      dup2\n        /* \"#utility.yul\":1988:2028   */\n      add\n        /* \"#utility.yul\":2130:2136   */\n      dup2\n        /* \"#utility.yul\":2118:2128   */\n      dup2\n        /* \"#utility.yul\":2115:2137   */\n      lt\n        /* \"#utility.yul\":2094:2112   */\n      0xffffffffffffffff\n        /* \"#utility.yul\":2082:2092   */\n      dup3\n        /* \"#utility.yul\":2079:2113   */\n      gt\n        /* \"#utility.yul\":2076:2138   */\n      or\n        /* \"#utility.yul\":2073:2161   */\n      iszero\n      tag_154\n      jumpi\n        /* \"#utility.yul\":2141:2159   */\n      tag_155\n      tag_99\n      jump\t// in\n    tag_155:\n        /* \"#utility.yul\":2073:2161   */\n    tag_154:\n        /* \"#utility.yul\":2181:2191   */\n      dup1\n        /* \"#utility.yul\":2177:2179   */\n      0x40\n        /* \"#utility.yul\":2170:2192   */\n      mstore\n        /* \"#utility.yul\":1960:2198   */\n      pop\n        /* \"#utility.yul\":1917:2198   */\n      pop\n      pop\n      jump\t// out\n        /* \"#utility.yul\":2204:2333   */\n    tag_101:\n        /* \"#utility.yul\":2238:2244   */\n      0x00\n        /* \"#utility.yul\":2265:2285   */\n      tag_157\n      tag_91\n      jump\t// in\n    tag_157:\n        /* \"#utility.yul\":2255:2285   */\n      swap1\n      pop\n        /* \"#utility.yul\":2294:2327   */\n      tag_158\n        /* \"#utility.yul\":2322:2326   */\n      dup3\n        /* \"#utility.yul\":2314:2320   */\n      dup3\n        /* \"#utility.yul\":2294:2327   */\n      tag_100\n      jump\t// in\n    tag_158:\n        /* \"#utility.yul\":2204:2333   */\n      swap2\n      swap1\n      pop\n      jump\t// out\n        /* \"#utility.yul\":2339:2647   */\n    tag_102:\n        /* \"#utility.yul\":2401:2405   */\n      0x00\n        /* \"#utility.yul\":2491:2509   */\n      0xffffffffffffffff\n        /* \"#utility.yul\":2483:2489   */\n      dup3\n        /* \"#utility.yul\":2480:2510   */\n      gt\n        /* \"#utility.yul\":2477:2533   */\n      iszero\n      tag_160\n      jumpi\n        /* \"#utility.yul\":2513:2531   */\n      tag_161\n      tag_99\n      jump\t// in\n    tag_161:\n        /* \"#utility.yul\":2477:2533   */\n    tag_160:\n        /* \"#utility.yul\":2551:2580   */\n      tag_162\n        /* \"#utility.yul\":2573:2579   */\n      dup3\n        /* \"#utility.yul\":2551:2580   */\n      tag_98\n      jump\t// in\n    tag_162:\n        /* \"#utility.yul\":2543:2580   */\n      swap1\n      pop\n        /* \"#utility.yul\":2635:2639   */\n      0x20\n        /* \"#utility.yul\":2629:2633   */\n      dup2\n        /* \"#utility.yul\":2625:2640   */\n      add\n        /* \"#utility.yul\":2617:2640   */\n      swap1\n      pop\n        /* \"#utility.yul\":2339:2647   */\n      swap2\n      swap1\n      pop\n      jump\t// out\n        /* \"#utility.yul\":2653:2801   */\n    tag_103:\n        /* \"#utility.yul\":2751:2757   */\n      dup3\n        /* \"#utility.yul\":2746:2749   */\n      dup2\n        /* \"#utility.yul\":2741:2744   */\n      dup4\n        /* \"#utility.yul\":2728:2758   */\n      calldatacopy\n        /* \"#utility.yul\":2792:2793   */\n      0x00\n        /* \"#utility.yul\":2783:2789   */\n      dup4\n        /* \"#utility.yul\":2778:2781   */\n      dup4\n        /* \"#utility.yul\":2774:2790   */\n      add\n        /* \"#utility.yul\":2767:2794   */\n      mstore\n        /* \"#utility.yul\":2653:2801   */\n      pop\n      pop\n      pop\n      jump\t// out\n        /* \"#utility.yul\":2807:3232   */\n    tag_104:\n        /* \"#utility.yul\":2885:2890   */\n      0x00\n        /* \"#utility.yul\":2910:2976   */\n      tag_165\n        /* \"#utility.yul\":2926:2975   */\n      tag_166\n        /* \"#utility.yul\":2968:2974   */\n      dup5\n        /* \"#utility.yul\":2926:2975   */\n      tag_102\n      jump\t// in\n    tag_166:\n        /* \"#utility.yul\":2910:2976   */\n      tag_101\n      jump\t// in\n    tag_165:\n        /* \"#utility.yul\":2901:2976   */\n      swap1\n      pop\n        /* \"#utility.yul\":2999:3005   */\n      dup3\n        /* \"#utility.yul\":2992:2997   */\n      dup2\n        /* \"#utility.yul\":2985:3006   */\n      mstore\n        /* \"#utility.yul\":3037:3041   */\n      0x20\n        /* \"#utility.yul\":3030:3035   */\n      dup2\n        /* \"#utility.yul\":3026:3042   */\n      add\n        /* \"#utility.yul\":3075:3078   */\n      dup5\n        /* \"#utility.yul\":3066:3072   */\n      dup5\n        /* \"#utility.yul\":3061:3064   */\n      dup5\n        /* \"#utility.yul\":3057:3073   */\n      add\n        /* \"#utility.yul\":3054:3079   */\n      gt\n        /* \"#utility.yul\":3051:3163   */\n      iszero\n      tag_167\n      jumpi\n        /* \"#utility.yul\":3082:3161   */\n      tag_168\n      tag_97\n      jump\t// in\n    tag_168:\n        /* \"#utility.yul\":3051:3163   */\n    tag_167:\n        /* \"#utility.yul\":3172:3226   */\n      tag_169\n        /* \"#utility.yul\":3219:3225   */\n      dup5\n        /* \"#utility.yul\":3214:3217   */\n      dup3\n        /* \"#utility.yul\":3209:3212   */\n      dup6\n        /* \"#utility.yul\":3172:3226   */\n      tag_103\n      jump\t// in\n    tag_169:\n        /* \"#utility.yul\":2891:3232   */\n      pop\n        /* \"#utility.yul\":2807:3232   */\n      swap4\n      swap3\n      pop\n      pop\n      pop\n      jump\t// out\n        /* \"#utility.yul\":3252:3592   */\n    tag_105:\n        /* \"#utility.yul\":3308:3313   */\n      0x00\n        /* \"#utility.yul\":3357:3360   */\n      dup3\n        /* \"#utility.yul\":3350:3354   */\n      0x1f\n        /* \"#utility.yul\":3342:3348   */\n      dup4\n        /* \"#utility.yul\":3338:3355   */\n      add\n        /* \"#utility.yul\":3334:3361   */\n      slt\n        /* \"#utility.yul\":3324:3446   */\n      tag_171\n      jumpi\n        /* \"#utility.yul\":3365:3444   */\n      tag_172\n      tag_96\n      jump\t// in\n    tag_172:\n        /* \"#utility.yul\":3324:3446   */\n    tag_171:\n        /* \"#utility.yul\":3482:3488   */\n      dup2\n        /* \"#utility.yul\":3469:3489   */\n      calldataload\n        /* \"#utility.yul\":3507:3586   */\n      tag_173\n        /* \"#utility.yul\":3582:3585   */\n      dup5\n        /* \"#utility.yul\":3574:3580   */\n      dup3\n        /* \"#utility.yul\":3567:3571   */\n      0x20\n        /* \"#utility.yul\":3559:3565   */\n      dup7\n        /* \"#utility.yul\":3555:3572   */\n      add\n        /* \"#utility.yul\":3507:3586   */\n      tag_104\n      jump\t// in\n    tag_173:\n        /* \"#utility.yul\":3498:3586   */\n      swap2\n      pop\n        /* \"#utility.yul\":3314:3592   */\n      pop\n        /* \"#utility.yul\":3252:3592   */\n      swap3\n      swap2\n      pop\n      pop\n      jump\t// out\n        /* \"#utility.yul\":3598:4107   */\n    tag_35:\n        /* \"#utility.yul\":3667:3673   */\n      0x00\n        /* \"#utility.yul\":3716:3718   */\n      0x20\n        /* \"#utility.yul\":3704:3713   */\n      dup3\n        /* \"#utility.yul\":3695:3702   */\n      dup5\n        /* \"#utility.yul\":3691:3714   */\n      sub\n        /* \"#utility.yul\":3687:3719   */\n      slt\n        /* \"#utility.yul\":3684:3803   */\n      iszero\n      tag_175\n      jumpi\n        /* \"#utility.yul\":3722:3801   */\n      tag_176\n      tag_92\n      jump\t// in\n    tag_176:\n        /* \"#utility.yul\":3684:3803   */\n    tag_175:\n        /* \"#utility.yul\":3870:3871   */\n      0x00\n        /* \"#utility.yul\":3859:3868   */\n      dup3\n        /* \"#utility.yul\":3855:3872   */\n      add\n        /* \"#utility.yul\":3842:3873   */\n      calldataload\n        /* \"#utility.yul\":3900:3918   */\n      0xffffffffffffffff\n        /* \"#utility.yul\":3892:3898   */\n      dup2\n        /* \"#utility.yul\":3889:3919   */\n      gt\n        /* \"#utility.yul\":3886:4003   */\n      iszero\n      tag_177\n      jumpi\n        /* \"#utility.yul\":3922:4001   */\n      tag_178\n      tag_93\n      jump\t// in\n    tag_178:\n        /* \"#utility.yul\":3886:4003   */\n    tag_177:\n        /* \"#utility.yul\":4027:4090   */\n      tag_179\n        /* \"#utility.yul\":4082:4089   */\n      dup5\n        /* \"#utility.yul\":4073:4079   */\n      dup3\n        /* \"#utility.yul\":4062:4071   */\n      dup6\n        /* \"#utility.yul\":4058:4080   */\n      add\n        /* \"#utility.yul\":4027:4090   */\n      tag_105\n      jump\t// in\n    tag_179:\n        /* \"#utility.yul\":4017:4090   */\n      swap2\n      pop\n        /* \"#utility.yul\":3813:4100   */\n      pop\n        /* \"#utility.yul\":3598:4107   */\n      swap3\n      swap2\n      pop\n      pop\n      jump\t// out\n        /* \"#utility.yul\":4113:4212   */\n    tag_106:\n        /* \"#utility.yul\":4165:4171   */\n      0x00\n        /* \"#utility.yul\":4199:4204   */\n      dup2\n        /* \"#utility.yul\":4193:4205   */\n      mload\n        /* \"#utility.yul\":4183:4205   */\n      swap1\n      pop\n        /* \"#utility.yul\":4113:4212   */\n      swap2\n      swap1\n      pop\n      jump\t// out\n        /* \"#utility.yul\":4218:4387   */\n    tag_107:\n        /* \"#utility.yul\":4302:4313   */\n      0x00\n        /* \"#utility.yul\":4336:4342   */\n      dup3\n        /* \"#utility.yul\":4331:4334   */\n      dup3\n        /* \"#utility.yul\":4324:4343   */\n      mstore\n        /* \"#utility.yul\":4376:4380   */\n      0x20\n        /* \"#utility.yul\":4371:4374   */\n      dup3\n        /* \"#utility.yul\":4367:4381   */\n      add\n        /* \"#utility.yul\":4352:4381   */\n      swap1\n      pop\n        /* \"#utility.yul\":4218:4387   */\n      swap3\n      swap2\n      pop\n      pop\n      jump\t// out\n        /* \"#utility.yul\":4393:4532   */\n    tag_108:\n        /* \"#utility.yul\":4482:4488   */\n      dup3\n        /* \"#utility.yul\":4477:4480   */\n      dup2\n        /* \"#utility.yul\":4472:4475   */\n      dup4\n        /* \"#utility.yul\":4466:4489   */\n      mcopy\n        /* \"#utility.yul\":4523:4524   */\n      0x00\n        /* \"#utility.yul\":4514:4520   */\n      dup4\n        /* \"#utility.yul\":4509:4512   */\n      dup4\n        /* \"#utility.yul\":4505:4521   */\n      add\n        /* \"#utility.yul\":4498:4525   */\n      mstore\n        /* \"#utility.yul\":4393:4532   */\n      pop\n      pop\n      pop\n      jump\t// out\n        /* \"#utility.yul\":4538:4915   */\n    tag_109:\n        /* \"#utility.yul\":4626:4629   */\n      0x00\n        /* \"#utility.yul\":4654:4693   */\n      tag_184\n        /* \"#utility.yul\":4687:4692   */\n      dup3\n        /* \"#utility.yul\":4654:4693   */\n      tag_106\n      jump\t// in\n    tag_184:\n        /* \"#utility.yul\":4709:4780   */\n      tag_185\n        /* \"#utility.yul\":4773:4779   */\n      dup2\n        /* \"#utility.yul\":4768:4771   */\n      dup6\n        /* \"#utility.yul\":4709:4780   */\n      tag_107\n      jump\t// in\n    tag_185:\n        /* \"#utility.yul\":4702:4780   */\n      swap4\n      pop\n        /* \"#utility.yul\":4789:4854   */\n      tag_186\n        /* \"#utility.yul\":4847:4853   */\n      dup2\n        /* \"#utility.yul\":4842:4845   */\n      dup6\n        /* \"#utility.yul\":4835:4839   */\n      0x20\n        /* \"#utility.yul\":4828:4833   */\n      dup7\n        /* \"#utility.yul\":4824:4840   */\n      add\n        /* \"#utility.yul\":4789:4854   */\n      tag_108\n      jump\t// in\n    tag_186:\n        /* \"#utility.yul\":4879:4908   */\n      tag_187\n        /* \"#utility.yul\":4901:4907   */\n      dup2\n        /* \"#utility.yul\":4879:4908   */\n      tag_98\n      jump\t// in\n    tag_187:\n        /* \"#utility.yul\":4874:4877   */\n      dup5\n        /* \"#utility.yul\":4870:4909   */\n      add\n        /* \"#utility.yul\":4863:4909   */\n      swap2\n      pop\n        /* \"#utility.yul\":4630:4915   */\n      pop\n        /* \"#utility.yul\":4538:4915   */\n      swap3\n      swap2\n      pop\n      pop\n      jump\t// out\n        /* \"#utility.yul\":4921:5454   */\n    tag_46:\n        /* \"#utility.yul\":5090:5094   */\n      0x00\n        /* \"#utility.yul\":5128:5130   */\n      0x60\n        /* \"#utility.yul\":5117:5126   */\n      dup3\n        /* \"#utility.yul\":5113:5131   */\n      add\n        /* \"#utility.yul\":5105:5131   */\n      swap1\n      pop\n        /* \"#utility.yul\":5177:5186   */\n      dup2\n        /* \"#utility.yul\":5171:5175   */\n      dup2\n        /* \"#utility.yul\":5167:5187   */\n      sub\n        /* \"#utility.yul\":5163:5164   */\n      0x00\n        /* \"#utility.yul\":5152:5161   */\n      dup4\n        /* \"#utility.yul\":5148:5165   */\n      add\n        /* \"#utility.yul\":5141:5188   */\n      mstore\n        /* \"#utility.yul\":5205:5283   */\n      tag_189\n        /* \"#utility.yul\":5278:5282   */\n      dup2\n        /* \"#utility.yul\":5269:5275   */\n      dup7\n        /* \"#utility.yul\":5205:5283   */\n      tag_109\n      jump\t// in\n    tag_189:\n        /* \"#utility.yul\":5197:5283   */\n      swap1\n      pop\n        /* \"#utility.yul\":5293:5365   */\n      tag_190\n        /* \"#utility.yul\":5361:5363   */\n      0x20\n        /* \"#utility.yul\":5350:5359   */\n      dup4\n        /* \"#utility.yul\":5346:5364   */\n      add\n        /* \"#utility.yul\":5337:5343   */\n      dup6\n        /* \"#utility.yul\":5293:5365   */\n      tag_90\n      jump\t// in\n    tag_190:\n        /* \"#utility.yul\":5375:5447   */\n      tag_191\n        /* \"#utility.yul\":5443:5445   */\n      0x40\n        /* \"#utility.yul\":5432:5441   */\n      dup4\n        /* \"#utility.yul\":5428:5446   */\n      add\n        /* \"#utility.yul\":5419:5425   */\n      dup5\n        /* \"#utility.yul\":5375:5447   */\n      tag_90\n      jump\t// in\n    tag_191:\n        /* \"#utility.yul\":4921:5454   */\n      swap5\n      swap4\n      pop\n      pop\n      pop\n      pop\n      jump\t// out\n        /* \"#utility.yul\":5460:6259   */\n    tag_49:\n        /* \"#utility.yul\":5547:5553   */\n      0x00\n        /* \"#utility.yul\":5555:5561   */\n      0x00\n        /* \"#utility.yul\":5563:5569   */\n      0x00\n        /* \"#utility.yul\":5612:5614   */\n      0x60\n        /* \"#utility.yul\":5600:5609   */\n      dup5\n        /* \"#utility.yul\":5591:5598   */\n      dup7\n        /* \"#utility.yul\":5587:5610   */\n      sub\n        /* \"#utility.yul\":5583:5615   */\n      slt\n        /* \"#utility.yul\":5580:5699   */\n      iszero\n      tag_193\n      jumpi\n        /* \"#utility.yul\":5618:5697   */\n      tag_194\n      tag_92\n      jump\t// in\n    tag_194:\n        /* \"#utility.yul\":5580:5699   */\n    tag_193:\n        /* \"#utility.yul\":5766:5767   */\n      0x00\n        /* \"#utility.yul\":5755:5764   */\n      dup5\n        /* \"#utility.yul\":5751:5768   */\n      add\n        /* \"#utility.yul\":5738:5769   */\n      calldataload\n        /* \"#utility.yul\":5796:5814   */\n      0xffffffffffffffff\n        /* \"#utility.yul\":5788:5794   */\n      dup2\n        /* \"#utility.yul\":5785:5815   */\n      gt\n        /* \"#utility.yul\":5782:5899   */\n      iszero\n      tag_195\n      jumpi\n        /* \"#utility.yul\":5818:5897   */\n      tag_196\n      tag_93\n      jump\t// in\n    tag_196:\n        /* \"#utility.yul\":5782:5899   */\n    tag_195:\n        /* \"#utility.yul\":5923:5986   */\n      tag_197\n        /* \"#utility.yul\":5978:5985   */\n      dup7\n        /* \"#utility.yul\":5969:5975   */\n      dup3\n        /* \"#utility.yul\":5958:5967   */\n      dup8\n        /* \"#utility.yul\":5954:5976   */\n      add\n        /* \"#utility.yul\":5923:5986   */\n      tag_105\n      jump\t// in\n    tag_197:\n        /* \"#utility.yul\":5913:5986   */\n      swap4\n      pop\n        /* \"#utility.yul\":5709:5996   */\n      pop\n        /* \"#utility.yul\":6035:6037   */\n      0x20\n        /* \"#utility.yul\":6061:6114   */\n      tag_198\n        /* \"#utility.yul\":6106:6113   */\n      dup7\n        /* \"#utility.yul\":6097:6103   */\n      dup3\n        /* \"#utility.yul\":6086:6095   */\n      dup8\n        /* \"#utility.yul\":6082:6104   */\n      add\n        /* \"#utility.yul\":6061:6114   */\n      tag_95\n      jump\t// in\n    tag_198:\n        /* \"#utility.yul\":6051:6114   */\n      swap3\n      pop\n        /* \"#utility.yul\":6006:6124   */\n      pop\n        /* \"#utility.yul\":6163:6165   */\n      0x40\n        /* \"#utility.yul\":6189:6242   */\n      tag_199\n        /* \"#utility.yul\":6234:6241   */\n      dup7\n        /* \"#utility.yul\":6225:6231   */\n      dup3\n        /* \"#utility.yul\":6214:6223   */\n      dup8\n        /* \"#utility.yul\":6210:6232   */\n      add\n        /* \"#utility.yul\":6189:6242   */\n      tag_95\n      jump\t// in\n    tag_199:\n        /* \"#utility.yul\":6179:6242   */\n      swap2\n      pop\n        /* \"#utility.yul\":6134:6252   */\n      pop\n        /* \"#utility.yul\":5460:6259   */\n      swap3\n      pop\n      swap3\n      pop\n      swap3\n      jump\t// out\n        /* \"#utility.yul\":6265:6445   */\n    tag_110:\n        /* \"#utility.yul\":6313:6390   */\n      0x4e487b7100000000000000000000000000000000000000000000000000000000\n        /* \"#utility.yul\":6310:6311   */\n      0x00\n        /* \"#utility.yul\":6303:6391   */\n      mstore\n        /* \"#utility.yul\":6410:6414   */\n      0x11\n        /* \"#utility.yul\":6407:6408   */\n      0x04\n        /* \"#utility.yul\":6400:6415   */\n      mstore\n        /* \"#utility.yul\":6434:6438   */\n      0x24\n        /* \"#utility.yul\":6431:6432   */\n      0x00\n        /* \"#utility.yul\":6424:6439   */\n      revert\n        /* \"#utility.yul\":6451:6861   */\n    tag_62:\n        /* \"#utility.yul\":6491:6498   */\n      0x00\n        /* \"#utility.yul\":6514:6534   */\n      tag_202\n        /* \"#utility.yul\":6532:6533   */\n      dup3\n        /* \"#utility.yul\":6514:6534   */\n      tag_89\n      jump\t// in\n    tag_202:\n        /* \"#utility.yul\":6509:6534   */\n      swap2\n      pop\n        /* \"#utility.yul\":6548:6568   */\n      tag_203\n        /* \"#utility.yul\":6566:6567   */\n      dup4\n        /* \"#utility.yul\":6548:6568   */\n      tag_89\n      jump\t// in\n    tag_203:\n        /* \"#utility.yul\":6543:6568   */\n      swap3\n      pop\n        /* \"#utility.yul\":6603:6604   */\n      dup3\n        /* \"#utility.yul\":6600:6601   */\n      dup3\n        /* \"#utility.yul\":6596:6605   */\n      mul\n        /* \"#utility.yul\":6625:6655   */\n      tag_204\n        /* \"#utility.yul\":6643:6654   */\n      dup2\n        /* \"#utility.yul\":6625:6655   */\n      tag_89\n      jump\t// in\n    tag_204:\n        /* \"#utility.yul\":6614:6655   */\n      swap2\n      pop\n        /* \"#utility.yul\":6804:6805   */\n      dup3\n        /* \"#utility.yul\":6795:6802   */\n      dup3\n        /* \"#utility.yul\":6791:6806   */\n      div\n        /* \"#utility.yul\":6788:6789   */\n      dup5\n        /* \"#utility.yul\":6785:6807   */\n      eq\n        /* \"#utility.yul\":6765:6766   */\n      dup4\n        /* \"#utility.yul\":6758:6767   */\n      iszero\n        /* \"#utility.yul\":6738:6821   */\n      or\n        /* \"#utility.yul\":6715:6854   */\n      tag_205\n      jumpi\n        /* \"#utility.yul\":6834:6852   */\n      tag_206\n      tag_110\n      jump\t// in\n    tag_206:\n        /* \"#utility.yul\":6715:6854   */\n    tag_205:\n        /* \"#utility.yul\":6499:6861   */\n      pop\n        /* \"#utility.yul\":6451:6861   */\n      swap3\n      swap2\n      pop\n      pop\n      jump\t// out\n        /* \"#utility.yul\":6867:7047   */\n    tag_111:\n        /* \"#utility.yul\":6915:6992   */\n      0x4e487b7100000000000000000000000000000000000000000000000000000000\n        /* \"#utility.yul\":6912:6913   */\n      0x00\n        /* \"#utility.yul\":6905:6993   */\n      mstore\n        /* \"#utility.yul\":7012:7016   */\n      0x12\n        /* \"#utility.yul\":7009:7010   */\n      0x04\n        /* \"#utility.yul\":7002:7017   */\n      mstore\n        /* \"#utility.yul\":7036:7040   */\n      0x24\n        /* \"#utility.yul\":7033:7034   */\n      0x00\n        /* \"#utility.yul\":7026:7041   */\n      revert\n        /* \"#utility.yul\":7053:7238   */\n    tag_65:\n        /* \"#utility.yul\":7093:7094   */\n      0x00\n        /* \"#utility.yul\":7110:7130   */\n      tag_209\n        /* \"#utility.yul\":7128:7129   */\n      dup3\n        /* \"#utility.yul\":7110:7130   */\n      tag_89\n      jump\t// in\n    tag_209:\n        /* \"#utility.yul\":7105:7130   */\n      swap2\n      pop\n        /* \"#utility.yul\":7144:7164   */\n      tag_210\n        /* \"#utility.yul\":7162:7163   */\n      dup4\n        /* \"#utility.yul\":7144:7164   */\n      tag_89\n      jump\t// in\n    tag_210:\n        /* \"#utility.yul\":7139:7164   */\n      swap3\n      pop\n        /* \"#utility.yul\":7183:7184   */\n      dup3\n        /* \"#utility.yul\":7173:7208   */\n      tag_211\n      jumpi\n        /* \"#utility.yul\":7188:7206   */\n      tag_212\n      tag_111\n      jump\t// in\n    tag_212:\n        /* \"#utility.yul\":7173:7208   */\n    tag_211:\n        /* \"#utility.yul\":7230:7231   */\n      dup3\n        /* \"#utility.yul\":7227:7228   */\n      dup3\n        /* \"#utility.yul\":7223:7232   */\n      div\n        /* \"#utility.yul\":7218:7232   */\n      swap1\n      pop\n        /* \"#utility.yul\":7053:7238   */\n      swap3\n      swap2\n      pop\n      pop\n      jump\t// out\n        /* \"#utility.yul\":7244:7424   */\n    tag_112:\n        /* \"#utility.yul\":7292:7369   */\n      0x4e487b7100000000000000000000000000000000000000000000000000000000\n        /* \"#utility.yul\":7289:7290   */\n      0x00\n        /* \"#utility.yul\":7282:7370   */\n      mstore\n        /* \"#utility.yul\":7389:7393   */\n      0x22\n        /* \"#utility.yul\":7386:7387   */\n      0x04\n        /* \"#utility.yul\":7379:7394   */\n      mstore\n        /* \"#utility.yul\":7413:7417   */\n      0x24\n        /* \"#utility.yul\":7410:7411   */\n      0x00\n        /* \"#utility.yul\":7403:7418   */\n      revert\n        /* \"#utility.yul\":7430:7750   */\n    tag_70:\n        /* \"#utility.yul\":7474:7480   */\n      0x00\n        /* \"#utility.yul\":7511:7512   */\n      0x02\n        /* \"#utility.yul\":7505:7509   */\n      dup3\n        /* \"#utility.yul\":7501:7513   */\n      div\n        /* \"#utility.yul\":7491:7513   */\n      swap1\n      pop\n        /* \"#utility.yul\":7558:7559   */\n      0x01\n        /* \"#utility.yul\":7552:7556   */\n      dup3\n        /* \"#utility.yul\":7548:7560   */\n      and\n        /* \"#utility.yul\":7579:7597   */\n      dup1\n        /* \"#utility.yul\":7569:7650   */\n      tag_215\n      jumpi\n        /* \"#utility.yul\":7635:7639   */\n      0x7f\n        /* \"#utility.yul\":7627:7633   */\n      dup3\n        /* \"#utility.yul\":7623:7640   */\n      and\n        /* \"#utility.yul\":7613:7640   */\n      swap2\n      pop\n        /* \"#utility.yul\":7569:7650   */\n    tag_215:\n        /* \"#utility.yul\":7697:7699   */\n      0x20\n        /* \"#utility.yul\":7689:7695   */\n      dup3\n        /* \"#utility.yul\":7686:7700   */\n      lt\n        /* \"#utility.yul\":7666:7684   */\n      dup2\n        /* \"#utility.yul\":7663:7701   */\n      sub\n        /* \"#utility.yul\":7660:7744   */\n      tag_216\n      jumpi\n        /* \"#utility.yul\":7716:7734   */\n      tag_217\n      tag_112\n      jump\t// in\n    tag_217:\n        /* \"#utility.yul\":7660:7744   */\n    tag_216:\n        /* \"#utility.yul\":7481:7750   */\n      pop\n        /* \"#utility.yul\":7430:7750   */\n      swap2\n      swap1\n      pop\n      jump\t// out\n        /* \"#utility.yul\":7756:7897   */\n    tag_113:\n        /* \"#utility.yul\":7805:7809   */\n      0x00\n        /* \"#utility.yul\":7828:7831   */\n      dup2\n        /* \"#utility.yul\":7820:7831   */\n      swap1\n      pop\n        /* \"#utility.yul\":7851:7854   */\n      dup2\n        /* \"#utility.yul\":7848:7849   */\n      0x00\n        /* \"#utility.yul\":7841:7855   */\n      mstore\n        /* \"#utility.yul\":7885:7889   */\n      0x20\n        /* \"#utility.yul\":7882:7883   */\n      0x00\n        /* \"#utility.yul\":7872:7890   */\n      keccak256\n        /* \"#utility.yul\":7864:7890   */\n      swap1\n      pop\n        /* \"#utility.yul\":7756:7897   */\n      swap2\n      swap1\n      pop\n      jump\t// out\n        /* \"#utility.yul\":7903:7996   */\n    tag_114:\n        /* \"#utility.yul\":7940:7946   */\n      0x00\n        /* \"#utility.yul\":7987:7989   */\n      0x20\n        /* \"#utility.yul\":7982:7984   */\n      0x1f\n        /* \"#utility.yul\":7975:7980   */\n      dup4\n        /* \"#utility.yul\":7971:7985   */\n      add\n        /* \"#utility.yul\":7967:7990   */\n      div\n        /* \"#utility.yul\":7957:7990   */\n      swap1\n      pop\n        /* \"#utility.yul\":7903:7996   */\n      swap2\n      swap1\n      pop\n      jump\t// out\n        /* \"#utility.yul\":8002:8109   */\n    tag_115:\n        /* \"#utility.yul\":8046:8054   */\n      0x00\n        /* \"#utility.yul\":8096:8101   */\n      dup3\n        /* \"#utility.yul\":8090:8094   */\n      dup3\n        /* \"#utility.yul\":8086:8102   */\n      shl\n        /* \"#utility.yul\":8065:8102   */\n      swap1\n      pop\n        /* \"#utility.yul\":8002:8109   */\n      swap3\n      swap2\n      pop\n      pop\n      jump\t// out\n        /* \"#utility.yul\":8115:8508   */\n    tag_116:\n        /* \"#utility.yul\":8184:8190   */\n      0x00\n        /* \"#utility.yul\":8234:8235   */\n      0x08\n        /* \"#utility.yul\":8222:8232   */\n      dup4\n        /* \"#utility.yul\":8218:8236   */\n      mul\n        /* \"#utility.yul\":8257:8354   */\n      tag_222\n        /* \"#utility.yul\":8287:8353   */\n      0xffffffffffffffffffffffffffffffffffffffffffffffffffffffffffffffff\n        /* \"#utility.yul\":8276:8285   */\n      dup3\n        /* \"#utility.yul\":8257:8354   */\n      tag_115\n      jump\t// in\n    tag_222:\n        /* \"#utility.yul\":8375:8414   */\n      tag_223\n        /* \"#utility.yul\":8405:8413   */\n      dup7\n        /* \"#utility.yul\":8394:8403   */\n      dup4\n        /* \"#utility.yul\":8375:8414   */\n      tag_115\n      jump\t// in\n    tag_223:\n        /* \"#utility.yul\":8363:8414   */\n      swap6\n      pop\n        /* \"#utility.yul\":8447:8451   */\n      dup1\n        /* \"#utility.yul\":8443:8452   */\n      not\n        /* \"#utility.yul\":8436:8441   */\n      dup5\n        /* \"#utility.yul\":8432:8453   */\n      and\n        /* \"#utility.yul\":8423:8453   */\n      swap4\n      pop\n        /* \"#utility.yul\":8496:8500   */\n      dup1\n        /* \"#utility.yul\":8486:8494   */\n      dup7\n        /* \"#utility.yul\":8482:8501   */\n      and\n        /* \"#utility.yul\":8475:8480   */\n      dup5\n        /* \"#utility.yul\":8472:8502   */\n      or\n        /* \"#utility.yul\":8462:8502   */\n      swap3\n      pop\n        /* \"#utility.yul\":8191:8508   */\n      pop\n      pop\n        /* \"#utility.yul\":8115:8508   */\n      swap4\n      swap3\n      pop\n      pop\n      pop\n      jump\t// out\n        /* \"#utility.yul\":8514:8574   */\n    tag_117:\n        /* \"#utility.yul\":8542:8545   */\n      0x00\n        /* \"#utility.yul\":8563:8568   */\n      dup2\n        /* \"#utility.yul\":8556:8568   */\n      swap1\n      pop\n        /* \"#utility.yul\":8514:8574   */\n      swap2\n      swap1\n      pop\n      jump\t// out\n        /* \"#utility.yul\":8580:8722   */\n    tag_118:\n        /* \"#utility.yul\":8630:8639   */\n      0x00\n        /* \"#utility.yul\":8663:8716   */\n      tag_226\n        /* \"#utility.yul\":8681:8715   */\n      tag_227\n        /* \"#utility.yul\":8690:8714   */\n      tag_228\n        /* \"#utility.yul\":8708:8713   */\n      dup5\n        /* \"#utility.yul\":8690:8714   */\n      tag_89\n      jump\t// in\n    tag_228:\n        /* \"#utility.yul\":8681:8715   */\n      tag_117\n      jump\t// in\n    tag_227:\n        /* \"#utility.yul\":8663:8716   */\n      tag_89\n      jump\t// in\n    tag_226:\n        /* \"#utility.yul\":8650:8716   */\n      swap1\n      pop\n        /* \"#utility.yul\":8580:8722   */\n      swap2\n      swap1\n      pop\n      jump\t// out\n        /* \"#utility.yul\":8728:8803   */\n    tag_119:\n        /* \"#utility.yul\":8771:8774   */\n      0x00\n        /* \"#utility.yul\":8792:8797   */\n      dup2\n        /* \"#utility.yul\":8785:8797   */\n      swap1\n      pop\n        /* \"#utility.yul\":8728:8803   */\n      swap2\n      swap1\n      pop\n      jump\t// out\n        /* \"#utility.yul\":8809:9078   */\n    tag_120:\n        /* \"#utility.yul\":8919:8958   */\n      tag_231\n        /* \"#utility.yul\":8950:8957   */\n      dup4\n        /* \"#utility.yul\":8919:8958   */\n      tag_118\n      jump\t// in\n    tag_231:\n        /* \"#utility.yul\":8980:9071   */\n      tag_232\n        /* \"#utility.yul\":9029:9070   */\n      tag_233\n        /* \"#utility.yul\":9053:9069   */\n      dup3\n        /* \"#utility.yul\":9029:9070   */\n      tag_119\n      jump\t// in\n    tag_233:\n        /* \"#utility.yul\":9021:9027   */\n      dup5\n        /* \"#utility.yul\":9014:9018   */\n      dup5\n        /* \"#utility.yul\":9008:9019   */\n      sload\n        /* \"#utility.yul\":8980:9071   */\n      tag_116\n      jump\t// in\n    tag_232:\n        /* \"#utility.yul\":8974:8978   */\n      dup3\n        /* \"#utility.yul\":8967:9072   */\n      sstore\n        /* \"#utility.yul\":8885:9078   */\n      pop\n        /* \"#utility.yul\":8809:9078   */\n      pop\n      pop\n      pop\n      jump\t// out\n        /* \"#utility.yul\":9084:9157   */\n    tag_121:\n        /* \"#utility.yul\":9129:9132   */\n      0x00\n        /* \"#utility.yul\":9150:9151   */\n      0x00\n        /* \"#utility.yul\":9143:9151   */\n      swap1\n      pop\n        /* \"#utility.yul\":9084:9157   */\n      swap1\n      jump\t// out\n        /* \"#utility.yul\":9163:9352   */\n    tag_122:\n        /* \"#utility.yul\":9240:9272   */\n      tag_236\n      tag_121\n      jump\t// in\n    tag_236:\n        /* \"#utility.yul\":9281:9346   */\n      tag_237\n        /* \"#utility.yul\":9339:9345   */\n      dup2\n        /* \"#utility.yul\":9331:9337   */\n      dup5\n        /* \"#utility.yul\":9325:9329   */\n      dup5\n        /* \"#utility.yul\":9281:9346   */\n      tag_120\n      jump\t// in\n    tag_237:\n        /* \"#utility.yul\":9216:9352   */\n      pop\n        /* \"#utility.yul\":9163:9352   */\n      pop\n      pop\n      jump\t// out\n        /* \"#utility.yul\":9358:9544   */\n    tag_123:\n        /* \"#utility.yul\":9418:9538   */\n    tag_239:\n        /* \"#utility.yul\":9435:9438   */\n      dup2\n        /* \"#utility.yul\":9428:9433   */\n      dup2\n        /* \"#utility.yul\":9425:9439   */\n      lt\n        /* \"#utility.yul\":9418:9538   */\n      iszero\n      tag_241\n      jumpi\n        /* \"#utility.yul\":9489:9528   */\n      tag_242\n        /* \"#utility.yul\":9526:9527   */\n      0x00\n        /* \"#utility.yul\":9519:9524   */\n      dup3\n        /* \"#utility.yul\":9489:9528   */\n      tag_122\n      jump\t// in\n    tag_242:\n        /* \"#utility.yul\":9462:9463   */\n      0x01\n        /* \"#utility.yul\":9455:9460   */\n      dup2\n        /* \"#utility.yul\":9451:9464   */\n      add\n        /* \"#utility.yul\":9442:9464   */\n      swap1\n      pop\n        /* \"#utility.yul\":9418:9538   */\n      jump(tag_239)\n    tag_241:\n        /* \"#utility.yul\":9358:9544   */\n      pop\n      pop\n      jump\t// out\n        /* \"#utility.yul\":9550:10093   */\n    tag_124:\n        /* \"#utility.yul\":9651:9653   */\n      0x1f\n        /* \"#utility.yul\":9646:9649   */\n      dup3\n        /* \"#utility.yul\":9643:9654   */\n      gt\n        /* \"#utility.yul\":9640:10086   */\n      iszero\n      tag_244\n      jumpi\n        /* \"#utility.yul\":9685:9723   */\n      tag_245\n        /* \"#utility.yul\":9717:9722   */\n      dup2\n        /* \"#utility.yul\":9685:9723   */\n      tag_113\n      jump\t// in\n    tag_245:\n        /* \"#utility.yul\":9769:9798   */\n      tag_246\n        /* \"#utility.yul\":9787:9797   */\n      dup5\n        /* \"#utility.yul\":9769:9798   */\n      tag_114\n      jump\t// in\n    tag_246:\n        /* \"#utility.yul\":9759:9767   */\n      dup2\n        /* \"#utility.yul\":9755:9799   */\n      add\n        /* \"#utility.yul\":9952:9954   */\n      0x20\n        /* \"#utility.yul\":9940:9950   */\n      dup6\n        /* \"#utility.yul\":9937:9955   */\n      lt\n        /* \"#utility.yul\":9934:9983   */\n      iszero\n      tag_247\n      jumpi\n        /* \"#utility.yul\":9973:9981   */\n      dup2\n        /* \"#utility.yul\":9958:9981   */\n      swap1\n      pop\n        /* \"#utility.yul\":9934:9983   */\n    tag_247:\n        /* \"#utility.yul\":9996:10076   */\n      tag_248\n        /* \"#utility.yul\":10052:10074   */\n      tag_249\n        /* \"#utility.yul\":10070:10073   */\n      dup6\n        /* \"#utility.yul\":10052:10074   */\n      tag_114\n      jump\t// in\n    tag_249:\n        /* \"#utility.yul\":10042:10050   */\n      dup4\n        /* \"#utility.yul\":10038:10075   */\n      add\n        /* \"#utility.yul\":10025:10036   */\n      dup3\n        /* \"#utility.yul\":9996:10076   */\n      tag_123\n      jump\t// in\n    tag_248:\n        /* \"#utility.yul\":9655:10086   */\n      pop\n      pop\n        /* \"#utility.yul\":9640:10086   */\n    tag_244:\n        /* \"#utility.yul\":9550:10093   */\n      pop\n      pop\n      pop\n      jump\t// out\n        /* \"#utility.yul\":10099:10216   */\n    tag_125:\n        /* \"#utility.yul\":10153:10161   */\n      0x00\n        /* \"#utility.yul\":10203:10208   */\n      dup3\n        /* \"#utility.yul\":10197:10201   */\n      dup3\n        /* \"#utility.yul\":10193:10209   */\n      shr\n        /* \"#utility.yul\":10172:10209   */\n      swap1\n      pop\n        /* \"#utility.yul\":10099:10216   */\n      swap3\n      swap2\n      pop\n      pop\n      jump\t// out\n        /* \"#utility.yul\":10222:10391   */\n    tag_126:\n        /* \"#utility.yul\":10266:10272   */\n      0x00\n        /* \"#utility.yul\":10299:10350   */\n      tag_252\n        /* \"#utility.yul\":10347:10348   */\n      0x00\n        /* \"#utility.yul\":10343:10349   */\n      not\n        /* \"#utility.yul\":10335:10340   */\n      dup5\n        /* \"#utility.yul\":10332:10333   */\n      0x08\n        /* \"#utility.yul\":10328:10341   */\n      mul\n        /* \"#utility.yul\":10299:10350   */\n      tag_125\n      jump\t// in\n    tag_252:\n        /* \"#utility.yul\":10295:10351   */\n      not\n        /* \"#utility.yul\":10380:10384   */\n      dup1\n        /* \"#utility.yul\":10374:10378   */\n      dup4\n        /* \"#utility.yul\":10370:10385   */\n      and\n        /* \"#utility.yul\":10360:10385   */\n      swap2\n      pop\n        /* \"#utility.yul\":10273:10391   */\n      pop\n        /* \"#utility.yul\":10222:10391   */\n      swap3\n      swap2\n      pop\n      pop\n      jump\t// out\n        /* \"#utility.yul\":10396:10691   */\n    tag_127:\n        /* \"#utility.yul\":10472:10476   */\n      0x00\n        /* \"#utility.yul\":10618:10647   */\n      tag_254\n        /* \"#utility.yul\":10643:10646   */\n      dup4\n        /* \"#utility.yul\":10637:10641   */\n      dup4\n        /* \"#utility.yul\":10618:10647   */\n      tag_126\n      jump\t// in\n    tag_254:\n        /* \"#utility.yul\":10610:10647   */\n      swap2\n      pop\n        /* \"#utility.yul\":10680:10683   */\n      dup3\n        /* \"#utility.yul\":10677:10678   */\n      0x02\n        /* \"#utility.yul\":10673:10684   */\n      mul\n        /* \"#utility.yul\":10667:10671   */\n      dup3\n        /* \"#utility.yul\":10664:10685   */\n      or\n        /* \"#utility.yul\":10656:10685   */\n      swap1\n      pop\n        /* \"#utility.yul\":10396:10691   */\n      swap3\n      swap2\n      pop\n      pop\n      jump\t// out\n        /* \"#utility.yul\":10696:12091   */\n    tag_78:\n        /* \"#utility.yul\":10813:10850   */\n      tag_256\n        /* \"#utility.yul\":10846:10849   */\n      dup3\n        /* \"#utility.yul\":10813:10850   */\n      tag_106\n      jump\t// in\n    tag_256:\n        /* \"#utility.yul\":10915:10933   */\n      0xffffffffffffffff\n        /* \"#utility.yul\":10907:10913   */\n      dup2\n        /* \"#utility.yul\":10904:10934   */\n      gt\n        /* \"#utility.yul\":10901:10957   */\n      iszero\n      tag_257\n      jumpi\n        /* \"#utility.yul\":10937:10955   */\n      tag_258\n      tag_99\n      jump\t// in\n    tag_258:\n        /* \"#utility.yul\":10901:10957   */\n    tag_257:\n        /* \"#utility.yul\":10981:11019   */\n      tag_259\n        /* \"#utility.yul\":11013:11017   */\n      dup3\n        /* \"#utility.yul\":11007:11018   */\n      sload\n        /* \"#utility.yul\":10981:11019   */\n      tag_70\n      jump\t// in\n    tag_259:\n        /* \"#utility.yul\":11066:11133   */\n      tag_260\n        /* \"#utility.yul\":11126:11132   */\n      dup3\n        /* \"#utility.yul\":11118:11124   */\n      dup3\n        /* \"#utility.yul\":11112:11116   */\n      dup6\n        /* \"#utility.yul\":11066:11133   */\n      tag_124\n      jump\t// in\n    tag_260:\n        /* \"#utility.yul\":11160:11161   */\n      0x00\n        /* \"#utility.yul\":11184:11188   */\n      0x20\n        /* \"#utility.yul\":11171:11188   */\n      swap1\n      pop\n        /* \"#utility.yul\":11216:11218   */\n      0x1f\n        /* \"#utility.yul\":11208:11214   */\n      dup4\n        /* \"#utility.yul\":11205:11219   */\n      gt\n        /* \"#utility.yul\":11233:11234   */\n      0x01\n        /* \"#utility.yul\":11228:11846   */\n      dup2\n      eq\n      tag_262\n      jumpi\n        /* \"#utility.yul\":11890:11891   */\n      0x00\n        /* \"#utility.yul\":11907:11913   */\n      dup5\n        /* \"#utility.yul\":11904:11981   */\n      iszero\n      tag_263\n      jumpi\n        /* \"#utility.yul\":11956:11965   */\n      dup3\n        /* \"#utility.yul\":11951:11954   */\n      dup8\n        /* \"#utility.yul\":11947:11966   */\n      add\n        /* \"#utility.yul\":11941:11967   */\n      mload\n        /* \"#utility.yul\":11932:11967   */\n      swap1\n      pop\n        /* \"#utility.yul\":11904:11981   */\n    tag_263:\n        /* \"#utility.yul\":12007:12074   */\n      tag_264\n        /* \"#utility.yul\":12067:12073   */\n      dup6\n        /* \"#utility.yul\":12060:12065   */\n      dup3\n        /* \"#utility.yul\":12007:12074   */\n      tag_127\n      jump\t// in\n    tag_264:\n        /* \"#utility.yul\":12001:12005   */\n      dup7\n        /* \"#utility.yul\":11994:12075   */\n      sstore\n        /* \"#utility.yul\":11863:12085   */\n      pop\n        /* \"#utility.yul\":11198:12085   */\n      jump(tag_261)\n        /* \"#utility.yul\":11228:11846   */\n    tag_262:\n        /* \"#utility.yul\":11280:11284   */\n      0x1f\n        /* \"#utility.yul\":11276:11285   */\n      not\n        /* \"#utility.yul\":11268:11274   */\n      dup5\n        /* \"#utility.yul\":11264:11286   */\n      and\n        /* \"#utility.yul\":11314:11351   */\n      tag_265\n        /* \"#utility.yul\":11346:11350   */\n      dup7\n        /* \"#utility.yul\":11314:11351   */\n      tag_113\n      jump\t// in\n    tag_265:\n        /* \"#utility.yul\":11373:11374   */\n      0x00\n        /* \"#utility.yul\":11387:11595   */\n    tag_266:\n        /* \"#utility.yul\":11401:11408   */\n      dup3\n        /* \"#utility.yul\":11398:11399   */\n      dup2\n        /* \"#utility.yul\":11395:11409   */\n      lt\n        /* \"#utility.yul\":11387:11595   */\n      iszero\n      tag_268\n      jumpi\n        /* \"#utility.yul\":11480:11489   */\n      dup5\n        /* \"#utility.yul\":11475:11478   */\n      dup10\n        /* \"#utility.yul\":11471:11490   */\n      add\n        /* \"#utility.yul\":11465:11491   */\n      mload\n        /* \"#utility.yul\":11457:11463   */\n      dup3\n        /* \"#utility.yul\":11450:11492   */\n      sstore\n        /* \"#utility.yul\":11531:11532   */\n      0x01\n        /* \"#utility.yul\":11523:11529   */\n      dup3\n        /* \"#utility.yul\":11519:11533   */\n      add\n        /* \"#utility.yul\":11509:11533   */\n      swap2\n      pop\n        /* \"#utility.yul\":11578:11580   */\n      0x20\n        /* \"#utility.yul\":11567:11576   */\n      dup6\n        /* \"#utility.yul\":11563:11581   */\n      add\n        /* \"#utility.yul\":11550:11581   */\n      swap5\n      pop\n        /* \"#utility.yul\":11424:11428   */\n      0x20\n        /* \"#utility.yul\":11421:11422   */\n      dup2\n        /* \"#utility.yul\":11417:11429   */\n      add\n        /* \"#utility.yul\":11412:11429   */\n      swap1\n      pop\n        /* \"#utility.yul\":11387:11595   */\n      jump(tag_266)\n    tag_268:\n        /* \"#utility.yul\":11623:11629   */\n      dup7\n        /* \"#utility.yul\":11614:11621   */\n      dup4\n        /* \"#utility.yul\":11611:11630   */\n      lt\n        /* \"#utility.yul\":11608:11787   */\n      iszero\n      tag_269\n      jumpi\n        /* \"#utility.yul\":11681:11690   */\n      dup5\n        /* \"#utility.yul\":11676:11679   */\n      dup10\n        /* \"#utility.yul\":11672:11691   */\n      add\n        /* \"#utility.yul\":11666:11692   */\n      mload\n        /* \"#utility.yul\":11724:11772   */\n      tag_270\n        /* \"#utility.yul\":11766:11770   */\n      0x1f\n        /* \"#utility.yul\":11758:11764   */\n      dup10\n        /* \"#utility.yul\":11754:11771   */\n      and\n        /* \"#utility.yul\":11743:11752   */\n      dup3\n        /* \"#utility.yul\":11724:11772   */\n      tag_126\n      jump\t// in\n    tag_270:\n        /* \"#utility.yul\":11716:11722   */\n      dup4\n        /* \"#utility.yul\":11709:11773   */\n      sstore\n        /* \"#utility.yul\":11631:11787   */\n      pop\n        /* \"#utility.yul\":11608:11787   */\n    tag_269:\n        /* \"#utility.yul\":11833:11834   */\n      0x01\n        /* \"#utility.yul\":11829:11830   */\n      0x02\n        /* \"#utility.yul\":11821:11827   */\n      dup9\n        /* \"#utility.yul\":11817:11831   */\n      mul\n        /* \"#utility.yul\":11813:11835   */\n      add\n        /* \"#utility.yul\":11807:11811   */\n      dup9\n        /* \"#utility.yul\":11800:11836   */\n      sstore\n        /* \"#utility.yul\":11235:11846   */\n      pop\n      pop\n      pop\n        /* \"#utility.yul\":11198:12085   */\n    tag_261:\n      pop\n        /* \"#utility.yul\":10788:12091   */\n      pop\n      pop\n      pop\n        /* \"#utility.yul\":10696:12091   */\n      pop\n      pop\n      jump\t// out\n        /* \"#utility.yul\":12097:12245   */\n    tag_128:\n        /* \"#utility.yul\":12199:12210   */\n      0x00\n        /* \"#utility.yul\":12236:12239   */\n      dup2\n        /* \"#utility.yul\":12221:12239   */\n      swap1\n      pop\n        /* \"#utility.yul\":12097:12245   */\n      swap3\n      swap2\n      pop\n      pop\n      jump\t// out\n        /* \"#utility.yul\":12251:12641   */\n    tag_129:\n        /* \"#utility.yul\":12357:12360   */\n      0x00\n        /* \"#utility.yul\":12385:12424   */\n      tag_273\n        /* \"#utility.yul\":12418:12423   */\n      dup3\n        /* \"#utility.yul\":12385:12424   */\n      tag_106\n      jump\t// in\n    tag_273:\n        /* \"#utility.yul\":12440:12529   */\n      tag_274\n        /* \"#utility.yul\":12522:12528   */\n      dup2\n        /* \"#utility.yul\":12517:12520   */\n      dup6\n        /* \"#utility.yul\":12440:12529   */\n      tag_128\n      jump\t// in\n    tag_274:\n        /* \"#utility.yul\":12433:12529   */\n      swap4\n      pop\n        /* \"#utility.yul\":12538:12603   */\n      tag_275\n        /* \"#utility.yul\":12596:12602   */\n      dup2\n        /* \"#utility.yul\":12591:12594   */\n      dup6\n        /* \"#utility.yul\":12584:12588   */\n      0x20\n        /* \"#utility.yul\":12577:12582   */\n      dup7\n        /* \"#utility.yul\":12573:12589   */\n      add\n        /* \"#utility.yul\":12538:12603   */\n      tag_108\n      jump\t// in\n    tag_275:\n        /* \"#utility.yul\":12628:12634   */\n      dup1\n        /* \"#utility.yul\":12623:12626   */\n      dup5\n        /* \"#utility.yul\":12619:12635   */\n      add\n        /* \"#utility.yul\":12612:12635   */\n      swap2\n      pop\n        /* \"#utility.yul\":12361:12641   */\n      pop\n        /* \"#utility.yul\":12251:12641   */\n      swap3\n      swap2\n      pop\n      pop\n      jump\t// out\n        /* \"#utility.yul\":12647:12922   */\n    tag_80:\n        /* \"#utility.yul\":12779:12782   */\n      0x00\n        /* \"#utility.yul\":12801:12896   */\n      tag_277\n        /* \"#utility.yul\":12892:12895   */\n      dup3\n        /* \"#utility.yul\":12883:12889   */\n      dup5\n        /* \"#utility.yul\":12801:12896   */\n      tag_129\n      jump\t// in\n    tag_277:\n        /* \"#utility.yul\":12794:12896   */\n      swap2\n      pop\n        /* \"#utility.yul\":12913:12916   */\n      dup2\n        /* \"#utility.yul\":12906:12916   */\n      swap1\n      pop\n        /* \"#utility.yul\":12647:12922   */\n      swap3\n      swap2\n      pop\n      pop\n      jump\t// out\n        /* \"#utility.yul\":12928:13122   */\n    tag_85:\n        /* \"#utility.yul\":12968:12972   */\n      0x00\n        /* \"#utility.yul\":12988:13008   */\n      tag_279\n        /* \"#utility.yul\":13006:13007   */\n      dup3\n        /* \"#utility.yul\":12988:13008   */\n      tag_89\n      jump\t// in\n    tag_279:\n        /* \"#utility.yul\":12983:13008   */\n      swap2\n      pop\n        /* \"#utility.yul\":13022:13042   */\n      tag_280\n        /* \"#utility.yul\":13040:13041   */\n      dup4\n        /* \"#utility.yul\":13022:13042   */\n      tag_89\n      jump\t// in\n    tag_280:\n        /* \"#utility.yul\":13017:13042   */\n      swap3\n      pop\n        /* \"#utility.yul\":13066:13067   */\n      dup3\n        /* \"#utility.yul\":13063:13064   */\n      dup3\n        /* \"#utility.yul\":13059:13068   */\n      sub\n        /* \"#utility.yul\":13051:13068   */\n      swap1\n      pop\n        /* \"#utility.yul\":13090:13091   */\n      dup2\n        /* \"#utility.yul\":13084:13088   */\n      dup2\n        /* \"#utility.yul\":13081:13092   */\n      gt\n        /* \"#utility.yul\":13078:13115   */\n      iszero\n      tag_281\n      jumpi\n        /* \"#utility.yul\":13095:13113   */\n      tag_282\n      tag_110\n      jump\t// in\n    tag_282:\n        /* \"#utility.yul\":13078:13115   */\n    tag_281:\n        /* \"#utility.yul\":12928:13122   */\n      swap3\n      swap2\n      pop\n      pop\n      jump\t// out\n        /* \"#utility.yul\":13128:13319   */\n    tag_88:\n        /* \"#utility.yul\":13168:13171   */\n      0x00\n        /* \"#utility.yul\":13187:13207   */\n      tag_284\n        /* \"#utility.yul\":13205:13206   */\n      dup3\n        /* \"#utility.yul\":13187:13207   */\n      tag_89\n      jump\t// in\n    tag_284:\n        /* \"#utility.yul\":13182:13207   */\n      swap2\n      pop\n        /* \"#utility.yul\":13221:13241   */\n      tag_285\n        /* \"#utility.yul\":13239:13240   */\n      dup4\n        /* \"#utility.yul\":13221:13241   */\n      tag_89\n      jump\t// in\n    tag_285:\n        /* \"#utility.yul\":13216:13241   */\n      swap3\n      pop\n        /* \"#utility.yul\":13264:13265   */\n      dup3\n        /* \"#utility.yul\":13261:13262   */\n      dup3\n        /* \"#utility.yul\":13257:13266   */\n      add\n        /* \"#utility.yul\":13250:13266   */\n      swap1\n      pop\n        /* \"#utility.yul\":13285:13288   */\n      dup1\n        /* \"#utility.yul\":13282:13283   */\n      dup3\n        /* \"#utility.yul\":13279:13289   */\n      gt\n        /* \"#utility.yul\":13276:13312   */\n      iszero\n      tag_286\n      jumpi\n        /* \"#utility.yul\":13292:13310   */\n      tag_287\n      tag_110\n      jump\t// in\n    tag_287:\n        /* \"#utility.yul\":13276:13312   */\n    tag_286:\n        /* \"#utility.yul\":13128:13319   */\n      swap3\n      swap2\n      pop\n      pop\n      jump\t// out\n\n    auxdata: 0xa2646970667358221220cce232088e05b560e3282f516697caccd3e0677030b95f6ab75c54bb68a7035264736f6c634300081f0033\n}\n",
				"bytecode": {
					"linkReferences": {},
					"object": "6080604052348015600e575f5ffd5b50610c348061001c5f395ff3fe608060405234801561000f575f5ffd5b50600436106100b2575f3560e01c806390c3ee4d1161006f57806390c3ee4d1461017a5780639e7a13ad146101aa578063abbc0a8a146101dc578063cd89e72a146101f8578063e3ec025114610214578063ec59712814610232576100b2565b8063011285da146100b65780632173d6e9146100d45780633205f5fc146100f25780634caadbef146101105780637cc5c1361461012c5780638bab8dd51461014a575b5f5ffd5b6100be610250565b6040516100cb91906104a7565b60405180910390f35b6100dc610265565b6040516100e991906104a7565b60405180910390f35b6100fa61026a565b60405161010791906104a7565b60405180910390f35b61012a600480360381019061012591906104fb565b61027f565b005b610134610289565b60405161014191906104a7565b60405180910390f35b610164600480360381019061015f9190610662565b61028f565b60405161017191906104a7565b60405180910390f35b610194600480360381019061018f9190610662565b6102bc565b6040516101a191906104a7565b60405180910390f35b6101c460048036038101906101bf91906104fb565b6102e9565b6040516101d393929190610709565b60405180910390f35b6101f660048036038101906101f19190610745565b6103a4565b005b610212600480360381019061020d91906104fb565b61045c565b005b61021c610465565b60405161022991906104a7565b60405180910390f35b61023a61047a565b60405161024791906104a7565b60405180910390f35b5f6001545f5461026091906107de565b905090565b5f5481565b5f6001545f5461027a919061084c565b905090565b8060018190555050565b60015481565b6004818051602081018201805184825260208301602085012081835280955050505050505f915090505481565b6003818051602081018201805184825260208301602085012081835280955050505050505f915090505481565b600281815481106102f8575f80fd5b905f5260205f2090600302015f91509050805f018054610317906108a9565b80601f0160208091040260200160405190810160405280929190818152602001828054610343906108a9565b801561038e5780601f106103655761010080835404028352916020019161038e565b820191905f5260205f20905b81548152906001019060200180831161037157829003601f168201915b5050505050908060010154908060020154905083565b6002604051806060016040528085815260200184815260200183815250908060018154018082558091505060019003905f5260205f2090600302015f909190919091505f820151815f0190816103fa9190610a79565b5060208201518160010155604082015181600201555050816003846040516104229190610b82565b908152602001604051809103902081905550806004846040516104459190610b82565b908152602001604051809103902081905550505050565b805f8190555050565b5f6001545f546104759190610b98565b905090565b5f6001545f5461048a9190610bcb565b905090565b5f819050919050565b6104a18161048f565b82525050565b5f6020820190506104ba5f830184610498565b92915050565b5f604051905090565b5f5ffd5b5f5ffd5b6104da8161048f565b81146104e4575f5ffd5b50565b5f813590506104f5816104d1565b92915050565b5f602082840312156105105761050f6104c9565b5b5f61051d848285016104e7565b91505092915050565b5f5ffd5b5f5ffd5b5f601f19601f8301169050919050565b7f4e487b71000000000000000000000000000000000000000000000000000000005f52604160045260245ffd5b6105748261052e565b810181811067ffffffffffffffff821117156105935761059261053e565b5b80604052505050565b5f6105a56104c0565b90506105b1828261056b565b919050565b5f67ffffffffffffffff8211156105d0576105cf61053e565b5b6105d98261052e565b9050602081019050919050565b828183375f83830152505050565b5f610606610601846105b6565b61059c565b9050828152602081018484840111156106225761062161052a565b5b61062d8482856105e6565b509392505050565b5f82601f83011261064957610648610526565b5b81356106598482602086016105f4565b91505092915050565b5f60208284031215610677576106766104c9565b5b5f82013567ffffffffffffffff811115610694576106936104cd565b5b6106a084828501610635565b91505092915050565b5f81519050919050565b5f82825260208201905092915050565b8281835e5f83830152505050565b5f6106db826106a9565b6106e581856106b3565b93506106f58185602086016106c3565b6106fe8161052e565b840191505092915050565b5f6060820190508181035f83015261072181866106d1565b90506107306020830185610498565b61073d6040830184610498565b949350505050565b5f5f5f6060848603121561075c5761075b6104c9565b5b5f84013567ffffffffffffffff811115610779576107786104cd565b5b61078586828701610635565b9350506020610796868287016104e7565b92505060406107a7868287016104e7565b9150509250925092565b7f4e487b71000000000000000000000000000000000000000000000000000000005f52601160045260245ffd5b5f6107e88261048f565b91506107f38361048f565b92508282026108018161048f565b91508282048414831517610818576108176107b1565b5b5092915050565b7f4e487b71000000000000000000000000000000000000000000000000000000005f52601260045260245ffd5b5f6108568261048f565b91506108618361048f565b9250826108715761087061081f565b5b828204905092915050565b7f4e487b71000000000000000000000000000000000000000000000000000000005f52602260045260245ffd5b5f60028204905060018216806108c057607f821691505b6020821081036108d3576108d261087c565b5b50919050565b5f819050815f5260205f209050919050565b5f6020601f8301049050919050565b5f82821b905092915050565b5f600883026109357fffffffffffffffffffffffffffffffffffffffffffffffffffffffffffffffff826108fa565b61093f86836108fa565b95508019841693508086168417925050509392505050565b5f819050919050565b5f61097a6109756109708461048f565b610957565b61048f565b9050919050565b5f819050919050565b61099383610960565b6109a761099f82610981565b848454610906565b825550505050565b5f5f905090565b6109be6109af565b6109c981848461098a565b505050565b5b818110156109ec576109e15f826109b6565b6001810190506109cf565b5050565b601f821115610a3157610a02816108d9565b610a0b846108eb565b81016020851015610a1a578190505b610a2e610a26856108eb565b8301826109ce565b50505b505050565b5f82821c905092915050565b5f610a515f1984600802610a36565b1980831691505092915050565b5f610a698383610a42565b9150826002028217905092915050565b610a82826106a9565b67ffffffffffffffff811115610a9b57610a9a61053e565b5b610aa582546108a9565b610ab08282856109f0565b5f60209050601f831160018114610ae1575f8415610acf578287015190505b610ad98582610a5e565b865550610b40565b601f198416610aef866108d9565b5f5b82811015610b1657848901518255600182019150602085019450602081019050610af1565b86831015610b335784890151610b2f601f891682610a42565b8355505b6001600288020188555050505b505050505050565b5f81905092915050565b5f610b5c826106a9565b610b668185610b48565b9350610b768185602086016106c3565b80840191505092915050565b5f610b8d8284610b52565b915081905092915050565b5f610ba28261048f565b9150610bad8361048f565b9250828203905081811115610bc557610bc46107b1565b5b92915050565b5f610bd58261048f565b9150610be08361048f565b9250828201905080821115610bf857610bf76107b1565b5b9291505056fea2646970667358221220cce232088e05b560e3282f516697caccd3e0677030b95f6ab75c54bb68a7035264736f6c634300081f0033",
					"opcodes": "PUSH1 0x80 PUSH1 0x40 MSTORE CALLVALUE DUP1 ISZERO PUSH1 0xE JUMPI PUSH0 PUSH0 REVERT JUMPDEST POP PUSH2 0xC34 DUP1 PUSH2 0x1C PUSH0 CODECOPY PUSH0 RETURN INVALID PUSH1 0x80 PUSH1 0x40 MSTORE CALLVALUE DUP1 ISZERO PUSH2 0xF JUMPI PUSH0 PUSH0 REVERT JUMPDEST POP PUSH1 0x4 CALLDATASIZE LT PUSH2 0xB2 JUMPI PUSH0 CALLDATALOAD PUSH1 0xE0 SHR DUP1 PUSH4 0x90C3EE4D GT PUSH2 0x6F JUMPI DUP1 PUSH4 0x90C3EE4D EQ PUSH2 0x17A JUMPI DUP1 PUSH4 0x9E7A13AD EQ PUSH2 0x1AA JUMPI DUP1 PUSH4 0xABBC0A8A EQ PUSH2 0x1DC JUMPI DUP1 PUSH4 0xCD89E72A EQ PUSH2 0x1F8 JUMPI DUP1 PUSH4 0xE3EC0251 EQ PUSH2 0x214 JUMPI DUP1 PUSH4 0xEC597128 EQ PUSH2 0x232 JUMPI PUSH2 0xB2 JUMP JUMPDEST DUP1 PUSH4 0x11285DA EQ PUSH2 0xB6 JUMPI DUP1 PUSH4 0x2173D6E9 EQ PUSH2 0xD4 JUMPI DUP1 PUSH4 0x3205F5FC EQ PUSH2 0xF2 JUMPI DUP1 PUSH4 0x4CAADBEF EQ PUSH2 0x110 JUMPI DUP1 PUSH4 0x7CC5C136 EQ PUSH2 0x12C JUMPI DUP1 PUSH4 0x8BAB8DD5 EQ PUSH2 0x14A JUMPI JUMPDEST PUSH0 PUSH0 REVERT JUMPDEST PUSH2 0xBE PUSH2 0x250 JUMP JUMPDEST PUSH1 0x40 MLOAD PUSH2 0xCB SWAP2 SWAP1 PUSH2 0x4A7 JUMP JUMPDEST PUSH1 0x40 MLOAD DUP1 SWAP2 SUB SWAP1 RETURN JUMPDEST PUSH2 0xDC PUSH2 0x265 JUMP JUMPDEST PUSH1 0x40 MLOAD PUSH2 0xE9 SWAP2 SWAP1 PUSH2 0x4A7 JUMP JUMPDEST PUSH1 0x40 MLOAD DUP1 SWAP2 SUB SWAP1 RETURN JUMPDEST PUSH2 0xFA PUSH2 0x26A JUMP JUMPDEST PUSH1 0x40 MLOAD PUSH2 0x107 SWAP2 SWAP1 PUSH2 0x4A7 JUMP JUMPDEST PUSH1 0x40 MLOAD DUP1 SWAP2 SUB SWAP1 RETURN JUMPDEST PUSH2 0x12A PUSH1 0x4 DUP1 CALLDATASIZE SUB DUP2 ADD SWAP1 PUSH2 0x125 SWAP2 SWAP1 PUSH2 0x4FB JUMP JUMPDEST PUSH2 0x27F JUMP JUMPDEST STOP JUMPDEST PUSH2 0x134 PUSH2 0x289 JUMP JUMPDEST PUSH1 0x40 MLOAD PUSH2 0x141 SWAP2 SWAP1 PUSH2 0x4A7 JUMP JUMPDEST PUSH1 0x40 MLOAD DUP1 SWAP2 SUB SWAP1 RETURN JUMPDEST PUSH2 0x164 PUSH1 0x4 DUP1 CALLDATASIZE SUB DUP2 ADD SWAP1 PUSH2 0x15F SWAP2 SWAP1 PUSH2 0x662 JUMP JUMPDEST PUSH2 0x28F JUMP JUMPDEST PUSH1 0x40 MLOAD PUSH2 0x171 SWAP2 SWAP1 PUSH2 0x4A7 JUMP JUMPDEST PUSH1 0x40 MLOAD DUP1 SWAP2 SUB SWAP1 RETURN JUMPDEST PUSH2 0x194 PUSH1 0x4 DUP1 CALLDATASIZE SUB DUP2 ADD SWAP1 PUSH2 0x18F SWAP2 SWAP1 PUSH2 0x662 JUMP JUMPDEST PUSH2 0x2BC JUMP JUMPDEST PUSH1 0x40 MLOAD PUSH2 0x1A1 SWAP2 SWAP1 PUSH2 0x4A7 JUMP JUMPDEST PUSH1 0x40 MLOAD DUP1 SWAP2 SUB SWAP1 RETURN JUMPDEST PUSH2 0x1C4 PUSH1 0x4 DUP1 CALLDATASIZE SUB DUP2 ADD SWAP1 PUSH2 0x1BF SWAP2 SWAP1 PUSH2 0x4FB JUMP JUMPDEST PUSH2 0x2E9 JUMP JUMPDEST PUSH1 0x40 MLOAD PUSH2 0x1D3 SWAP4 SWAP3 SWAP2 SWAP1 PUSH2 0x709 JUMP JUMPDEST PUSH1 0x40 MLOAD DUP1 SWAP2 SUB SWAP1 RETURN JUMPDEST PUSH2 0x1F6 PUSH1 0x4 DUP1 CALLDATASIZE SUB DUP2 ADD SWAP1 PUSH2 0x1F1 SWAP2 SWAP1 PUSH2 0x745 JUMP JUMPDEST PUSH2 0x3A4 JUMP JUMPDEST STOP JUMPDEST PUSH2 0x212 PUSH1 0x4 DUP1 CALLDATASIZE SUB DUP2 ADD SWAP1 PUSH2 0x20D SWAP2 SWAP1 PUSH2 0x4FB JUMP JUMPDEST PUSH2 0x45C JUMP JUMPDEST STOP JUMPDEST PUSH2 0x21C PUSH2 0x465 JUMP JUMPDEST PUSH1 0x40 MLOAD PUSH2 0x229 SWAP2 SWAP1 PUSH2 0x4A7 JUMP JUMPDEST PUSH1 0x40 MLOAD DUP1 SWAP2 SUB SWAP1 RETURN JUMPDEST PUSH2 0x23A PUSH2 0x47A JUMP JUMPDEST PUSH1 0x40 MLOAD PUSH2 0x247 SWAP2 SWAP1 PUSH2 0x4A7 JUMP JUMPDEST PUSH1 0x40 MLOAD DUP1 SWAP2 SUB SWAP1 RETURN JUMPDEST PUSH0 PUSH1 0x1 SLOAD PUSH0 SLOAD PUSH2 0x260 SWAP2 SWAP1 PUSH2 0x7DE JUMP JUMPDEST SWAP1 POP SWAP1 JUMP JUMPDEST PUSH0 SLOAD DUP2 JUMP JUMPDEST PUSH0 PUSH1 0x1 SLOAD PUSH0 SLOAD PUSH2 0x27A SWAP2 SWAP1 PUSH2 0x84C JUMP JUMPDEST SWAP1 POP SWAP1 JUMP JUMPDEST DUP1 PUSH1 0x1 DUP2 SWAP1 SSTORE POP POP JUMP JUMPDEST PUSH1 0x1 SLOAD DUP2 JUMP JUMPDEST PUSH1 0x4 DUP2 DUP1 MLOAD PUSH1 0x20 DUP2 ADD DUP3 ADD DUP1 MLOAD DUP5 DUP3 MSTORE PUSH1 0x20 DUP4 ADD PUSH1 0x20 DUP6 ADD KECCAK256 DUP2 DUP4 MSTORE DUP1 SWAP6 POP POP POP POP POP POP PUSH0 SWAP2 POP SWAP1 POP SLOAD DUP2 JUMP JUMPDEST PUSH1 0x3 DUP2 DUP1 MLOAD PUSH1 0x20 DUP2 ADD DUP3 ADD DUP1 MLOAD DUP5 DUP3 MSTORE PUSH1 0x20 DUP4 ADD PUSH1 0x20 DUP6 ADD KECCAK256 DUP2 DUP4 MSTORE DUP1 SWAP6 POP POP POP POP POP POP PUSH0 SWAP2 POP SWAP1 POP SLOAD DUP2 JUMP JUMPDEST PUSH1 0x2 DUP2 DUP2 SLOAD DUP2 LT PUSH2 0x2F8 JUMPI PUSH0 DUP1 REVERT JUMPDEST SWAP1 PUSH0 MSTORE PUSH1 0x20 PUSH0 KECCAK256 SWAP1 PUSH1 0x3 MUL ADD PUSH0 SWAP2 POP SWAP1 POP DUP1 PUSH0 ADD DUP1 SLOAD PUSH2 0x317 SWAP1 PUSH2 0x8A9 JUMP JUMPDEST DUP1 PUSH1 0x1F ADD PUSH1 0x20 DUP1 SWAP2 DIV MUL PUSH1 0x20 ADD PUSH1 0x40 MLOAD SWAP1 DUP2 ADD PUSH1 0x40 MSTORE DUP1 SWAP3 SWAP2 SWAP1 DUP2 DUP2 MSTORE PUSH1 0x20 ADD DUP3 DUP1 SLOAD PUSH2 0x343 SWAP1 PUSH2 0x8A9 JUMP JUMPDEST DUP1 ISZERO PUSH2 0x38E JUMPI DUP1 PUSH1 0x1F LT PUSH2 0x365 JUMPI PUSH2 0x100 DUP1 DUP4 SLOAD DIV MUL DUP4 MSTORE SWAP2 PUSH1 0x20 ADD SWAP2 PUSH2 0x38E JUMP JUMPDEST DUP3 ADD SWAP2 SWAP1 PUSH0 MSTORE PUSH1 0x20 PUSH0 KECCAK256 SWAP1 JUMPDEST DUP2 SLOAD DUP2 MSTORE SWAP1 PUSH1 0x1 ADD SWAP1 PUSH1 0x20 ADD DUP1 DUP4 GT PUSH2 0x371 JUMPI DUP3 SWAP1 SUB PUSH1 0x1F AND DUP3 ADD SWAP2 JUMPDEST POP POP POP POP POP SWAP1 DUP1 PUSH1 0x1 ADD SLOAD SWAP1 DUP1 PUSH1 0x2 ADD SLOAD SWAP1 POP DUP4 JUMP JUMPDEST PUSH1 0x2 PUSH1 0x40 MLOAD DUP1 PUSH1 0x60 ADD PUSH1 0x40 MSTORE DUP1 DUP6 DUP2 MSTORE PUSH1 0x20 ADD DUP5 DUP2 MSTORE PUSH1 0x20 ADD DUP4 DUP2 MSTORE POP SWAP1 DUP1 PUSH1 0x1 DUP2 SLOAD ADD DUP1 DUP3 SSTORE DUP1 SWAP2 POP POP PUSH1 0x1 SWAP1 SUB SWAP1 PUSH0 MSTORE PUSH1 0x20 PUSH0 KECCAK256 SWAP1 PUSH1 0x3 MUL ADD PUSH0 SWAP1 SWAP2 SWAP1 SWAP2 SWAP1 SWAP2 POP PUSH0 DUP3 ADD MLOAD DUP2 PUSH0 ADD SWAP1 DUP2 PUSH2 0x3FA SWAP2 SWAP1 PUSH2 0xA79 JUMP JUMPDEST POP PUSH1 0x20 DUP3 ADD MLOAD DUP2 PUSH1 0x1 ADD SSTORE PUSH1 0x40 DUP3 ADD MLOAD DUP2 PUSH1 0x2 ADD SSTORE POP POP DUP2 PUSH1 0x3 DUP5 PUSH1 0x40 MLOAD PUSH2 0x422 SWAP2 SWAP1 PUSH2 0xB82 JUMP JUMPDEST SWAP1 DUP2 MSTORE PUSH1 0x20 ADD PUSH1 0x40 MLOAD DUP1 SWAP2 SUB SWAP1 KECCAK256 DUP2 SWAP1 SSTORE POP DUP1 PUSH1 0x4 DUP5 PUSH1 0x40 MLOAD PUSH2 0x445 SWAP2 SWAP1 PUSH2 0xB82 JUMP JUMPDEST SWAP1 DUP2 MSTORE PUSH1 0x20 ADD PUSH1 0x40 MLOAD DUP1 SWAP2 SUB SWAP1 KECCAK256 DUP2 SWAP1 SSTORE POP POP POP POP JUMP JUMPDEST DUP1 PUSH0 DUP2 SWAP1 SSTORE POP POP JUMP JUMPDEST PUSH0 PUSH1 0x1 SLOAD PUSH0 SLOAD PUSH2 0x475 SWAP2 SWAP1 PUSH2 0xB98 JUMP JUMPDEST SWAP1 POP SWAP1 JUMP JUMPDEST PUSH0 PUSH1 0x1 SLOAD PUSH0 SLOAD PUSH2 0x48A SWAP2 SWAP1 PUSH2 0xBCB JUMP JUMPDEST SWAP1 POP SWAP1 JUMP JUMPDEST PUSH0 DUP2 SWAP1 POP SWAP2 SWAP1 POP JUMP JUMPDEST PUSH2 0x4A1 DUP2 PUSH2 0x48F JUMP JUMPDEST DUP3 MSTORE POP POP JUMP JUMPDEST PUSH0 PUSH1 0x20 DUP3 ADD SWAP1 POP PUSH2 0x4BA PUSH0 DUP4 ADD DUP5 PUSH2 0x498 JUMP JUMPDEST SWAP3 SWAP2 POP POP JUMP JUMPDEST PUSH0 PUSH1 0x40 MLOAD SWAP1 POP SWAP1 JUMP JUMPDEST PUSH0 PUSH0 REVERT JUMPDEST PUSH0 PUSH0 REVERT JUMPDEST PUSH2 0x4DA DUP2 PUSH2 0x48F JUMP JUMPDEST DUP2 EQ PUSH2 0x4E4 JUMPI PUSH0 PUSH0 REVERT JUMPDEST POP JUMP JUMPDEST PUSH0 DUP2 CALLDATALOAD SWAP1 POP PUSH2 0x4F5 DUP2 PUSH2 0x4D1 JUMP JUMPDEST SWAP3 SWAP2 POP POP JUMP JUMPDEST PUSH0 PUSH1 0x20 DUP3 DUP5 SUB SLT ISZERO PUSH2 0x510 JUMPI PUSH2 0x50F PUSH2 0x4C9 JUMP JUMPDEST JUMPDEST PUSH0 PUSH2 0x51D DUP5 DUP3 DUP6 ADD PUSH2 0x4E7 JUMP JUMPDEST SWAP2 POP POP SWAP3 SWAP2 POP POP JUMP JUMPDEST PUSH0 PUSH0 REVERT JUMPDEST PUSH0 PUSH0 REVERT JUMPDEST PUSH0 PUSH1 0x1F NOT PUSH1 0x1F DUP4 ADD AND SWAP1 POP SWAP2 SWAP1 POP JUMP JUMPDEST PUSH32 0x4E487B7100000000000000000000000000000000000000000000000000000000 PUSH0 MSTORE PUSH1 0x41 PUSH1 0x4 MSTORE PUSH1 0x24 PUSH0 REVERT JUMPDEST PUSH2 0x574 DUP3 PUSH2 0x52E JUMP JUMPDEST DUP2 ADD DUP2 DUP2 LT PUSH8 0xFFFFFFFFFFFFFFFF DUP3 GT OR ISZERO PUSH2 0x593 JUMPI PUSH2 0x592 PUSH2 0x53E JUMP JUMPDEST JUMPDEST DUP1 PUSH1 0x40 MSTORE POP POP POP JUMP JUMPDEST PUSH0 PUSH2 0x5A5 PUSH2 0x4C0 JUMP JUMPDEST SWAP1 POP PUSH2 0x5B1 DUP3 DUP3 PUSH2 0x56B JUMP JUMPDEST SWAP2 SWAP1 POP JUMP JUMPDEST PUSH0 PUSH8 0xFFFFFFFFFFFFFFFF DUP3 GT ISZERO PUSH2 0x5D0 JUMPI PUSH2 0x5CF PUSH2 0x53E JUMP JUMPDEST JUMPDEST PUSH2 0x5D9 DUP3 PUSH2 0x52E JUMP JUMPDEST SWAP1 POP PUSH1 0x20 DUP2 ADD SWAP1 POP SWAP2 SWAP1 POP JUMP JUMPDEST DUP3 DUP2 DUP4 CALLDATACOPY PUSH0 DUP4 DUP4 ADD MSTORE POP POP POP JUMP JUMPDEST PUSH0 PUSH2 0x606 PUSH2 0x601 DUP5 PUSH2 0x5B6 JUMP JUMPDEST PUSH2 0x59C JUMP JUMPDEST SWAP1 POP DUP3 DUP2 MSTORE PUSH1 0x20 DUP2 ADD DUP5 DUP5 DUP5 ADD GT ISZERO PUSH2 0x622 JUMPI PUSH2 0x621 PUSH2 0x52A JUMP JUMPDEST JUMPDEST PUSH2 0x62D DUP5 DUP3 DUP6 PUSH2 0x5E6 JUMP JUMPDEST POP SWAP4 SWAP3 POP POP POP JUMP JUMPDEST PUSH0 DUP3 PUSH1 0x1F DUP4 ADD SLT PUSH2 0x649 JUMPI PUSH2 0x648 PUSH2 0x526 JUMP JUMPDEST JUMPDEST DUP2 CALLDATALOAD PUSH2 0x659 DUP5 DUP3 PUSH1 0x20 DUP7 ADD PUSH2 0x5F4 JUMP JUMPDEST SWAP2 POP POP SWAP3 SWAP2 POP POP JUMP JUMPDEST PUSH0 PUSH1 0x20 DUP3 DUP5 SUB SLT ISZERO PUSH2 0x677 JUMPI PUSH2 0x676 PUSH2 0x4C9 JUMP JUMPDEST JUMPDEST PUSH0 DUP3 ADD CALLDATALOAD PUSH8 0xFFFFFFFFFFFFFFFF DUP2 GT ISZERO PUSH2 0x694 JUMPI PUSH2 0x693 PUSH2 0x4CD JUMP JUMPDEST JUMPDEST PUSH2 0x6A0 DUP5 DUP3 DUP6 ADD PUSH2 0x635 JUMP JUMPDEST SWAP2 POP POP SWAP3 SWAP2 POP POP JUMP JUMPDEST PUSH0 DUP2 MLOAD SWAP1 POP SWAP2 SWAP1 POP JUMP JUMPDEST PUSH0 DUP3 DUP3 MSTORE PUSH1 0x20 DUP3 ADD SWAP1 POP SWAP3 SWAP2 POP POP JUMP JUMPDEST DUP3 DUP2 DUP4 MCOPY PUSH0 DUP4 DUP4 ADD MSTORE POP POP POP JUMP JUMPDEST PUSH0 PUSH2 0x6DB DUP3 PUSH2 0x6A9 JUMP JUMPDEST PUSH2 0x6E5 DUP2 DUP6 PUSH2 0x6B3 JUMP JUMPDEST SWAP4 POP PUSH2 0x6F5 DUP2 DUP6 PUSH1 0x20 DUP7 ADD PUSH2 0x6C3 JUMP JUMPDEST PUSH2 0x6FE DUP2 PUSH2 0x52E JUMP JUMPDEST DUP5 ADD SWAP2 POP POP SWAP3 SWAP2 POP POP JUMP JUMPDEST PUSH0 PUSH1 0x60 DUP3 ADD SWAP1 POP DUP2 DUP2 SUB PUSH0 DUP4 ADD MSTORE PUSH2 0x721 DUP2 DUP7 PUSH2 0x6D1 JUMP JUMPDEST SWAP1 POP PUSH2 0x730 PUSH1 0x20 DUP4 ADD DUP6 PUSH2 0x498 JUMP JUMPDEST PUSH2 0x73D PUSH1 0x40 DUP4 ADD DUP5 PUSH2 0x498 JUMP JUMPDEST SWAP5 SWAP4 POP POP POP POP JUMP JUMPDEST PUSH0 PUSH0 PUSH0 PUSH1 0x60 DUP5 DUP7 SUB SLT ISZERO PUSH2 0x75C JUMPI PUSH2 0x75B PUSH2 0x4C9 JUMP JUMPDEST JUMPDEST PUSH0 DUP5 ADD CALLDATALOAD PUSH8 0xFFFFFFFFFFFFFFFF DUP2 GT ISZERO PUSH2 0x779 JUMPI PUSH2 0x778 PUSH2 0x4CD JUMP JUMPDEST JUMPDEST PUSH2 0x785 DUP7 DUP3 DUP8 ADD PUSH2 0x635 JUMP JUMPDEST SWAP4 POP POP PUSH1 0x20 PUSH2 0x796 DUP7 DUP3 DUP8 ADD PUSH2 0x4E7 JUMP JUMPDEST SWAP3 POP POP PUSH1 0x40 PUSH2 0x7A7 DUP7 DUP3 DUP8 ADD PUSH2 0x4E7 JUMP JUMPDEST SWAP2 POP POP SWAP3 POP SWAP3 POP SWAP3 JUMP JUMPDEST PUSH32 0x4E487B7100000000000000000000000000000000000000000000000000000000 PUSH0 MSTORE PUSH1 0x11 PUSH1 0x4 MSTORE PUSH1 0x24 PUSH0 REVERT JUMPDEST PUSH0 PUSH2 0x7E8 DUP3 PUSH2 0x48F JUMP JUMPDEST SWAP2 POP PUSH2 0x7F3 DUP4 PUSH2 0x48F JUMP JUMPDEST SWAP3 POP DUP3 DUP3 MUL PUSH2 0x801 DUP2 PUSH2 0x48F JUMP JUMPDEST SWAP2 POP DUP3 DUP3 DIV DUP5 EQ DUP4 ISZERO OR PUSH2 0x818 JUMPI PUSH2 0x817 PUSH2 0x7B1 JUMP JUMPDEST JUMPDEST POP SWAP3 SWAP2 POP POP JUMP JUMPDEST PUSH32 0x4E487B7100000000000000000000000000000000000000000000000000000000 PUSH0 MSTORE PUSH1 0x12 PUSH1 0x4 MSTORE PUSH1 0x24 PUSH0 REVERT JUMPDEST PUSH0 PUSH2 0x856 DUP3 PUSH2 0x48F JUMP JUMPDEST SWAP2 POP PUSH2 0x861 DUP4 PUSH2 0x48F JUMP JUMPDEST SWAP3 POP DUP3 PUSH2 0x871 JUMPI PUSH2 0x870 PUSH2 0x81F JUMP JUMPDEST JUMPDEST DUP3 DUP3 DIV SWAP1 POP SWAP3 SWAP2 POP POP JUMP JUMPDEST PUSH32 0x4E487B7100000000000000000000000000000000000000000000000000000000 PUSH0 MSTORE PUSH1 0x22 PUSH1 0x4 MSTORE PUSH1 0x24 PUSH0 REVERT JUMPDEST PUSH0 PUSH1 0x2 DUP3 DIV SWAP1 POP PUSH1 0x1 DUP3 AND DUP1 PUSH2 0x8C0 JUMPI PUSH1 0x7F DUP3 AND SWAP2 POP JUMPDEST PUSH1 0x20 DUP3 LT DUP2 SUB PUSH2 0x8D3 JUMPI PUSH2 0x8D2 PUSH2 0x87C JUMP JUMPDEST JUMPDEST POP SWAP2 SWAP1 POP JUMP JUMPDEST PUSH0 DUP2 SWAP1 POP DUP2 PUSH0 MSTORE PUSH1 0x20 PUSH0 KECCAK256 SWAP1 POP SWAP2 SWAP1 POP JUMP JUMPDEST PUSH0 PUSH1 0x20 PUSH1 0x1F DUP4 ADD DIV SWAP1 POP SWAP2 SWAP1 POP JUMP JUMPDEST PUSH0 DUP3 DUP3 SHL SWAP1 POP SWAP3 SWAP2 POP POP JUMP JUMPDEST PUSH0 PUSH1 0x8 DUP4 MUL PUSH2 0x935 PUSH32 0xFFFFFFFFFFFFFFFFFFFFFFFFFFFFFFFFFFFFFFFFFFFFFFFFFFFFFFFFFFFFFFFF DUP3 PUSH2 0x8FA JUMP JUMPDEST PUSH2 0x93F DUP7 DUP4 PUSH2 0x8FA JUMP JUMPDEST SWAP6 POP DUP1 NOT DUP5 AND SWAP4 POP DUP1 DUP7 AND DUP5 OR SWAP3 POP POP POP SWAP4 SWAP3 POP POP POP JUMP JUMPDEST PUSH0 DUP2 SWAP1 POP SWAP2 SWAP1 POP JUMP JUMPDEST PUSH0 PUSH2 0x97A PUSH2 0x975 PUSH2 0x970 DUP5 PUSH2 0x48F JUMP JUMPDEST PUSH2 0x957 JUMP JUMPDEST PUSH2 0x48F JUMP JUMPDEST SWAP1 POP SWAP2 SWAP1 POP JUMP JUMPDEST PUSH0 DUP2 SWAP1 POP SWAP2 SWAP1 POP JUMP JUMPDEST PUSH2 0x993 DUP4 PUSH2 0x960 JUMP JUMPDEST PUSH2 0x9A7 PUSH2 0x99F DUP3 PUSH2 0x981 JUMP JUMPDEST DUP5 DUP5 SLOAD PUSH2 0x906 JUMP JUMPDEST DUP3 SSTORE POP POP POP POP JUMP JUMPDEST PUSH0 PUSH0 SWAP1 POP SWAP1 JUMP JUMPDEST PUSH2 0x9BE PUSH2 0x9AF JUMP JUMPDEST PUSH2 0x9C9 DUP2 DUP5 DUP5 PUSH2 0x98A JUMP JUMPDEST POP POP POP JUMP JUMPDEST JUMPDEST DUP2 DUP2 LT ISZERO PUSH2 0x9EC JUMPI PUSH2 0x9E1 PUSH0 DUP3 PUSH2 0x9B6 JUMP JUMPDEST PUSH1 0x1 DUP2 ADD SWAP1 POP PUSH2 0x9CF JUMP JUMPDEST POP POP JUMP JUMPDEST PUSH1 0x1F DUP3 GT ISZERO PUSH2 0xA31 JUMPI PUSH2 0xA02 DUP2 PUSH2 0x8D9 JUMP JUMPDEST PUSH2 0xA0B DUP5 PUSH2 0x8EB JUMP JUMPDEST DUP2 ADD PUSH1 0x20 DUP6 LT ISZERO PUSH2 0xA1A JUMPI DUP2 SWAP1 POP JUMPDEST PUSH2 0xA2E PUSH2 0xA26 DUP6 PUSH2 0x8EB JUMP JUMPDEST DUP4 ADD DUP3 PUSH2 0x9CE JUMP JUMPDEST POP POP JUMPDEST POP POP POP JUMP JUMPDEST PUSH0 DUP3 DUP3 SHR SWAP1 POP SWAP3 SWAP2 POP POP JUMP JUMPDEST PUSH0 PUSH2 0xA51 PUSH0 NOT DUP5 PUSH1 0x8 MUL PUSH2 0xA36 JUMP JUMPDEST NOT DUP1 DUP4 AND SWAP2 POP POP SWAP3 SWAP2 POP POP JUMP JUMPDEST PUSH0 PUSH2 0xA69 DUP4 DUP4 PUSH2 0xA42 JUMP JUMPDEST SWAP2 POP DUP3 PUSH1 0x2 MUL DUP3 OR SWAP1 POP SWAP3 SWAP2 POP POP JUMP JUMPDEST PUSH2 0xA82 DUP3 PUSH2 0x6A9 JUMP JUMPDEST PUSH8 0xFFFFFFFFFFFFFFFF DUP2 GT ISZERO PUSH2 0xA9B JUMPI PUSH2 0xA9A PUSH2 0x53E JUMP JUMPDEST JUMPDEST PUSH2 0xAA5 DUP3 SLOAD PUSH2 0x8A9 JUMP JUMPDEST PUSH2 0xAB0 DUP3 DUP3 DUP6 PUSH2 0x9F0 JUMP JUMPDEST PUSH0 PUSH1 0x20 SWAP1 POP PUSH1 0x1F DUP4 GT PUSH1 0x1 DUP2 EQ PUSH2 0xAE1 JUMPI PUSH0 DUP5 ISZERO PUSH2 0xACF JUMPI DUP3 DUP8 ADD MLOAD SWAP1 POP JUMPDEST PUSH2 0xAD9 DUP6 DUP3 PUSH2 0xA5E JUMP JUMPDEST DUP7 SSTORE POP PUSH2 0xB40 JUMP JUMPDEST PUSH1 0x1F NOT DUP5 AND PUSH2 0xAEF DUP7 PUSH2 0x8D9 JUMP JUMPDEST PUSH0 JUMPDEST DUP3 DUP2 LT ISZERO PUSH2 0xB16 JUMPI DUP5 DUP10 ADD MLOAD DUP3 SSTORE PUSH1 0x1 DUP3 ADD SWAP2 POP PUSH1 0x20 DUP6 ADD SWAP5 POP PUSH1 0x20 DUP2 ADD SWAP1 POP PUSH2 0xAF1 JUMP JUMPDEST DUP7 DUP4 LT ISZERO PUSH2 0xB33 JUMPI DUP5 DUP10 ADD MLOAD PUSH2 0xB2F PUSH1 0x1F DUP10 AND DUP3 PUSH2 0xA42 JUMP JUMPDEST DUP4 SSTORE POP JUMPDEST PUSH1 0x1 PUSH1 0x2 DUP9 MUL ADD DUP9 SSTORE POP POP POP JUMPDEST POP POP POP POP POP POP JUMP JUMPDEST PUSH0 DUP2 SWAP1 POP SWAP3 SWAP2 POP POP JUMP JUMPDEST PUSH0 PUSH2 0xB5C DUP3 PUSH2 0x6A9 JUMP JUMPDEST PUSH2 0xB66 DUP2 DUP6 PUSH2 0xB48 JUMP JUMPDEST SWAP4 POP PUSH2 0xB76 DUP2 DUP6 PUSH1 0x20 DUP7 ADD PUSH2 0x6C3 JUMP JUMPDEST DUP1 DUP5 ADD SWAP2 POP POP SWAP3 SWAP2 POP POP JUMP JUMPDEST PUSH0 PUSH2 0xB8D DUP3 DUP5 PUSH2 0xB52 JUMP JUMPDEST SWAP2 POP DUP2 SWAP1 POP SWAP3 SWAP2 POP POP JUMP JUMPDEST PUSH0 PUSH2 0xBA2 DUP3 PUSH2 0x48F JUMP JUMPDEST SWAP2 POP PUSH2 0xBAD DUP4 PUSH2 0x48F JUMP JUMPDEST SWAP3 POP DUP3 DUP3 SUB SWAP1 POP DUP2 DUP2 GT ISZERO PUSH2 0xBC5 JUMPI PUSH2 0xBC4 PUSH2 0x7B1 JUMP JUMPDEST JUMPDEST SWAP3 SWAP2 POP POP JUMP JUMPDEST PUSH0 PUSH2 0xBD5 DUP3 PUSH2 0x48F JUMP JUMPDEST SWAP2 POP PUSH2 0xBE0 DUP4 PUSH2 0x48F JUMP JUMPDEST SWAP3 POP DUP3 DUP3 ADD SWAP1 POP DUP1 DUP3 GT ISZERO PUSH2 0xBF8 JUMPI PUSH2 0xBF7 PUSH2 0x7B1 JUMP JUMPDEST JUMPDEST SWAP3 SWAP2 POP POP JUMP INVALID LOG2 PUSH5 0x6970667358 0x22 SLT KECCAK256 0xCC 0xE2 ORIGIN ADDMOD DUP15 SDIV 0xB5 PUSH1 0xE3 0x28 0x2F MLOAD PUSH7 0x97CACCD3E06770 ADDRESS 0xB9 PUSH0 PUSH11 0xB75C54BB68A7035264736F PUSH13 0x634300081F0033000000000000 "
				},
				"gasEstimates": {
					"creation": {
						"codeDepositCost": "624800",
						"executionCost": "655",
						"totalCost": "625455"
					},
					"external": {
						"addPerson(string,uint256,uint256)": "infinite",
						"addition()": "infinite",
						"division()": "infinite",
						"firstNumber()": "2447",
						"multiplication()": "infinite",
						"nameToAge(string)": "infinite",
						"nameToFavoriteNumber(string)": "infinite",
						"people(uint256)": "infinite",
						"secondNumber()": "2514",
						"setFirstNumber(uint256)": "22580",
						"setSecondNumber(uint256)": "22582",
						"subtraction()": "infinite"
					}
				},
				"methodIdentifiers": {
					"addPerson(string,uint256,uint256)": "abbc0a8a",
					"addition()": "ec597128",
					"division()": "3205f5fc",
					"firstNumber()": "2173d6e9",
					"multiplication()": "011285da",
					"nameToAge(string)": "90c3ee4d",
					"nameToFavoriteNumber(string)": "8bab8dd5",
					"people(uint256)": "9e7a13ad",
					"secondNumber()": "7cc5c136",
					"setFirstNumber(uint256)": "cd89e72a",
					"setSecondNumber(uint256)": "4caadbef",
					"subtraction()": "e3ec0251"
				}
			},
			"storageLayout": {
				"storage": [
					{
						"astId": 3,
						"contract": "contract/simplestorage.sol:Project",
						"label": "firstNumber",
						"offset": 0,
						"slot": "0",
						"type": "t_uint256"
					},
					{
						"astId": 5,
						"contract": "contract/simplestorage.sol:Project",
						"label": "secondNumber",
						"offset": 0,
						"slot": "1",
						"type": "t_uint256"
					},
					{
						"astId": 16,
						"contract": "contract/simplestorage.sol:Project",
						"label": "people",
						"offset": 0,
						"slot": "2",
						"type": "t_array(t_struct(Person)12_storage)dyn_storage"
					},
					{
						"astId": 20,
						"contract": "contract/simplestorage.sol:Project",
						"label": "nameToAge",
						"offset": 0,
						"slot": "3",
						"type": "t_mapping(t_string_memory_ptr,t_uint256)"
					},
					{
						"astId": 24,
						"contract": "contract/simplestorage.sol:Project",
						"label": "nameToFavoriteNumber",
						"offset": 0,
						"slot": "4",
						"type": "t_mapping(t_string_memory_ptr,t_uint256)"
					}
				],
				"types": {
					"t_array(t_struct(Person)12_storage)dyn_storage": {
						"base": "t_struct(Person)12_storage",
						"encoding": "dynamic_array",
						"label": "struct Project.Person[]",
						"numberOfBytes": "32"
					},
					"t_mapping(t_string_memory_ptr,t_uint256)": {
						"encoding": "mapping",
						"key": "t_string_memory_ptr",
						"label": "mapping(string => uint256)",
						"numberOfBytes": "32",
						"value": "t_uint256"
					},
					"t_string_memory_ptr": {
						"encoding": "bytes",
						"label": "string",
						"numberOfBytes": "32"
					},
					"t_string_storage": {
						"encoding": "bytes",
						"label": "string",
						"numberOfBytes": "32"
					},
					"t_struct(Person)12_storage": {
						"encoding": "inplace",
						"label": "struct Project.Person",
						"members": [
							{
								"astId": 7,
								"contract": "contract/simplestorage.sol:Project",
								"label": "name",
								"offset": 0,
								"slot": "0",
								"type": "t_string_storage"
							},
							{
								"astId": 9,
								"contract": "contract/simplestorage.sol:Project",
								"label": "age",
								"offset": 0,
								"slot": "1",
								"type": "t_uint256"
							},
							{
								"astId": 11,
								"contract": "contract/simplestorage.sol:Project",
								"label": "favoriteNumber",
								"offset": 0,
								"slot": "2",
								"type": "t_uint256"
							}
						],
						"numberOfBytes": "96"
					},
					"t_uint256": {
						"encoding": "inplace",
						"label": "uint256",
						"numberOfBytes": "32"
					}
				}
			},
			"userdoc": {
				"kind": "user",
				"methods": {},
				"version": 1
			}
		}
	}
}