{
	"data": {
		"bytecode": {
			"linkReferences": {},
			"object": "6080604052348015600e575f5ffd5b50610a4f8061001c5f395ff3fe608060405234801561000f575f5ffd5b506004361061009c575f3560e01c80637cc5c136116100645780637cc5c13614610132578063c7fb346814610150578063cd89e72a14610181578063e3ec02511461019d578063ec597128146101bb5761009c565b8063011285da146100a05780632173d6e9146100be5780633205f5fc146100dc5780633fbd5bf0146100fa5780634caadbef14610116575b5f5ffd5b6100a86101d9565b6040516100b59190610379565b60405180910390f35b6100c66101ee565b6040516100d39190610379565b60405180910390f35b6100e46101f3565b6040516100f19190610379565b60405180910390f35b610114600480360381019061010f9190610509565b610208565b005b610130600480360381019061012b9190610563565b610269565b005b61013a610273565b6040516101479190610379565b60405180910390f35b61016a60048036038101906101659190610563565b610279565b6040516101789291906105ee565b60405180910390f35b61019b60048036038101906101969190610563565b61032e565b005b6101a5610337565b6040516101b29190610379565b60405180910390f35b6101c361034c565b6040516101d09190610379565b60405180910390f35b5f6001545f546101e99190610649565b905090565b5f5481565b5f6001545f5461020391906106b7565b905090565b6002604051806040016040528083815260200184815250908060018154018082558091505060019003905f5260205f2090600202015f909190919091505f820151815f0155602082015181600101908161026291906108e4565b5050505050565b8060018190555050565b60015481565b60028181548110610288575f80fd5b905f5260205f2090600202015f91509050805f0154908060010180546102ad90610714565b80601f01602080910402602001604051908101604052809291908181526020018280546102d990610714565b80156103245780601f106102fb57610100808354040283529160200191610324565b820191905f5260205f20905b81548152906001019060200180831161030757829003601f168201915b5050505050905082565b805f8190555050565b5f6001545f5461034791906109b3565b905090565b5f6001545f5461035c91906109e6565b905090565b5f819050919050565b61037381610361565b82525050565b5f60208201905061038c5f83018461036a565b92915050565b5f604051905090565b5f5ffd5b5f5ffd5b5f5ffd5b5f5ffd5b5f601f19601f8301169050919050565b7f4e487b71000000000000000000000000000000000000000000000000000000005f52604160045260245ffd5b6103f1826103ab565b810181811067ffffffffffffffff821117156104105761040f6103bb565b5b80604052505050565b5f610422610392565b905061042e82826103e8565b919050565b5f67ffffffffffffffff82111561044d5761044c6103bb565b5b610456826103ab565b9050602081019050919050565b828183375f83830152505050565b5f61048361047e84610433565b610419565b90508281526020810184848401111561049f5761049e6103a7565b5b6104aa848285610463565b509392505050565b5f82601f8301126104c6576104c56103a3565b5b81356104d6848260208601610471565b91505092915050565b6104e881610361565b81146104f2575f5ffd5b50565b5f81359050610503816104df565b92915050565b5f5f6040838503121561051f5761051e61039b565b5b5f83013567ffffffffffffffff81111561053c5761053b61039f565b5b610548858286016104b2565b9250506020610559858286016104f5565b9150509250929050565b5f602082840312156105785761057761039b565b5b5f610585848285016104f5565b91505092915050565b5f81519050919050565b5f82825260208201905092915050565b8281835e5f83830152505050565b5f6105c08261058e565b6105ca8185610598565b93506105da8185602086016105a8565b6105e3816103ab565b840191505092915050565b5f6040820190506106015f83018561036a565b818103602083015261061381846105b6565b90509392505050565b7f4e487b71000000000000000000000000000000000000000000000000000000005f52601160045260245ffd5b5f61065382610361565b915061065e83610361565b925082820261066c81610361565b915082820484148315176106835761068261061c565b5b5092915050565b7f4e487b71000000000000000000000000000000000000000000000000000000005f52601260045260245ffd5b5f6106c182610361565b91506106cc83610361565b9250826106dc576106db61068a565b5b828204905092915050565b7f4e487b71000000000000000000000000000000000000000000000000000000005f52602260045260245ffd5b5f600282049050600182168061072b57607f821691505b60208210810361073e5761073d6106e7565b5b50919050565b5f819050815f5260205f209050919050565b5f6020601f8301049050919050565b5f82821b905092915050565b5f600883026107a07fffffffffffffffffffffffffffffffffffffffffffffffffffffffffffffffff82610765565b6107aa8683610765565b95508019841693508086168417925050509392505050565b5f819050919050565b5f6107e56107e06107db84610361565b6107c2565b610361565b9050919050565b5f819050919050565b6107fe836107cb565b61081261080a826107ec565b848454610771565b825550505050565b5f5f905090565b61082961081a565b6108348184846107f5565b505050565b5b818110156108575761084c5f82610821565b60018101905061083a565b5050565b601f82111561089c5761086d81610744565b61087684610756565b81016020851015610885578190505b61089961089185610756565b830182610839565b50505b505050565b5f82821c905092915050565b5f6108bc5f19846008026108a1565b1980831691505092915050565b5f6108d483836108ad565b9150826002028217905092915050565b6108ed8261058e565b67ffffffffffffffff811115610906576109056103bb565b5b6109108254610714565b61091b82828561085b565b5f60209050601f83116001811461094c575f841561093a578287015190505b61094485826108c9565b8655506109ab565b601f19841661095a86610744565b5f5b828110156109815784890151825560018201915060208501945060208101905061095c565b8683101561099e578489015161099a601f8916826108ad565b8355505b6001600288020188555050505b505050505050565b5f6109bd82610361565b91506109c883610361565b92508282039050818111156109e0576109df61061c565b5b92915050565b5f6109f082610361565b91506109fb83610361565b9250828201905080821115610a1357610a1261061c565b5b9291505056fea2646970667358221220a6e6a20c0f05f54139bdb596076ab21baa5fb84c1b69b98390e53d1712a7283064736f6c634300081f0033",
			"opcodes": "PUSH1 0x80 PUSH1 0x40 MSTORE CALLVALUE DUP1 ISZERO PUSH1 0xE JUMPI PUSH0 PUSH0 REVERT JUMPDEST POP PUSH2 0xA4F DUP1 PUSH2 0x1C PUSH0 CODECOPY PUSH0 RETURN INVALID PUSH1 0x80 PUSH1 0x40 MSTORE CALLVALUE DUP1 ISZERO PUSH2 0xF JUMPI PUSH0 PUSH0 REVERT JUMPDEST POP PUSH1 0x4 CALLDATASIZE LT PUSH2 0x9C JUMPI PUSH0 CALLDATALOAD PUSH1 0xE0 SHR DUP1 PUSH4 0x7CC5C136 GT PUSH2 0x64 JUMPI DUP1 PUSH4 0x7CC5C136 EQ PUSH2 0x132 JUMPI DUP1 PUSH4 0xC7FB3468 EQ PUSH2 0x150 JUMPI DUP1 PUSH4 0xCD89E72A EQ PUSH2 0x181 JUMPI DUP1 PUSH4 0xE3EC0251 EQ PUSH2 0x19D JUMPI DUP1 PUSH4 0xEC597128 EQ PUSH2 0x1BB JUMPI PUSH2 0x9C JUMP JUMPDEST DUP1 PUSH4 0x11285DA EQ PUSH2 0xA0 JUMPI DUP1 PUSH4 0x2173D6E9 EQ PUSH2 0xBE JUMPI DUP1 PUSH4 0x3205F5FC EQ PUSH2 0xDC JUMPI DUP1 PUSH4 0x3FBD5BF0 EQ PUSH2 0xFA JUMPI DUP1 PUSH4 0x4CAADBEF EQ PUSH2 0x116 JUMPI JUMPDEST PUSH0 PUSH0 REVERT JUMPDEST PUSH2 0xA8 PUSH2 0x1D9 JUMP JUMPDEST PUSH1 0x40 MLOAD PUSH2 0xB5 SWAP2 SWAP1 PUSH2 0x379 JUMP JUMPDEST PUSH1 0x40 MLOAD DUP1 SWAP2 SUB SWAP1 RETURN JUMPDEST PUSH2 0xC6 PUSH2 0x1EE JUMP JUMPDEST PUSH1 0x40 MLOAD PUSH2 0xD3 SWAP2 SWAP1 PUSH2 0x379 JUMP JUMPDEST PUSH1 0x40 MLOAD DUP1 SWAP2 SUB SWAP1 RETURN JUMPDEST PUSH2 0xE4 PUSH2 0x1F3 JUMP JUMPDEST PUSH1 0x40 MLOAD PUSH2 0xF1 SWAP2 SWAP1 PUSH2 0x379 JUMP JUMPDEST PUSH1 0x40 MLOAD DUP1 SWAP2 SUB SWAP1 RETURN JUMPDEST PUSH2 0x114 PUSH1 0x4 DUP1 CALLDATASIZE SUB DUP2 ADD SWAP1 PUSH2 0x10F SWAP2 SWAP1 PUSH2 0x509 JUMP JUMPDEST PUSH2 0x208 JUMP JUMPDEST STOP JUMPDEST PUSH2 0x130 PUSH1 0x4 DUP1 CALLDATASIZE SUB DUP2 ADD SWAP1 PUSH2 0x12B SWAP2 SWAP1 PUSH2 0x563 JUMP JUMPDEST PUSH2 0x269 JUMP JUMPDEST STOP JUMPDEST PUSH2 0x13A PUSH2 0x273 JUMP JUMPDEST PUSH1 0x40 MLOAD PUSH2 0x147 SWAP2 SWAP1 PUSH2 0x379 JUMP JUMPDEST PUSH1 0x40 MLOAD DUP1 SWAP2 SUB SWAP1 RETURN JUMPDEST PUSH2 0x16A PUSH1 0x4 DUP1 CALLDATASIZE SUB DUP2 ADD SWAP1 PUSH2 0x165 SWAP2 SWAP1 PUSH2 0x563 JUMP JUMPDEST PUSH2 0x279 JUMP JUMPDEST PUSH1 0x40 MLOAD PUSH2 0x178 SWAP3 SWAP2 SWAP1 PUSH2 0x5EE JUMP JUMPDEST PUSH1 0x40 MLOAD DUP1 SWAP2 SUB SWAP1 RETURN JUMPDEST PUSH2 0x19B PUSH1 0x4 DUP1 CALLDATASIZE SUB DUP2 ADD SWAP1 PUSH2 0x196 SWAP2 SWAP1 PUSH2 0x563 JUMP JUMPDEST PUSH2 0x32E JUMP JUMPDEST STOP JUMPDEST PUSH2 0x1A5 PUSH2 0x337 JUMP JUMPDEST PUSH1 0x40 MLOAD PUSH2 0x1B2 SWAP2 SWAP1 PUSH2 0x379 JUMP JUMPDEST PUSH1 0x40 MLOAD DUP1 SWAP2 SUB SWAP1 RETURN JUMPDEST PUSH2 0x1C3 PUSH2 0x34C JUMP JUMPDEST PUSH1 0x40 MLOAD PUSH2 0x1D0 SWAP2 SWAP1 PUSH2 0x379 JUMP JUMPDEST PUSH1 0x40 MLOAD DUP1 SWAP2 SUB SWAP1 RETURN JUMPDEST PUSH0 PUSH1 0x1 SLOAD PUSH0 SLOAD PUSH2 0x1E9 SWAP2 SWAP1 PUSH2 0x649 JUMP JUMPDEST SWAP1 POP SWAP1 JUMP JUMPDEST PUSH0 SLOAD DUP2 JUMP JUMPDEST PUSH0 PUSH1 0x1 SLOAD PUSH0 SLOAD PUSH2 0x203 SWAP2 SWAP1 PUSH2 0x6B7 JUMP JUMPDEST SWAP1 POP SWAP1 JUMP JUMPDEST PUSH1 0x2 PUSH1 0x40 MLOAD DUP1 PUSH1 0x40 ADD PUSH1 0x40 MSTORE DUP1 DUP4 DUP2 MSTORE PUSH1 0x20 ADD DUP5 DUP2 MSTORE POP SWAP1 DUP1 PUSH1 0x1 DUP2 SLOAD ADD DUP1 DUP3 SSTORE DUP1 SWAP2 POP POP PUSH1 0x1 SWAP1 SUB SWAP1 PUSH0 MSTORE PUSH1 0x20 PUSH0 KECCAK256 SWAP1 PUSH1 0x2 MUL ADD PUSH0 SWAP1 SWAP2 SWAP1 SWAP2 SWAP1 SWAP2 POP PUSH0 DUP3 ADD MLOAD DUP2 PUSH0 ADD SSTORE PUSH1 0x20 DUP3 ADD MLOAD DUP2 PUSH1 0x1 ADD SWAP1 DUP2 PUSH2 0x262 SWAP2 SWAP1 PUSH2 0x8E4 JUMP JUMPDEST POP POP POP POP POP JUMP JUMPDEST DUP1 PUSH1 0x1 DUP2 SWAP1 SSTORE POP POP JUMP JUMPDEST PUSH1 0x1 SLOAD DUP2 JUMP JUMPDEST PUSH1 0x2 DUP2 DUP2 SLOAD DUP2 LT PUSH2 0x288 JUMPI PUSH0 DUP1 REVERT JUMPDEST SWAP1 PUSH0 MSTORE PUSH1 0x20 PUSH0 KECCAK256 SWAP1 PUSH1 0x2 MUL ADD PUSH0 SWAP2 POP SWAP1 POP DUP1 PUSH0 ADD SLOAD SWAP1 DUP1 PUSH1 0x1 ADD DUP1 SLOAD PUSH2 0x2AD SWAP1 PUSH2 0x714 JUMP JUMPDEST DUP1 PUSH1 0x1F ADD PUSH1 0x20 DUP1 SWAP2 DIV MUL PUSH1 0x20 ADD PUSH1 0x40 MLOAD SWAP1 DUP2 ADD PUSH1 0x40 MSTORE DUP1 SWAP3 SWAP2 SWAP1 DUP2 DUP2 MSTORE PUSH1 0x20 ADD DUP3 DUP1 SLOAD PUSH2 0x2D9 SWAP1 PUSH2 0x714 JUMP JUMPDEST DUP1 ISZERO PUSH2 0x324 JUMPI DUP1 PUSH1 0x1F LT PUSH2 0x2FB JUMPI PUSH2 0x100 DUP1 DUP4 SLOAD DIV MUL DUP4 MSTORE SWAP2 PUSH1 0x20 ADD SWAP2 PUSH2 0x324 JUMP JUMPDEST DUP3 ADD SWAP2 SWAP1 PUSH0 MSTORE PUSH1 0x20 PUSH0 KECCAK256 SWAP1 JUMPDEST DUP2 SLOAD DUP2 MSTORE SWAP1 PUSH1 0x1 ADD SWAP1 PUSH1 0x20 ADD DUP1 DUP4 GT PUSH2 0x307 JUMPI DUP3 SWAP1 SUB PUSH1 0x1F AND DUP3 ADD SWAP2 JUMPDEST POP POP POP POP POP SWAP1 POP DUP3 JUMP JUMPDEST DUP1 PUSH0 DUP2 SWAP1 SSTORE POP POP JUMP JUMPDEST PUSH0 PUSH1 0x1 SLOAD PUSH0 SLOAD PUSH2 0x347 SWAP2 SWAP1 PUSH2 0x9B3 JUMP JUMPDEST SWAP1 POP SWAP1 JUMP JUMPDEST PUSH0 PUSH1 0x1 SLOAD PUSH0 SLOAD PUSH2 0x35C SWAP2 SWAP1 PUSH2 0x9E6 JUMP JUMPDEST SWAP1 POP SWAP1 JUMP JUMPDEST PUSH0 DUP2 SWAP1 POP SWAP2 SWAP1 POP JUMP JUMPDEST PUSH2 0x373 DUP2 PUSH2 0x361 JUMP JUMPDEST DUP3 MSTORE POP POP JUMP JUMPDEST PUSH0 PUSH1 0x20 DUP3 ADD SWAP1 POP PUSH2 0x38C PUSH0 DUP4 ADD DUP5 PUSH2 0x36A JUMP JUMPDEST SWAP3 SWAP2 POP POP JUMP JUMPDEST PUSH0 PUSH1 0x40 MLOAD SWAP1 POP SWAP1 JUMP JUMPDEST PUSH0 PUSH0 REVERT JUMPDEST PUSH0 PUSH0 REVERT JUMPDEST PUSH0 PUSH0 REVERT JUMPDEST PUSH0 PUSH0 REVERT JUMPDEST PUSH0 PUSH1 0x1F NOT PUSH1 0x1F DUP4 ADD AND SWAP1 POP SWAP2 SWAP1 POP JUMP JUMPDEST PUSH32 0x4E487B7100000000000000000000000000000000000000000000000000000000 PUSH0 MSTORE PUSH1 0x41 PUSH1 0x4 MSTORE PUSH1 0x24 PUSH0 REVERT JUMPDEST PUSH2 0x3F1 DUP3 PUSH2 0x3AB JUMP JUMPDEST DUP2 ADD DUP2 DUP2 LT PUSH8 0xFFFFFFFFFFFFFFFF DUP3 GT OR ISZERO PUSH2 0x410 JUMPI PUSH2 0x40F PUSH2 0x3BB JUMP JUMPDEST JUMPDEST DUP1 PUSH1 0x40 MSTORE POP POP POP JUMP JUMPDEST PUSH0 PUSH2 0x422 PUSH2 0x392 JUMP JUMPDEST SWAP1 POP PUSH2 0x42E DUP3 DUP3 PUSH2 0x3E8 JUMP JUMPDEST SWAP2 SWAP1 POP JUMP JUMPDEST PUSH0 PUSH8 0xFFFFFFFFFFFFFFFF DUP3 GT ISZERO PUSH2 0x44D JUMPI PUSH2 0x44C PUSH2 0x3BB JUMP JUMPDEST JUMPDEST PUSH2 0x456 DUP3 PUSH2 0x3AB JUMP JUMPDEST SWAP1 POP PUSH1 0x20 DUP2 ADD SWAP1 POP SWAP2 SWAP1 POP JUMP JUMPDEST DUP3 DUP2 DUP4 CALLDATACOPY PUSH0 DUP4 DUP4 ADD MSTORE POP POP POP JUMP JUMPDEST PUSH0 PUSH2 0x483 PUSH2 0x47E DUP5 PUSH2 0x433 JUMP JUMPDEST PUSH2 0x419 JUMP JUMPDEST SWAP1 POP DUP3 DUP2 MSTORE PUSH1 0x20 DUP2 ADD DUP5 DUP5 DUP5 ADD GT ISZERO PUSH2 0x49F JUMPI PUSH2 0x49E PUSH2 0x3A7 JUMP JUMPDEST JUMPDEST PUSH2 0x4AA DUP5 DUP3 DUP6 PUSH2 0x463 JUMP JUMPDEST POP SWAP4 SWAP3 POP POP POP JUMP JUMPDEST PUSH0 DUP3 PUSH1 0x1F DUP4 ADD SLT PUSH2 0x4C6 JUMPI PUSH2 0x4C5 PUSH2 0x3A3 JUMP JUMPDEST JUMPDEST DUP2 CALLDATALOAD PUSH2 0x4D6 DUP5 DUP3 PUSH1 0x20 DUP7 ADD PUSH2 0x471 JUMP JUMPDEST SWAP2 POP POP SWAP3 SWAP2 POP POP JUMP JUMPDEST PUSH2 0x4E8 DUP2 PUSH2 0x361 JUMP JUMPDEST DUP2 EQ PUSH2 0x4F2 JUMPI PUSH0 PUSH0 REVERT JUMPDEST POP JUMP JUMPDEST PUSH0 DUP2 CALLDATALOAD SWAP1 POP PUSH2 0x503 DUP2 PUSH2 0x4DF JUMP JUMPDEST SWAP3 SWAP2 POP POP JUMP JUMPDEST PUSH0 PUSH0 PUSH1 0x40 DUP4 DUP6 SUB SLT ISZERO PUSH2 0x51F JUMPI PUSH2 0x51E PUSH2 0x39B JUMP JUMPDEST JUMPDEST PUSH0 DUP4 ADD CALLDATALOAD PUSH8 0xFFFFFFFFFFFFFFFF DUP2 GT ISZERO PUSH2 0x53C JUMPI PUSH2 0x53B PUSH2 0x39F JUMP JUMPDEST JUMPDEST PUSH2 0x548 DUP6 DUP3 DUP7 ADD PUSH2 0x4B2 JUMP JUMPDEST SWAP3 POP POP PUSH1 0x20 PUSH2 0x559 DUP6 DUP3 DUP7 ADD PUSH2 0x4F5 JUMP JUMPDEST SWAP2 POP POP SWAP3 POP SWAP3 SWAP1 POP JUMP JUMPDEST PUSH0 PUSH1 0x20 DUP3 DUP5 SUB SLT ISZERO PUSH2 0x578 JUMPI PUSH2 0x577 PUSH2 0x39B JUMP JUMPDEST JUMPDEST PUSH0 PUSH2 0x585 DUP5 DUP3 DUP6 ADD PUSH2 0x4F5 JUMP JUMPDEST SWAP2 POP POP SWAP3 SWAP2 POP POP JUMP JUMPDEST PUSH0 DUP2 MLOAD SWAP1 POP SWAP2 SWAP1 POP JUMP JUMPDEST PUSH0 DUP3 DUP3 MSTORE PUSH1 0x20 DUP3 ADD SWAP1 POP SWAP3 SWAP2 POP POP JUMP JUMPDEST DUP3 DUP2 DUP4 MCOPY PUSH0 DUP4 DUP4 ADD MSTORE POP POP POP JUMP JUMPDEST PUSH0 PUSH2 0x5C0 DUP3 PUSH2 0x58E JUMP JUMPDEST PUSH2 0x5CA DUP2 DUP6 PUSH2 0x598 JUMP JUMPDEST SWAP4 POP PUSH2 0x5DA DUP2 DUP6 PUSH1 0x20 DUP7 ADD PUSH2 0x5A8 JUMP JUMPDEST PUSH2 0x5E3 DUP2 PUSH2 0x3AB JUMP JUMPDEST DUP5 ADD SWAP2 POP POP SWAP3 SWAP2 POP POP JUMP JUMPDEST PUSH0 PUSH1 0x40 DUP3 ADD SWAP1 POP PUSH2 0x601 PUSH0 DUP4 ADD DUP6 PUSH2 0x36A JUMP JUMPDEST DUP2 DUP2 SUB PUSH1 0x20 DUP4 ADD MSTORE PUSH2 0x613 DUP2 DUP5 PUSH2 0x5B6 JUMP JUMPDEST SWAP1 POP SWAP4 SWAP3 POP POP POP JUMP JUMPDEST PUSH32 0x4E487B7100000000000000000000000000000000000000000000000000000000 PUSH0 MSTORE PUSH1 0x11 PUSH1 0x4 MSTORE PUSH1 0x24 PUSH0 REVERT JUMPDEST PUSH0 PUSH2 0x653 DUP3 PUSH2 0x361 JUMP JUMPDEST SWAP2 POP PUSH2 0x65E DUP4 PUSH2 0x361 JUMP JUMPDEST SWAP3 POP DUP3 DUP3 MUL PUSH2 0x66C DUP2 PUSH2 0x361 JUMP JUMPDEST SWAP2 POP DUP3 DUP3 DIV DUP5 EQ DUP4 ISZERO OR PUSH2 0x683 JUMPI PUSH2 0x682 PUSH2 0x61C JUMP JUMPDEST JUMPDEST POP SWAP3 SWAP2 POP POP JUMP JUMPDEST PUSH32 0x4E487B7100000000000000000000000000000000000000000000000000000000 PUSH0 MSTORE PUSH1 0x12 PUSH1 0x4 MSTORE PUSH1 0x24 PUSH0 REVERT JUMPDEST PUSH0 PUSH2 0x6C1 DUP3 PUSH2 0x361 JUMP JUMPDEST SWAP2 POP PUSH2 0x6CC DUP4 PUSH2 0x361 JUMP JUMPDEST SWAP3 POP DUP3 PUSH2 0x6DC JUMPI PUSH2 0x6DB PUSH2 0x68A JUMP JUMPDEST JUMPDEST DUP3 DUP3 DIV SWAP1 POP SWAP3 SWAP2 POP POP JUMP JUMPDEST PUSH32 0x4E487B7100000000000000000000000000000000000000000000000000000000 PUSH0 MSTORE PUSH1 0x22 PUSH1 0x4 MSTORE PUSH1 0x24 PUSH0 REVERT JUMPDEST PUSH0 PUSH1 0x2 DUP3 DIV SWAP1 POP PUSH1 0x1 DUP3 AND DUP1 PUSH2 0x72B JUMPI PUSH1 0x7F DUP3 AND SWAP2 POP JUMPDEST PUSH1 0x20 DUP3 LT DUP2 SUB PUSH2 0x73E JUMPI PUSH2 0x73D PUSH2 0x6E7 JUMP JUMPDEST JUMPDEST POP SWAP2 SWAP1 POP JUMP JUMPDEST PUSH0 DUP2 SWAP1 POP DUP2 PUSH0 MSTORE PUSH1 0x20 PUSH0 KECCAK256 SWAP1 POP SWAP2 SWAP1 POP JUMP JUMPDEST PUSH0 PUSH1 0x20 PUSH1 0x1F DUP4 ADD DIV SWAP1 POP SWAP2 SWAP1 POP JUMP JUMPDEST PUSH0 DUP3 DUP3 SHL SWAP1 POP SWAP3 SWAP2 POP POP JUMP JUMPDEST PUSH0 PUSH1 0x8 DUP4 MUL PUSH2 0x7A0 PUSH32 0xFFFFFFFFFFFFFFFFFFFFFFFFFFFFFFFFFFFFFFFFFFFFFFFFFFFFFFFFFFFFFFFF DUP3 PUSH2 0x765 JUMP JUMPDEST PUSH2 0x7AA DUP7 DUP4 PUSH2 0x765 JUMP JUMPDEST SWAP6 POP DUP1 NOT DUP5 AND SWAP4 POP DUP1 DUP7 AND DUP5 OR SWAP3 POP POP POP SWAP4 SWAP3 POP POP POP JUMP JUMPDEST PUSH0 DUP2 SWAP1 POP SWAP2 SWAP1 POP JUMP JUMPDEST PUSH0 PUSH2 0x7E5 PUSH2 0x7E0 PUSH2 0x7DB DUP5 PUSH2 0x361 JUMP JUMPDEST PUSH2 0x7C2 JUMP JUMPDEST PUSH2 0x361 JUMP JUMPDEST SWAP1 POP SWAP2 SWAP1 POP JUMP JUMPDEST PUSH0 DUP2 SWAP1 POP SWAP2 SWAP1 POP JUMP JUMPDEST PUSH2 0x7FE DUP4 PUSH2 0x7CB JUMP JUMPDEST PUSH2 0x812 PUSH2 0x80A DUP3 PUSH2 0x7EC JUMP JUMPDEST DUP5 DUP5 SLOAD PUSH2 0x771 JUMP JUMPDEST DUP3 SSTORE POP POP POP POP JUMP JUMPDEST PUSH0 PUSH0 SWAP1 POP SWAP1 JUMP JUMPDEST PUSH2 0x829 PUSH2 0x81A JUMP JUMPDEST PUSH2 0x834 DUP2 DUP5 DUP5 PUSH2 0x7F5 JUMP JUMPDEST POP POP POP JUMP JUMPDEST JUMPDEST DUP2 DUP2 LT ISZERO PUSH2 0x857 JUMPI PUSH2 0x84C PUSH0 DUP3 PUSH2 0x821 JUMP JUMPDEST PUSH1 0x1 DUP2 ADD SWAP1 POP PUSH2 0x83A JUMP JUMPDEST POP POP JUMP JUMPDEST PUSH1 0x1F DUP3 GT ISZERO PUSH2 0x89C JUMPI PUSH2 0x86D DUP2 PUSH2 0x744 JUMP JUMPDEST PUSH2 0x876 DUP5 PUSH2 0x756 JUMP JUMPDEST DUP2 ADD PUSH1 0x20 DUP6 LT ISZERO PUSH2 0x885 JUMPI DUP2 SWAP1 POP JUMPDEST PUSH2 0x899 PUSH2 0x891 DUP6 PUSH2 0x756 JUMP JUMPDEST DUP4 ADD DUP3 PUSH2 0x839 JUMP JUMPDEST POP POP JUMPDEST POP POP POP JUMP JUMPDEST PUSH0 DUP3 DUP3 SHR SWAP1 POP SWAP3 SWAP2 POP POP JUMP JUMPDEST PUSH0 PUSH2 0x8BC PUSH0 NOT DUP5 PUSH1 0x8 MUL PUSH2 0x8A1 JUMP JUMPDEST NOT DUP1 DUP4 AND SWAP2 POP POP SWAP3 SWAP2 POP POP JUMP JUMPDEST PUSH0 PUSH2 0x8D4 DUP4 DUP4 PUSH2 0x8AD JUMP JUMPDEST SWAP2 POP DUP3 PUSH1 0x2 MUL DUP3 OR SWAP1 POP SWAP3 SWAP2 POP POP JUMP JUMPDEST PUSH2 0x8ED DUP3 PUSH2 0x58E JUMP JUMPDEST PUSH8 0xFFFFFFFFFFFFFFFF DUP2 GT ISZERO PUSH2 0x906 JUMPI PUSH2 0x905 PUSH2 0x3BB JUMP JUMPDEST JUMPDEST PUSH2 0x910 DUP3 SLOAD PUSH2 0x714 JUMP JUMPDEST PUSH2 0x91B DUP3 DUP3 DUP6 PUSH2 0x85B JUMP JUMPDEST PUSH0 PUSH1 0x20 SWAP1 POP PUSH1 0x1F DUP4 GT PUSH1 0x1 DUP2 EQ PUSH2 0x94C JUMPI PUSH0 DUP5 ISZERO PUSH2 0x93A JUMPI DUP3 DUP8 ADD MLOAD SWAP1 POP JUMPDEST PUSH2 0x944 DUP6 DUP3 PUSH2 0x8C9 JUMP JUMPDEST DUP7 SSTORE POP PUSH2 0x9AB JUMP JUMPDEST PUSH1 0x1F NOT DUP5 AND PUSH2 0x95A DUP7 PUSH2 0x744 JUMP JUMPDEST PUSH0 JUMPDEST DUP3 DUP2 LT ISZERO PUSH2 0x981 JUMPI DUP5 DUP10 ADD MLOAD DUP3 SSTORE PUSH1 0x1 DUP3 ADD SWAP2 POP PUSH1 0x20 DUP6 ADD SWAP5 POP PUSH1 0x20 DUP2 ADD SWAP1 POP PUSH2 0x95C JUMP JUMPDEST DUP7 DUP4 LT ISZERO PUSH2 0x99E JUMPI DUP5 DUP10 ADD MLOAD PUSH2 0x99A PUSH1 0x1F DUP10 AND DUP3 PUSH2 0x8AD JUMP JUMPDEST DUP4 SSTORE POP JUMPDEST PUSH1 0x1 PUSH1 0x2 DUP9 MUL ADD DUP9 SSTORE POP POP POP JUMPDEST POP POP POP POP POP POP JUMP JUMPDEST PUSH0 PUSH2 0x9BD DUP3 PUSH2 0x361 JUMP JUMPDEST SWAP2 POP PUSH2 0x9C8 DUP4 PUSH2 0x361 JUMP JUMPDEST SWAP3 POP DUP3 DUP3 SUB SWAP1 POP DUP2 DUP2 GT ISZERO PUSH2 0x9E0 JUMPI PUSH2 0x9DF PUSH2 0x61C JUMP JUMPDEST JUMPDEST SWAP3 SWAP2 POP POP JUMP JUMPDEST PUSH0 PUSH2 0x9F0 DUP3 PUSH2 0x361 JUMP JUMPDEST SWAP2 POP PUSH2 0x9FB DUP4 PUSH2 0x361 JUMP JUMPDEST SWAP3 POP DUP3 DUP3 ADD SWAP1 POP DUP1 DUP3 GT ISZERO PUSH2 0xA13 JUMPI PUSH2 0xA12 PUSH2 0x61C JUMP JUMPDEST JUMPDEST SWAP3 SWAP2 POP POP JUMP INVALID LOG2 PUSH5 0x6970667358 0x22 SLT KECCAK256 0xA6 DUPN 0xA2 0xC 0xF SDIV CREATE2 COINBASE CODECOPY 0xBD 0xB5 SWAP7 SMOD PUSH11 0xB21BAA5FB84C1B69B98390 JUMPF 0x3D17 SLT 0xA7 0x28 ADDRESS PUSH5 0x736F6C6343 STOP ADDMOD 0x1F STOP CALLER "
		},
		"gasEstimates": {
			"creation": {
				"codeDepositCost": "527800",
				"executionCost": "560",
				"totalCost": "528360"
			},
			"external": {
				"People(uint256)": "infinite",
				"addition()": "infinite",
				"addpersons(string,uint256)": "infinite",
				"division()": "infinite",
				"firstNumber()": "2447",
				"multiplication()": "infinite",
				"secondNumber()": "2425",
				"setFirstNumber(uint256)": "22558",
				"setSecondNumber(uint256)": "22604",
				"subtraction()": "infinite"
			}
		},
		"methodIdentifiers": {
			"People(uint256)": "c7fb3468",
			"addition()": "ec597128",
			"addpersons(string,uint256)": "3fbd5bf0",
			"division()": "3205f5fc",
			"firstNumber()": "2173d6e9",
			"multiplication()": "011285da",
			"secondNumber()": "7cc5c136",
			"setFirstNumber(uint256)": "cd89e72a",
			"setSecondNumber(uint256)": "4caadbef",
			"subtraction()": "e3ec0251"
		}
	},
	"abi": [
		{
			"inputs": [
				{
					"internalType": "uint256",
					"name": "",
					"type": "uint256"
				}
			],
			"name": "People",
			"outputs": [
				{
					"internalType": "uint256",
					"name": "age",
					"type": "uint256"
				},
				{
					"internalType": "string",
					"name": "name",
					"type": "string"
				}
			],
			"stateMutability": "view",
			"type": "function"
		},
		{
			"inputs": [],
			"name": "addition",
			"outputs": [
				{
					"internalType": "uint256",
					"name": "",
					"type": "uint256"
				}
			],
			"stateMutability": "view",
			"type": "function"
		},
		{
			"inputs": [
				{
					"internalType": "string",
					"name": "_name",
					"type": "string"
				},
				{
					"internalType": "uint256",
					"name": "_age",
					"type": "uint256"
				}
			],
			"name": "addpersons",
			"outputs": [],
			"stateMutability": "nonpayable",
			"type": "function"
		},
		{
			"inputs": [],
			"name": "division",
			"outputs": [
				{
					"internalType": "uint256",
					"name": "",
					"type": "uint256"
				}
			],
			"stateMutability": "view",
			"type": "function"
		},
		{
			"inputs": [],
			"name": "firstNumber",
			"outputs": [
				{
					"internalType": "uint256",
					"name": "",
					"type": "uint256"
				}
			],
			"stateMutability": "view",
			"type": "function"
		},
		{
			"inputs": [],
			"name": "multiplication",
			"outputs": [
				{
					"internalType": "uint256",
					"name": "",
					"type": "uint256"
				}
			],
			"stateMutability": "view",
			"type": "function"
		},
		{
			"inputs": [],
			"name": "secondNumber",
			"outputs": [
				{
					"internalType": "uint256",
					"name": "",
					"type": "uint256"
				}
			],
			"stateMutability": "view",
			"type": "function"
		},
		{
			"inputs": [
				{
					"internalType": "uint256",
					"name": "_firstNumber",
					"type": "uint256"
				}
			],
			"name": "setFirstNumber",
			"outputs": [],
			"stateMutability": "nonpayable",
			"type": "function"
		},
		{
			"inputs": [
				{
					"internalType": "uint256",
					"name": "_secondNumber",
					"type": "uint256"
				}
			],
			"name": "setSecondNumber",
			"outputs": [],
			"stateMutability": "nonpayable",
			"type": "function"
		},
		{
			"inputs": [],
			"name": "subtraction",
			"outputs": [
				{
					"internalType": "uint256",
					"name": "",
					"type": "uint256"
				}
			],
			"stateMutability": "view",
			"type": "function"
		}
	]
}